{
  "abi": [
    {
      "inputs": [
        {
          "internalType": "address",
          "name": "veFxs",
          "type": "address"
        },
        {
          "internalType": "string",
          "name": "name",
          "type": "string"
        },
        {
          "internalType": "string",
          "name": "version",
          "type": "string"
        }
      ],
      "stateMutability": "nonpayable",
      "type": "constructor"
    },
    {
      "inputs": [],
      "name": "BlockNumberInFuture",
      "type": "error"
    },
    {
      "inputs": [],
      "name": "CantDelegateLockExpired",
      "type": "error"
    },
    {
      "inputs": [],
      "name": "IncorrectSelfDelegation",
      "type": "error"
    },
    {
      "inputs": [],
      "name": "InvalidShortString",
      "type": "error"
    },
    {
      "inputs": [],
      "name": "InvalidSignatureNonce",
      "type": "error"
    },
    {
      "inputs": [],
      "name": "NoExpirations",
      "type": "error"
    },
    {
      "inputs": [],
      "name": "SignatureExpired",
      "type": "error"
    },
    {
      "inputs": [
        {
          "internalType": "string",
          "name": "str",
          "type": "string"
        }
      ],
      "name": "StringTooLong",
      "type": "error"
    },
    {
      "inputs": [],
      "name": "TimestampInFuture",
      "type": "error"
    },
    {
      "anonymous": false,
      "inputs": [
        {
          "indexed": true,
          "internalType": "address",
          "name": "delegator",
          "type": "address"
        },
        {
          "indexed": true,
          "internalType": "address",
          "name": "fromDelegate",
          "type": "address"
        },
        {
          "indexed": true,
          "internalType": "address",
          "name": "toDelegate",
          "type": "address"
        }
      ],
      "name": "DelegateChanged",
      "type": "event"
    },
    {
      "anonymous": false,
      "inputs": [
        {
          "indexed": true,
          "internalType": "address",
          "name": "delegate",
          "type": "address"
        },
        {
          "indexed": false,
          "internalType": "uint256",
          "name": "previousBalance",
          "type": "uint256"
        },
        {
          "indexed": false,
          "internalType": "uint256",
          "name": "newBalance",
          "type": "uint256"
        }
      ],
      "name": "DelegateVotesChanged",
      "type": "event"
    },
    {
      "anonymous": false,
      "inputs": [],
      "name": "EIP712DomainChanged",
      "type": "event"
    },
    {
      "inputs": [
        {
          "internalType": "address",
          "name": "delegate",
          "type": "address"
        },
        {
          "internalType": "uint256",
          "name": "",
          "type": "uint256"
        }
      ],
      "name": "$delegateCheckpoints",
      "outputs": [
        {
          "internalType": "uint128",
          "name": "normalizedBias",
          "type": "uint128"
        },
        {
          "internalType": "uint128",
          "name": "totalFxs",
          "type": "uint128"
        },
        {
          "internalType": "uint128",
          "name": "normalizedSlope",
          "type": "uint128"
        },
        {
          "internalType": "uint128",
          "name": "timestamp",
          "type": "uint128"
        }
      ],
      "stateMutability": "view",
      "type": "function"
    },
    {
      "inputs": [
        {
          "internalType": "address",
          "name": "delegator",
          "type": "address"
        }
      ],
      "name": "$delegations",
      "outputs": [
        {
          "internalType": "address",
          "name": "delegate",
          "type": "address"
        },
        {
          "internalType": "uint48",
          "name": "firstDelegationTimestamp",
          "type": "uint48"
        },
        {
          "internalType": "uint48",
          "name": "expiry",
          "type": "uint48"
        },
        {
          "internalType": "uint96",
          "name": "bias",
          "type": "uint96"
        },
        {
          "internalType": "uint96",
          "name": "fxs",
          "type": "uint96"
        },
        {
          "internalType": "uint64",
          "name": "slope",
          "type": "uint64"
        }
      ],
      "stateMutability": "view",
      "type": "function"
    },
    {
      "inputs": [
        {
          "internalType": "address",
          "name": "delegate",
          "type": "address"
        },
        {
          "internalType": "uint256",
          "name": "week",
          "type": "uint256"
        }
      ],
      "name": "$expiredDelegations",
      "outputs": [
        {
          "internalType": "uint96",
          "name": "bias",
          "type": "uint96"
        },
        {
          "internalType": "uint96",
          "name": "fxs",
          "type": "uint96"
        },
        {
          "internalType": "uint64",
          "name": "slope",
          "type": "uint64"
        }
      ],
      "stateMutability": "view",
      "type": "function"
    },
    {
      "inputs": [
        {
          "internalType": "address",
          "name": "signer",
          "type": "address"
        }
      ],
      "name": "$nonces",
      "outputs": [
        {
          "internalType": "uint256",
          "name": "nonce",
          "type": "uint256"
        }
      ],
      "stateMutability": "view",
      "type": "function"
    },
    {
      "inputs": [],
      "name": "CLOCK_MODE",
      "outputs": [
        {
          "internalType": "string",
          "name": "",
          "type": "string"
        }
      ],
      "stateMutability": "pure",
      "type": "function"
    },
    {
      "inputs": [],
      "name": "DELEGATION_TYPEHASH",
      "outputs": [
        {
          "internalType": "bytes32",
          "name": "",
          "type": "bytes32"
        }
      ],
      "stateMutability": "view",
      "type": "function"
    },
    {
      "inputs": [],
      "name": "MAX_LOCK_DURATION",
      "outputs": [
        {
          "internalType": "uint256",
          "name": "",
          "type": "uint256"
        }
      ],
      "stateMutability": "view",
      "type": "function"
    },
    {
      "inputs": [],
      "name": "VE_FXS",
      "outputs": [
        {
          "internalType": "contract IVeFxs",
          "name": "",
          "type": "address"
        }
      ],
      "stateMutability": "view",
      "type": "function"
    },
    {
      "inputs": [],
      "name": "VOTE_WEIGHT_MULTIPLIER",
      "outputs": [
        {
          "internalType": "uint256",
          "name": "",
          "type": "uint256"
        }
      ],
      "stateMutability": "view",
      "type": "function"
    },
    {
      "inputs": [],
      "name": "WEEK",
      "outputs": [
        {
          "internalType": "uint256",
          "name": "",
          "type": "uint256"
        }
      ],
      "stateMutability": "view",
      "type": "function"
    },
    {
      "inputs": [
        {
          "internalType": "address",
          "name": "delegateAddress",
          "type": "address"
        }
      ],
      "name": "calculateExpiredDelegations",
      "outputs": [
        {
          "components": [
            {
              "internalType": "uint128",
              "name": "normalizedBias",
              "type": "uint128"
            },
            {
              "internalType": "uint128",
              "name": "totalFxs",
              "type": "uint128"
            },
            {
              "internalType": "uint128",
              "name": "normalizedSlope",
              "type": "uint128"
            },
            {
              "internalType": "uint128",
              "name": "timestamp",
              "type": "uint128"
            }
          ],
          "internalType": "struct IVeFxsVotingDelegation.DelegateCheckpoint",
          "name": "calculatedCheckpoint",
          "type": "tuple"
        }
      ],
      "stateMutability": "view",
      "type": "function"
    },
    {
      "inputs": [],
      "name": "clock",
      "outputs": [
        {
          "internalType": "uint48",
          "name": "",
          "type": "uint48"
        }
      ],
      "stateMutability": "view",
      "type": "function"
    },
    {
      "inputs": [
        {
          "internalType": "address",
          "name": "delegatee",
          "type": "address"
        }
      ],
      "name": "delegate",
      "outputs": [],
      "stateMutability": "nonpayable",
      "type": "function"
    },
    {
      "inputs": [
        {
          "internalType": "address",
          "name": "delegatee",
          "type": "address"
        },
        {
          "internalType": "uint256",
          "name": "nonce",
          "type": "uint256"
        },
        {
          "internalType": "uint256",
          "name": "expiry",
          "type": "uint256"
        },
        {
          "internalType": "uint8",
          "name": "v",
          "type": "uint8"
        },
        {
          "internalType": "bytes32",
          "name": "r",
          "type": "bytes32"
        },
        {
          "internalType": "bytes32",
          "name": "s",
          "type": "bytes32"
        }
      ],
      "name": "delegateBySig",
      "outputs": [],
      "stateMutability": "nonpayable",
      "type": "function"
    },
    {
      "inputs": [
        {
          "internalType": "address",
          "name": "delegator",
          "type": "address"
        }
      ],
      "name": "delegates",
      "outputs": [
        {
          "internalType": "address",
          "name": "delegateAddress",
          "type": "address"
        }
      ],
      "stateMutability": "view",
      "type": "function"
    },
    {
      "inputs": [],
      "name": "eip712Domain",
      "outputs": [
        {
          "internalType": "bytes1",
          "name": "fields",
          "type": "bytes1"
        },
        {
          "internalType": "string",
          "name": "name",
          "type": "string"
        },
        {
          "internalType": "string",
          "name": "version",
          "type": "string"
        },
        {
          "internalType": "uint256",
          "name": "chainId",
          "type": "uint256"
        },
        {
          "internalType": "address",
          "name": "verifyingContract",
          "type": "address"
        },
        {
          "internalType": "bytes32",
          "name": "salt",
          "type": "bytes32"
        },
        {
          "internalType": "uint256[]",
          "name": "extensions",
          "type": "uint256[]"
        }
      ],
      "stateMutability": "view",
      "type": "function"
    },
    {
      "inputs": [
        {
          "internalType": "address",
          "name": "delegateAddress",
          "type": "address"
        },
        {
          "internalType": "uint32",
          "name": "index",
          "type": "uint32"
        }
      ],
      "name": "getCheckpoint",
      "outputs": [
        {
          "components": [
            {
              "internalType": "uint128",
              "name": "normalizedBias",
              "type": "uint128"
            },
            {
              "internalType": "uint128",
              "name": "totalFxs",
              "type": "uint128"
            },
            {
              "internalType": "uint128",
              "name": "normalizedSlope",
              "type": "uint128"
            },
            {
              "internalType": "uint128",
              "name": "timestamp",
              "type": "uint128"
            }
          ],
          "internalType": "struct IVeFxsVotingDelegation.DelegateCheckpoint",
          "name": "",
          "type": "tuple"
        }
      ],
      "stateMutability": "view",
      "type": "function"
    },
    {
      "inputs": [
        {
          "internalType": "uint256",
          "name": "blockNumber",
          "type": "uint256"
        }
      ],
      "name": "getPastTotalSupply",
      "outputs": [
        {
          "internalType": "uint256",
          "name": "pastTotalSupply",
          "type": "uint256"
        }
      ],
      "stateMutability": "view",
      "type": "function"
    },
    {
      "inputs": [
        {
          "internalType": "address",
          "name": "voter",
          "type": "address"
        },
        {
          "internalType": "uint256",
          "name": "timepoint",
          "type": "uint256"
        }
      ],
      "name": "getPastVotes",
      "outputs": [
        {
          "internalType": "uint256",
          "name": "pastVotingWeight",
          "type": "uint256"
        }
      ],
      "stateMutability": "view",
      "type": "function"
    },
    {
      "inputs": [
        {
          "internalType": "address",
          "name": "voter",
          "type": "address"
        }
      ],
      "name": "getVotes",
      "outputs": [
        {
          "internalType": "uint256",
          "name": "votingWeight",
          "type": "uint256"
        }
      ],
      "stateMutability": "view",
      "type": "function"
    },
    {
      "inputs": [
        {
          "internalType": "address",
          "name": "voter",
          "type": "address"
        },
        {
          "internalType": "uint256",
          "name": "timepoint",
          "type": "uint256"
        }
      ],
      "name": "getVotes",
      "outputs": [
        {
          "internalType": "uint256",
          "name": "",
          "type": "uint256"
        }
      ],
      "stateMutability": "view",
      "type": "function"
    },
    {
      "inputs": [
        {
          "internalType": "address",
          "name": "delegateAddress",
          "type": "address"
        }
      ],
      "name": "writeNewCheckpointForExpiredDelegations",
      "outputs": [],
      "stateMutability": "nonpayable",
      "type": "function"
    }
  ],
  "bytecode": {
    "object": "0x6101806040523480156200001257600080fd5b50604051620054ac380380620054ac83398181016040528101906200003891906200044c565b8181620000506000836200012860201b90919060201c565b61012081815250506200006e6001826200012860201b90919060201c565b6101408181525050818051906020012060e08181525050808051906020012061010081815250504660a08181525050620000ad6200018060201b60201c565b608081815250503073ffffffffffffffffffffffffffffffffffffffff1660c08173ffffffffffffffffffffffffffffffffffffffff168152505050508273ffffffffffffffffffffffffffffffffffffffff166101608173ffffffffffffffffffffffffffffffffffffffff1681525050505050620009ca565b60006020835110156200014e576200014683620001dd60201b60201c565b90506200017a565b8262000160836200024a60201b60201c565b600001908162000171919062000731565b5060ff60001b90505b92915050565b60007f8b73c3c69bb8fe3d512ecc4cf759cc79239f7b179b0ffacaa9a75d522b39400f60e051610100514630604051602001620001c295949392919062000855565b60405160208183030381529060405280519060200120905090565b600080829050601f815111156200022d57826040517f305a27a900000000000000000000000000000000000000000000000000000000815260040162000224919062000904565b60405180910390fd5b8051816200023b906200095a565b60001c1760001b915050919050565b6000819050919050565b6000604051905090565b600080fd5b600080fd5b600073ffffffffffffffffffffffffffffffffffffffff82169050919050565b6000620002958262000268565b9050919050565b620002a78162000288565b8114620002b357600080fd5b50565b600081519050620002c7816200029c565b92915050565b600080fd5b600080fd5b6000601f19601f8301169050919050565b7f4e487b7100000000000000000000000000000000000000000000000000000000600052604160045260246000fd5b6200032282620002d7565b810181811067ffffffffffffffff82111715620003445762000343620002e8565b5b80604052505050565b60006200035962000254565b905062000367828262000317565b919050565b600067ffffffffffffffff8211156200038a5762000389620002e8565b5b6200039582620002d7565b9050602081019050919050565b60005b83811015620003c2578082015181840152602081019050620003a5565b60008484015250505050565b6000620003e5620003df846200036c565b6200034d565b905082815260208101848484011115620004045762000403620002d2565b5b62000411848285620003a2565b509392505050565b600082601f830112620004315762000430620002cd565b5b815162000443848260208601620003ce565b91505092915050565b6000806000606084860312156200046857620004676200025e565b5b60006200047886828701620002b6565b935050602084015167ffffffffffffffff8111156200049c576200049b62000263565b5b620004aa8682870162000419565b925050604084015167ffffffffffffffff811115620004ce57620004cd62000263565b5b620004dc8682870162000419565b9150509250925092565b600081519050919050565b7f4e487b7100000000000000000000000000000000000000000000000000000000600052602260045260246000fd5b600060028204905060018216806200053957607f821691505b6020821081036200054f576200054e620004f1565b5b50919050565b60008190508160005260206000209050919050565b60006020601f8301049050919050565b600082821b905092915050565b600060088302620005b97fffffffffffffffffffffffffffffffffffffffffffffffffffffffffffffffff826200057a565b620005c586836200057a565b95508019841693508086168417925050509392505050565b6000819050919050565b6000819050919050565b6000620006126200060c6200060684620005dd565b620005e7565b620005dd565b9050919050565b6000819050919050565b6200062e83620005f1565b620006466200063d8262000619565b84845462000587565b825550505050565b600090565b6200065d6200064e565b6200066a81848462000623565b505050565b5b8181101562000692576200068660008262000653565b60018101905062000670565b5050565b601f821115620006e157620006ab8162000555565b620006b6846200056a565b81016020851015620006c6578190505b620006de620006d5856200056a565b8301826200066f565b50505b505050565b600082821c905092915050565b60006200070660001984600802620006e6565b1980831691505092915050565b6000620007218383620006f3565b9150826002028217905092915050565b6200073c82620004e6565b67ffffffffffffffff811115620007585762000757620002e8565b5b62000764825462000520565b6200077182828562000696565b600060209050601f831160018114620007a9576000841562000794578287015190505b620007a0858262000713565b86555062000810565b601f198416620007b98662000555565b60005b82811015620007e357848901518255600182019150602085019450602081019050620007bc565b86831015620008035784890151620007ff601f891682620006f3565b8355505b6001600288020188555050505b505050505050565b6000819050919050565b6200082d8162000818565b82525050565b6200083e81620005dd565b82525050565b6200084f8162000288565b82525050565b600060a0820190506200086c600083018862000822565b6200087b602083018762000822565b6200088a604083018662000822565b62000899606083018562000833565b620008a8608083018462000844565b9695505050505050565b600082825260208201905092915050565b6000620008d082620004e6565b620008dc8185620008b2565b9350620008ee818560208601620003a2565b620008f981620002d7565b840191505092915050565b60006020820190508181036000830152620009208184620008c3565b905092915050565b600081519050919050565b6000819050602082019050919050565b600062000951825162000818565b80915050919050565b6000620009678262000928565b82620009738462000933565b9050620009808162000943565b92506020821015620009c357620009be7fffffffffffffffffffffffffffffffffffffffffffffffffffffffffffffffff836020036008026200057a565b831692505b5050919050565b60805160a05160c05160e05161010051610120516101405161016051614a4b62000a6160003960008181610ad501528181610e3001528181611bbf01528181611cde01528181611d9801528181611e7201528181611f130152611fb901526000610d3801526000610d0401526000613a01015260006139e001526000612c1d01526000612c7301526000612c9c0152614a4b6000f3fe608060405234801561001057600080fd5b50600436106101825760003560e01c806375f9e396116100d85780639ab24eb01161008c578063e7a324dc11610066578063e7a324dc1461047f578063eb9019d41461049d578063f4359ce5146104cd57610182565b80639ab24eb014610417578063b061282114610447578063c3cda5201461046357610182565b80638e539e8c116100bd5780638e539e8c146103ab57806391ddadf4146103db578063944c3930146103f957610182565b806375f9e3961461035457806384b0196e1461038757610182565b80634bf5d7e91161013a578063587cde1e11610114578063587cde1e146102d35780635c19a95c146103035780636e22c4af1461031f57610182565b80634bf5d7e9146102795780634f1bfc9e14610297578063506d1f81146102b557610182565b806334940fa81161016b57806334940fa8146101e95780633a46b1a8146102195780633b3eb8a61461024957610182565b8063101f46d5146101875780631c945412146101b7575b600080fd5b6101a1600480360381019061019c9190613b7c565b6104eb565b6040516101ae9190613bc2565b60405180910390f35b6101d160048036038101906101cc9190613c09565b610503565b6040516101e093929190613c93565b60405180910390f35b61020360048036038101906101fe9190613d06565b61057e565b6040516102109190613dc6565b60405180910390f35b610233600480360381019061022e9190613c09565b610726565b6040516102409190613bc2565b60405180910390f35b610263600480360381019061025e9190613b7c565b610773565b6040516102709190613dc6565b60405180910390f35b610281610a8e565b60405161028e9190613e71565b60405180910390f35b61029f610acb565b6040516102ac9190613bc2565b60405180910390f35b6102bd610ad3565b6040516102ca9190613ef2565b60405180910390f35b6102ed60048036038101906102e89190613b7c565b610af7565b6040516102fa9190613f1c565b60405180910390f35b61031d60048036038101906103189190613b7c565b610b63565b005b61033960048036038101906103349190613b7c565b610b70565b60405161034b96959493929190613f58565b60405180910390f35b61036e60048036038101906103699190613c09565b610c34565b60405161037e9493929190613fc8565b60405180910390f35b61038f610cf1565b6040516103a2979695949392919061411f565b60405180910390f35b6103c560048036038101906103c091906141a3565b610df3565b6040516103d29190613bc2565b60405180910390f35b6103e3610ecf565b6040516103f091906141d0565b60405180910390f35b610401610ed7565b60405161040e9190613bc2565b60405180910390f35b610431600480360381019061042c9190613b7c565b610edc565b60405161043e9190613bc2565b60405180910390f35b610461600480360381019061045c9190613b7c565b610eef565b005b61047d60048036038101906104789190614250565b6110b7565b005b6104876111f7565b60405161049491906142dd565b60405180910390f35b6104b760048036038101906104b29190613c09565b61121e565b6040516104c49190613bc2565b60405180910390f35b6104d5611232565b6040516104e29190613bc2565b60405180910390f35b60026020528060005260406000206000915090505481565b6005602052816000526040600020602052806000526040600020600091509150508060000160009054906101000a90046bffffffffffffffffffffffff169080600001600c9054906101000a90046bffffffffffffffffffffffff16908060000160189054906101000a900467ffffffffffffffff16905083565b610586613a77565b600460008473ffffffffffffffffffffffffffffffffffffffff1673ffffffffffffffffffffffffffffffffffffffff1681526020019081526020016000208263ffffffff16815481106105dd576105dc6142f8565b5b90600052602060002090600202016040518060800160405290816000820160009054906101000a90046fffffffffffffffffffffffffffffffff166fffffffffffffffffffffffffffffffff166fffffffffffffffffffffffffffffffff1681526020016000820160109054906101000a90046fffffffffffffffffffffffffffffffff166fffffffffffffffffffffffffffffffff166fffffffffffffffffffffffffffffffff1681526020016001820160009054906101000a90046fffffffffffffffffffffffffffffffff166fffffffffffffffffffffffffffffffff166fffffffffffffffffffffffffffffffff1681526020016001820160109054906101000a90046fffffffffffffffffffffffffffffffff166fffffffffffffffffffffffffffffffff166fffffffffffffffffffffffffffffffff1681525050905092915050565b6000428210610761576040517f47860b9700000000000000000000000000000000000000000000000000000000815260040160405180910390fd5b61076b8383611239565b905092915050565b61077b613a77565b6000600460008473ffffffffffffffffffffffffffffffffffffffff1673ffffffffffffffffffffffffffffffffffffffff16815260200190815260200160002090506000620151808062015180426107d49190614385565b6107de91906143b6565b6107e891906143f8565b90506000828054905090506000810361080357505050610a89565b600083600183610813919061442c565b81548110610824576108236142f8565b5b90600052602060002090600202016040518060800160405290816000820160009054906101000a90046fffffffffffffffffffffffffffffffff166fffffffffffffffffffffffffffffffff166fffffffffffffffffffffffffffffffff1681526020016000820160109054906101000a90046fffffffffffffffffffffffffffffffff166fffffffffffffffffffffffffffffffff166fffffffffffffffffffffffffffffffff1681526020016001820160009054906101000a90046fffffffffffffffffffffffffffffffff166fffffffffffffffffffffffffffffffff166fffffffffffffffffffffffffffffffff1681526020016001820160109054906101000a90046fffffffffffffffffffffffffffffffff166fffffffffffffffffffffffffffffffff166fffffffffffffffffffffffffffffffff168152505090508281606001516fffffffffffffffffffffffffffffffff160361098d5750505050610a89565b60008060006109b48985606001516fffffffffffffffffffffffffffffffff168887611261565b925092509250600081036109ce5750505050505050610a89565b60405180608001604052808486600001516fffffffffffffffffffffffffffffffff16036fffffffffffffffffffffffffffffffff1681526020018286602001516fffffffffffffffffffffffffffffffff16036fffffffffffffffffffffffffffffffff1681526020018386604001516fffffffffffffffffffffffffffffffff16036fffffffffffffffffffffffffffffffff168152602001876fffffffffffffffffffffffffffffffff168152509750505050505050505b919050565b60606040518060400160405280600e81526020017f6d6f64653d74696d657374616d70000000000000000000000000000000000000815250905090565b630784ce0081565b7f000000000000000000000000000000000000000000000000000000000000000081565b6000600360008373ffffffffffffffffffffffffffffffffffffffff1673ffffffffffffffffffffffffffffffffffffffff16815260200190815260200160002060000160009054906101000a900473ffffffffffffffffffffffffffffffffffffffff169050919050565b610b6d3382611459565b50565b60036020528060005260406000206000915090508060000160009054906101000a900473ffffffffffffffffffffffffffffffffffffffff16908060000160149054906101000a900465ffffffffffff169080600001601a9054906101000a900465ffffffffffff16908060010160009054906101000a90046bffffffffffffffffffffffff169080600101600c9054906101000a90046bffffffffffffffffffffffff16908060010160189054906101000a900467ffffffffffffffff16905086565b60046020528160005260406000208181548110610c5057600080fd5b9060005260206000209060020201600091509150508060000160009054906101000a90046fffffffffffffffffffffffffffffffff16908060000160109054906101000a90046fffffffffffffffffffffffffffffffff16908060010160009054906101000a90046fffffffffffffffffffffffffffffffff16908060010160109054906101000a90046fffffffffffffffffffffffffffffffff16905084565b600060608060008060006060610d3160007f000000000000000000000000000000000000000000000000000000000000000061195890919063ffffffff16565b610d6560017f000000000000000000000000000000000000000000000000000000000000000061195890919063ffffffff16565b46306000801b600067ffffffffffffffff811115610d8657610d85614460565b5b604051908082528060200260200182016040528015610db45781602001602082028036833780820191505090505b507f0f00000000000000000000000000000000000000000000000000000000000000959493929190965096509650965096509650965090919293949596565b6000438210610e2e576040517f089b2f6f00000000000000000000000000000000000000000000000000000000815260040160405180910390fd5b7f000000000000000000000000000000000000000000000000000000000000000073ffffffffffffffffffffffffffffffffffffffff1663981b24d0836040518263ffffffff1660e01b8152600401610e879190613bc2565b602060405180830381865afa158015610ea4573d6000803e3d6000fd5b505050506040513d601f19601f82011682018060405250810190610ec891906144a4565b9050919050565b600042905090565b600381565b6000610ee88242611239565b9050919050565b6000610efa82610773565b9050600081606001516fffffffffffffffffffffffffffffffff1603610f4c576040517fc1ccb3d100000000000000000000000000000000000000000000000000000000815260040160405180910390fd5b600460008373ffffffffffffffffffffffffffffffffffffffff1673ffffffffffffffffffffffffffffffffffffffff16815260200190815260200160002081908060018154018082558091505060019003906000526020600020906002020160009091909190915060008201518160000160006101000a8154816fffffffffffffffffffffffffffffffff02191690836fffffffffffffffffffffffffffffffff16021790555060208201518160000160106101000a8154816fffffffffffffffffffffffffffffffff02191690836fffffffffffffffffffffffffffffffff16021790555060408201518160010160006101000a8154816fffffffffffffffffffffffffffffffff02191690836fffffffffffffffffffffffffffffffff16021790555060608201518160010160106101000a8154816fffffffffffffffffffffffffffffffff02191690836fffffffffffffffffffffffffffffffff16021790555050505050565b834211156110f1576040517f0819bdcd00000000000000000000000000000000000000000000000000000000815260040160405180910390fd5b600061115661114e7fe48329057bfd03d55e49b547132e39cffd9c1820ad7b9d4c5307691425d15adf60001b89898960405160200161113394939291906144d1565b60405160208183030381529060405280519060200120611a08565b858585611a22565b9050600260008273ffffffffffffffffffffffffffffffffffffffff1673ffffffffffffffffffffffffffffffffffffffff16815260200190815260200160002060008154809291906111a890614516565b9190505586146111e4576040517fc4689a5400000000000000000000000000000000000000000000000000000000815260040160405180910390fd5b6111ee8188611459565b50505050505050565b7fe48329057bfd03d55e49b547132e39cffd9c1820ad7b9d4c5307691425d15adf60001b81565b600061122a8383611239565b905092915050565b62093a8081565b60006112458383611a4d565b61124f8484611bba565b61125991906143f8565b905092915050565b6000806000630784ce0086018511156112c45783600001516fffffffffffffffffffffffffffffffff16925083604001516fffffffffffffffffffffffffffffffff16915083602001516fffffffffffffffffffffffffffffffff16905061144f565b600062093a808088816112da576112d9614327565b5b040262093a800190506000600560008a73ffffffffffffffffffffffffffffffffffffffff1673ffffffffffffffffffffffffffffffffffffffff16815260200190815260200160002090505b86821161144c5760008160008481526020019081526020016000206040518060600160405290816000820160009054906101000a90046bffffffffffffffffffffffff166bffffffffffffffffffffffff166bffffffffffffffffffffffff16815260200160008201600c9054906101000a90046bffffffffffffffffffffffff166bffffffffffffffffffffffff166bffffffffffffffffffffffff1681526020016000820160189054906101000a900467ffffffffffffffff1667ffffffffffffffff1667ffffffffffffffff1681525050905080600001516bffffffffffffffffffffffff1686019550806040015167ffffffffffffffff168501945080602001516bffffffffffffffffffffffff168401935062093a808301925050611327565b50505b9450945094915050565b600073ffffffffffffffffffffffffffffffffffffffff168173ffffffffffffffffffffffffffffffffffffffff16036114bf576040517f3252b88f00000000000000000000000000000000000000000000000000000000815260040160405180910390fd5b6000600360008473ffffffffffffffffffffffffffffffffffffffff1673ffffffffffffffffffffffffffffffffffffffff1681526020019081526020016000206040518060c00160405290816000820160009054906101000a900473ffffffffffffffffffffffffffffffffffffffff1673ffffffffffffffffffffffffffffffffffffffff1673ffffffffffffffffffffffffffffffffffffffff1681526020016000820160149054906101000a900465ffffffffffff1665ffffffffffff1665ffffffffffff16815260200160008201601a9054906101000a900465ffffffffffff1665ffffffffffff1665ffffffffffff1681526020016001820160009054906101000a90046bffffffffffffffffffffffff166bffffffffffffffffffffffff166bffffffffffffffffffffffff16815260200160018201600c9054906101000a90046bffffffffffffffffffffffff166bffffffffffffffffffffffff166bffffffffffffffffffffffff1681526020016001820160189054906101000a900467ffffffffffffffff1667ffffffffffffffff1667ffffffffffffffff1681525050905060006201518080620151804261167f9190614385565b61168991906143b6565b61169391906143f8565b905060006116a18583611d8c565b90506116ad83836120b9565b6116b8848284612647565b6040518060c001604052808573ffffffffffffffffffffffffffffffffffffffff1681526020016000856020015165ffffffffffff16146116fd5784602001516116ff565b835b65ffffffffffff168152602001826060015165ffffffffffff16815260200182600001516bffffffffffffffffffffffff16815260200182604001516bffffffffffffffffffffffff168152602001826020015167ffffffffffffffff16815250600360008773ffffffffffffffffffffffffffffffffffffffff1673ffffffffffffffffffffffffffffffffffffffff16815260200190815260200160002060008201518160000160006101000a81548173ffffffffffffffffffffffffffffffffffffffff021916908373ffffffffffffffffffffffffffffffffffffffff16021790555060208201518160000160146101000a81548165ffffffffffff021916908365ffffffffffff160217905550604082015181600001601a6101000a81548165ffffffffffff021916908365ffffffffffff16021790555060608201518160010160006101000a8154816bffffffffffffffffffffffff02191690836bffffffffffffffffffffffff160217905550608082015181600101600c6101000a8154816bffffffffffffffffffffffff02191690836bffffffffffffffffffffffff16021790555060a08201518160010160186101000a81548167ffffffffffffffff021916908367ffffffffffffffff1602179055509050508373ffffffffffffffffffffffffffffffffffffffff16836000015173ffffffffffffffffffffffffffffffffffffffff168673ffffffffffffffffffffffffffffffffffffffff167f3134e8a2e6d97e929a7e54011ea5485d7d196dd5f0ba4d4ef95803e8e3fc257f60405160405180910390a45050505050565b606060ff60001b83146119755761196e83612ba5565b9050611a02565b8180546119819061458d565b80601f01602080910402602001604051908101604052809291908181526020018280546119ad9061458d565b80156119fa5780601f106119cf576101008083540402835291602001916119fa565b820191906000526020600020905b8154815290600101906020018083116119dd57829003601f168201915b505050505090505b92915050565b6000611a1b611a15612c19565b83612cd0565b9050919050565b6000806000611a3387878787612d11565b91509150611a4081612df3565b8192505050949350505050565b600080611a98600460008673ffffffffffffffffffffffffffffffffffffffff1673ffffffffffffffffffffffffffffffffffffffff16815260200190815260200160002084612f59565b9050600081606001516fffffffffffffffffffffffffffffffff1603611ac2576000915050611bb4565b6000806000611ae98785606001516fffffffffffffffffffffffffffffffff168887611261565b92509250925060008385600001516fffffffffffffffffffffffffffffffff16611b13919061442c565b905060008386604001516fffffffffffffffffffffffffffffffff16611b39919061442c565b905060008387602001516fffffffffffffffffffffffffffffffff16611b5f919061442c565b905060008983611b6f91906143b6565b90506000818511611b81576000611b8e565b8185611b8d919061442c565b5b9050806003611b9d91906143b6565b83611ba891906143f8565b99505050505050505050505b92915050565b6000817f000000000000000000000000000000000000000000000000000000000000000073ffffffffffffffffffffffffffffffffffffffff1663cbf9fe5f856040518263ffffffff1660e01b8152600401611c169190613f1c565b6040805180830381865afa158015611c32573d6000803e3d6000fd5b505050506040513d601f19601f82011682018060405250810190611c569190614698565b6020015111611c685760009050611d86565b6000600360008573ffffffffffffffffffffffffffffffffffffffff1673ffffffffffffffffffffffffffffffffffffffff16815260200190815260200160002060000160149054906101000a900465ffffffffffff1665ffffffffffff1690506000811480611cd757508083105b15611d80577f000000000000000000000000000000000000000000000000000000000000000073ffffffffffffffffffffffffffffffffffffffff1662fdd58e85856040518363ffffffff1660e01b8152600401611d369291906146c5565b602060405180830381865afa925050508015611d7057506040513d601f19601f82011682018060405250810190611d6d91906144a4565b60015b15611d7f578092505050611d86565b5b60009150505b92915050565b611d94613ae7565b60007f000000000000000000000000000000000000000000000000000000000000000073ffffffffffffffffffffffffffffffffffffffff1663cbf9fe5f856040518263ffffffff1660e01b8152600401611def9190613f1c565b6040805180830381865afa158015611e0b573d6000803e3d6000fd5b505050506040513d601f19601f82011682018060405250810190611e2f9190614698565b602001519050828111611e6e576040517f1427111000000000000000000000000000000000000000000000000000000000815260040160405180910390fd5b60007f000000000000000000000000000000000000000000000000000000000000000073ffffffffffffffffffffffffffffffffffffffff1663010ae757866040518263ffffffff1660e01b8152600401611ec99190613f1c565b602060405180830381865afa158015611ee6573d6000803e3d6000fd5b505050506040513d601f19601f82011682018060405250810190611f0a91906144a4565b905060008060007f000000000000000000000000000000000000000000000000000000000000000073ffffffffffffffffffffffffffffffffffffffff166328d09d4789866040518363ffffffff1660e01b8152600401611f6c9291906146c5565b60a060405180830381865afa158015611f89573d6000803e3d6000fd5b505050506040513d601f19601f82011682018060405250810190611fad91906146ee565b945050509250925060007f000000000000000000000000000000000000000000000000000000000000000073ffffffffffffffffffffffffffffffffffffffff1663da020a188a876040518363ffffffff1660e01b81526004016120129291906146c5565b602060405180830381865afa15801561202f573d6000803e3d6000fd5b505050506040513d601f19601f8201168201806040525081019061205391906144a4565b905061206183600f0b61327a565b876020018181525050818760400181815250508587606001818152505080876020015161208e91906143b6565b61209a85600f0b61327a565b6120a491906143f8565b87600001818152505050505050505092915050565b600073ffffffffffffffffffffffffffffffffffffffff16826000015173ffffffffffffffffffffffffffffffffffffffff161461264357600060046000846000015173ffffffffffffffffffffffffffffffffffffffff1673ffffffffffffffffffffffffffffffffffffffff1681526020019081526020016000209050600081805490509050600082600183612151919061442c565b81548110612162576121616142f8565b5b90600052602060002090600202016040518060800160405290816000820160009054906101000a90046fffffffffffffffffffffffffffffffff166fffffffffffffffffffffffffffffffff166fffffffffffffffffffffffffffffffff1681526020016000820160109054906101000a90046fffffffffffffffffffffffffffffffff166fffffffffffffffffffffffffffffffff166fffffffffffffffffffffffffffffffff1681526020016001820160009054906101000a90046fffffffffffffffffffffffffffffffff166fffffffffffffffffffffffffffffffff166fffffffffffffffffffffffffffffffff1681526020016001820160109054906101000a90046fffffffffffffffffffffffffffffffff166fffffffffffffffffffffffffffffffff166fffffffffffffffffffffffffffffffff1681525050905060006122b5866000015186611239565b905084866040015165ffffffffffff16111561257957600060056000886000015173ffffffffffffffffffffffffffffffffffffffff1673ffffffffffffffffffffffffffffffffffffffff1681526020019081526020016000206000886040015165ffffffffffff1681526020019081526020016000206040518060600160405290816000820160009054906101000a90046bffffffffffffffffffffffff166bffffffffffffffffffffffff166bffffffffffffffffffffffff16815260200160008201600c9054906101000a90046bffffffffffffffffffffffff166bffffffffffffffffffffffff166bffffffffffffffffffffffff1681526020016000820160189054906101000a900467ffffffffffffffff1667ffffffffffffffff1667ffffffffffffffff16815250509050866060015181600001818151039150906bffffffffffffffffffffffff1690816bffffffffffffffffffffffff16815250508660a00151816040018181510391509067ffffffffffffffff16908167ffffffffffffffff1681525050866080015181602001818151039150906bffffffffffffffffffffffff1690816bffffffffffffffffffffffff16815250508060056000896000015173ffffffffffffffffffffffffffffffffffffffff1673ffffffffffffffffffffffffffffffffffffffff1681526020019081526020016000206000896040015165ffffffffffff16815260200190815260200160002060008201518160000160006101000a8154816bffffffffffffffffffffffff02191690836bffffffffffffffffffffffff160217905550602082015181600001600c6101000a8154816bffffffffffffffffffffffff02191690836bffffffffffffffffffffffff16021790555060408201518160000160186101000a81548167ffffffffffffffff021916908367ffffffffffffffff160217905550905050505b60006125ce83886000015160008a606001516bffffffffffffffffffffffff168b60a0015167ffffffffffffffff168c608001516bffffffffffffffffffffffff168c8e6040015165ffffffffffff166132c7565b90506125dc858583866136c9565b50856000015173ffffffffffffffffffffffffffffffffffffffff167fdec2bacdd2f05b59de34da9b523dff8be42e5e38e818c82fdb0bae774387a72482612628896000015189611239565b604051612636929190614769565b60405180910390a2505050505b5050565b6000600460008573ffffffffffffffffffffffffffffffffffffffff1673ffffffffffffffffffffffffffffffffffffffff1681526020019081526020016000209050600081805490509050600080821461280157826001836126aa919061442c565b815481106126bb576126ba6142f8565b5b90600052602060002090600202016040518060800160405290816000820160009054906101000a90046fffffffffffffffffffffffffffffffff166fffffffffffffffffffffffffffffffff166fffffffffffffffffffffffffffffffff1681526020016000820160109054906101000a90046fffffffffffffffffffffffffffffffff166fffffffffffffffffffffffffffffffff166fffffffffffffffffffffffffffffffff1681526020016001820160009054906101000a90046fffffffffffffffffffffffffffffffff166fffffffffffffffffffffffffffffffff166fffffffffffffffffffffffffffffffff1681526020016001820160109054906101000a90046fffffffffffffffffffffffffffffffff166fffffffffffffffffffffffffffffffff166fffffffffffffffffffffffffffffffff168152505061286f565b604051806080016040528060006fffffffffffffffffffffffffffffffff16815260200160006fffffffffffffffffffffffffffffffff16815260200160006fffffffffffffffffffffffffffffffff16815260200160006fffffffffffffffffffffffffffffffff168152505b9050600061287d8786611239565b90506000600560008973ffffffffffffffffffffffffffffffffffffffff1673ffffffffffffffffffffffffffffffffffffffff1681526020019081526020016000206000886060015181526020019081526020016000206040518060600160405290816000820160009054906101000a90046bffffffffffffffffffffffff166bffffffffffffffffffffffff166bffffffffffffffffffffffff16815260200160008201600c9054906101000a90046bffffffffffffffffffffffff166bffffffffffffffffffffffff166bffffffffffffffffffffffff1681526020016000820160189054906101000a900467ffffffffffffffff1667ffffffffffffffff1667ffffffffffffffff16815250509050866000015181600001818151019150906bffffffffffffffffffffffff1690816bffffffffffffffffffffffff16815250508660200151816040018181510191509067ffffffffffffffff16908167ffffffffffffffff1681525050866040015181602001818151019150906bffffffffffffffffffffffff1690816bffffffffffffffffffffffff168152505080600560008a73ffffffffffffffffffffffffffffffffffffffff1673ffffffffffffffffffffffffffffffffffffffff16815260200190815260200160002060008960600151815260200190815260200160002060008201518160000160006101000a8154816bffffffffffffffffffffffff02191690836bffffffffffffffffffffffff160217905550602082015181600001600c6101000a8154816bffffffffffffffffffffffff02191690836bffffffffffffffffffffffff16021790555060408201518160000160186101000a81548167ffffffffffffffff021916908367ffffffffffffffff1602179055509050506000612b33848a60018b600001518c602001518d604001518d60006132c7565b9050612b41868683876136c9565b8873ffffffffffffffffffffffffffffffffffffffff167fdec2bacdd2f05b59de34da9b523dff8be42e5e38e818c82fdb0bae774387a72484612b848c8b611239565b604051612b92929190614769565b60405180910390a2505050505050505050565b60606000612bb28361396b565b90506000602067ffffffffffffffff811115612bd157612bd0614460565b5b6040519080825280601f01601f191660200182016040528015612c035781602001600182028036833780820191505090505b5090508181528360208201528092505050919050565b60007f000000000000000000000000000000000000000000000000000000000000000073ffffffffffffffffffffffffffffffffffffffff163073ffffffffffffffffffffffffffffffffffffffff16148015612c9557507f000000000000000000000000000000000000000000000000000000000000000046145b15612cc2577f00000000000000000000000000000000000000000000000000000000000000009050612ccd565b612cca6139bb565b90505b90565b60006040517f190100000000000000000000000000000000000000000000000000000000000081528360028201528260228201526042812091505092915050565b6000807f7fffffffffffffffffffffffffffffff5d576e7357a4501ddfe92f46681b20a08360001c1115612d4c576000600391509150612dea565b600060018787878760405160008152602001604052604051612d7194939291906147a1565b6020604051602081039080840390855afa158015612d93573d6000803e3d6000fd5b505050602060405103519050600073ffffffffffffffffffffffffffffffffffffffff168173ffffffffffffffffffffffffffffffffffffffff1603612de157600060019250925050612dea565b80600092509250505b94509492505050565b60006004811115612e0757612e066147e6565b5b816004811115612e1a57612e196147e6565b5b0315612f565760016004811115612e3457612e336147e6565b5b816004811115612e4757612e466147e6565b5b03612e87576040517f08c379a0000000000000000000000000000000000000000000000000000000008152600401612e7e90614861565b60405180910390fd5b60026004811115612e9b57612e9a6147e6565b5b816004811115612eae57612ead6147e6565b5b03612eee576040517f08c379a0000000000000000000000000000000000000000000000000000000008152600401612ee5906148cd565b60405180910390fd5b60036004811115612f0257612f016147e6565b5b816004811115612f1557612f146147e6565b5b03612f55576040517f08c379a0000000000000000000000000000000000000000000000000000000008152600401612f4c9061495f565b60405180910390fd5b5b50565b612f61613a77565b6000838054905090506000620151808085612f7c9190614385565b612f8691906143b6565b90506000808311612f98576000612fe6565b85600184612fa6919061442c565b81548110612fb757612fb66142f8565b5b906000526020600020906002020160010160109054906101000a90046fffffffffffffffffffffffffffffffff165b6fffffffffffffffffffffffffffffffff169050600082821161300a576000613025565b62015180838361301a919061442c565b6130249190614385565b5b905060008085118015613043575081600186613041919061442c565b115b61304e576000613067565b8160018661305c919061442c565b613066919061442c565b5b905060008590505b808210156130fd5760006130838383613a51565b9050888a8281548110613099576130986142f8565b5b906000526020600020906002020160010160109054906101000a90046fffffffffffffffffffffffffffffffff166fffffffffffffffffffffffffffffffff1611156130e7578091506130f7565b6001816130f491906143f8565b92505b5061306f565b6000811461326a5788600182613113919061442c565b81548110613124576131236142f8565b5b90600052602060002090600202016040518060800160405290816000820160009054906101000a90046fffffffffffffffffffffffffffffffff166fffffffffffffffffffffffffffffffff166fffffffffffffffffffffffffffffffff1681526020016000820160109054906101000a90046fffffffffffffffffffffffffffffffff166fffffffffffffffffffffffffffffffff166fffffffffffffffffffffffffffffffff1681526020016001820160009054906101000a90046fffffffffffffffffffffffffffffffff166fffffffffffffffffffffffffffffffff166fffffffffffffffffffffffffffffffff1681526020016001820160109054906101000a90046fffffffffffffffffffffffffffffffff166fffffffffffffffffffffffffffffffff166fffffffffffffffffffffffffffffffff168152505061326c565b865b965050505050505092915050565b6000808212156132bf576040517f08c379a00000000000000000000000000000000000000000000000000000000081526004016132b6906149cb565b60405180910390fd5b819050919050565b6132cf613a77565b600089606001516fffffffffffffffffffffffffffffffff160361335d576040518060800160405280876fffffffffffffffffffffffffffffffff168152602001856fffffffffffffffffffffffffffffffff168152602001866fffffffffffffffffffffffffffffffff168152602001846fffffffffffffffffffffffffffffffff1681525090506136bd565b886060015181606001906fffffffffffffffffffffffffffffffff1690816fffffffffffffffffffffffffffffffff1681525050886000015181600001906fffffffffffffffffffffffffffffffff1690816fffffffffffffffffffffffffffffffff1681525050886040015181604001906fffffffffffffffffffffffffffffffff1690816fffffffffffffffffffffffffffffffff1681525050886020015181602001906fffffffffffffffffffffffffffffffff1690816fffffffffffffffffffffffffffffffff168152505086156134da578581600001818151019150906fffffffffffffffffffffffffffffffff1690816fffffffffffffffffffffffffffffffff16815250508481604001818151019150906fffffffffffffffffffffffffffffffff1690816fffffffffffffffffffffffffffffffff16815250508381602001818151019150906fffffffffffffffffffffffffffffffff1690816fffffffffffffffffffffffffffffffff168152505061359c565b88606001516fffffffffffffffffffffffffffffffff1682111561359b578581600001818151039150906fffffffffffffffffffffffffffffffff1690816fffffffffffffffffffffffffffffffff16815250508481604001818151039150906fffffffffffffffffffffffffffffffff1690816fffffffffffffffffffffffffffffffff16815250508381602001818151039150906fffffffffffffffffffffffffffffffff1690816fffffffffffffffffffffffffffffffff16815250505b5b8281606001516fffffffffffffffffffffffffffffffff16146136bc5760008060006135e08b85606001516fffffffffffffffffffffffffffffffff16888f611261565b9250925092508584606001906fffffffffffffffffffffffffffffffff1690816fffffffffffffffffffffffffffffffff16815250508284600001818151039150906fffffffffffffffffffffffffffffffff1690816fffffffffffffffffffffffffffffffff16815250508184604001818151039150906fffffffffffffffffffffffffffffffff1690816fffffffffffffffffffffffffffffffff16815250508084602001818151039150906fffffffffffffffffffffffffffffffff1690816fffffffffffffffffffffffffffffffff16815250505050505b5b98975050505050505050565b600083118015613704575081606001516fffffffffffffffffffffffffffffffff1681606001516fffffffffffffffffffffffffffffffff16145b1561383b578184600185613718919061442c565b81548110613729576137286142f8565b5b906000526020600020906002020160008201518160000160006101000a8154816fffffffffffffffffffffffffffffffff02191690836fffffffffffffffffffffffffffffffff16021790555060208201518160000160106101000a8154816fffffffffffffffffffffffffffffffff02191690836fffffffffffffffffffffffffffffffff16021790555060408201518160010160006101000a8154816fffffffffffffffffffffffffffffffff02191690836fffffffffffffffffffffffffffffffff16021790555060608201518160010160106101000a8154816fffffffffffffffffffffffffffffffff02191690836fffffffffffffffffffffffffffffffff160217905550905050613965565b8382908060018154018082558091505060019003906000526020600020906002020160009091909190915060008201518160000160006101000a8154816fffffffffffffffffffffffffffffffff02191690836fffffffffffffffffffffffffffffffff16021790555060208201518160000160106101000a8154816fffffffffffffffffffffffffffffffff02191690836fffffffffffffffffffffffffffffffff16021790555060408201518160010160006101000a8154816fffffffffffffffffffffffffffffffff02191690836fffffffffffffffffffffffffffffffff16021790555060608201518160010160106101000a8154816fffffffffffffffffffffffffffffffff02191690836fffffffffffffffffffffffffffffffff16021790555050505b50505050565b60008060ff8360001c169050601f8111156139b2576040517fb3512b0c00000000000000000000000000000000000000000000000000000000815260040160405180910390fd5b80915050919050565b60007f8b73c3c69bb8fe3d512ecc4cf759cc79239f7b179b0ffacaa9a75d522b39400f7f00000000000000000000000000000000000000000000000000000000000000007f00000000000000000000000000000000000000000000000000000000000000004630604051602001613a369594939291906149eb565b60405160208183030381529060405280519060200120905090565b60006002828418613a629190614385565b828416613a6f91906143f8565b905092915050565b604051806080016040528060006fffffffffffffffffffffffffffffffff16815260200160006fffffffffffffffffffffffffffffffff16815260200160006fffffffffffffffffffffffffffffffff16815260200160006fffffffffffffffffffffffffffffffff1681525090565b6040518060800160405280600081526020016000815260200160008152602001600081525090565b6000604051905090565b600080fd5b600073ffffffffffffffffffffffffffffffffffffffff82169050919050565b6000613b4982613b1e565b9050919050565b613b5981613b3e565b8114613b6457600080fd5b50565b600081359050613b7681613b50565b92915050565b600060208284031215613b9257613b91613b19565b5b6000613ba084828501613b67565b91505092915050565b6000819050919050565b613bbc81613ba9565b82525050565b6000602082019050613bd76000830184613bb3565b92915050565b613be681613ba9565b8114613bf157600080fd5b50565b600081359050613c0381613bdd565b92915050565b60008060408385031215613c2057613c1f613b19565b5b6000613c2e85828601613b67565b9250506020613c3f85828601613bf4565b9150509250929050565b60006bffffffffffffffffffffffff82169050919050565b613c6a81613c49565b82525050565b600067ffffffffffffffff82169050919050565b613c8d81613c70565b82525050565b6000606082019050613ca86000830186613c61565b613cb56020830185613c61565b613cc26040830184613c84565b949350505050565b600063ffffffff82169050919050565b613ce381613cca565b8114613cee57600080fd5b50565b600081359050613d0081613cda565b92915050565b60008060408385031215613d1d57613d1c613b19565b5b6000613d2b85828601613b67565b9250506020613d3c85828601613cf1565b9150509250929050565b60006fffffffffffffffffffffffffffffffff82169050919050565b613d6b81613d46565b82525050565b608082016000820151613d876000850182613d62565b506020820151613d9a6020850182613d62565b506040820151613dad6040850182613d62565b506060820151613dc06060850182613d62565b50505050565b6000608082019050613ddb6000830184613d71565b92915050565b600081519050919050565b600082825260208201905092915050565b60005b83811015613e1b578082015181840152602081019050613e00565b60008484015250505050565b6000601f19601f8301169050919050565b6000613e4382613de1565b613e4d8185613dec565b9350613e5d818560208601613dfd565b613e6681613e27565b840191505092915050565b60006020820190508181036000830152613e8b8184613e38565b905092915050565b6000819050919050565b6000613eb8613eb3613eae84613b1e565b613e93565b613b1e565b9050919050565b6000613eca82613e9d565b9050919050565b6000613edc82613ebf565b9050919050565b613eec81613ed1565b82525050565b6000602082019050613f076000830184613ee3565b92915050565b613f1681613b3e565b82525050565b6000602082019050613f316000830184613f0d565b92915050565b600065ffffffffffff82169050919050565b613f5281613f37565b82525050565b600060c082019050613f6d6000830189613f0d565b613f7a6020830188613f49565b613f876040830187613f49565b613f946060830186613c61565b613fa16080830185613c61565b613fae60a0830184613c84565b979650505050505050565b613fc281613d46565b82525050565b6000608082019050613fdd6000830187613fb9565b613fea6020830186613fb9565b613ff76040830185613fb9565b6140046060830184613fb9565b95945050505050565b60007fff0000000000000000000000000000000000000000000000000000000000000082169050919050565b6140428161400d565b82525050565b6000819050919050565b61405b81614048565b82525050565b600081519050919050565b600082825260208201905092915050565b6000819050602082019050919050565b61409681613ba9565b82525050565b60006140a8838361408d565b60208301905092915050565b6000602082019050919050565b60006140cc82614061565b6140d6818561406c565b93506140e18361407d565b8060005b838110156141125781516140f9888261409c565b9750614104836140b4565b9250506001810190506140e5565b5085935050505092915050565b600060e082019050614134600083018a614039565b81810360208301526141468189613e38565b9050818103604083015261415a8188613e38565b90506141696060830187613bb3565b6141766080830186613f0d565b61418360a0830185614052565b81810360c083015261419581846140c1565b905098975050505050505050565b6000602082840312156141b9576141b8613b19565b5b60006141c784828501613bf4565b91505092915050565b60006020820190506141e56000830184613f49565b92915050565b600060ff82169050919050565b614201816141eb565b811461420c57600080fd5b50565b60008135905061421e816141f8565b92915050565b61422d81614048565b811461423857600080fd5b50565b60008135905061424a81614224565b92915050565b60008060008060008060c0878903121561426d5761426c613b19565b5b600061427b89828a01613b67565b965050602061428c89828a01613bf4565b955050604061429d89828a01613bf4565b94505060606142ae89828a0161420f565b93505060806142bf89828a0161423b565b92505060a06142d089828a0161423b565b9150509295509295509295565b60006020820190506142f26000830184614052565b92915050565b7f4e487b7100000000000000000000000000000000000000000000000000000000600052603260045260246000fd5b7f4e487b7100000000000000000000000000000000000000000000000000000000600052601260045260246000fd5b7f4e487b7100000000000000000000000000000000000000000000000000000000600052601160045260246000fd5b600061439082613ba9565b915061439b83613ba9565b9250826143ab576143aa614327565b5b828204905092915050565b60006143c182613ba9565b91506143cc83613ba9565b92508282026143da81613ba9565b915082820484148315176143f1576143f0614356565b5b5092915050565b600061440382613ba9565b915061440e83613ba9565b925082820190508082111561442657614425614356565b5b92915050565b600061443782613ba9565b915061444283613ba9565b925082820390508181111561445a57614459614356565b5b92915050565b7f4e487b7100000000000000000000000000000000000000000000000000000000600052604160045260246000fd5b60008151905061449e81613bdd565b92915050565b6000602082840312156144ba576144b9613b19565b5b60006144c88482850161448f565b91505092915050565b60006080820190506144e66000830187614052565b6144f36020830186613f0d565b6145006040830185613bb3565b61450d6060830184613bb3565b95945050505050565b600061452182613ba9565b91507fffffffffffffffffffffffffffffffffffffffffffffffffffffffffffffffff820361455357614552614356565b5b600182019050919050565b7f4e487b7100000000000000000000000000000000000000000000000000000000600052602260045260246000fd5b600060028204905060018216806145a557607f821691505b6020821081036145b8576145b761455e565b5b50919050565b600080fd5b6145cc82613e27565b810181811067ffffffffffffffff821117156145eb576145ea614460565b5b80604052505050565b60006145fe613b0f565b905061460a82826145c3565b919050565b600081600f0b9050919050565b6146258161460f565b811461463057600080fd5b50565b6000815190506146428161461c565b92915050565b60006040828403121561465e5761465d6145be565b5b61466860406145f4565b9050600061467884828501614633565b600083015250602061468c8482850161448f565b60208301525092915050565b6000604082840312156146ae576146ad613b19565b5b60006146bc84828501614648565b91505092915050565b60006040820190506146da6000830185613f0d565b6146e76020830184613bb3565b9392505050565b600080600080600060a0868803121561470a57614709613b19565b5b600061471888828901614633565b955050602061472988828901614633565b945050604061473a8882890161448f565b935050606061474b8882890161448f565b925050608061475c8882890161448f565b9150509295509295909350565b600060408201905061477e6000830185613bb3565b61478b6020830184613bb3565b9392505050565b61479b816141eb565b82525050565b60006080820190506147b66000830187614052565b6147c36020830186614792565b6147d06040830185614052565b6147dd6060830184614052565b95945050505050565b7f4e487b7100000000000000000000000000000000000000000000000000000000600052602160045260246000fd5b7f45434453413a20696e76616c6964207369676e61747572650000000000000000600082015250565b600061484b601883613dec565b915061485682614815565b602082019050919050565b6000602082019050818103600083015261487a8161483e565b9050919050565b7f45434453413a20696e76616c6964207369676e6174757265206c656e67746800600082015250565b60006148b7601f83613dec565b91506148c282614881565b602082019050919050565b600060208201905081810360008301526148e6816148aa565b9050919050565b7f45434453413a20696e76616c6964207369676e6174757265202773272076616c60008201527f7565000000000000000000000000000000000000000000000000000000000000602082015250565b6000614949602283613dec565b9150614954826148ed565b604082019050919050565b600060208201905081810360008301526149788161493c565b9050919050565b7f53616665436173743a2076616c7565206d75737420626520706f736974697665600082015250565b60006149b5602083613dec565b91506149c08261497f565b602082019050919050565b600060208201905081810360008301526149e4816149a8565b9050919050565b600060a082019050614a006000830188614052565b614a0d6020830187614052565b614a1a6040830186614052565b614a276060830185613bb3565b614a346080830184613f0d565b969550505050505056fea164736f6c6343000813000a",
    "linkReferences": {}
  },
  "methodIdentifiers": {
    "$delegateCheckpoints(address,uint256)": "75f9e396",
    "$delegations(address)": "6e22c4af",
    "$expiredDelegations(address,uint256)": "1c945412",
    "$nonces(address)": "101f46d5",
    "CLOCK_MODE()": "4bf5d7e9",
    "DELEGATION_TYPEHASH()": "e7a324dc",
    "MAX_LOCK_DURATION()": "4f1bfc9e",
    "VE_FXS()": "506d1f81",
    "VOTE_WEIGHT_MULTIPLIER()": "944c3930",
    "WEEK()": "f4359ce5",
    "calculateExpiredDelegations(address)": "3b3eb8a6",
    "clock()": "91ddadf4",
    "delegate(address)": "5c19a95c",
    "delegateBySig(address,uint256,uint256,uint8,bytes32,bytes32)": "c3cda520",
    "delegates(address)": "587cde1e",
    "eip712Domain()": "84b0196e",
    "getCheckpoint(address,uint32)": "34940fa8",
    "getPastTotalSupply(uint256)": "8e539e8c",
    "getPastVotes(address,uint256)": "3a46b1a8",
    "getVotes(address)": "9ab24eb0",
    "getVotes(address,uint256)": "eb9019d4",
    "writeNewCheckpointForExpiredDelegations(address)": "b0612821"
  },
  "id": 88
}