{
  "abi": [
    {
      "inputs": [
        {
          "internalType": "uint256[]",
          "name": "ownerPKs",
          "type": "uint256[]"
        },
        {
          "internalType": "uint256",
          "name": "threshold",
          "type": "uint256"
        }
      ],
      "name": "_setupSafe",
      "outputs": [
        {
          "components": [
            {
              "internalType": "uint256",
              "name": "instanceId",
              "type": "uint256"
            },
            {
              "internalType": "uint256[]",
              "name": "ownerPKs",
              "type": "uint256[]"
            },
            {
              "internalType": "address[]",
              "name": "owners",
              "type": "address[]"
            },
            {
              "internalType": "uint256",
              "name": "threshold",
              "type": "uint256"
            },
            {
              "internalType": "contract DeployedSafe",
              "name": "safe",
              "type": "address"
            }
          ],
          "internalType": "struct SafeInstance",
          "name": "",
          "type": "tuple"
        }
      ],
      "stateMutability": "nonpayable",
      "type": "function"
    },
    {
      "inputs": [
        {
          "internalType": "uint256[]",
          "name": "ownerPKs",
          "type": "uint256[]"
        },
        {
          "internalType": "uint256",
          "name": "threshold",
          "type": "uint256"
        },
        {
          "internalType": "uint256",
          "name": "initialBalance",
          "type": "uint256"
        },
        {
          "components": [
            {
              "internalType": "bool",
              "name": "includeFallbackHandler",
              "type": "bool"
            },
            {
              "internalType": "bytes",
              "name": "initData",
              "type": "bytes"
            },
            {
              "internalType": "uint256",
              "name": "saltNonce",
              "type": "uint256"
            },
            {
              "internalType": "address",
              "name": "setupModulesCall_to",
              "type": "address"
            },
            {
              "internalType": "bytes",
              "name": "setupModulesCall_data",
              "type": "bytes"
            },
            {
              "internalType": "uint256",
              "name": "refundAmount",
              "type": "uint256"
            },
            {
              "internalType": "address",
              "name": "refundToken",
              "type": "address"
            },
            {
              "internalType": "address payable",
              "name": "refundReceiver",
              "type": "address"
            }
          ],
          "internalType": "struct AdvancedSafeInitParams",
          "name": "advancedParams",
          "type": "tuple"
        }
      ],
      "name": "_setupSafe",
      "outputs": [
        {
          "components": [
            {
              "internalType": "uint256",
              "name": "instanceId",
              "type": "uint256"
            },
            {
              "internalType": "uint256[]",
              "name": "ownerPKs",
              "type": "uint256[]"
            },
            {
              "internalType": "address[]",
              "name": "owners",
              "type": "address[]"
            },
            {
              "internalType": "uint256",
              "name": "threshold",
              "type": "uint256"
            },
            {
              "internalType": "contract DeployedSafe",
              "name": "safe",
              "type": "address"
            }
          ],
          "internalType": "struct SafeInstance",
          "name": "",
          "type": "tuple"
        }
      ],
      "stateMutability": "nonpayable",
      "type": "function"
    },
    {
      "inputs": [
        {
          "internalType": "uint256[]",
          "name": "ownerPKs",
          "type": "uint256[]"
        },
        {
          "internalType": "uint256",
          "name": "threshold",
          "type": "uint256"
        },
        {
          "internalType": "uint256",
          "name": "initialBalance",
          "type": "uint256"
        }
      ],
      "name": "_setupSafe",
      "outputs": [
        {
          "components": [
            {
              "internalType": "uint256",
              "name": "instanceId",
              "type": "uint256"
            },
            {
              "internalType": "uint256[]",
              "name": "ownerPKs",
              "type": "uint256[]"
            },
            {
              "internalType": "address[]",
              "name": "owners",
              "type": "address[]"
            },
            {
              "internalType": "uint256",
              "name": "threshold",
              "type": "uint256"
            },
            {
              "internalType": "contract DeployedSafe",
              "name": "safe",
              "type": "address"
            }
          ],
          "internalType": "struct SafeInstance",
          "name": "",
          "type": "tuple"
        }
      ],
      "stateMutability": "nonpayable",
      "type": "function"
    },
    {
      "inputs": [],
      "name": "_setupSafe",
      "outputs": [
        {
          "components": [
            {
              "internalType": "uint256",
              "name": "instanceId",
              "type": "uint256"
            },
            {
              "internalType": "uint256[]",
              "name": "ownerPKs",
              "type": "uint256[]"
            },
            {
              "internalType": "address[]",
              "name": "owners",
              "type": "address[]"
            },
            {
              "internalType": "uint256",
              "name": "threshold",
              "type": "uint256"
            },
            {
              "internalType": "contract DeployedSafe",
              "name": "safe",
              "type": "address"
            }
          ],
          "internalType": "struct SafeInstance",
          "name": "",
          "type": "tuple"
        }
      ],
      "stateMutability": "nonpayable",
      "type": "function"
    },
    {
      "inputs": [],
      "name": "getSafe",
      "outputs": [
        {
          "components": [
            {
              "internalType": "uint256",
              "name": "instanceId",
              "type": "uint256"
            },
            {
              "internalType": "uint256[]",
              "name": "ownerPKs",
              "type": "uint256[]"
            },
            {
              "internalType": "address[]",
              "name": "owners",
              "type": "address[]"
            },
            {
              "internalType": "uint256",
              "name": "threshold",
              "type": "uint256"
            },
            {
              "internalType": "contract DeployedSafe",
              "name": "safe",
              "type": "address"
            }
          ],
          "internalType": "struct SafeInstance",
          "name": "",
          "type": "tuple"
        }
      ],
      "stateMutability": "view",
      "type": "function"
    },
    {
      "inputs": [
        {
          "internalType": "address",
          "name": "_safe",
          "type": "address"
        }
      ],
      "name": "getSafe",
      "outputs": [
        {
          "components": [
            {
              "internalType": "uint256",
              "name": "instanceId",
              "type": "uint256"
            },
            {
              "internalType": "uint256[]",
              "name": "ownerPKs",
              "type": "uint256[]"
            },
            {
              "internalType": "address[]",
              "name": "owners",
              "type": "address[]"
            },
            {
              "internalType": "uint256",
              "name": "threshold",
              "type": "uint256"
            },
            {
              "internalType": "contract DeployedSafe",
              "name": "safe",
              "type": "address"
            }
          ],
          "internalType": "struct SafeInstance",
          "name": "",
          "type": "tuple"
        }
      ],
      "stateMutability": "view",
      "type": "function"
    }
  ],
  "bytecode": {
    "object": "0x608060405260405162000012906200015b565b604051809103906000f0801580156200002f573d6000803e3d6000fd5b506000806101000a81548173ffffffffffffffffffffffffffffffffffffffff021916908373ffffffffffffffffffffffffffffffffffffffff1602179055506040516200007d9062000169565b604051809103906000f0801580156200009a573d6000803e3d6000fd5b50600160006101000a81548173ffffffffffffffffffffffffffffffffffffffff021916908373ffffffffffffffffffffffffffffffffffffffff160217905550604051620000e99062000177565b604051809103906000f08015801562000106573d6000803e3d6000fd5b50600260006101000a81548173ffffffffffffffffffffffffffffffffffffffff021916908373ffffffffffffffffffffffffffffffffffffffff1602179055503480156200015457600080fd5b5062000185565b6160a480620029f583390190565b6112d68062008a9983390190565b6117da8062009d6f83390190565b61286080620001956000396000f3fe608060405234801561001057600080fd5b50600436106100725760003560e01c806368bc573e1161005057806368bc573e14610107578063894adc6514610125578063b38b47171461015557610072565b8063080df7f11461007757806308abf768146100a75780634867cf9a146100d7575b600080fd5b610091600480360381019061008c91906118f8565b610173565b60405161009e9190611bde565b60405180910390f35b6100c160048036038101906100bc9190611e63565b61023a565b6040516100ce9190611bde565b60405180910390f35b6100f160048036038101906100ec9190611f02565b6107cf565b6040516100fe9190611bde565b60405180910390f35b61010f61088d565b60405161011c9190611bde565b60405180910390f35b61013f600480360381019061013a9190611f71565b610a60565b60405161014c9190611bde565b60405180910390f35b61015d610cc7565b60405161016a9190611bde565b60405180910390f35b61017b6115d3565b610232838369021e19e0c9bab240000060405180610100016040528060011515815260200160405180602001604052806000815250815260200160008152602001600073ffffffffffffffffffffffffffffffffffffffff16815260200160405180602001604052806000815250815260200160008152602001600073ffffffffffffffffffffffffffffffffffffffff168152602001600073ffffffffffffffffffffffffffffffffffffffff1681525061023a565b905092915050565b6102426115d3565b600061024d866110b5565b90506000815167ffffffffffffffff81111561026c5761026b61177f565b5b60405190808252806020026020018201604052801561029a5781602001602082028036833780820191505090505b50905060005b82518110156103ca576102cc8382815181106102bf576102be611f9e565b5b60200260200101516114f8565b15610346576102f48382815181106102e7576102e6611f9e565b5b602002602001015161152a565b82828151811061030757610306611f9e565b5b602002602001019073ffffffffffffffffffffffffffffffffffffffff16908173ffffffffffffffffffffffffffffffffffffffff16815250506103b7565b61036983828151811061035c5761035b611f9e565b5b602002602001015161153c565b82828151811061037c5761037b611f9e565b5b602002602001019073ffffffffffffffffffffffffffffffffffffffff16908173ffffffffffffffffffffffffffffffffffffffff16815250505b80806103c290611ffc565b9150506102a0565b506000808560400151036104a157600160009054906101000a900473ffffffffffffffffffffffffffffffffffffffff1673ffffffffffffffffffffffffffffffffffffffff166361b69abd60008054906101000a900473ffffffffffffffffffffffffffffffffffffffff1687602001516040518363ffffffff1660e01b81526004016104599291906120d2565b6020604051808303816000875af1158015610478573d6000803e3d6000fd5b505050506040513d601f19601f8201168201806040525081019061049c9190612140565b61056c565b600160009054906101000a900473ffffffffffffffffffffffffffffffffffffffff1673ffffffffffffffffffffffffffffffffffffffff16631688f0b960008054906101000a900473ffffffffffffffffffffffffffffffffffffffff16876020015188604001516040518463ffffffff1660e01b81526004016105289392919061217c565b6020604051808303816000875af1158015610547573d6000803e3d6000fd5b505050506040513d601f19601f8201168201806040525081019061056b9190612140565b5b905060006040518060a0016040528060038054905081526020018581526020018481526020018981526020018373ffffffffffffffffffffffffffffffffffffffff1681525090506003819080600181540180825580915050600190039060005260206000209060050201600090919091909150600082015181600001556020820151816001019080519060200190610606929190611618565b506040820151816002019080519060200190610623929190611665565b506060820151816003015560808201518160040160006101000a81548173ffffffffffffffffffffffffffffffffffffffff021916908373ffffffffffffffffffffffffffffffffffffffff1602179055505050737109709ecfa91a80626ff3989d68f67f5b1dd12d73ffffffffffffffffffffffffffffffffffffffff1663c88a5e6d83896040518363ffffffff1660e01b81526004016106c69291906121ba565b600060405180830381600087803b1580156106e057600080fd5b505af11580156106f4573d6000803e3d6000fd5b505050508173ffffffffffffffffffffffffffffffffffffffff1663b63e800d8260400151836060015189606001518a608001518b6000015161073857600061075c565b600260009054906101000a900473ffffffffffffffffffffffffffffffffffffffff165b8c60c001518d60a001518e60e001516040518963ffffffff1660e01b815260040161078e989796959493929190612261565b600060405180830381600087803b1580156107a857600080fd5b505af11580156107bc573d6000803e3d6000fd5b5050505080945050505050949350505050565b6107d76115d3565b61088484848460405180610100016040528060011515815260200160405180602001604052806000815250815260200160008152602001600073ffffffffffffffffffffffffffffffffffffffff16815260200160405180602001604052806000815250815260200160008152602001600073ffffffffffffffffffffffffffffffffffffffff168152602001600073ffffffffffffffffffffffffffffffffffffffff1681525061023a565b90509392505050565b6108956115d3565b6000600380549050036108dd576040517f08c379a00000000000000000000000000000000000000000000000000000000081526004016108d490612396565b60405180910390fd5b60036000815481106108f2576108f1611f9e565b5b90600052602060002090600502016040518060a0016040529081600082015481526020016001820180548060200260200160405190810160405280929190818152602001828054801561096457602002820191906000526020600020905b815481526020019060010190808311610950575b50505050508152602001600282018054806020026020016040519081016040528092919081815260200182805480156109f257602002820191906000526020600020905b8160009054906101000a900473ffffffffffffffffffffffffffffffffffffffff1673ffffffffffffffffffffffffffffffffffffffff16815260200190600101908083116109a8575b50505050508152602001600382015481526020016004820160009054906101000a900473ffffffffffffffffffffffffffffffffffffffff1673ffffffffffffffffffffffffffffffffffffffff1673ffffffffffffffffffffffffffffffffffffffff1681525050905090565b610a686115d3565b60005b600380549050811015610c86578273ffffffffffffffffffffffffffffffffffffffff1660038281548110610aa357610aa2611f9e565b5b906000526020600020906005020160040160009054906101000a900473ffffffffffffffffffffffffffffffffffffffff1673ffffffffffffffffffffffffffffffffffffffff1603610c755760038181548110610b0457610b03611f9e565b5b90600052602060002090600502016040518060a00160405290816000820154815260200160018201805480602002602001604051908101604052809291908181526020018280548015610b7657602002820191906000526020600020905b815481526020019060010190808311610b62575b5050505050815260200160028201805480602002602001604051908101604052809291908181526020018280548015610c0457602002820191906000526020600020905b8160009054906101000a900473ffffffffffffffffffffffffffffffffffffffff1673ffffffffffffffffffffffffffffffffffffffff1681526020019060010190808311610bba575b50505050508152602001600382015481526020016004820160009054906101000a900473ffffffffffffffffffffffffffffffffffffffff1673ffffffffffffffffffffffffffffffffffffffff1673ffffffffffffffffffffffffffffffffffffffff1681525050915050610cc2565b80610c7f90611ffc565b9050610a6b565b506040517f08c379a0000000000000000000000000000000000000000000000000000000008152600401610cb990612428565b60405180910390fd5b919050565b610ccf6115d3565b610cd76116ef565b6040518060400160405280601281526020017f53414645544553543a205369676e65722030000000000000000000000000000081525081600060038110610d2157610d20611f9e565b5b60200201819052506040518060400160405280601281526020017f53414645544553543a205369676e65722031000000000000000000000000000081525081600160038110610d7357610d72611f9e565b5b60200201819052506040518060400160405280601281526020017f53414645544553543a205369676e65722032000000000000000000000000000081525081600260038110610dc557610dc4611f9e565b5b60200201819052506000600367ffffffffffffffff811115610dea57610de961177f565b5b604051908082528060200260200182016040528015610e185781602001602082028036833780820191505090505b5090507fac0974bec39a17e36ba4a6b4d238ff944bacb478cbed5efcae784d7bf4f2ff8081600081518110610e5057610e4f611f9e565b5b6020026020010181815250507f59c6995e998f97a5a0044966f0945389dc9e86dae88c7a8412f4603b6b78690d81600181518110610e9157610e90611f9e565b5b6020026020010181815250507f5de4111afa1a4b94908f83103eb1f1706367c2e68ca870fc3fb9a804cdab365a81600281518110610ed257610ed1611f9e565b5b60200260200101818152505060005b6003811015610fb757737109709ecfa91a80626ff3989d68f67f5b1dd12d73ffffffffffffffffffffffffffffffffffffffff1663c657c718610f3d848481518110610f3057610f2f611f9e565b5b602002602001015161153c565b858460038110610f5057610f4f611f9e565b5b60200201516040518363ffffffff1660e01b8152600401610f7292919061248c565b600060405180830381600087803b158015610f8c57600080fd5b505af1158015610fa0573d6000803e3d6000fd5b505050508080610faf90611ffc565b915050610ee1565b506110ae81600269021e19e0c9bab24000006040518061010001604052806001151581526020016040518060200160405280600081525081526020016040518060400160405280600981526020017f53414645205445535400000000000000000000000000000000000000000000008152508051906020012060001c8152602001600073ffffffffffffffffffffffffffffffffffffffff16815260200160405180602001604052806000815250815260200160008152602001600073ffffffffffffffffffffffffffffffffffffffff168152602001600073ffffffffffffffffffffffffffffffffffffffff1681525061023a565b9250505090565b60606000825167ffffffffffffffff8111156110d4576110d361177f565b5b6040519080825280602002602001820160405280156111025781602001602082028036833780820191505090505b5090506000835167ffffffffffffffff8111156111225761112161177f565b5b6040519080825280602002602001820160405280156111505781602001602082028036833780820191505090505b5090506000845167ffffffffffffffff8111156111705761116f61177f565b5b6040519080825280602002602001820160405280156111a957816020015b611196611716565b81526020019060019003908161118e5790505b50905060005b85518110156112f65760006111dd8783815181106111d0576111cf611f9e565b5b602002602001015161153c565b9050808483815181106111f3576111f2611f9e565b5b602002602001019073ffffffffffffffffffffffffffffffffffffffff16908173ffffffffffffffffffffffffffffffffffffffff16815250508060405160200161123e91906124bc565b60405160208183030381529060405261125690612513565b83838151811061126957611268611f9e565b5b602002602001015160006002811061128457611283611f9e565b5b6020020181815250508682815181106112a05761129f611f9e565b5b602002602001015160001b8383815181106112be576112bd611f9e565b5b60200260200101516001600281106112d9576112d8611f9e565b5b6020020181815250505080806112ee90611ffc565b9150506111af565b5073__$878d0ae7efd22d148aee5c7baa63e98656$__63128424a7836040518263ffffffff1660e01b815260040161132e9190612610565b600060405180830381865af415801561134b573d6000803e3d6000fd5b505050506040513d6000823e3d601f19601f82011682018060405250810190611374919061270a565b91506000805b83518110156114a757600084828151811061139857611397611f9e565b5b602002602001015190506000805b8551811015611471578273ffffffffffffffffffffffffffffffffffffffff168682815181106113d9576113d8611f9e565b5b60200260200101516000600281106113f4576113f3611f9e565b5b602002015160001c73ffffffffffffffffffffffffffffffffffffffff160361145e5785818151811061142a57611429611f9e565b5b602002602001015160016002811061144557611444611f9e565b5b602002015160001c9150848061145a90611ffc565b9550505b808061146990611ffc565b9150506113a6565b508087848151811061148657611485611f9e565b5b6020026020010181815250505050808061149f90611ffc565b91505061137a565b5085518110156114ec576040517f08c379a00000000000000000000000000000000000000000000000000000000081526004016114e3906127eb565b60405180910390fd5b83945050505050919050565b60007fffffffffffffffffffffffff000000000000000000000000000000000000000060a01c8260a01c149050919050565b60008160601b8060601c915050919050565b6000737109709ecfa91a80626ff3989d68f67f5b1dd12d73ffffffffffffffffffffffffffffffffffffffff1663ffa18649836040518263ffffffff1660e01b815260040161158b919061280b565b602060405180830381865afa1580156115a8573d6000803e3d6000fd5b505050506040513d601f19601f820116820180604052508101906115cc9190612826565b9050919050565b6040518060a0016040528060008152602001606081526020016060815260200160008152602001600073ffffffffffffffffffffffffffffffffffffffff1681525090565b828054828255906000526020600020908101928215611654579160200282015b82811115611653578251825591602001919060010190611638565b5b5090506116619190611738565b5090565b8280548282559060005260206000209081019282156116de579160200282015b828111156116dd5782518260006101000a81548173ffffffffffffffffffffffffffffffffffffffff021916908373ffffffffffffffffffffffffffffffffffffffff16021790555091602001919060010190611685565b5b5090506116eb9190611738565b5090565b60405180606001604052806003905b60608152602001906001900390816116fe5790505090565b6040518060400160405280600290602082028036833780820191505090505090565b5b80821115611751576000816000905550600101611739565b5090565b6000604051905090565b600080fd5b600080fd5b600080fd5b6000601f19601f8301169050919050565b7f4e487b7100000000000000000000000000000000000000000000000000000000600052604160045260246000fd5b6117b78261176e565b810181811067ffffffffffffffff821117156117d6576117d561177f565b5b80604052505050565b60006117e9611755565b90506117f582826117ae565b919050565b600067ffffffffffffffff8211156118155761181461177f565b5b602082029050602081019050919050565b600080fd5b6000819050919050565b61183e8161182b565b811461184957600080fd5b50565b60008135905061185b81611835565b92915050565b600061187461186f846117fa565b6117df565b9050808382526020820190506020840283018581111561189757611896611826565b5b835b818110156118c057806118ac888261184c565b845260208401935050602081019050611899565b5050509392505050565b600082601f8301126118df576118de611769565b5b81356118ef848260208601611861565b91505092915050565b6000806040838503121561190f5761190e61175f565b5b600083013567ffffffffffffffff81111561192d5761192c611764565b5b611939858286016118ca565b925050602061194a8582860161184c565b9150509250929050565b61195d8161182b565b82525050565b600081519050919050565b600082825260208201905092915050565b6000819050602082019050919050565b600061199b8383611954565b60208301905092915050565b6000602082019050919050565b60006119bf82611963565b6119c9818561196e565b93506119d48361197f565b8060005b83811015611a055781516119ec888261198f565b97506119f7836119a7565b9250506001810190506119d8565b5085935050505092915050565b600081519050919050565b600082825260208201905092915050565b6000819050602082019050919050565b600073ffffffffffffffffffffffffffffffffffffffff82169050919050565b6000611a6982611a3e565b9050919050565b611a7981611a5e565b82525050565b6000611a8b8383611a70565b60208301905092915050565b6000602082019050919050565b6000611aaf82611a12565b611ab98185611a1d565b9350611ac483611a2e565b8060005b83811015611af5578151611adc8882611a7f565b9750611ae783611a97565b925050600181019050611ac8565b5085935050505092915050565b6000819050919050565b6000611b27611b22611b1d84611a3e565b611b02565b611a3e565b9050919050565b6000611b3982611b0c565b9050919050565b6000611b4b82611b2e565b9050919050565b611b5b81611b40565b82525050565b600060a083016000830151611b796000860182611954565b5060208301518482036020860152611b9182826119b4565b91505060408301518482036040860152611bab8282611aa4565b9150506060830151611bc06060860182611954565b506080830151611bd36080860182611b52565b508091505092915050565b60006020820190508181036000830152611bf88184611b61565b905092915050565b600080fd5b600080fd5b60008115159050919050565b611c1f81611c0a565b8114611c2a57600080fd5b50565b600081359050611c3c81611c16565b92915050565b600080fd5b600067ffffffffffffffff821115611c6257611c6161177f565b5b611c6b8261176e565b9050602081019050919050565b82818337600083830152505050565b6000611c9a611c9584611c47565b6117df565b905082815260208101848484011115611cb657611cb5611c42565b5b611cc1848285611c78565b509392505050565b600082601f830112611cde57611cdd611769565b5b8135611cee848260208601611c87565b91505092915050565b611d0081611a5e565b8114611d0b57600080fd5b50565b600081359050611d1d81611cf7565b92915050565b6000611d2e82611a3e565b9050919050565b611d3e81611d23565b8114611d4957600080fd5b50565b600081359050611d5b81611d35565b92915050565b60006101008284031215611d7857611d77611c00565b5b611d836101006117df565b90506000611d9384828501611c2d565b600083015250602082013567ffffffffffffffff811115611db757611db6611c05565b5b611dc384828501611cc9565b6020830152506040611dd78482850161184c565b6040830152506060611deb84828501611d0e565b606083015250608082013567ffffffffffffffff811115611e0f57611e0e611c05565b5b611e1b84828501611cc9565b60808301525060a0611e2f8482850161184c565b60a08301525060c0611e4384828501611d0e565b60c08301525060e0611e5784828501611d4c565b60e08301525092915050565b60008060008060808587031215611e7d57611e7c61175f565b5b600085013567ffffffffffffffff811115611e9b57611e9a611764565b5b611ea7878288016118ca565b9450506020611eb88782880161184c565b9350506040611ec98782880161184c565b925050606085013567ffffffffffffffff811115611eea57611ee9611764565b5b611ef687828801611d61565b91505092959194509250565b600080600060608486031215611f1b57611f1a61175f565b5b600084013567ffffffffffffffff811115611f3957611f38611764565b5b611f45868287016118ca565b9350506020611f568682870161184c565b9250506040611f678682870161184c565b9150509250925092565b600060208284031215611f8757611f8661175f565b5b6000611f9584828501611d0e565b91505092915050565b7f4e487b7100000000000000000000000000000000000000000000000000000000600052603260045260246000fd5b7f4e487b7100000000000000000000000000000000000000000000000000000000600052601160045260246000fd5b60006120078261182b565b91507fffffffffffffffffffffffffffffffffffffffffffffffffffffffffffffffff820361203957612038611fcd565b5b600182019050919050565b61204d81611a5e565b82525050565b600081519050919050565b600082825260208201905092915050565b60005b8381101561208d578082015181840152602081019050612072565b60008484015250505050565b60006120a482612053565b6120ae818561205e565b93506120be81856020860161206f565b6120c78161176e565b840191505092915050565b60006040820190506120e76000830185612044565b81810360208301526120f98184612099565b90509392505050565b600061210d82611d23565b9050919050565b61211d81612102565b811461212857600080fd5b50565b60008151905061213a81612114565b92915050565b6000602082840312156121565761215561175f565b5b60006121648482850161212b565b91505092915050565b6121768161182b565b82525050565b60006060820190506121916000830186612044565b81810360208301526121a38185612099565b90506121b2604083018461216d565b949350505050565b60006040820190506121cf6000830185612044565b6121dc602083018461216d565b9392505050565b600082825260208201905092915050565b60006121ff82611a12565b61220981856121e3565b935061221483611a2e565b8060005b8381101561224557815161222c8882611a7f565b975061223783611a97565b925050600181019050612218565b5085935050505092915050565b61225b81611d23565b82525050565b600061010082019050818103600083015261227c818b6121f4565b905061228b602083018a61216d565b6122986040830189612044565b81810360608301526122aa8188612099565b90506122b96080830187612044565b6122c660a0830186612044565b6122d360c083018561216d565b6122e060e0830184612252565b9998505050505050505050565b600082825260208201905092915050565b7f5341464554455354544f4f4c533a2054657374205361666520686173206e6f7460008201527f206265656e206465706c6f7965642c20757365205f736574757053616665282960208201527f2063616c6c696e67207361666528290000000000000000000000000000000000604082015250565b6000612380604f836122ed565b915061238b826122fe565b606082019050919050565b600060208201905081810360008301526123af81612373565b9050919050565b7f5341464554455354544f4f4c533a205361666520696e7374616e6365206e6f7460008201527f20666f756e640000000000000000000000000000000000000000000000000000602082015250565b60006124126026836122ed565b915061241d826123b6565b604082019050919050565b6000602082019050818103600083015261244181612405565b9050919050565b600081519050919050565b600061245e82612448565b61246881856122ed565b935061247881856020860161206f565b6124818161176e565b840191505092915050565b60006040820190506124a16000830185612044565b81810360208301526124b38184612453565b90509392505050565b60006020820190506124d16000830184612044565b92915050565b6000819050602082019050919050565b6000819050919050565b60006124fd82516124e7565b80915050919050565b600082821b905092915050565b600061251e82612053565b82612528846124d7565b9050612533816124f1565b925060208210156125735761256e7fffffffffffffffffffffffffffffffffffffffffffffffffffffffffffffffff83602003600802612506565b831692505b5050919050565b600082825260208201905092915050565b61259481611a5e565b82525050565b60006125a6838361258b565b60208301905092915050565b60006125bd82611a12565b6125c7818561257a565b93506125d283611a2e565b8060005b838110156126035781516125ea888261259a565b97506125f583611a97565b9250506001810190506125d6565b5085935050505092915050565b6000602082019050818103600083015261262a81846125b2565b905092915050565b600067ffffffffffffffff82111561264d5761264c61177f565b5b602082029050602081019050919050565b60008151905061266d81611cf7565b92915050565b600061268661268184612632565b6117df565b905080838252602082019050602084028301858111156126a9576126a8611826565b5b835b818110156126d257806126be888261265e565b8452602084019350506020810190506126ab565b5050509392505050565b600082601f8301126126f1576126f0611769565b5b8151612701848260208601612673565b91505092915050565b6000602082840312156127205761271f61175f565b5b600082015167ffffffffffffffff81111561273e5761273d611764565b5b61274a848285016126dc565b91505092915050565b7f5341464554455354544f4f4c533a20697373756520776974682070726976617460008201527f65206b657920736f7274696e672c20706c65617365206f70656e20612074696360208201527f6b6574206f6e2067697468756200000000000000000000000000000000000000604082015250565b60006127d5604d836122ed565b91506127e082612753565b606082019050919050565b60006020820190508181036000830152612804816127c8565b9050919050565b6000602082019050612820600083018461216d565b92915050565b60006020828403121561283c5761283b61175f565b5b600061284a8482850161265e565b9150509291505056fea164736f6c6343000813000a608060405234801561001057600080fd5b50600160048190555061607b80620000296000396000f3fe6080604052600436106101dc5760003560e01c8063affed0e011610102578063e19a9dd911610095578063f08a032311610064578063f08a0323146107de578063f698da2514610807578063f8dc5dd914610832578063ffa1ad741461085b57610231565b8063e19a9dd914610724578063e318b52b1461074d578063e75235b814610776578063e86637db146107a157610231565b8063cc2f8452116100d1578063cc2f845214610657578063d4d9bdcd14610695578063d8d11f78146106be578063e009cfde146106fb57610231565b8063affed0e01461059d578063b4faba09146105c8578063b63e800d146105f1578063c4ca3a9c1461061a57610231565b80635624b25b1161017a5780636a761202116101495780636a761202146104dc5780637d8329741461050c578063934f3a1114610549578063a0e67e2b1461057257610231565b80635624b25b146104105780635ae6bd371461044d578063610b59251461048a578063694e80c3146104b357610231565b80632f54bf6e116101b65780632f54bf6e1461032d5780633408e4701461036a578063468721a7146103955780635229073f146103d257610231565b80630d582f131461029e57806312fb68e0146102c75780632d9ad53d146102f057610231565b36610231573373ffffffffffffffffffffffffffffffffffffffff167f3d0ce9bfc3ed7d6862dbb28b2dea94561fe714a1b4d019aa8af39730d1ad7c3d346040516102279190613e89565b60405180910390a2005b34801561023d57600080fd5b5060007f6c9a6c4a39284e37ed1cf53d337577d14212a4870fb976a4366c693b939918d560001b905080548061027257600080f35b36600080373360601b365260008060143601600080855af13d6000803e80610299573d6000fd5b3d6000f35b3480156102aa57600080fd5b506102c560048036038101906102c09190613f42565b610886565b005b3480156102d357600080fd5b506102ee60048036038101906102e991906140fe565b610c00565b005b3480156102fc57600080fd5b506103176004803603810190610312919061419d565b6111f6565b60405161032491906141e5565b60405180910390f35b34801561033957600080fd5b50610354600480360381019061034f919061419d565b6112c8565b60405161036191906141e5565b60405180910390f35b34801561037657600080fd5b5061037f61139a565b60405161038c9190613e89565b60405180910390f35b3480156103a157600080fd5b506103bc60048036038101906103b79190614225565b6113a7565b6040516103c991906141e5565b60405180910390f35b3480156103de57600080fd5b506103f960048036038101906103f49190614225565b61155a565b604051610407929190614327565b60405180910390f35b34801561041c57600080fd5b5061043760048036038101906104329190614357565b611590565b6040516104449190614397565b60405180910390f35b34801561045957600080fd5b50610474600480360381019061046f91906143b9565b611628565b6040516104819190613e89565b60405180910390f35b34801561049657600080fd5b506104b160048036038101906104ac919061419d565b611640565b005b3480156104bf57600080fd5b506104da60048036038101906104d591906143e6565b611956565b005b6104f660048036038101906104f191906144b1565b611a2a565b60405161050391906141e5565b60405180910390f35b34801561051857600080fd5b50610533600480360381019061052e91906145cd565b611deb565b6040516105409190613e89565b60405180910390f35b34801561055557600080fd5b50610570600480360381019061056b919061460d565b611e10565b005b34801561057e57600080fd5b50610587611e6c565b6040516105949190614756565b60405180910390f35b3480156105a957600080fd5b506105b2612024565b6040516105bf9190613e89565b60405180910390f35b3480156105d457600080fd5b506105ef60048036038101906105ea9190614778565b61202a565b005b3480156105fd57600080fd5b506106186004803603810190610613919061482a565b61204c565b005b34801561062657600080fd5b50610641600480360381019061063c9190614921565b61219f565b60405161064e9190613e89565b60405180910390f35b34801561066357600080fd5b5061067e60048036038101906106799190613f42565b61226b565b60405161068c9291906149b8565b60405180910390f35b3480156106a157600080fd5b506106bc60048036038101906106b791906143b9565b61246c565b005b3480156106ca57600080fd5b506106e560048036038101906106e091906149e8565b6125d7565b6040516106f29190614af7565b60405180910390f35b34801561070757600080fd5b50610722600480360381019061071d9190614b12565b612604565b005b34801561073057600080fd5b5061074b6004803603810190610746919061419d565b612919565b005b34801561075957600080fd5b50610774600480360381019061076f9190614b52565b612987565b005b34801561078257600080fd5b5061078b612f01565b6040516107989190613e89565b60405180910390f35b3480156107ad57600080fd5b506107c860048036038101906107c391906149e8565b612f0b565b6040516107d59190614397565b60405180910390f35b3480156107ea57600080fd5b506108056004803603810190610800919061419d565b612fcd565b005b34801561081357600080fd5b5061081c613018565b6040516108299190614af7565b60405180910390f35b34801561083e57600080fd5b5061085960048036038101906108549190614ba5565b613074565b005b34801561086757600080fd5b50610870613406565b60405161087d9190614c4d565b60405180910390f35b61088e61343f565b600073ffffffffffffffffffffffffffffffffffffffff168273ffffffffffffffffffffffffffffffffffffffff16141580156108f85750600173ffffffffffffffffffffffffffffffffffffffff168273ffffffffffffffffffffffffffffffffffffffff1614155b801561093057503073ffffffffffffffffffffffffffffffffffffffff168273ffffffffffffffffffffffffffffffffffffffff1614155b61096f576040517f08c379a000000000000000000000000000000000000000000000000000000000815260040161096690614cbb565b60405180910390fd5b600073ffffffffffffffffffffffffffffffffffffffff16600260008473ffffffffffffffffffffffffffffffffffffffff1673ffffffffffffffffffffffffffffffffffffffff16815260200190815260200160002060009054906101000a900473ffffffffffffffffffffffffffffffffffffffff1673ffffffffffffffffffffffffffffffffffffffff1614610a3d576040517f08c379a0000000000000000000000000000000000000000000000000000000008152600401610a3490614d27565b60405180910390fd5b60026000600173ffffffffffffffffffffffffffffffffffffffff1673ffffffffffffffffffffffffffffffffffffffff16815260200190815260200160002060009054906101000a900473ffffffffffffffffffffffffffffffffffffffff16600260008473ffffffffffffffffffffffffffffffffffffffff1673ffffffffffffffffffffffffffffffffffffffff16815260200190815260200160002060006101000a81548173ffffffffffffffffffffffffffffffffffffffff021916908373ffffffffffffffffffffffffffffffffffffffff1602179055508160026000600173ffffffffffffffffffffffffffffffffffffffff1673ffffffffffffffffffffffffffffffffffffffff16815260200190815260200160002060006101000a81548173ffffffffffffffffffffffffffffffffffffffff021916908373ffffffffffffffffffffffffffffffffffffffff16021790555060036000815480929190610bad90614d76565b91905055507f9465fa0c962cc76958e6373a993326400c1c94f8be2fe3a952adfa7f60b2ea2682604051610be19190614dbe565b60405180910390a18060045414610bfc57610bfb81611956565b5b5050565b610c146041826134af90919063ffffffff16565b82511015610c57576040517f08c379a0000000000000000000000000000000000000000000000000000000008152600401610c4e90614e25565b60405180910390fd5b6000808060008060005b868110156111ea57610c7388826134f3565b80945081955082965050505060008460ff1603610ecd578260001c9450610ca46041886134af90919063ffffffff16565b8260001c1015610ce9576040517f08c379a0000000000000000000000000000000000000000000000000000000008152600401610ce090614e91565b60405180910390fd5b8751610d0260208460001c61352290919063ffffffff16565b1115610d43576040517f08c379a0000000000000000000000000000000000000000000000000000000008152600401610d3a90614efd565b60405180910390fd5b60006020838a01015190508851610d7982610d6b60208760001c61352290919063ffffffff16565b61352290919063ffffffff16565b1115610dba576040517f08c379a0000000000000000000000000000000000000000000000000000000008152600401610db190614f69565b60405180910390fd5b60606020848b010190506320c13b0b60e01b7bffffffffffffffffffffffffffffffffffffffffffffffffffffffff19168773ffffffffffffffffffffffffffffffffffffffff166320c13b0b8d846040518363ffffffff1660e01b8152600401610e26929190614f89565b602060405180830381865afa158015610e43573d6000803e3d6000fd5b505050506040513d601f19601f82011682018060405250810190610e679190615018565b7bffffffffffffffffffffffffffffffffffffffffffffffffffffffff191614610ec6576040517f08c379a0000000000000000000000000000000000000000000000000000000008152600401610ebd90615091565b60405180910390fd5b5050611095565b60018460ff1603610fad578260001c94508473ffffffffffffffffffffffffffffffffffffffff163373ffffffffffffffffffffffffffffffffffffffff161480610f6957506000600860008773ffffffffffffffffffffffffffffffffffffffff1673ffffffffffffffffffffffffffffffffffffffff16815260200190815260200160002060008c81526020019081526020016000205414155b610fa8576040517f08c379a0000000000000000000000000000000000000000000000000000000008152600401610f9f906150fd565b60405180910390fd5b611094565b601e8460ff1611156110415760018a604051602001610fcc9190615195565b60405160208183030381529060405280519060200120600486610fef91906151c8565b85856040516000815260200160405260405161100e949392919061520c565b6020604051602081039080840390855afa158015611030573d6000803e3d6000fd5b505050602060405103519450611093565b60018a85858560405160008152602001604052604051611064949392919061520c565b6020604051602081039080840390855afa158015611086573d6000803e3d6000fd5b5050506020604051035194505b5b5b8573ffffffffffffffffffffffffffffffffffffffff168573ffffffffffffffffffffffffffffffffffffffff1611801561115c5750600073ffffffffffffffffffffffffffffffffffffffff16600260008773ffffffffffffffffffffffffffffffffffffffff1673ffffffffffffffffffffffffffffffffffffffff16815260200190815260200160002060009054906101000a900473ffffffffffffffffffffffffffffffffffffffff1673ffffffffffffffffffffffffffffffffffffffff1614155b80156111955750600173ffffffffffffffffffffffffffffffffffffffff168573ffffffffffffffffffffffffffffffffffffffff1614155b6111d4576040517f08c379a00000000000000000000000000000000000000000000000000000000081526004016111cb9061529d565b60405180910390fd5b84955080806111e290614d76565b915050610c61565b50505050505050505050565b60008173ffffffffffffffffffffffffffffffffffffffff16600173ffffffffffffffffffffffffffffffffffffffff16141580156112c15750600073ffffffffffffffffffffffffffffffffffffffff16600160008473ffffffffffffffffffffffffffffffffffffffff1673ffffffffffffffffffffffffffffffffffffffff16815260200190815260200160002060009054906101000a900473ffffffffffffffffffffffffffffffffffffffff1673ffffffffffffffffffffffffffffffffffffffff1614155b9050919050565b6000600173ffffffffffffffffffffffffffffffffffffffff168273ffffffffffffffffffffffffffffffffffffffff16141580156113935750600073ffffffffffffffffffffffffffffffffffffffff16600260008473ffffffffffffffffffffffffffffffffffffffff1673ffffffffffffffffffffffffffffffffffffffff16815260200190815260200160002060009054906101000a900473ffffffffffffffffffffffffffffffffffffffff1673ffffffffffffffffffffffffffffffffffffffff1614155b9050919050565b6000804690508091505090565b6000600173ffffffffffffffffffffffffffffffffffffffff163373ffffffffffffffffffffffffffffffffffffffff16141580156114725750600073ffffffffffffffffffffffffffffffffffffffff16600160003373ffffffffffffffffffffffffffffffffffffffff1673ffffffffffffffffffffffffffffffffffffffff16815260200190815260200160002060009054906101000a900473ffffffffffffffffffffffffffffffffffffffff1673ffffffffffffffffffffffffffffffffffffffff1614155b6114b1576040517f08c379a00000000000000000000000000000000000000000000000000000000081526004016114a890615309565b60405180910390fd5b6114be858585855a61354a565b9050801561150e573373ffffffffffffffffffffffffffffffffffffffff167f6895c13664aa4f67288b25d7a21d7aaa34916e355fb9b6fae0a139a9085becb860405160405180910390a2611552565b3373ffffffffffffffffffffffffffffffffffffffff167facd2c8702804128fdb0db2bb49f6d127dd0181c13fd45dbfe16de0930e2bd37560405160405180910390a25b949350505050565b6000606061156a868686866113a7565b915060405160203d0181016040523d81523d6000602083013e8091505094509492505050565b606060006020836115a19190615329565b67ffffffffffffffff8111156115ba576115b9613fd3565b5b6040519080825280601f01601f1916602001820160405280156115ec5781602001600182028036833780820191505090505b50905060005b8381101561161d5780850154806020830260208501015250808061161590614d76565b9150506115f2565b508091505092915050565b60076020528060005260406000206000915090505481565b61164861343f565b600073ffffffffffffffffffffffffffffffffffffffff168173ffffffffffffffffffffffffffffffffffffffff16141580156116b25750600173ffffffffffffffffffffffffffffffffffffffff168173ffffffffffffffffffffffffffffffffffffffff1614155b6116f1576040517f08c379a00000000000000000000000000000000000000000000000000000000081526004016116e8906153b7565b60405180910390fd5b600073ffffffffffffffffffffffffffffffffffffffff16600160008373ffffffffffffffffffffffffffffffffffffffff1673ffffffffffffffffffffffffffffffffffffffff16815260200190815260200160002060009054906101000a900473ffffffffffffffffffffffffffffffffffffffff1673ffffffffffffffffffffffffffffffffffffffff16146117bf576040517f08c379a00000000000000000000000000000000000000000000000000000000081526004016117b690615423565b60405180910390fd5b60016000600173ffffffffffffffffffffffffffffffffffffffff1673ffffffffffffffffffffffffffffffffffffffff16815260200190815260200160002060009054906101000a900473ffffffffffffffffffffffffffffffffffffffff16600160008373ffffffffffffffffffffffffffffffffffffffff1673ffffffffffffffffffffffffffffffffffffffff16815260200190815260200160002060006101000a81548173ffffffffffffffffffffffffffffffffffffffff021916908373ffffffffffffffffffffffffffffffffffffffff1602179055508060016000600173ffffffffffffffffffffffffffffffffffffffff1673ffffffffffffffffffffffffffffffffffffffff16815260200190815260200160002060006101000a81548173ffffffffffffffffffffffffffffffffffffffff021916908373ffffffffffffffffffffffffffffffffffffffff1602179055507fecdf3a3effea5783a3c4c2140e677577666428d44ed9d474a0b3a4c9943f84408160405161194b9190614dbe565b60405180910390a150565b61195e61343f565b6003548111156119a3576040517f08c379a000000000000000000000000000000000000000000000000000000000815260040161199a9061548f565b60405180910390fd5b60018110156119e7576040517f08c379a00000000000000000000000000000000000000000000000000000000081526004016119de906154fb565b60405180910390fd5b806004819055507f610f7ff2b304ae8903c3de74c60c6ab1f7d6226b3f52c5161905bb5ad4039c93600454604051611a1f9190613e89565b60405180910390a150565b6000806000611a448e8e8e8e8e8e8e8e8e8e600554612f0b565b905060056000815480929190611a5990614d76565b919050555080805190602001209150611a73828286611e10565b506000611a7e6135a3565b9050600073ffffffffffffffffffffffffffffffffffffffff168173ffffffffffffffffffffffffffffffffffffffff1614611b36578073ffffffffffffffffffffffffffffffffffffffff166375f0bb528f8f8f8f8f8f8f8f8f8f8f336040518d63ffffffff1660e01b8152600401611b039c9b9a999897969594939291906155ce565b600060405180830381600087803b158015611b1d57600080fd5b505af1158015611b31573d6000803e3d6000fd5b505050505b6101f4611b716109c48b611b4a9190615689565b603f60408d611b599190615329565b611b6391906156ec565b6135d490919063ffffffff16565b611b7b9190615689565b5a1015611bbd576040517f08c379a0000000000000000000000000000000000000000000000000000000008152600401611bb490615769565b60405180910390fd5b60005a9050611c2f8f8f8f8f8080601f016020809104026020016040519081016040528093929190818152602001838380828437600081840152601f19601f820116905080830192505050505050508e60008d14611c1b578e611c2a565b6109c45a611c299190615789565b5b61354a565b9350611c445a826135ee90919063ffffffff16565b90508380611c53575060008a14155b80611c5f575060008814155b611c9e576040517f08c379a0000000000000000000000000000000000000000000000000000000008152600401611c9590615809565b60405180910390fd5b600080891115611cb857611cb5828b8b8b8b613617565b90505b8415611cfc577f442e715f626346e8c54381002da614f62bee8d27386535b2521ec8540898556e8482604051611cef929190615829565b60405180910390a1611d36565b7f23428b18acfb3ea64b08dc0c1d296ea9c09702c09083ca5272e64d115b687d238482604051611d2d929190615829565b60405180910390a15b5050600073ffffffffffffffffffffffffffffffffffffffff168173ffffffffffffffffffffffffffffffffffffffff1614611dda578073ffffffffffffffffffffffffffffffffffffffff16639327136883856040518363ffffffff1660e01b8152600401611da7929190615852565b600060405180830381600087803b158015611dc157600080fd5b505af1158015611dd5573d6000803e3d6000fd5b505050505b50509b9a5050505050505050505050565b6008602052816000526040600020602052806000526040600020600091509150505481565b6000600454905060008111611e5a576040517f08c379a0000000000000000000000000000000000000000000000000000000008152600401611e51906158c7565b60405180910390fd5b611e6684848484610c00565b50505050565b6060600060035467ffffffffffffffff811115611e8c57611e8b613fd3565b5b604051908082528060200260200182016040528015611eba5781602001602082028036833780820191505090505b50905060008060026000600173ffffffffffffffffffffffffffffffffffffffff1673ffffffffffffffffffffffffffffffffffffffff16815260200190815260200160002060009054906101000a900473ffffffffffffffffffffffffffffffffffffffff1690505b600173ffffffffffffffffffffffffffffffffffffffff168173ffffffffffffffffffffffffffffffffffffffff161461201b5780838381518110611f6c57611f6b6158e7565b5b602002602001019073ffffffffffffffffffffffffffffffffffffffff16908173ffffffffffffffffffffffffffffffffffffffff1681525050600260008273ffffffffffffffffffffffffffffffffffffffff1673ffffffffffffffffffffffffffffffffffffffff16815260200190815260200160002060009054906101000a900473ffffffffffffffffffffffffffffffffffffffff169050818061201390614d76565b925050611f24565b82935050505090565b60055481565b600080825160208401855af4806000523d6020523d600060403e60403d016000fd5b6120978a8a80806020026020016040519081016040528093929190818152602001838360200280828437600081840152601f19601f82011690508083019250505050505050896137b6565b600073ffffffffffffffffffffffffffffffffffffffff168473ffffffffffffffffffffffffffffffffffffffff16146120d5576120d484613bc4565b5b6121238787878080601f016020809104026020016040519081016040528093929190818152602001838380828437600081840152601f19601f82011690508083019250505050505050613bf3565b600082111561213d5761213b82600060018685613617565b505b3373ffffffffffffffffffffffffffffffffffffffff167f141df868a6331af528e38c83b7aa03edc19be66e37ae67f9285bf4f8e3c6a1a88b8b8b8b8960405161218b9594939291906159a1565b60405180910390a250505050505050505050565b6000805a90506121f6878787878080601f016020809104026020016040519081016040528093929190818152602001838380828437600081840152601f19601f82011690508083019250505050505050865a61354a565b6121ff57600080fd5b60005a8261220d9190615789565b9050806040516020016122209190615a10565b6040516020818303038152906040526040517f08c379a00000000000000000000000000000000000000000000000000000000081526004016122629190614c4d565b60405180910390fd5b606060008267ffffffffffffffff81111561228957612288613fd3565b5b6040519080825280602002602001820160405280156122b75781602001602082028036833780820191505090505b509150600080600160008773ffffffffffffffffffffffffffffffffffffffff1673ffffffffffffffffffffffffffffffffffffffff16815260200190815260200160002060009054906101000a900473ffffffffffffffffffffffffffffffffffffffff1690505b600073ffffffffffffffffffffffffffffffffffffffff168173ffffffffffffffffffffffffffffffffffffffff161415801561238a5750600173ffffffffffffffffffffffffffffffffffffffff168173ffffffffffffffffffffffffffffffffffffffff1614155b801561239557508482105b1561245d57808483815181106123ae576123ad6158e7565b5b602002602001019073ffffffffffffffffffffffffffffffffffffffff16908173ffffffffffffffffffffffffffffffffffffffff1681525050600160008273ffffffffffffffffffffffffffffffffffffffff1673ffffffffffffffffffffffffffffffffffffffff16815260200190815260200160002060009054906101000a900473ffffffffffffffffffffffffffffffffffffffff169050818061245590614d76565b925050612320565b80925081845250509250929050565b600073ffffffffffffffffffffffffffffffffffffffff16600260003373ffffffffffffffffffffffffffffffffffffffff1673ffffffffffffffffffffffffffffffffffffffff16815260200190815260200160002060009054906101000a900473ffffffffffffffffffffffffffffffffffffffff1673ffffffffffffffffffffffffffffffffffffffff160361253a576040517f08c379a000000000000000000000000000000000000000000000000000000000815260040161253190615a77565b60405180910390fd5b6001600860003373ffffffffffffffffffffffffffffffffffffffff1673ffffffffffffffffffffffffffffffffffffffff1681526020019081526020016000206000838152602001908152602001600020819055503373ffffffffffffffffffffffffffffffffffffffff16817ff2a0eb156472d1440255b0d7c1e19cc07115d1051fe605b0dce69acfec884d9c60405160405180910390a350565b60006125ec8c8c8c8c8c8c8c8c8c8c8c612f0b565b8051906020012090509b9a5050505050505050505050565b61260c61343f565b600073ffffffffffffffffffffffffffffffffffffffff168173ffffffffffffffffffffffffffffffffffffffff16141580156126765750600173ffffffffffffffffffffffffffffffffffffffff168173ffffffffffffffffffffffffffffffffffffffff1614155b6126b5576040517f08c379a00000000000000000000000000000000000000000000000000000000081526004016126ac906153b7565b60405180910390fd5b8073ffffffffffffffffffffffffffffffffffffffff16600160008473ffffffffffffffffffffffffffffffffffffffff1673ffffffffffffffffffffffffffffffffffffffff16815260200190815260200160002060009054906101000a900473ffffffffffffffffffffffffffffffffffffffff1673ffffffffffffffffffffffffffffffffffffffff1614612782576040517f08c379a000000000000000000000000000000000000000000000000000000000815260040161277990615ae3565b60405180910390fd5b600160008273ffffffffffffffffffffffffffffffffffffffff1673ffffffffffffffffffffffffffffffffffffffff16815260200190815260200160002060009054906101000a900473ffffffffffffffffffffffffffffffffffffffff16600160008473ffffffffffffffffffffffffffffffffffffffff1673ffffffffffffffffffffffffffffffffffffffff16815260200190815260200160002060006101000a81548173ffffffffffffffffffffffffffffffffffffffff021916908373ffffffffffffffffffffffffffffffffffffffff1602179055506000600160008373ffffffffffffffffffffffffffffffffffffffff1673ffffffffffffffffffffffffffffffffffffffff16815260200190815260200160002060006101000a81548173ffffffffffffffffffffffffffffffffffffffff021916908373ffffffffffffffffffffffffffffffffffffffff1602179055507faab4fa2b463f581b2b32cb3b7e3b704b9ce37cc209b5fb4d77e593ace40542768160405161290d9190614dbe565b60405180910390a15050565b61292161343f565b60007f4a204f620c8c5ccdca3fd54d003badd85ba500436a431f0cbda4f558c93c34c860001b90508181557f1151116914515bc0891ff9047a6cb32cf902546f83066499bcf8ba33d2353fa28260405161297b9190614dbe565b60405180910390a15050565b61298f61343f565b600073ffffffffffffffffffffffffffffffffffffffff168173ffffffffffffffffffffffffffffffffffffffff16141580156129f95750600173ffffffffffffffffffffffffffffffffffffffff168173ffffffffffffffffffffffffffffffffffffffff1614155b8015612a3157503073ffffffffffffffffffffffffffffffffffffffff168173ffffffffffffffffffffffffffffffffffffffff1614155b612a70576040517f08c379a0000000000000000000000000000000000000000000000000000000008152600401612a6790614cbb565b60405180910390fd5b600073ffffffffffffffffffffffffffffffffffffffff16600260008373ffffffffffffffffffffffffffffffffffffffff1673ffffffffffffffffffffffffffffffffffffffff16815260200190815260200160002060009054906101000a900473ffffffffffffffffffffffffffffffffffffffff1673ffffffffffffffffffffffffffffffffffffffff1614612b3e576040517f08c379a0000000000000000000000000000000000000000000000000000000008152600401612b3590614d27565b60405180910390fd5b600073ffffffffffffffffffffffffffffffffffffffff168273ffffffffffffffffffffffffffffffffffffffff1614158015612ba85750600173ffffffffffffffffffffffffffffffffffffffff168273ffffffffffffffffffffffffffffffffffffffff1614155b612be7576040517f08c379a0000000000000000000000000000000000000000000000000000000008152600401612bde90614cbb565b60405180910390fd5b8173ffffffffffffffffffffffffffffffffffffffff16600260008573ffffffffffffffffffffffffffffffffffffffff1673ffffffffffffffffffffffffffffffffffffffff16815260200190815260200160002060009054906101000a900473ffffffffffffffffffffffffffffffffffffffff1673ffffffffffffffffffffffffffffffffffffffff1614612cb4576040517f08c379a0000000000000000000000000000000000000000000000000000000008152600401612cab90615b4f565b60405180910390fd5b600260008373ffffffffffffffffffffffffffffffffffffffff1673ffffffffffffffffffffffffffffffffffffffff16815260200190815260200160002060009054906101000a900473ffffffffffffffffffffffffffffffffffffffff16600260008373ffffffffffffffffffffffffffffffffffffffff1673ffffffffffffffffffffffffffffffffffffffff16815260200190815260200160002060006101000a81548173ffffffffffffffffffffffffffffffffffffffff021916908373ffffffffffffffffffffffffffffffffffffffff16021790555080600260008573ffffffffffffffffffffffffffffffffffffffff1673ffffffffffffffffffffffffffffffffffffffff16815260200190815260200160002060006101000a81548173ffffffffffffffffffffffffffffffffffffffff021916908373ffffffffffffffffffffffffffffffffffffffff1602179055506000600260008473ffffffffffffffffffffffffffffffffffffffff1673ffffffffffffffffffffffffffffffffffffffff16815260200190815260200160002060006101000a81548173ffffffffffffffffffffffffffffffffffffffff021916908373ffffffffffffffffffffffffffffffffffffffff1602179055507ff8d49fc529812e9a7c5c50e69c20f0dccc0db8fa95c98bc58cc9a4f1c1299eaf82604051612ebd9190614dbe565b60405180910390a17f9465fa0c962cc76958e6373a993326400c1c94f8be2fe3a952adfa7f60b2ea2681604051612ef49190614dbe565b60405180910390a1505050565b6000600454905090565b606060007fbb8310d486368db6bd6f849402fdd73ad53d316b5a4b2644ad6efe0f941286d860001b8d8d8d8d604051612f45929190615b9f565b60405180910390208c8c8c8c8c8c8c604051602001612f6e9b9a99989796959493929190615bb8565b604051602081830303815290604052805190602001209050601960f81b600160f81b612f98613018565b83604051602001612fac9493929190615cb0565b6040516020818303038152906040529150509b9a5050505050505050505050565b612fd561343f565b612fde81613bc4565b7f5ac6c46c93c8d0e53714ba3b53db3e7c046da994313d7ed0d192028bc7c228b08160405161300d9190614dbe565b60405180910390a150565b60007f47e79534a245952e8b16893a336b85a3d9ea9fa8c573f3d803afb92a7946921860001b61304661139a565b3060405160200161305993929190615d5d565b60405160208183030381529060405280519060200120905090565b61307c61343f565b80600160035461308c9190615789565b10156130cd576040517f08c379a00000000000000000000000000000000000000000000000000000000081526004016130c49061548f565b60405180910390fd5b600073ffffffffffffffffffffffffffffffffffffffff168273ffffffffffffffffffffffffffffffffffffffff16141580156131375750600173ffffffffffffffffffffffffffffffffffffffff168273ffffffffffffffffffffffffffffffffffffffff1614155b613176576040517f08c379a000000000000000000000000000000000000000000000000000000000815260040161316d90614cbb565b60405180910390fd5b8173ffffffffffffffffffffffffffffffffffffffff16600260008573ffffffffffffffffffffffffffffffffffffffff1673ffffffffffffffffffffffffffffffffffffffff16815260200190815260200160002060009054906101000a900473ffffffffffffffffffffffffffffffffffffffff1673ffffffffffffffffffffffffffffffffffffffff1614613243576040517f08c379a000000000000000000000000000000000000000000000000000000000815260040161323a90615b4f565b60405180910390fd5b600260008373ffffffffffffffffffffffffffffffffffffffff1673ffffffffffffffffffffffffffffffffffffffff16815260200190815260200160002060009054906101000a900473ffffffffffffffffffffffffffffffffffffffff16600260008573ffffffffffffffffffffffffffffffffffffffff1673ffffffffffffffffffffffffffffffffffffffff16815260200190815260200160002060006101000a81548173ffffffffffffffffffffffffffffffffffffffff021916908373ffffffffffffffffffffffffffffffffffffffff1602179055506000600260008473ffffffffffffffffffffffffffffffffffffffff1673ffffffffffffffffffffffffffffffffffffffff16815260200190815260200160002060006101000a81548173ffffffffffffffffffffffffffffffffffffffff021916908373ffffffffffffffffffffffffffffffffffffffff160217905550600360008154809291906133b290615d94565b91905055507ff8d49fc529812e9a7c5c50e69c20f0dccc0db8fa95c98bc58cc9a4f1c1299eaf826040516133e69190614dbe565b60405180910390a180600454146134015761340081611956565b5b505050565b6040518060400160405280600581526020017f312e332e3000000000000000000000000000000000000000000000000000000081525081565b3073ffffffffffffffffffffffffffffffffffffffff163373ffffffffffffffffffffffffffffffffffffffff16146134ad576040517f08c379a00000000000000000000000000000000000000000000000000000000081526004016134a490615e09565b60405180910390fd5b565b60008083036134c157600090506134ed565b600082846134cf9190615329565b90508284826134de91906156ec565b146134e857600080fd5b809150505b92915050565b60008060008360410260208101860151925060408101860151915060ff60418201870151169350509250925092565b60008082846135319190615689565b90508381101561354057600080fd5b8091505092915050565b600060018081111561355f5761355e615548565b5b83600181111561357257613571615548565b5b0361358a576000808551602087018986f4905061359a565b600080855160208701888a87f190505b95945050505050565b6000807f4a204f620c8c5ccdca3fd54d003badd85ba500436a431f0cbda4f558c93c34c860001b9050805491505090565b6000818310156135e457816135e6565b825b905092915050565b6000828211156135fd57600080fd5b6000828461360b9190615789565b90508091505092915050565b600080600073ffffffffffffffffffffffffffffffffffffffff168373ffffffffffffffffffffffffffffffffffffffff16146136545782613656565b325b9050600073ffffffffffffffffffffffffffffffffffffffff168473ffffffffffffffffffffffffffffffffffffffff160361373a576136bf3a861061369c573a61369e565b855b6136b1888a61352290919063ffffffff16565b6134af90919063ffffffff16565b91508073ffffffffffffffffffffffffffffffffffffffff166108fc839081150290604051600060405180830381858888f19350505050613735576040517f08c379a000000000000000000000000000000000000000000000000000000000815260040161372c90615e75565b60405180910390fd5b6137ac565b61375f85613751888a61352290919063ffffffff16565b6134af90919063ffffffff16565b915061376c848284613dc8565b6137ab576040517f08c379a00000000000000000000000000000000000000000000000000000000081526004016137a290615ee1565b60405180910390fd5b5b5095945050505050565b6000600454146137fb576040517f08c379a00000000000000000000000000000000000000000000000000000000081526004016137f290615f4d565b60405180910390fd5b815181111561383f576040517f08c379a00000000000000000000000000000000000000000000000000000000081526004016138369061548f565b60405180910390fd5b6001811015613883576040517f08c379a000000000000000000000000000000000000000000000000000000000815260040161387a906154fb565b60405180910390fd5b60006001905060005b8351811015613b305760008482815181106138aa576138a96158e7565b5b60200260200101519050600073ffffffffffffffffffffffffffffffffffffffff168173ffffffffffffffffffffffffffffffffffffffff161415801561391e5750600173ffffffffffffffffffffffffffffffffffffffff168173ffffffffffffffffffffffffffffffffffffffff1614155b801561395657503073ffffffffffffffffffffffffffffffffffffffff168173ffffffffffffffffffffffffffffffffffffffff1614155b801561398e57508073ffffffffffffffffffffffffffffffffffffffff168373ffffffffffffffffffffffffffffffffffffffff1614155b6139cd576040517f08c379a00000000000000000000000000000000000000000000000000000000081526004016139c490614cbb565b60405180910390fd5b600073ffffffffffffffffffffffffffffffffffffffff16600260008373ffffffffffffffffffffffffffffffffffffffff1673ffffffffffffffffffffffffffffffffffffffff16815260200190815260200160002060009054906101000a900473ffffffffffffffffffffffffffffffffffffffff1673ffffffffffffffffffffffffffffffffffffffff1614613a9b576040517f08c379a0000000000000000000000000000000000000000000000000000000008152600401613a9290614d27565b60405180910390fd5b80600260008573ffffffffffffffffffffffffffffffffffffffff1673ffffffffffffffffffffffffffffffffffffffff16815260200190815260200160002060006101000a81548173ffffffffffffffffffffffffffffffffffffffff021916908373ffffffffffffffffffffffffffffffffffffffff160217905550809250508080613b2890614d76565b91505061388c565b506001600260008373ffffffffffffffffffffffffffffffffffffffff1673ffffffffffffffffffffffffffffffffffffffff16815260200190815260200160002060006101000a81548173ffffffffffffffffffffffffffffffffffffffff021916908373ffffffffffffffffffffffffffffffffffffffff160217905550825160038190555081600481905550505050565b60007f6c9a6c4a39284e37ed1cf53d337577d14212a4870fb976a4366c693b939918d560001b90508181555050565b600073ffffffffffffffffffffffffffffffffffffffff1660016000600173ffffffffffffffffffffffffffffffffffffffff1673ffffffffffffffffffffffffffffffffffffffff16815260200190815260200160002060009054906101000a900473ffffffffffffffffffffffffffffffffffffffff1673ffffffffffffffffffffffffffffffffffffffff1614613cc2576040517f08c379a0000000000000000000000000000000000000000000000000000000008152600401613cb990615fb9565b60405180910390fd5b6001806000600173ffffffffffffffffffffffffffffffffffffffff1673ffffffffffffffffffffffffffffffffffffffff16815260200190815260200160002060006101000a81548173ffffffffffffffffffffffffffffffffffffffff021916908373ffffffffffffffffffffffffffffffffffffffff160217905550600073ffffffffffffffffffffffffffffffffffffffff168273ffffffffffffffffffffffffffffffffffffffff1614613dc457613d848260008360015a61354a565b613dc3576040517f08c379a0000000000000000000000000000000000000000000000000000000008152600401613dba90616025565b60405180910390fd5b5b5050565b60008063a9059cbb8484604051602401613de3929190616045565b6040516020818303038152906040529060e01b6020820180517bffffffffffffffffffffffffffffffffffffffffffffffffffffffff83818316178352505050509050602060008251602084016000896127105a03f13d60008114613e535760208114613e5b5760009350613e66565b819350613e66565b600051158215171593505b5050509392505050565b6000819050919050565b613e8381613e70565b82525050565b6000602082019050613e9e6000830184613e7a565b92915050565b6000604051905090565b600080fd5b600080fd5b600073ffffffffffffffffffffffffffffffffffffffff82169050919050565b6000613ee382613eb8565b9050919050565b613ef381613ed8565b8114613efe57600080fd5b50565b600081359050613f1081613eea565b92915050565b613f1f81613e70565b8114613f2a57600080fd5b50565b600081359050613f3c81613f16565b92915050565b60008060408385031215613f5957613f58613eae565b5b6000613f6785828601613f01565b9250506020613f7885828601613f2d565b9150509250929050565b6000819050919050565b613f9581613f82565b8114613fa057600080fd5b50565b600081359050613fb281613f8c565b92915050565b600080fd5b600080fd5b6000601f19601f8301169050919050565b7f4e487b7100000000000000000000000000000000000000000000000000000000600052604160045260246000fd5b61400b82613fc2565b810181811067ffffffffffffffff8211171561402a57614029613fd3565b5b80604052505050565b600061403d613ea4565b90506140498282614002565b919050565b600067ffffffffffffffff82111561406957614068613fd3565b5b61407282613fc2565b9050602081019050919050565b82818337600083830152505050565b60006140a161409c8461404e565b614033565b9050828152602081018484840111156140bd576140bc613fbd565b5b6140c884828561407f565b509392505050565b600082601f8301126140e5576140e4613fb8565b5b81356140f584826020860161408e565b91505092915050565b6000806000806080858703121561411857614117613eae565b5b600061412687828801613fa3565b945050602085013567ffffffffffffffff81111561414757614146613eb3565b5b614153878288016140d0565b935050604085013567ffffffffffffffff81111561417457614173613eb3565b5b614180878288016140d0565b925050606061419187828801613f2d565b91505092959194509250565b6000602082840312156141b3576141b2613eae565b5b60006141c184828501613f01565b91505092915050565b60008115159050919050565b6141df816141ca565b82525050565b60006020820190506141fa60008301846141d6565b92915050565b6002811061420d57600080fd5b50565b60008135905061421f81614200565b92915050565b6000806000806080858703121561423f5761423e613eae565b5b600061424d87828801613f01565b945050602061425e87828801613f2d565b935050604085013567ffffffffffffffff81111561427f5761427e613eb3565b5b61428b878288016140d0565b925050606061429c87828801614210565b91505092959194509250565b600081519050919050565b600082825260208201905092915050565b60005b838110156142e25780820151818401526020810190506142c7565b60008484015250505050565b60006142f9826142a8565b61430381856142b3565b93506143138185602086016142c4565b61431c81613fc2565b840191505092915050565b600060408201905061433c60008301856141d6565b818103602083015261434e81846142ee565b90509392505050565b6000806040838503121561436e5761436d613eae565b5b600061437c85828601613f2d565b925050602061438d85828601613f2d565b9150509250929050565b600060208201905081810360008301526143b181846142ee565b905092915050565b6000602082840312156143cf576143ce613eae565b5b60006143dd84828501613fa3565b91505092915050565b6000602082840312156143fc576143fb613eae565b5b600061440a84828501613f2d565b91505092915050565b600080fd5b600080fd5b60008083601f84011261443357614432613fb8565b5b8235905067ffffffffffffffff8111156144505761444f614413565b5b60208301915083600182028301111561446c5761446b614418565b5b9250929050565b600061447e82613eb8565b9050919050565b61448e81614473565b811461449957600080fd5b50565b6000813590506144ab81614485565b92915050565b60008060008060008060008060008060006101408c8e0312156144d7576144d6613eae565b5b60006144e58e828f01613f01565b9b505060206144f68e828f01613f2d565b9a505060408c013567ffffffffffffffff81111561451757614516613eb3565b5b6145238e828f0161441d565b995099505060606145368e828f01614210565b97505060806145478e828f01613f2d565b96505060a06145588e828f01613f2d565b95505060c06145698e828f01613f2d565b94505060e061457a8e828f01613f01565b93505061010061458c8e828f0161449c565b9250506101208c013567ffffffffffffffff8111156145ae576145ad613eb3565b5b6145ba8e828f016140d0565b9150509295989b509295989b9093969950565b600080604083850312156145e4576145e3613eae565b5b60006145f285828601613f01565b925050602061460385828601613fa3565b9150509250929050565b60008060006060848603121561462657614625613eae565b5b600061463486828701613fa3565b935050602084013567ffffffffffffffff81111561465557614654613eb3565b5b614661868287016140d0565b925050604084013567ffffffffffffffff81111561468257614681613eb3565b5b61468e868287016140d0565b9150509250925092565b600081519050919050565b600082825260208201905092915050565b6000819050602082019050919050565b6146cd81613ed8565b82525050565b60006146df83836146c4565b60208301905092915050565b6000602082019050919050565b600061470382614698565b61470d81856146a3565b9350614718836146b4565b8060005b8381101561474957815161473088826146d3565b975061473b836146eb565b92505060018101905061471c565b5085935050505092915050565b6000602082019050818103600083015261477081846146f8565b905092915050565b6000806040838503121561478f5761478e613eae565b5b600061479d85828601613f01565b925050602083013567ffffffffffffffff8111156147be576147bd613eb3565b5b6147ca858286016140d0565b9150509250929050565b60008083601f8401126147ea576147e9613fb8565b5b8235905067ffffffffffffffff81111561480757614806614413565b5b60208301915083602082028301111561482357614822614418565b5b9250929050565b6000806000806000806000806000806101008b8d03121561484e5761484d613eae565b5b60008b013567ffffffffffffffff81111561486c5761486b613eb3565b5b6148788d828e016147d4565b9a509a5050602061488b8d828e01613f2d565b985050604061489c8d828e01613f01565b97505060608b013567ffffffffffffffff8111156148bd576148bc613eb3565b5b6148c98d828e0161441d565b965096505060806148dc8d828e01613f01565b94505060a06148ed8d828e01613f01565b93505060c06148fe8d828e01613f2d565b92505060e061490f8d828e0161449c565b9150509295989b9194979a5092959850565b60008060008060006080868803121561493d5761493c613eae565b5b600061494b88828901613f01565b955050602061495c88828901613f2d565b945050604086013567ffffffffffffffff81111561497d5761497c613eb3565b5b6149898882890161441d565b9350935050606061499c88828901614210565b9150509295509295909350565b6149b281613ed8565b82525050565b600060408201905081810360008301526149d281856146f8565b90506149e160208301846149a9565b9392505050565b60008060008060008060008060008060006101408c8e031215614a0e57614a0d613eae565b5b6000614a1c8e828f01613f01565b9b50506020614a2d8e828f01613f2d565b9a505060408c013567ffffffffffffffff811115614a4e57614a4d613eb3565b5b614a5a8e828f0161441d565b99509950506060614a6d8e828f01614210565b9750506080614a7e8e828f01613f2d565b96505060a0614a8f8e828f01613f2d565b95505060c0614aa08e828f01613f2d565b94505060e0614ab18e828f01613f01565b935050610100614ac38e828f01613f01565b925050610120614ad58e828f01613f2d565b9150509295989b509295989b9093969950565b614af181613f82565b82525050565b6000602082019050614b0c6000830184614ae8565b92915050565b60008060408385031215614b2957614b28613eae565b5b6000614b3785828601613f01565b9250506020614b4885828601613f01565b9150509250929050565b600080600060608486031215614b6b57614b6a613eae565b5b6000614b7986828701613f01565b9350506020614b8a86828701613f01565b9250506040614b9b86828701613f01565b9150509250925092565b600080600060608486031215614bbe57614bbd613eae565b5b6000614bcc86828701613f01565b9350506020614bdd86828701613f01565b9250506040614bee86828701613f2d565b9150509250925092565b600081519050919050565b600082825260208201905092915050565b6000614c1f82614bf8565b614c298185614c03565b9350614c398185602086016142c4565b614c4281613fc2565b840191505092915050565b60006020820190508181036000830152614c678184614c14565b905092915050565b7f4753323033000000000000000000000000000000000000000000000000000000600082015250565b6000614ca5600583614c03565b9150614cb082614c6f565b602082019050919050565b60006020820190508181036000830152614cd481614c98565b9050919050565b7f4753323034000000000000000000000000000000000000000000000000000000600082015250565b6000614d11600583614c03565b9150614d1c82614cdb565b602082019050919050565b60006020820190508181036000830152614d4081614d04565b9050919050565b7f4e487b7100000000000000000000000000000000000000000000000000000000600052601160045260246000fd5b6000614d8182613e70565b91507fffffffffffffffffffffffffffffffffffffffffffffffffffffffffffffffff8203614db357614db2614d47565b5b600182019050919050565b6000602082019050614dd360008301846149a9565b92915050565b7f4753303230000000000000000000000000000000000000000000000000000000600082015250565b6000614e0f600583614c03565b9150614e1a82614dd9565b602082019050919050565b60006020820190508181036000830152614e3e81614e02565b9050919050565b7f4753303231000000000000000000000000000000000000000000000000000000600082015250565b6000614e7b600583614c03565b9150614e8682614e45565b602082019050919050565b60006020820190508181036000830152614eaa81614e6e565b9050919050565b7f4753303232000000000000000000000000000000000000000000000000000000600082015250565b6000614ee7600583614c03565b9150614ef282614eb1565b602082019050919050565b60006020820190508181036000830152614f1681614eda565b9050919050565b7f4753303233000000000000000000000000000000000000000000000000000000600082015250565b6000614f53600583614c03565b9150614f5e82614f1d565b602082019050919050565b60006020820190508181036000830152614f8281614f46565b9050919050565b60006040820190508181036000830152614fa381856142ee565b90508181036020830152614fb781846142ee565b90509392505050565b60007fffffffff0000000000000000000000000000000000000000000000000000000082169050919050565b614ff581614fc0565b811461500057600080fd5b50565b60008151905061501281614fec565b92915050565b60006020828403121561502e5761502d613eae565b5b600061503c84828501615003565b91505092915050565b7f4753303234000000000000000000000000000000000000000000000000000000600082015250565b600061507b600583614c03565b915061508682615045565b602082019050919050565b600060208201905081810360008301526150aa8161506e565b9050919050565b7f4753303235000000000000000000000000000000000000000000000000000000600082015250565b60006150e7600583614c03565b91506150f2826150b1565b602082019050919050565b60006020820190508181036000830152615116816150da565b9050919050565b600081905092915050565b7f19457468657265756d205369676e6564204d6573736167653a0a333200000000600082015250565b600061515e601c8361511d565b915061516982615128565b601c82019050919050565b6000819050919050565b61518f61518a82613f82565b615174565b82525050565b60006151a082615151565b91506151ac828461517e565b60208201915081905092915050565b600060ff82169050919050565b60006151d3826151bb565b91506151de836151bb565b9250828203905060ff8111156151f7576151f6614d47565b5b92915050565b615206816151bb565b82525050565b60006080820190506152216000830187614ae8565b61522e60208301866151fd565b61523b6040830185614ae8565b6152486060830184614ae8565b95945050505050565b7f4753303236000000000000000000000000000000000000000000000000000000600082015250565b6000615287600583614c03565b915061529282615251565b602082019050919050565b600060208201905081810360008301526152b68161527a565b9050919050565b7f4753313034000000000000000000000000000000000000000000000000000000600082015250565b60006152f3600583614c03565b91506152fe826152bd565b602082019050919050565b60006020820190508181036000830152615322816152e6565b9050919050565b600061533482613e70565b915061533f83613e70565b925082820261534d81613e70565b9150828204841483151761536457615363614d47565b5b5092915050565b7f4753313031000000000000000000000000000000000000000000000000000000600082015250565b60006153a1600583614c03565b91506153ac8261536b565b602082019050919050565b600060208201905081810360008301526153d081615394565b9050919050565b7f4753313032000000000000000000000000000000000000000000000000000000600082015250565b600061540d600583614c03565b9150615418826153d7565b602082019050919050565b6000602082019050818103600083015261543c81615400565b9050919050565b7f4753323031000000000000000000000000000000000000000000000000000000600082015250565b6000615479600583614c03565b915061548482615443565b602082019050919050565b600060208201905081810360008301526154a88161546c565b9050919050565b7f4753323032000000000000000000000000000000000000000000000000000000600082015250565b60006154e5600583614c03565b91506154f0826154af565b602082019050919050565b60006020820190508181036000830152615514816154d8565b9050919050565b600061552783856142b3565b935061553483858461407f565b61553d83613fc2565b840190509392505050565b7f4e487b7100000000000000000000000000000000000000000000000000000000600052602160045260246000fd5b6002811061558857615587615548565b5b50565b600081905061559982615577565b919050565b60006155a98261558b565b9050919050565b6155b98161559e565b82525050565b6155c881614473565b82525050565b6000610160820190506155e4600083018f6149a9565b6155f1602083018e613e7a565b8181036040830152615604818c8e61551b565b9050615613606083018b6155b0565b615620608083018a613e7a565b61562d60a0830189613e7a565b61563a60c0830188613e7a565b61564760e08301876149a9565b6156556101008301866155bf565b81810361012083015261566881856142ee565b90506156786101408301846149a9565b9d9c50505050505050505050505050565b600061569482613e70565b915061569f83613e70565b92508282019050808211156156b7576156b6614d47565b5b92915050565b7f4e487b7100000000000000000000000000000000000000000000000000000000600052601260045260246000fd5b60006156f782613e70565b915061570283613e70565b925082615712576157116156bd565b5b828204905092915050565b7f4753303130000000000000000000000000000000000000000000000000000000600082015250565b6000615753600583614c03565b915061575e8261571d565b602082019050919050565b6000602082019050818103600083015261578281615746565b9050919050565b600061579482613e70565b915061579f83613e70565b92508282039050818111156157b7576157b6614d47565b5b92915050565b7f4753303133000000000000000000000000000000000000000000000000000000600082015250565b60006157f3600583614c03565b91506157fe826157bd565b602082019050919050565b60006020820190508181036000830152615822816157e6565b9050919050565b600060408201905061583e6000830185614ae8565b61584b6020830184613e7a565b9392505050565b60006040820190506158676000830185614ae8565b61587460208301846141d6565b9392505050565b7f4753303031000000000000000000000000000000000000000000000000000000600082015250565b60006158b1600583614c03565b91506158bc8261587b565b602082019050919050565b600060208201905081810360008301526158e0816158a4565b9050919050565b7f4e487b7100000000000000000000000000000000000000000000000000000000600052603260045260246000fd5b6000819050919050565b600061592f6020840184613f01565b905092915050565b6000602082019050919050565b600061595083856146a3565b935061595b82615916565b8060005b85811015615994576159718284615920565b61597b88826146d3565b975061598683615937565b92505060018101905061595f565b5085925050509392505050565b600060808201905081810360008301526159bc818789615944565b90506159cb6020830186613e7a565b6159d860408301856149a9565b6159e560608301846149a9565b9695505050505050565b6000819050919050565b615a0a615a0582613e70565b6159ef565b82525050565b6000615a1c82846159f9565b60208201915081905092915050565b7f4753303330000000000000000000000000000000000000000000000000000000600082015250565b6000615a61600583614c03565b9150615a6c82615a2b565b602082019050919050565b60006020820190508181036000830152615a9081615a54565b9050919050565b7f4753313033000000000000000000000000000000000000000000000000000000600082015250565b6000615acd600583614c03565b9150615ad882615a97565b602082019050919050565b60006020820190508181036000830152615afc81615ac0565b9050919050565b7f4753323035000000000000000000000000000000000000000000000000000000600082015250565b6000615b39600583614c03565b9150615b4482615b03565b602082019050919050565b60006020820190508181036000830152615b6881615b2c565b9050919050565b600081905092915050565b6000615b868385615b6f565b9350615b9383858461407f565b82840190509392505050565b6000615bac828486615b7a565b91508190509392505050565b600061016082019050615bce600083018e614ae8565b615bdb602083018d6149a9565b615be8604083018c613e7a565b615bf5606083018b614ae8565b615c02608083018a6155b0565b615c0f60a0830189613e7a565b615c1c60c0830188613e7a565b615c2960e0830187613e7a565b615c376101008301866149a9565b615c456101208301856149a9565b615c53610140830184613e7a565b9c9b505050505050505050505050565b60007fff0000000000000000000000000000000000000000000000000000000000000082169050919050565b6000819050919050565b615caa615ca582615c63565b615c8f565b82525050565b6000615cbc8287615c99565b600182019150615ccc8286615c99565b600182019150615cdc828561517e565b602082019150615cec828461517e565b60208201915081905095945050505050565b6000819050919050565b6000615d23615d1e615d1984613eb8565b615cfe565b613eb8565b9050919050565b6000615d3582615d08565b9050919050565b6000615d4782615d2a565b9050919050565b615d5781615d3c565b82525050565b6000606082019050615d726000830186614ae8565b615d7f6020830185613e7a565b615d8c6040830184615d4e565b949350505050565b6000615d9f82613e70565b915060008203615db257615db1614d47565b5b600182039050919050565b7f4753303331000000000000000000000000000000000000000000000000000000600082015250565b6000615df3600583614c03565b9150615dfe82615dbd565b602082019050919050565b60006020820190508181036000830152615e2281615de6565b9050919050565b7f4753303131000000000000000000000000000000000000000000000000000000600082015250565b6000615e5f600583614c03565b9150615e6a82615e29565b602082019050919050565b60006020820190508181036000830152615e8e81615e52565b9050919050565b7f4753303132000000000000000000000000000000000000000000000000000000600082015250565b6000615ecb600583614c03565b9150615ed682615e95565b602082019050919050565b60006020820190508181036000830152615efa81615ebe565b9050919050565b7f4753323030000000000000000000000000000000000000000000000000000000600082015250565b6000615f37600583614c03565b9150615f4282615f01565b602082019050919050565b60006020820190508181036000830152615f6681615f2a565b9050919050565b7f4753313030000000000000000000000000000000000000000000000000000000600082015250565b6000615fa3600583614c03565b9150615fae82615f6d565b602082019050919050565b60006020820190508181036000830152615fd281615f96565b9050919050565b7f4753303030000000000000000000000000000000000000000000000000000000600082015250565b600061600f600583614c03565b915061601a82615fd9565b602082019050919050565b6000602082019050818103600083015261603e81616002565b9050919050565b600060408201905061605a60008301856149a9565b6160676020830184613e7a565b939250505056fea164736f6c6343000813000a608060405234801561001057600080fd5b506112b6806100206000396000f3fe60806040523480156200001157600080fd5b50600436106200007c5760003560e01c806361b69abd116200005757806361b69abd146200010f578063addacc0f1462000145578063d18af54d1462000167576200007c565b80631688f0b914620000815780632500510e14620000b757806353e5d93514620000ed575b600080fd5b6200009f600480360381019062000099919062000813565b6200019d565b604051620000ae9190620008f9565b60405180910390f35b620000d56004803603810190620000cf91906200097f565b62000217565b604051620000e49190620008f9565b60405180910390f35b620000f7620002cc565b60405162000106919062000a88565b60405180910390f35b6200012d600480360381019062000127919062000aac565b620002f9565b6040516200013c9190620008f9565b60405180910390f35b6200014f6200039e565b6040516200015e919062000a88565b60405180910390f35b6200018560048036038101906200017f919062000b57565b620003cb565b604051620001949190620008f9565b60405180910390f35b6000620001ac848484620004c1565b9050600083511115620001d55760008060008551602087016000865af103620001d457600080fd5b5b7f4f51faf6c4561ff95f067657e43439f0f856d97c04d9ec9070a6199ad418e23581856040516200020892919062000bf9565b60405180910390a19392505050565b60006200026a8585858080601f016020809104026020016040519081016040528093929190818152602001838380828437600081840152601f19601f8201169050808301925050505050505084620004c1565b9050806040516020016200027f919062000c76565b6040516020818303038152906040526040517f08c379a0000000000000000000000000000000000000000000000000000000008152600401620002c3919062000cf0565b60405180910390fd5b606060405180602001620002e090620005e2565b6020820181038252601f19601f82011660405250905090565b6000826040516200030a90620005e2565b62000316919062000d14565b604051809103906000f08015801562000333573d6000803e3d6000fd5b5090506000825111156200035d5760008060008451602086016000865af1036200035c57600080fd5b5b7f4f51faf6c4561ff95f067657e43439f0f856d97c04d9ec9070a6199ad418e23581846040516200039092919062000bf9565b60405180910390a192915050565b606060405180602001620003b290620005f0565b6020820181038252601f19601f82011660405250905090565b6000808383604051602001620003e392919062000dad565b6040516020818303038152906040528051906020012060001c90506200040b8686836200019d565b9150600073ffffffffffffffffffffffffffffffffffffffff168373ffffffffffffffffffffffffffffffffffffffff1614620004b8578273ffffffffffffffffffffffffffffffffffffffff16631e52b518838888886040518563ffffffff1660e01b815260040162000483949392919062000dee565b600060405180830381600087803b1580156200049e57600080fd5b505af1158015620004b3573d6000803e3d6000fd5b505050505b50949350505050565b600080838051906020012083604051602001620004e092919062000e71565b6040516020818303038152906040528051906020012090506000604051806020016200050c90620005e2565b6020820181038252601f19601f820116604052508673ffffffffffffffffffffffffffffffffffffffff166040516020016200054a92919062000ee3565b6040516020818303038152906040529050818151826020016000f59250600073ffffffffffffffffffffffffffffffffffffffff168373ffffffffffffffffffffffffffffffffffffffff1603620005d9576040517f08c379a0000000000000000000000000000000000000000000000000000000008152600401620005d09062000f5f565b60405180910390fd5b50509392505050565b6102a88062000f8283390190565b6080806200122a83390190565b6000604051905090565b600080fd5b600080fd5b600073ffffffffffffffffffffffffffffffffffffffff82169050919050565b60006200063e8262000611565b9050919050565b620006508162000631565b81146200065c57600080fd5b50565b600081359050620006708162000645565b92915050565b600080fd5b600080fd5b6000601f19601f8301169050919050565b7f4e487b7100000000000000000000000000000000000000000000000000000000600052604160045260246000fd5b620006cb8262000680565b810181811067ffffffffffffffff82111715620006ed57620006ec62000691565b5b80604052505050565b600062000702620005fd565b9050620007108282620006c0565b919050565b600067ffffffffffffffff82111562000733576200073262000691565b5b6200073e8262000680565b9050602081019050919050565b82818337600083830152505050565b6000620007716200076b8462000715565b620006f6565b90508281526020810184848401111562000790576200078f6200067b565b5b6200079d8482856200074b565b509392505050565b600082601f830112620007bd57620007bc62000676565b5b8135620007cf8482602086016200075a565b91505092915050565b6000819050919050565b620007ed81620007d8565b8114620007f957600080fd5b50565b6000813590506200080d81620007e2565b92915050565b6000806000606084860312156200082f576200082e62000607565b5b60006200083f868287016200065f565b935050602084013567ffffffffffffffff8111156200086357620008626200060c565b5b6200087186828701620007a5565b92505060406200088486828701620007fc565b9150509250925092565b6000819050919050565b6000620008b9620008b3620008ad8462000611565b6200088e565b62000611565b9050919050565b6000620008cd8262000898565b9050919050565b6000620008e182620008c0565b9050919050565b620008f381620008d4565b82525050565b6000602082019050620009106000830184620008e8565b92915050565b600080fd5b600080fd5b60008083601f84011262000939576200093862000676565b5b8235905067ffffffffffffffff81111562000959576200095862000916565b5b6020830191508360018202830111156200097857620009776200091b565b5b9250929050565b600080600080606085870312156200099c576200099b62000607565b5b6000620009ac878288016200065f565b945050602085013567ffffffffffffffff811115620009d057620009cf6200060c565b5b620009de8782880162000920565b93509350506040620009f387828801620007fc565b91505092959194509250565b600081519050919050565b600082825260208201905092915050565b60005b8381101562000a3b57808201518184015260208101905062000a1e565b60008484015250505050565b600062000a5482620009ff565b62000a60818562000a0a565b935062000a7281856020860162000a1b565b62000a7d8162000680565b840191505092915050565b6000602082019050818103600083015262000aa4818462000a47565b905092915050565b6000806040838503121562000ac65762000ac562000607565b5b600062000ad6858286016200065f565b925050602083013567ffffffffffffffff81111562000afa5762000af96200060c565b5b62000b0885828601620007a5565b9150509250929050565b600062000b1f8262000631565b9050919050565b62000b318162000b12565b811462000b3d57600080fd5b50565b60008135905062000b518162000b26565b92915050565b6000806000806080858703121562000b745762000b7362000607565b5b600062000b84878288016200065f565b945050602085013567ffffffffffffffff81111562000ba85762000ba76200060c565b5b62000bb687828801620007a5565b935050604062000bc987828801620007fc565b925050606062000bdc8782880162000b40565b91505092959194509250565b62000bf38162000631565b82525050565b600060408201905062000c106000830185620008e8565b62000c1f602083018462000be8565b9392505050565b60008160601b9050919050565b600062000c408262000c26565b9050919050565b600062000c548262000c33565b9050919050565b62000c7062000c6a82620008d4565b62000c47565b82525050565b600062000c84828462000c5b565b60148201915081905092915050565b600081519050919050565b600082825260208201905092915050565b600062000cbc8262000c93565b62000cc8818562000c9e565b935062000cda81856020860162000a1b565b62000ce58162000680565b840191505092915050565b6000602082019050818103600083015262000d0c818462000caf565b905092915050565b600060208201905062000d2b600083018462000be8565b92915050565b6000819050919050565b62000d5062000d4a82620007d8565b62000d31565b82525050565b600062000d638262000898565b9050919050565b600062000d778262000d56565b9050919050565b600062000d8b8262000c33565b9050919050565b62000da762000da18262000d6a565b62000d7e565b82525050565b600062000dbb828562000d3b565b60208201915062000dcd828462000d92565b6014820191508190509392505050565b62000de881620007d8565b82525050565b600060808201905062000e056000830187620008e8565b62000e14602083018662000be8565b818103604083015262000e28818562000a47565b905062000e39606083018462000ddd565b95945050505050565b6000819050919050565b6000819050919050565b62000e6b62000e658262000e42565b62000e4c565b82525050565b600062000e7f828562000e56565b60208201915062000e91828462000d3b565b6020820191508190509392505050565b600081905092915050565b600062000eb982620009ff565b62000ec5818562000ea1565b935062000ed781856020860162000a1b565b80840191505092915050565b600062000ef1828562000eac565b915062000eff828462000d3b565b6020820191508190509392505050565b7f437265617465322063616c6c206661696c656400000000000000000000000000600082015250565b600062000f4760138362000c9e565b915062000f548262000f0f565b602082019050919050565b6000602082019050818103600083015262000f7a8162000f38565b905091905056fe608060405234801561001057600080fd5b506040516102a83803806102a88339818101604052810190610032919061014a565b600073ffffffffffffffffffffffffffffffffffffffff168173ffffffffffffffffffffffffffffffffffffffff16036100a1576040517f08c379a0000000000000000000000000000000000000000000000000000000008152600401610098906101fa565b60405180910390fd5b806000806101000a81548173ffffffffffffffffffffffffffffffffffffffff021916908373ffffffffffffffffffffffffffffffffffffffff1602179055505061021a565b600080fd5b600073ffffffffffffffffffffffffffffffffffffffff82169050919050565b6000610117826100ec565b9050919050565b6101278161010c565b811461013257600080fd5b50565b6000815190506101448161011e565b92915050565b6000602082840312156101605761015f6100e7565b5b600061016e84828501610135565b91505092915050565b600082825260208201905092915050565b7f496e76616c69642073696e676c65746f6e20616464726573732070726f76696460008201527f6564000000000000000000000000000000000000000000000000000000000000602082015250565b60006101e4602283610177565b91506101ef82610188565b604082019050919050565b60006020820190508181036000830152610213816101d7565b9050919050565b6080806102286000396000f3fe608060405273ffffffffffffffffffffffffffffffffffffffff600054167fa619486e0000000000000000000000000000000000000000000000000000000060003503604f578060005260206000f35b3660008037600080366000845af43d6000803e60008103606e573d6000fd5b3d6000f3fea164736f6c6343000813000a608060405273ffffffffffffffffffffffffffffffffffffffff600054167fa619486e0000000000000000000000000000000000000000000000000000000060003503604f578060005260206000f35b3660008037600080366000845af43d6000803e60008103606e573d6000fd5b3d6000f3fea164736f6c6343000813000aa164736f6c6343000813000a608060405234801561001057600080fd5b506117ba806100206000396000f3fe608060405234801561001057600080fd5b50600436106100c85760003560e01c806320c13b0b11610081578063bc197c811161005b578063bc197c8114610227578063bd61951d14610257578063f23a6e6114610287576100c8565b806320c13b0b146101a95780636ac24784146101d9578063b2494df314610209576100c8565b80630a1028c4116100b25780630a1028c414610119578063150b7a02146101495780631626ba7e14610179576100c8565b806223de29146100cd57806301ffc9a7146100e9575b600080fd5b6100e760048036038101906100e291906109d2565b6102b7565b005b61010360048036038101906100fe9190610af9565b6102c1565b6040516101109190610b41565b60405180910390f35b610133600480360381019061012e9190610c9d565b6103fb565b6040516101409190610cff565b60405180910390f35b610163600480360381019061015e9190610d1a565b61040e565b6040516101709190610db1565b60405180910390f35b610193600480360381019061018e9190610df8565b610423565b6040516101a09190610db1565b60405180910390f35b6101c360048036038101906101be9190610e58565b610534565b6040516101d09190610db1565b60405180910390f35b6101f360048036038101906101ee9190610f20565b610692565b6040516102009190610cff565b60405180910390f35b610211610796565b60405161021e919061103a565b60405180910390f35b610241600480360381019061023c91906110b2565b61082d565b60405161024e9190610db1565b60405180910390f35b610271600480360381019061026c919061118e565b610845565b60405161027e919061126d565b60405180910390f35b6102a1600480360381019061029c919061128f565b6108af565b6040516102ae9190610db1565b60405180910390f35b5050505050505050565b60007f4e2312e0000000000000000000000000000000000000000000000000000000007bffffffffffffffffffffffffffffffffffffffffffffffffffffffff1916827bffffffffffffffffffffffffffffffffffffffffffffffffffffffff1916148061038c57507f150b7a02000000000000000000000000000000000000000000000000000000007bffffffffffffffffffffffffffffffffffffffffffffffffffffffff1916827bffffffffffffffffffffffffffffffffffffffffffffffffffffffff1916145b806103f457507f01ffc9a7000000000000000000000000000000000000000000000000000000007bffffffffffffffffffffffffffffffffffffffffffffffffffffffff1916827bffffffffffffffffffffffffffffffffffffffffffffffffffffffff1916145b9050919050565b60006104073383610692565b9050919050565b600063150b7a0260e01b905095945050505050565b60008033905060008173ffffffffffffffffffffffffffffffffffffffff166320c13b0b876040516020016104589190610cff565b60405160208183030381529060405287876040518463ffffffff1660e01b815260040161048793929190611356565b602060405180830381865afa1580156104a4573d6000803e3d6000fd5b505050506040513d601f19601f820116820180604052508101906104c891906113a4565b90506320c13b0b60e01b7bffffffffffffffffffffffffffffffffffffffffffffffffffffffff1916817bffffffffffffffffffffffffffffffffffffffffffffffffffffffff19161461052057600060e01b610529565b631626ba7e60e01b5b925050509392505050565b60008033905060006105468286610692565b905060008451036106125760008273ffffffffffffffffffffffffffffffffffffffff16635ae6bd37836040518263ffffffff1660e01b815260040161058c9190610cff565b602060405180830381865afa1580156105a9573d6000803e3d6000fd5b505050506040513d601f19601f820116820180604052508101906105cd91906113e6565b0361060d576040517f08c379a000000000000000000000000000000000000000000000000000000000815260040161060490611470565b60405180910390fd5b610680565b8173ffffffffffffffffffffffffffffffffffffffff1663934f3a118287876040518463ffffffff1660e01b815260040161064f93929190611490565b60006040518083038186803b15801561066757600080fd5b505afa15801561067b573d6000803e3d6000fd5b505050505b6320c13b0b60e01b9250505092915050565b6000807f60b3cbf8b4a223d68d641b3b6ddf9a298e7f33710cf3d3a9d1146b5a6150fbca60001b83805190602001206040516020016106d29291906114d5565b604051602081830303815290604052805190602001209050601960f81b600160f81b8573ffffffffffffffffffffffffffffffffffffffff1663f698da256040518163ffffffff1660e01b8152600401602060405180830381865afa15801561073f573d6000803e3d6000fd5b505050506040513d601f19601f820116820180604052508101906107639190611513565b8360405160200161077794939291906115ae565b6040516020818303038152906040528051906020012091505092915050565b6060600033905060008173ffffffffffffffffffffffffffffffffffffffff1663cc2f84526001600a6040518363ffffffff1660e01b81526004016107dc929190611650565b600060405180830381865afa1580156107f9573d6000803e3d6000fd5b505050506040513d6000823e3d601f19601f820116820180604052508101906108229190611751565b509050809250505090565b600063bc197c8160e01b905098975050505050505050565b60606040517fb4faba09000000000000000000000000000000000000000000000000000000008152600436036004808301376020600036836000335af15060203d036040519250808301604052806020843e6000516108a657825160208401fd5b50509392505050565b600063f23a6e6160e01b90509695505050505050565b6000604051905090565b600080fd5b600080fd5b600073ffffffffffffffffffffffffffffffffffffffff82169050919050565b6000610904826108d9565b9050919050565b610914816108f9565b811461091f57600080fd5b50565b6000813590506109318161090b565b92915050565b6000819050919050565b61094a81610937565b811461095557600080fd5b50565b60008135905061096781610941565b92915050565b600080fd5b600080fd5b600080fd5b60008083601f8401126109925761099161096d565b5b8235905067ffffffffffffffff8111156109af576109ae610972565b5b6020830191508360018202830111156109cb576109ca610977565b5b9250929050565b60008060008060008060008060c0898b0312156109f2576109f16108cf565b5b6000610a008b828c01610922565b9850506020610a118b828c01610922565b9750506040610a228b828c01610922565b9650506060610a338b828c01610958565b955050608089013567ffffffffffffffff811115610a5457610a536108d4565b5b610a608b828c0161097c565b945094505060a089013567ffffffffffffffff811115610a8357610a826108d4565b5b610a8f8b828c0161097c565b92509250509295985092959890939650565b60007fffffffff0000000000000000000000000000000000000000000000000000000082169050919050565b610ad681610aa1565b8114610ae157600080fd5b50565b600081359050610af381610acd565b92915050565b600060208284031215610b0f57610b0e6108cf565b5b6000610b1d84828501610ae4565b91505092915050565b60008115159050919050565b610b3b81610b26565b82525050565b6000602082019050610b566000830184610b32565b92915050565b600080fd5b6000601f19601f8301169050919050565b7f4e487b7100000000000000000000000000000000000000000000000000000000600052604160045260246000fd5b610baa82610b61565b810181811067ffffffffffffffff82111715610bc957610bc8610b72565b5b80604052505050565b6000610bdc6108c5565b9050610be88282610ba1565b919050565b600067ffffffffffffffff821115610c0857610c07610b72565b5b610c1182610b61565b9050602081019050919050565b82818337600083830152505050565b6000610c40610c3b84610bed565b610bd2565b905082815260208101848484011115610c5c57610c5b610b5c565b5b610c67848285610c1e565b509392505050565b600082601f830112610c8457610c8361096d565b5b8135610c94848260208601610c2d565b91505092915050565b600060208284031215610cb357610cb26108cf565b5b600082013567ffffffffffffffff811115610cd157610cd06108d4565b5b610cdd84828501610c6f565b91505092915050565b6000819050919050565b610cf981610ce6565b82525050565b6000602082019050610d146000830184610cf0565b92915050565b600080600080600060808688031215610d3657610d356108cf565b5b6000610d4488828901610922565b9550506020610d5588828901610922565b9450506040610d6688828901610958565b935050606086013567ffffffffffffffff811115610d8757610d866108d4565b5b610d938882890161097c565b92509250509295509295909350565b610dab81610aa1565b82525050565b6000602082019050610dc66000830184610da2565b92915050565b610dd581610ce6565b8114610de057600080fd5b50565b600081359050610df281610dcc565b92915050565b600080600060408486031215610e1157610e106108cf565b5b6000610e1f86828701610de3565b935050602084013567ffffffffffffffff811115610e4057610e3f6108d4565b5b610e4c8682870161097c565b92509250509250925092565b60008060408385031215610e6f57610e6e6108cf565b5b600083013567ffffffffffffffff811115610e8d57610e8c6108d4565b5b610e9985828601610c6f565b925050602083013567ffffffffffffffff811115610eba57610eb96108d4565b5b610ec685828601610c6f565b9150509250929050565b6000610edb826108d9565b9050919050565b6000610eed82610ed0565b9050919050565b610efd81610ee2565b8114610f0857600080fd5b50565b600081359050610f1a81610ef4565b92915050565b60008060408385031215610f3757610f366108cf565b5b6000610f4585828601610f0b565b925050602083013567ffffffffffffffff811115610f6657610f656108d4565b5b610f7285828601610c6f565b9150509250929050565b600081519050919050565b600082825260208201905092915050565b6000819050602082019050919050565b610fb1816108f9565b82525050565b6000610fc38383610fa8565b60208301905092915050565b6000602082019050919050565b6000610fe782610f7c565b610ff18185610f87565b9350610ffc83610f98565b8060005b8381101561102d5781516110148882610fb7565b975061101f83610fcf565b925050600181019050611000565b5085935050505092915050565b600060208201905081810360008301526110548184610fdc565b905092915050565b60008083601f8401126110725761107161096d565b5b8235905067ffffffffffffffff81111561108f5761108e610972565b5b6020830191508360208202830111156110ab576110aa610977565b5b9250929050565b60008060008060008060008060a0898b0312156110d2576110d16108cf565b5b60006110e08b828c01610922565b98505060206110f18b828c01610922565b975050604089013567ffffffffffffffff811115611112576111116108d4565b5b61111e8b828c0161105c565b9650965050606089013567ffffffffffffffff811115611141576111406108d4565b5b61114d8b828c0161105c565b9450945050608089013567ffffffffffffffff8111156111705761116f6108d4565b5b61117c8b828c0161097c565b92509250509295985092959890939650565b6000806000604084860312156111a7576111a66108cf565b5b60006111b586828701610922565b935050602084013567ffffffffffffffff8111156111d6576111d56108d4565b5b6111e28682870161097c565b92509250509250925092565b600081519050919050565b600082825260208201905092915050565b60005b8381101561122857808201518184015260208101905061120d565b60008484015250505050565b600061123f826111ee565b61124981856111f9565b935061125981856020860161120a565b61126281610b61565b840191505092915050565b600060208201905081810360008301526112878184611234565b905092915050565b60008060008060008060a087890312156112ac576112ab6108cf565b5b60006112ba89828a01610922565b96505060206112cb89828a01610922565b95505060406112dc89828a01610958565b94505060606112ed89828a01610958565b935050608087013567ffffffffffffffff81111561130e5761130d6108d4565b5b61131a89828a0161097c565b92509250509295509295509295565b600061133583856111f9565b9350611342838584610c1e565b61134b83610b61565b840190509392505050565b600060408201905081810360008301526113708186611234565b90508181036020830152611385818486611329565b9050949350505050565b60008151905061139e81610acd565b92915050565b6000602082840312156113ba576113b96108cf565b5b60006113c88482850161138f565b91505092915050565b6000815190506113e081610941565b92915050565b6000602082840312156113fc576113fb6108cf565b5b600061140a848285016113d1565b91505092915050565b600082825260208201905092915050565b7f48617368206e6f7420617070726f766564000000000000000000000000000000600082015250565b600061145a601183611413565b915061146582611424565b602082019050919050565b600060208201905081810360008301526114898161144d565b9050919050565b60006060820190506114a56000830186610cf0565b81810360208301526114b78185611234565b905081810360408301526114cb8184611234565b9050949350505050565b60006040820190506114ea6000830185610cf0565b6114f76020830184610cf0565b9392505050565b60008151905061150d81610dcc565b92915050565b600060208284031215611529576115286108cf565b5b6000611537848285016114fe565b91505092915050565b60007fff0000000000000000000000000000000000000000000000000000000000000082169050919050565b6000819050919050565b61158761158282611540565b61156c565b82525050565b6000819050919050565b6115a86115a382610ce6565b61158d565b82525050565b60006115ba8287611576565b6001820191506115ca8286611576565b6001820191506115da8285611597565b6020820191506115ea8284611597565b60208201915081905095945050505050565b611605816108f9565b82525050565b6000819050919050565b6000819050919050565b600061163a6116356116308461160b565b611615565b610937565b9050919050565b61164a8161161f565b82525050565b600060408201905061166560008301856115fc565b6116726020830184611641565b9392505050565b600067ffffffffffffffff82111561169457611693610b72565b5b602082029050602081019050919050565b6000815190506116b48161090b565b92915050565b60006116cd6116c884611679565b610bd2565b905080838252602082019050602084028301858111156116f0576116ef610977565b5b835b81811015611719578061170588826116a5565b8452602084019350506020810190506116f2565b5050509392505050565b600082601f8301126117385761173761096d565b5b81516117488482602086016116ba565b91505092915050565b60008060408385031215611768576117676108cf565b5b600083015167ffffffffffffffff811115611786576117856108d4565b5b61179285828601611723565b92505060206117a3858286016116a5565b915050925092905056fea164736f6c6343000813000a",
    "linkReferences": {
      "node_modules/safe-tools/src/SafeTestTools.sol": {
        "Sort": [
          {
            "start": 5262,
            "length": 20
          }
        ]
      }
    }
  },
  "methodIdentifiers": {
    "_setupSafe()": "b38b4717",
    "_setupSafe(uint256[],uint256)": "080df7f1",
    "_setupSafe(uint256[],uint256,uint256)": "4867cf9a",
    "_setupSafe(uint256[],uint256,uint256,(bool,bytes,uint256,address,bytes,uint256,address,address))": "08abf768",
    "getSafe()": "68bc573e",
    "getSafe(address)": "894adc65"
  },
  "id": 78
}