{
  "abi": [
    {
      "inputs": [
        {
          "components": [
            {
              "internalType": "uint256",
              "name": "instanceId",
              "type": "uint256"
            },
            {
              "internalType": "uint256[]",
              "name": "ownerPKs",
              "type": "uint256[]"
            },
            {
              "internalType": "address[]",
              "name": "owners",
              "type": "address[]"
            },
            {
              "internalType": "uint256",
              "name": "threshold",
              "type": "uint256"
            },
            {
              "internalType": "contract DeployedSafe",
              "name": "safe",
              "type": "DeployedSafe"
            }
          ],
          "internalType": "struct SafeInstance",
          "name": "instance",
          "type": "tuple"
        },
        {
          "internalType": "uint256",
          "name": "pk",
          "type": "uint256"
        },
        {
          "internalType": "address",
          "name": "to",
          "type": "address"
        },
        {
          "internalType": "uint256",
          "name": "value",
          "type": "uint256"
        },
        {
          "internalType": "bytes",
          "name": "data",
          "type": "bytes"
        },
        {
          "internalType": "enum Enum.Operation",
          "name": "operation",
          "type": "Enum.Operation"
        },
        {
          "internalType": "uint256",
          "name": "safeTxGas",
          "type": "uint256"
        },
        {
          "internalType": "uint256",
          "name": "baseGas",
          "type": "uint256"
        },
        {
          "internalType": "uint256",
          "name": "gasPrice",
          "type": "uint256"
        },
        {
          "internalType": "address",
          "name": "gasToken",
          "type": "address"
        },
        {
          "internalType": "address",
          "name": "refundReceiver",
          "type": "address"
        }
      ],
      "name": "signTransaction",
      "outputs": [
        {
          "internalType": "uint8",
          "name": "v",
          "type": "uint8"
        },
        {
          "internalType": "bytes32",
          "name": "r",
          "type": "bytes32"
        },
        {
          "internalType": "bytes32",
          "name": "s",
          "type": "bytes32"
        }
      ],
      "stateMutability": "view",
      "type": "function"
    }
  ],
  "bytecode": {
    "object": "0x61278c610053600b82828239805160001a607314610046577f4e487b7100000000000000000000000000000000000000000000000000000000600052600060045260246000fd5b30600052607381538281f3fe73000000000000000000000000000000000000000030146080604052600436106100ad5760003560e01c8063714f7be611610080578063a0a6e76d11610065578063a0a6e76d146101ed578063a948775e1461022a578063d13c040014610253576100ad565b8063714f7be61461017e5780637efe2a4c146101bb576100ad565b8063012a338b146100b257806342c08638146100db5780635d15e3cd146101185780636209580514610155575b600080fd5b8180156100be57600080fd5b506100d960048036038101906100d49190611184565b61027c565b005b8180156100e757600080fd5b5061010260048036038101906100fd91906111e0565b6102a9565b60405161010f9190611238565b60405180910390f35b81801561012457600080fd5b5061013f600480360381019061013a919061132d565b61035b565b60405161014c91906113fb565b60405180910390f35b81801561016157600080fd5b5061017c60048036038101906101779190611416565b61038d565b005b81801561018a57600080fd5b506101a560048036038101906101a09190611472565b610431565b6040516101b291906113fb565b60405180910390f35b6101d560048036038101906101d09190611511565b610462565b6040516101e493929190611668565b60405180910390f35b8180156101f957600080fd5b50610214600480360381019061020f919061169f565b610620565b60405161022191906113fb565b60405180910390f35b81801561023657600080fd5b50610251600480360381019061024c91906117e7565b61097a565b005b81801561025f57600080fd5b5061027a60048036038101906102759190611416565b610a49565b005b6102a582826040516020016102919190611880565b60405160208183030381529060405261097a565b5050565b60006102e0826000806040518060200160405280600081525060008060008060008060405180602001604052806000815250610620565b50816080015173ffffffffffffffffffffffffffffffffffffffff1663affed0e06040518163ffffffff1660e01b8152600401602060405180830381865afa158015610330573d6000803e3d6000fd5b505050506040513d601f19601f8201168201806040525081019061035491906118b0565b9050919050565b60006103828686868686600080600080600060405180602001604052806000815250610620565b905095945050505050565b61042c828360800151600063610b592560e01b856040516024016103b191906118ec565b604051602081830303815290604052907bffffffffffffffffffffffffffffffffffffffffffffffffffffffff19166020820180517bffffffffffffffffffffffffffffffffffffffffffffffffffffffff838183161783525050505060008060008060008060405180602001604052806000815250610620565b505050565b60006104588585858560008060008060008060405180602001604052806000815250610620565b9050949350505050565b60008060008060008f6080015173ffffffffffffffffffffffffffffffffffffffff1663affed0e06040518163ffffffff1660e01b8152600401602060405180830381865afa1580156104b9573d6000803e3d6000fd5b505050506040513d601f19601f820116820180604052508101906104dd91906118b0565b90508f6080015173ffffffffffffffffffffffffffffffffffffffff1663d8d11f788f8f8f8f8f8f8f8f8f8b6040518b63ffffffff1660e01b815260040161052e9a99989796959493929190611a0c565b602060405180830381865afa15801561054b573d6000803e3d6000fd5b505050506040513d601f19601f8201168201806040525081019061056f9190611ac4565b915050737109709ecfa91a80626ff3989d68f67f5b1dd12d73ffffffffffffffffffffffffffffffffffffffff1663e341eaa48f836040518363ffffffff1660e01b81526004016105c1929190611b00565b606060405180830381865afa1580156105de573d6000803e3d6000fd5b505050506040513d601f19601f820116820180604052508101906106029190611b55565b809450819550829650505050509b509b509b98505050505050505050565b6000808c604001515103610669576040517f08c379a000000000000000000000000000000000000000000000000000000000815260040161066090611c51565b60405180910390fd5b6000808d6080015173ffffffffffffffffffffffffffffffffffffffff1663affed0e06040518163ffffffff1660e01b8152600401602060405180830381865afa1580156106bb573d6000803e3d6000fd5b505050506040513d601f19601f820116820180604052508101906106df91906118b0565b90508d6080015173ffffffffffffffffffffffffffffffffffffffff1663d8d11f788e8e8e8e8e8e8e8e8e8b6040518b63ffffffff1660e01b81526004016107309a99989796959493929190611a0c565b602060405180830381865afa15801561074d573d6000803e3d6000fd5b505050506040513d601f19601f820116820180604052508101906107719190611ac4565b91505060008351036108d65760005b8d60200151518110156108d45760008e6020015182815181106107a6576107a5611c71565b5b602002602001015190506000806000737109709ecfa91a80626ff3989d68f67f5b1dd12d73ffffffffffffffffffffffffffffffffffffffff1663e341eaa485886040518363ffffffff1660e01b8152600401610804929190611b00565b606060405180830381865afa158015610821573d6000803e3d6000fd5b505050506040513d601f19601f820116820180604052508101906108459190611b55565b92509250925061085484610c59565b156108785760009250600061086885610c8b565b905080925061087683610c9d565b505b8782828560405160200161088e93929190611cd6565b6040516020818303038152906040526040516020016108ae929190611d4f565b604051602081830303815290604052975050505050806108cd90611da2565b9050610780565b505b8c6080015173ffffffffffffffffffffffffffffffffffffffff16636a7612028d8d8d8d8d8d8d8d8d8d6040518b63ffffffff1660e01b81526004016109259a99989796959493929190611df9565b6020604051808303816000875af1158015610944573d6000803e3d6000fd5b505050506040513d601f19601f820116820180604052508101906109689190611ecf565b9150509b9a5050505050505050505050565b600060405161098890610d5f565b604051809103906000f0801580156109a4573d6000803e3d6000fd5b509050610a43838260006385a5affe60e01b866040516024016109c79190611efc565b604051602081830303815290604052907bffffffffffffffffffffffffffffffffffffffffffffffffffffffff19166020820180517bffffffffffffffffffffffffffffffffffffffffffffffffffffffff83818316178352505050506001600080600080600060405180602001604052806000815250610620565b50505050565b6000826080015173ffffffffffffffffffffffffffffffffffffffff1663cc2f845260016103e86040518363ffffffff1660e01b8152600401610a8d929190611f63565b600060405180830381865afa158015610aaa573d6000803e3d6000fd5b505050506040513d6000823e3d601f19601f82011682018060405250810190610ad39190612038565b5090506000600190506000805b8351811015610b6f578473ffffffffffffffffffffffffffffffffffffffff16848281518110610b1357610b12611c71565b5b602002602001015173ffffffffffffffffffffffffffffffffffffffff1603610b3f5760019150610b6f565b838181518110610b5257610b51611c71565b5b602002602001015192508080610b6790611da2565b915050610ae0565b5080610bb0576040517f08c379a0000000000000000000000000000000000000000000000000000000008152600401610ba790612106565b60405180910390fd5b610c51858660800151600063e009cfde60e01b8689604051602401610bd6929190612126565b604051602081830303815290604052907bffffffffffffffffffffffffffffffffffffffffffffffffffffffff19166020820180517bffffffffffffffffffffffffffffffffffffffffffffffffffffffff838183161783525050505060008060008060008060405180602001604052806000815250610620565b505050505050565b60007fffffffffffffffffffffffff000000000000000000000000000000000000000060a01c8260a01c149050919050565b60008160601b8060601c915050919050565b610d3381604051602401610cb1919061214f565b6040516020818303038152906040527f27b7cf85000000000000000000000000000000000000000000000000000000007bffffffffffffffffffffffffffffffffffffffffffffffffffffffff19166020820180517bffffffffffffffffffffffffffffffffffffffffffffffffffffffff8381831617835250505050610d36565b50565b60008151905060006a636f6e736f6c652e6c6f679050602083016000808483855afa5050505050565b6106158061216b83390190565b6000604051905090565b600080fd5b600080fd5b600080fd5b6000601f19601f8301169050919050565b7f4e487b7100000000000000000000000000000000000000000000000000000000600052604160045260246000fd5b610dce82610d85565b810181811067ffffffffffffffff82111715610ded57610dec610d96565b5b80604052505050565b6000610e00610d6c565b9050610e0c8282610dc5565b919050565b600080fd5b6000819050919050565b610e2981610e16565b8114610e3457600080fd5b50565b600081359050610e4681610e20565b92915050565b600080fd5b600067ffffffffffffffff821115610e6c57610e6b610d96565b5b602082029050602081019050919050565b600080fd5b6000610e95610e9084610e51565b610df6565b90508083825260208201905060208402830185811115610eb857610eb7610e7d565b5b835b81811015610ee15780610ecd8882610e37565b845260208401935050602081019050610eba565b5050509392505050565b600082601f830112610f0057610eff610e4c565b5b8135610f10848260208601610e82565b91505092915050565b600067ffffffffffffffff821115610f3457610f33610d96565b5b602082029050602081019050919050565b600073ffffffffffffffffffffffffffffffffffffffff82169050919050565b6000610f7082610f45565b9050919050565b610f8081610f65565b8114610f8b57600080fd5b50565b600081359050610f9d81610f77565b92915050565b6000610fb6610fb184610f19565b610df6565b90508083825260208201905060208402830185811115610fd957610fd8610e7d565b5b835b818110156110025780610fee8882610f8e565b845260208401935050602081019050610fdb565b5050509392505050565b600082601f83011261102157611020610e4c565b5b8135611031848260208601610fa3565b91505092915050565b600061104582610f45565b9050919050565b60006110578261103a565b9050919050565b6110678161104c565b811461107257600080fd5b50565b6000813590506110848161105e565b92915050565b600060a082840312156110a05761109f610d80565b5b6110aa60a0610df6565b905060006110ba84828501610e37565b600083015250602082013567ffffffffffffffff8111156110de576110dd610e11565b5b6110ea84828501610eeb565b602083015250604082013567ffffffffffffffff81111561110e5761110d610e11565b5b61111a8482850161100c565b604083015250606061112e84828501610e37565b606083015250608061114284828501611075565b60808301525092915050565b6000819050919050565b6111618161114e565b811461116c57600080fd5b50565b60008135905061117e81611158565b92915050565b6000806040838503121561119b5761119a610d76565b5b600083013567ffffffffffffffff8111156111b9576111b8610d7b565b5b6111c58582860161108a565b92505060206111d68582860161116f565b9150509250929050565b6000602082840312156111f6576111f5610d76565b5b600082013567ffffffffffffffff81111561121457611213610d7b565b5b6112208482850161108a565b91505092915050565b61123281610e16565b82525050565b600060208201905061124d6000830184611229565b92915050565b600080fd5b600067ffffffffffffffff82111561127357611272610d96565b5b61127c82610d85565b9050602081019050919050565b82818337600083830152505050565b60006112ab6112a684611258565b610df6565b9050828152602081018484840111156112c7576112c6611253565b5b6112d2848285611289565b509392505050565b600082601f8301126112ef576112ee610e4c565b5b81356112ff848260208601611298565b91505092915050565b6002811061131557600080fd5b50565b60008135905061132781611308565b92915050565b600080600080600060a0868803121561134957611348610d76565b5b600086013567ffffffffffffffff81111561136757611366610d7b565b5b6113738882890161108a565b955050602061138488828901610f8e565b945050604061139588828901610e37565b935050606086013567ffffffffffffffff8111156113b6576113b5610d7b565b5b6113c2888289016112da565b92505060806113d388828901611318565b9150509295509295909350565b60008115159050919050565b6113f5816113e0565b82525050565b600060208201905061141060008301846113ec565b92915050565b6000806040838503121561142d5761142c610d76565b5b600083013567ffffffffffffffff81111561144b5761144a610d7b565b5b6114578582860161108a565b925050602061146885828601610f8e565b9150509250929050565b6000806000806080858703121561148c5761148b610d76565b5b600085013567ffffffffffffffff8111156114aa576114a9610d7b565b5b6114b68782880161108a565b94505060206114c787828801610f8e565b93505060406114d887828801610e37565b925050606085013567ffffffffffffffff8111156114f9576114f8610d7b565b5b611505878288016112da565b91505092959194509250565b60008060008060008060008060008060006101608c8e03121561153757611536610d76565b5b60008c013567ffffffffffffffff81111561155557611554610d7b565b5b6115618e828f0161108a565b9b505060206115728e828f01610e37565b9a505060406115838e828f01610f8e565b99505060606115948e828f01610e37565b98505060808c013567ffffffffffffffff8111156115b5576115b4610d7b565b5b6115c18e828f016112da565b97505060a06115d28e828f01611318565b96505060c06115e38e828f01610e37565b95505060e06115f48e828f01610e37565b9450506101006116068e828f01610e37565b9350506101206116188e828f01610f8e565b92505061014061162a8e828f01610f8e565b9150509295989b509295989b9093969950565b600060ff82169050919050565b6116538161163d565b82525050565b6116628161114e565b82525050565b600060608201905061167d600083018661164a565b61168a6020830185611659565b6116976040830184611659565b949350505050565b60008060008060008060008060008060006101608c8e0312156116c5576116c4610d76565b5b60008c013567ffffffffffffffff8111156116e3576116e2610d7b565b5b6116ef8e828f0161108a565b9b505060206117008e828f01610f8e565b9a505060406117118e828f01610e37565b99505060608c013567ffffffffffffffff81111561173257611731610d7b565b5b61173e8e828f016112da565b985050608061174f8e828f01611318565b97505060a06117608e828f01610e37565b96505060c06117718e828f01610e37565b95505060e06117828e828f01610e37565b9450506101006117948e828f01610f8e565b9350506101206117a68e828f01610f8e565b9250506101408c013567ffffffffffffffff8111156117c8576117c7610d7b565b5b6117d48e828f016112da565b9150509295989b509295989b9093969950565b600080604083850312156117fe576117fd610d76565b5b600083013567ffffffffffffffff81111561181c5761181b610d7b565b5b6118288582860161108a565b925050602083013567ffffffffffffffff81111561184957611848610d7b565b5b611855858286016112da565b9150509250929050565b6000819050919050565b61187a6118758261114e565b61185f565b82525050565b600061188c8284611869565b60208201915081905092915050565b6000815190506118aa81610e20565b92915050565b6000602082840312156118c6576118c5610d76565b5b60006118d48482850161189b565b91505092915050565b6118e681610f65565b82525050565b600060208201905061190160008301846118dd565b92915050565b61191081610e16565b82525050565b600081519050919050565b600082825260208201905092915050565b60005b83811015611950578082015181840152602081019050611935565b60008484015250505050565b600061196782611916565b6119718185611921565b9350611981818560208601611932565b61198a81610d85565b840191505092915050565b7f4e487b7100000000000000000000000000000000000000000000000000000000600052602160045260246000fd5b600281106119d5576119d4611995565b5b50565b60008190506119e6826119c4565b919050565b60006119f6826119d8565b9050919050565b611a06816119eb565b82525050565b600061014082019050611a22600083018d6118dd565b611a2f602083018c611907565b8181036040830152611a41818b61195c565b9050611a50606083018a6119fd565b611a5d6080830189611907565b611a6a60a0830188611907565b611a7760c0830187611907565b611a8460e08301866118dd565b611a926101008301856118dd565b611aa0610120830184611907565b9b9a5050505050505050505050565b600081519050611abe81611158565b92915050565b600060208284031215611ada57611ad9610d76565b5b6000611ae884828501611aaf565b91505092915050565b611afa8161114e565b82525050565b6000604082019050611b156000830185611907565b611b226020830184611af1565b9392505050565b611b328161163d565b8114611b3d57600080fd5b50565b600081519050611b4f81611b29565b92915050565b600080600060608486031215611b6e57611b6d610d76565b5b6000611b7c86828701611b40565b9350506020611b8d86828701611aaf565b9250506040611b9e86828701611aaf565b9150509250925092565b600082825260208201905092915050565b7f53414645544553543a20496e7374616e6365206e6f7420696e697469616c697a60008201527f65642e2043616c6c205f736574757053616665282920746f20696e697469616c60208201527f697a652061207465737420736166650000000000000000000000000000000000604082015250565b6000611c3b604f83611ba8565b9150611c4682611bb9565b606082019050919050565b60006020820190508181036000830152611c6a81611c2e565b9050919050565b7f4e487b7100000000000000000000000000000000000000000000000000000000600052603260045260246000fd5b60008160f81b9050919050565b6000611cb882611ca0565b9050919050565b611cd0611ccb8261163d565b611cad565b82525050565b6000611ce28286611869565b602082019150611cf28285611869565b602082019150611d028284611cbf565b600182019150819050949350505050565b600081905092915050565b6000611d2982611916565b611d338185611d13565b9350611d43818560208601611932565b80840191505092915050565b6000611d5b8285611d1e565b9150611d678284611d1e565b91508190509392505050565b7f4e487b7100000000000000000000000000000000000000000000000000000000600052601160045260246000fd5b6000611dad82610e16565b91507fffffffffffffffffffffffffffffffffffffffffffffffffffffffffffffffff8203611ddf57611dde611d73565b5b600182019050919050565b611df38161103a565b82525050565b600061014082019050611e0f600083018d6118dd565b611e1c602083018c611907565b8181036040830152611e2e818b61195c565b9050611e3d606083018a6119fd565b611e4a6080830189611907565b611e5760a0830188611907565b611e6460c0830187611907565b611e7160e08301866118dd565b611e7f610100830185611dea565b818103610120830152611e92818461195c565b90509b9a5050505050505050505050565b611eac816113e0565b8114611eb757600080fd5b50565b600081519050611ec981611ea3565b92915050565b600060208284031215611ee557611ee4610d76565b5b6000611ef384828501611eba565b91505092915050565b60006020820190508181036000830152611f16818461195c565b905092915050565b6000819050919050565b6000819050919050565b6000611f4d611f48611f4384611f1e565b611f28565b610e16565b9050919050565b611f5d81611f32565b82525050565b6000604082019050611f7860008301856118dd565b611f856020830184611f54565b9392505050565b600081519050611f9b81610f77565b92915050565b6000611fb4611faf84610f19565b610df6565b90508083825260208201905060208402830185811115611fd757611fd6610e7d565b5b835b818110156120005780611fec8882611f8c565b845260208401935050602081019050611fd9565b5050509392505050565b600082601f83011261201f5761201e610e4c565b5b815161202f848260208601611fa1565b91505092915050565b6000806040838503121561204f5761204e610d76565b5b600083015167ffffffffffffffff81111561206d5761206c610d7b565b5b6120798582860161200a565b925050602061208a85828601611f8c565b9150509250929050565b7f5341464554455354544f4f4c533a2063616e6e6f742064697361626c65206d6f60008201527f64756c652074686174206973206e6f7420656e61626c65640000000000000000602082015250565b60006120f0603883611ba8565b91506120fb82612094565b604082019050919050565b6000602082019050818103600083015261211f816120e3565b9050919050565b600060408201905061213b60008301856118dd565b61214860208301846118dd565b9392505050565b60006020820190506121646000830184611af1565b9291505056fe608060405234801561001057600080fd5b506105f5806100206000396000f3fe608060405234801561001057600080fd5b50600436106100365760003560e01c80630a1028c41461003b57806385a5affe1461006b575b600080fd5b61005560048036038101906100509190610380565b610087565b60405161006291906103e2565b60405180910390f35b6100856004803603810190610080919061045d565b61018a565b005b6000807f60b3cbf8b4a223d68d641b3b6ddf9a298e7f33710cf3d3a9d1146b5a6150fbca60001b83805190602001206040516020016100c79291906104aa565b604051602081830303815290604052805190602001209050601960f81b600160f81b3073ffffffffffffffffffffffffffffffffffffffff1663f698da256040518163ffffffff1660e01b8152600401602060405180830381865afa158015610134573d6000803e3d6000fd5b505050506040513d601f19601f8201168201806040525081019061015891906104ff565b8360405160200161016c949392919061059a565b60405160208183030381529060405280519060200120915050919050565b60006101d983838080601f016020809104026020016040519081016040528093929190818152602001838380828437600081840152601f19601f82011690508083019250505050505050610087565b905060016007600083815260200190815260200160002081905550807fe7f4675038f4f6034dfcbbb24c4dc08e4ebf10eb9d257d3d02c0f38d122ac6e460405160405180910390a2505050565b6000604051905090565b600080fd5b600080fd5b600080fd5b600080fd5b6000601f19601f8301169050919050565b7f4e487b7100000000000000000000000000000000000000000000000000000000600052604160045260246000fd5b61028d82610244565b810181811067ffffffffffffffff821117156102ac576102ab610255565b5b80604052505050565b60006102bf610226565b90506102cb8282610284565b919050565b600067ffffffffffffffff8211156102eb576102ea610255565b5b6102f482610244565b9050602081019050919050565b82818337600083830152505050565b600061032361031e846102d0565b6102b5565b90508281526020810184848401111561033f5761033e61023f565b5b61034a848285610301565b509392505050565b600082601f8301126103675761036661023a565b5b8135610377848260208601610310565b91505092915050565b60006020828403121561039657610395610230565b5b600082013567ffffffffffffffff8111156103b4576103b3610235565b5b6103c084828501610352565b91505092915050565b6000819050919050565b6103dc816103c9565b82525050565b60006020820190506103f760008301846103d3565b92915050565b600080fd5b600080fd5b60008083601f84011261041d5761041c61023a565b5b8235905067ffffffffffffffff81111561043a576104396103fd565b5b60208301915083600182028301111561045657610455610402565b5b9250929050565b6000806020838503121561047457610473610230565b5b600083013567ffffffffffffffff81111561049257610491610235565b5b61049e85828601610407565b92509250509250929050565b60006040820190506104bf60008301856103d3565b6104cc60208301846103d3565b9392505050565b6104dc816103c9565b81146104e757600080fd5b50565b6000815190506104f9816104d3565b92915050565b60006020828403121561051557610514610230565b5b6000610523848285016104ea565b91505092915050565b60007fff0000000000000000000000000000000000000000000000000000000000000082169050919050565b6000819050919050565b61057361056e8261052c565b610558565b82525050565b6000819050919050565b61059461058f826103c9565b610579565b82525050565b60006105a68287610562565b6001820191506105b68286610562565b6001820191506105c68285610583565b6020820191506105d68284610583565b6020820191508190509594505050505056fea164736f6c6343000813000aa164736f6c6343000813000a",
    "linkReferences": {}
  },
  "methodIdentifiers": {
    "EIP1271Sign(SafeInstance,bytes)": "a948775e",
    "EIP1271Sign(SafeInstance,bytes32)": "012a338b",
    "disableModule(SafeInstance,address)": "d13c0400",
    "enableModule(SafeInstance,address)": "62095805",
    "execTransaction(SafeInstance,address,uint256,bytes)": "714f7be6",
    "execTransaction(SafeInstance,address,uint256,bytes,Enum.Operation)": "5d15e3cd",
    "execTransaction(SafeInstance,address,uint256,bytes,Enum.Operation,uint256,uint256,uint256,address,address,bytes)": "a0a6e76d",
    "incrementNonce(SafeInstance)": "42c08638",
    "signTransaction(SafeInstance,uint256,address,uint256,bytes,Enum.Operation,uint256,uint256,uint256,address,address)": "7efe2a4c"
  },
  "id": 78
}