{
  "abi": [
    {
      "inputs": [
        {
          "internalType": "address[]",
          "name": "arr",
          "type": "address[]"
        }
      ],
      "name": "sort",
      "outputs": [
        {
          "internalType": "address[]",
          "name": "",
          "type": "address[]"
        }
      ],
      "stateMutability": "pure",
      "type": "function"
    }
  ],
  "bytecode": {
    "object": "0x6105c8610053600b82828239805160001a607314610046577f4e487b7100000000000000000000000000000000000000000000000000000000600052600060045260246000fd5b30600052607381538281f3fe73000000000000000000000000000000000000000030146080604052600436106100355760003560e01c8063128424a71461003a575b600080fd5b610054600480360381019061004f9190610492565b61006a565b6040516100619190610599565b60405180910390f35b60606100758261007d565b819050919050565b61008e61008982610091565b61009b565b50565b6060819050919050565b601f1960208251600084526040516002821061014c578285018260051b8601815b85810151815111828214176100d55785810190506100bc565b8181036100e45750505061014c565b8190505b868101518151116100fd5786810190506100e8565b82810361013a575b600115610132578251825184528083528783019250868401935082841061012c5750610132565b50610105565b50505061014c565b82845281868501526040840193505050505b6040515b8082146102bc57604082039150815184830151610180828203116101e357858201805183511061018557805183518252808452505b5b6001156101db5786810190508181116101db57805188820180518281116101af575050506101d6565b5b6001156101cd57808a8301528a82019150815190508281116101b0575b828a8301525050505b610186565b5050506102b7565b81601f1681830160061c60051b018251825182518083106102075782819350809150505b8183106102175782829350809250505b8181106102275780829150809250505b8084528185528286525050508051829150835b60011561028e575b60011561025757888101905080518211610242575b825b60011561026e578a8101905080518310610259575b80935083821061027e575061028e565b815184518352808552505061023a565b50508681018552818782011060061b85019450828552808786015282811160061b850194505050505b610150565b508185525050505050565b6000604051905090565b600080fd5b600080fd5b600080fd5b6000601f19601f8301169050919050565b7f4e487b7100000000000000000000000000000000000000000000000000000000600052604160045260246000fd5b610329826102e0565b810181811067ffffffffffffffff82111715610348576103476102f1565b5b80604052505050565b600061035b6102c7565b90506103678282610320565b919050565b600067ffffffffffffffff821115610387576103866102f1565b5b602082029050602081019050919050565b600080fd5b600073ffffffffffffffffffffffffffffffffffffffff82169050919050565b60006103c88261039d565b9050919050565b6103d8816103bd565b81146103e357600080fd5b50565b6000813590506103f5816103cf565b92915050565b600061040e6104098461036c565b610351565b9050808382526020820190506020840283018581111561043157610430610398565b5b835b8181101561045a578061044688826103e6565b845260208401935050602081019050610433565b5050509392505050565b600082601f830112610479576104786102db565b5b81356104898482602086016103fb565b91505092915050565b6000602082840312156104a8576104a76102d1565b5b600082013567ffffffffffffffff8111156104c6576104c56102d6565b5b6104d284828501610464565b91505092915050565b600081519050919050565b600082825260208201905092915050565b6000819050602082019050919050565b610510816103bd565b82525050565b60006105228383610507565b60208301905092915050565b6000602082019050919050565b6000610546826104db565b61055081856104e6565b935061055b836104f7565b8060005b8381101561058c5781516105738882610516565b975061057e8361052e565b92505060018101905061055f565b5085935050505092915050565b600060208201905081810360008301526105b3818461053b565b90509291505056fea164736f6c6343000813000a",
    "linkReferences": {}
  },
  "methodIdentifiers": {
    "sort(address[])": "128424a7"
  },
  "id": 78
}