{
  "abi": [
    {
      "inputs": [
        {
          "internalType": "string",
          "name": "fileName",
          "type": "string"
        },
        {
          "internalType": "bytes",
          "name": "args",
          "type": "bytes"
        }
      ],
      "name": "deployContract",
      "outputs": [
        {
          "internalType": "address",
          "name": "",
          "type": "address"
        }
      ],
      "stateMutability": "nonpayable",
      "type": "function"
    },
    {
      "inputs": [
        {
          "internalType": "string",
          "name": "fileName",
          "type": "string"
        }
      ],
      "name": "deployContract",
      "outputs": [
        {
          "internalType": "address",
          "name": "",
          "type": "address"
        }
      ],
      "stateMutability": "nonpayable",
      "type": "function"
    }
  ],
  "bytecode": {
    "object": "0x60806040527f885cb69240a935d632d79c317109709ecfa91a80626ff3989d68f67f5b1dd12d60001c60601b60601c6000806101000a81548173ffffffffffffffffffffffffffffffffffffffff021916908373ffffffffffffffffffffffffffffffffffffffff16021790555034801561007957600080fd5b50610c46806100896000396000f3fe608060405234801561001057600080fd5b50600436106100365760003560e01c806357ae71d41461003b578063c32723ed1461006b575b600080fd5b610055600480360381019061005091906106aa565b61009b565b6040516100629190610767565b60405180910390f35b61008560048036038101906100809190610782565b6102db565b6040516100929190610767565b60405180910390f35b600080600267ffffffffffffffff8111156100b9576100b861051f565b5b6040519080825280602002602001820160405280156100ec57816020015b60608152602001906001900390816100d75790505b5090506040518060400160405280600581526020017f767970657200000000000000000000000000000000000000000000000000000081525081600081518110610139576101386107cb565b5b60200260200101819052508460405160200161015591906108b7565b60405160208183030381529060405281600181518110610178576101776107cb565b5b602002602001018190525060008060009054906101000a900473ffffffffffffffffffffffffffffffffffffffff1673ffffffffffffffffffffffffffffffffffffffff166389160467836040518263ffffffff1660e01b81526004016101df91906109f8565b6000604051808303816000875af11580156101fe573d6000803e3d6000fd5b505050506040513d6000823e3d601f19601f820116820180604052508101906102279190610abb565b9050600081868660405160200161024093929190610b70565b604051602081830303815290604052905060008151602083016000f09050600073ffffffffffffffffffffffffffffffffffffffff168173ffffffffffffffffffffffffffffffffffffffff16036102cd576040517f08c379a00000000000000000000000000000000000000000000000000000000081526004016102c490610c19565b60405180910390fd5b809450505050509392505050565b600080600267ffffffffffffffff8111156102f9576102f861051f565b5b60405190808252806020026020018201604052801561032c57816020015b60608152602001906001900390816103175790505b5090506040518060400160405280600581526020017f767970657200000000000000000000000000000000000000000000000000000081525081600081518110610379576103786107cb565b5b60200260200101819052508260405160200161039591906108b7565b604051602081830303815290604052816001815181106103b8576103b76107cb565b5b602002602001018190525060008060009054906101000a900473ffffffffffffffffffffffffffffffffffffffff1673ffffffffffffffffffffffffffffffffffffffff166389160467836040518263ffffffff1660e01b815260040161041f91906109f8565b6000604051808303816000875af115801561043e573d6000803e3d6000fd5b505050506040513d6000823e3d601f19601f820116820180604052508101906104679190610abb565b905060008151602083016000f09050600073ffffffffffffffffffffffffffffffffffffffff168173ffffffffffffffffffffffffffffffffffffffff16036104e5576040517f08c379a00000000000000000000000000000000000000000000000000000000081526004016104dc90610c19565b60405180910390fd5b809350505050919050565b6000604051905090565b600080fd5b600080fd5b600080fd5b600080fd5b6000601f19601f8301169050919050565b7f4e487b7100000000000000000000000000000000000000000000000000000000600052604160045260246000fd5b6105578261050e565b810181811067ffffffffffffffff821117156105765761057561051f565b5b80604052505050565b60006105896104f0565b9050610595828261054e565b919050565b600067ffffffffffffffff8211156105b5576105b461051f565b5b6105be8261050e565b9050602081019050919050565b82818337600083830152505050565b60006105ed6105e88461059a565b61057f565b90508281526020810184848401111561060957610608610509565b5b6106148482856105cb565b509392505050565b600082601f83011261063157610630610504565b5b81356106418482602086016105da565b91505092915050565b600080fd5b600080fd5b60008083601f84011261066a57610669610504565b5b8235905067ffffffffffffffff8111156106875761068661064a565b5b6020830191508360018202830111156106a3576106a261064f565b5b9250929050565b6000806000604084860312156106c3576106c26104fa565b5b600084013567ffffffffffffffff8111156106e1576106e06104ff565b5b6106ed8682870161061c565b935050602084013567ffffffffffffffff81111561070e5761070d6104ff565b5b61071a86828701610654565b92509250509250925092565b600073ffffffffffffffffffffffffffffffffffffffff82169050919050565b600061075182610726565b9050919050565b61076181610746565b82525050565b600060208201905061077c6000830184610758565b92915050565b600060208284031215610798576107976104fa565b5b600082013567ffffffffffffffff8111156107b6576107b56104ff565b5b6107c28482850161061c565b91505092915050565b7f4e487b7100000000000000000000000000000000000000000000000000000000600052603260045260246000fd5b7f746573742f7574696c732f000000000000000000000000000000000000000000815250565b600081519050919050565b600081905092915050565b60005b83811015610854578082015181840152602081019050610839565b60008484015250505050565b600061086b82610820565b610875818561082b565b9350610885818560208601610836565b80840191505092915050565b7f2e76790000000000000000000000000000000000000000000000000000000000815250565b60006108c2826107fa565b600b820191506108d28284610860565b91506108dd82610891565b60038201915081905092915050565b600081519050919050565b600082825260208201905092915050565b6000819050602082019050919050565b600082825260208201905092915050565b600061093482610820565b61093e8185610918565b935061094e818560208601610836565b6109578161050e565b840191505092915050565b600061096e8383610929565b905092915050565b6000602082019050919050565b600061098e826108ec565b61099881856108f7565b9350836020820285016109aa85610908565b8060005b858110156109e657848403895281516109c78582610962565b94506109d283610976565b925060208a019950506001810190506109ae565b50829750879550505050505092915050565b60006020820190508181036000830152610a128184610983565b905092915050565b600067ffffffffffffffff821115610a3557610a3461051f565b5b610a3e8261050e565b9050602081019050919050565b6000610a5e610a5984610a1a565b61057f565b905082815260208101848484011115610a7a57610a79610509565b5b610a85848285610836565b509392505050565b600082601f830112610aa257610aa1610504565b5b8151610ab2848260208601610a4b565b91505092915050565b600060208284031215610ad157610ad06104fa565b5b600082015167ffffffffffffffff811115610aef57610aee6104ff565b5b610afb84828501610a8d565b91505092915050565b600081519050919050565b600081905092915050565b6000610b2582610b04565b610b2f8185610b0f565b9350610b3f818560208601610836565b80840191505092915050565b6000610b578385610b0f565b9350610b648385846105cb565b82840190509392505050565b6000610b7c8286610b1a565b9150610b89828486610b4b565b9150819050949350505050565b600082825260208201905092915050565b7f56797065724465706c6f79657220636f756c64206e6f74206465706c6f79206360008201527f6f6e747261637400000000000000000000000000000000000000000000000000602082015250565b6000610c03602783610b96565b9150610c0e82610ba7565b604082019050919050565b60006020820190508181036000830152610c3281610bf6565b905091905056fea164736f6c6343000813000a",
    "linkReferences": {}
  },
  "methodIdentifiers": {
    "deployContract(string)": "c32723ed",
    "deployContract(string,bytes)": "57ae71d4"
  },
  "id": 110
}