{
  "abi": [
    {
      "inputs": [
        {
          "internalType": "bytes",
          "name": "message",
          "type": "bytes"
        }
      ],
      "name": "getMessageHash",
      "outputs": [
        {
          "internalType": "bytes32",
          "name": "",
          "type": "bytes32"
        }
      ],
      "stateMutability": "view",
      "type": "function"
    },
    {
      "inputs": [
        {
          "internalType": "contract GnosisSafe",
          "name": "safe",
          "type": "address"
        },
        {
          "internalType": "bytes",
          "name": "message",
          "type": "bytes"
        }
      ],
      "name": "getMessageHashForSafe",
      "outputs": [
        {
          "internalType": "bytes32",
          "name": "",
          "type": "bytes32"
        }
      ],
      "stateMutability": "view",
      "type": "function"
    },
    {
      "inputs": [],
      "name": "getModules",
      "outputs": [
        {
          "internalType": "address[]",
          "name": "",
          "type": "address[]"
        }
      ],
      "stateMutability": "view",
      "type": "function"
    },
    {
      "inputs": [
        {
          "internalType": "bytes32",
          "name": "_dataHash",
          "type": "bytes32"
        },
        {
          "internalType": "bytes",
          "name": "_signature",
          "type": "bytes"
        }
      ],
      "name": "isValidSignature",
      "outputs": [
        {
          "internalType": "bytes4",
          "name": "",
          "type": "bytes4"
        }
      ],
      "stateMutability": "view",
      "type": "function"
    },
    {
      "inputs": [
        {
          "internalType": "bytes",
          "name": "_data",
          "type": "bytes"
        },
        {
          "internalType": "bytes",
          "name": "_signature",
          "type": "bytes"
        }
      ],
      "name": "isValidSignature",
      "outputs": [
        {
          "internalType": "bytes4",
          "name": "",
          "type": "bytes4"
        }
      ],
      "stateMutability": "view",
      "type": "function"
    },
    {
      "inputs": [
        {
          "internalType": "address",
          "name": "",
          "type": "address"
        },
        {
          "internalType": "address",
          "name": "",
          "type": "address"
        },
        {
          "internalType": "uint256[]",
          "name": "",
          "type": "uint256[]"
        },
        {
          "internalType": "uint256[]",
          "name": "",
          "type": "uint256[]"
        },
        {
          "internalType": "bytes",
          "name": "",
          "type": "bytes"
        }
      ],
      "name": "onERC1155BatchReceived",
      "outputs": [
        {
          "internalType": "bytes4",
          "name": "",
          "type": "bytes4"
        }
      ],
      "stateMutability": "pure",
      "type": "function"
    },
    {
      "inputs": [
        {
          "internalType": "address",
          "name": "",
          "type": "address"
        },
        {
          "internalType": "address",
          "name": "",
          "type": "address"
        },
        {
          "internalType": "uint256",
          "name": "",
          "type": "uint256"
        },
        {
          "internalType": "uint256",
          "name": "",
          "type": "uint256"
        },
        {
          "internalType": "bytes",
          "name": "",
          "type": "bytes"
        }
      ],
      "name": "onERC1155Received",
      "outputs": [
        {
          "internalType": "bytes4",
          "name": "",
          "type": "bytes4"
        }
      ],
      "stateMutability": "pure",
      "type": "function"
    },
    {
      "inputs": [
        {
          "internalType": "address",
          "name": "",
          "type": "address"
        },
        {
          "internalType": "address",
          "name": "",
          "type": "address"
        },
        {
          "internalType": "uint256",
          "name": "",
          "type": "uint256"
        },
        {
          "internalType": "bytes",
          "name": "",
          "type": "bytes"
        }
      ],
      "name": "onERC721Received",
      "outputs": [
        {
          "internalType": "bytes4",
          "name": "",
          "type": "bytes4"
        }
      ],
      "stateMutability": "pure",
      "type": "function"
    },
    {
      "inputs": [
        {
          "internalType": "address",
          "name": "targetContract",
          "type": "address"
        },
        {
          "internalType": "bytes",
          "name": "calldataPayload",
          "type": "bytes"
        }
      ],
      "name": "simulate",
      "outputs": [
        {
          "internalType": "bytes",
          "name": "response",
          "type": "bytes"
        }
      ],
      "stateMutability": "nonpayable",
      "type": "function"
    },
    {
      "inputs": [
        {
          "internalType": "bytes4",
          "name": "interfaceId",
          "type": "bytes4"
        }
      ],
      "name": "supportsInterface",
      "outputs": [
        {
          "internalType": "bool",
          "name": "",
          "type": "bool"
        }
      ],
      "stateMutability": "view",
      "type": "function"
    },
    {
      "inputs": [
        {
          "internalType": "address",
          "name": "",
          "type": "address"
        },
        {
          "internalType": "address",
          "name": "",
          "type": "address"
        },
        {
          "internalType": "address",
          "name": "",
          "type": "address"
        },
        {
          "internalType": "uint256",
          "name": "",
          "type": "uint256"
        },
        {
          "internalType": "bytes",
          "name": "",
          "type": "bytes"
        },
        {
          "internalType": "bytes",
          "name": "",
          "type": "bytes"
        }
      ],
      "name": "tokensReceived",
      "outputs": [],
      "stateMutability": "pure",
      "type": "function"
    }
  ],
  "bytecode": {
    "object": "0x608060405234801561001057600080fd5b506117ba806100206000396000f3fe608060405234801561001057600080fd5b50600436106100c85760003560e01c806320c13b0b11610081578063bc197c811161005b578063bc197c8114610227578063bd61951d14610257578063f23a6e6114610287576100c8565b806320c13b0b146101a95780636ac24784146101d9578063b2494df314610209576100c8565b80630a1028c4116100b25780630a1028c414610119578063150b7a02146101495780631626ba7e14610179576100c8565b806223de29146100cd57806301ffc9a7146100e9575b600080fd5b6100e760048036038101906100e291906109d2565b6102b7565b005b61010360048036038101906100fe9190610af9565b6102c1565b6040516101109190610b41565b60405180910390f35b610133600480360381019061012e9190610c9d565b6103fb565b6040516101409190610cff565b60405180910390f35b610163600480360381019061015e9190610d1a565b61040e565b6040516101709190610db1565b60405180910390f35b610193600480360381019061018e9190610df8565b610423565b6040516101a09190610db1565b60405180910390f35b6101c360048036038101906101be9190610e58565b610534565b6040516101d09190610db1565b60405180910390f35b6101f360048036038101906101ee9190610f20565b610692565b6040516102009190610cff565b60405180910390f35b610211610796565b60405161021e919061103a565b60405180910390f35b610241600480360381019061023c91906110b2565b61082d565b60405161024e9190610db1565b60405180910390f35b610271600480360381019061026c919061118e565b610845565b60405161027e919061126d565b60405180910390f35b6102a1600480360381019061029c919061128f565b6108af565b6040516102ae9190610db1565b60405180910390f35b5050505050505050565b60007f4e2312e0000000000000000000000000000000000000000000000000000000007bffffffffffffffffffffffffffffffffffffffffffffffffffffffff1916827bffffffffffffffffffffffffffffffffffffffffffffffffffffffff1916148061038c57507f150b7a02000000000000000000000000000000000000000000000000000000007bffffffffffffffffffffffffffffffffffffffffffffffffffffffff1916827bffffffffffffffffffffffffffffffffffffffffffffffffffffffff1916145b806103f457507f01ffc9a7000000000000000000000000000000000000000000000000000000007bffffffffffffffffffffffffffffffffffffffffffffffffffffffff1916827bffffffffffffffffffffffffffffffffffffffffffffffffffffffff1916145b9050919050565b60006104073383610692565b9050919050565b600063150b7a0260e01b905095945050505050565b60008033905060008173ffffffffffffffffffffffffffffffffffffffff166320c13b0b876040516020016104589190610cff565b60405160208183030381529060405287876040518463ffffffff1660e01b815260040161048793929190611356565b602060405180830381865afa1580156104a4573d6000803e3d6000fd5b505050506040513d601f19601f820116820180604052508101906104c891906113a4565b90506320c13b0b60e01b7bffffffffffffffffffffffffffffffffffffffffffffffffffffffff1916817bffffffffffffffffffffffffffffffffffffffffffffffffffffffff19161461052057600060e01b610529565b631626ba7e60e01b5b925050509392505050565b60008033905060006105468286610692565b905060008451036106125760008273ffffffffffffffffffffffffffffffffffffffff16635ae6bd37836040518263ffffffff1660e01b815260040161058c9190610cff565b602060405180830381865afa1580156105a9573d6000803e3d6000fd5b505050506040513d601f19601f820116820180604052508101906105cd91906113e6565b0361060d576040517f08c379a000000000000000000000000000000000000000000000000000000000815260040161060490611470565b60405180910390fd5b610680565b8173ffffffffffffffffffffffffffffffffffffffff1663934f3a118287876040518463ffffffff1660e01b815260040161064f93929190611490565b60006040518083038186803b15801561066757600080fd5b505afa15801561067b573d6000803e3d6000fd5b505050505b6320c13b0b60e01b9250505092915050565b6000807f60b3cbf8b4a223d68d641b3b6ddf9a298e7f33710cf3d3a9d1146b5a6150fbca60001b83805190602001206040516020016106d29291906114d5565b604051602081830303815290604052805190602001209050601960f81b600160f81b8573ffffffffffffffffffffffffffffffffffffffff1663f698da256040518163ffffffff1660e01b8152600401602060405180830381865afa15801561073f573d6000803e3d6000fd5b505050506040513d601f19601f820116820180604052508101906107639190611513565b8360405160200161077794939291906115ae565b6040516020818303038152906040528051906020012091505092915050565b6060600033905060008173ffffffffffffffffffffffffffffffffffffffff1663cc2f84526001600a6040518363ffffffff1660e01b81526004016107dc929190611650565b600060405180830381865afa1580156107f9573d6000803e3d6000fd5b505050506040513d6000823e3d601f19601f820116820180604052508101906108229190611751565b509050809250505090565b600063bc197c8160e01b905098975050505050505050565b60606040517fb4faba09000000000000000000000000000000000000000000000000000000008152600436036004808301376020600036836000335af15060203d036040519250808301604052806020843e6000516108a657825160208401fd5b50509392505050565b600063f23a6e6160e01b90509695505050505050565b6000604051905090565b600080fd5b600080fd5b600073ffffffffffffffffffffffffffffffffffffffff82169050919050565b6000610904826108d9565b9050919050565b610914816108f9565b811461091f57600080fd5b50565b6000813590506109318161090b565b92915050565b6000819050919050565b61094a81610937565b811461095557600080fd5b50565b60008135905061096781610941565b92915050565b600080fd5b600080fd5b600080fd5b60008083601f8401126109925761099161096d565b5b8235905067ffffffffffffffff8111156109af576109ae610972565b5b6020830191508360018202830111156109cb576109ca610977565b5b9250929050565b60008060008060008060008060c0898b0312156109f2576109f16108cf565b5b6000610a008b828c01610922565b9850506020610a118b828c01610922565b9750506040610a228b828c01610922565b9650506060610a338b828c01610958565b955050608089013567ffffffffffffffff811115610a5457610a536108d4565b5b610a608b828c0161097c565b945094505060a089013567ffffffffffffffff811115610a8357610a826108d4565b5b610a8f8b828c0161097c565b92509250509295985092959890939650565b60007fffffffff0000000000000000000000000000000000000000000000000000000082169050919050565b610ad681610aa1565b8114610ae157600080fd5b50565b600081359050610af381610acd565b92915050565b600060208284031215610b0f57610b0e6108cf565b5b6000610b1d84828501610ae4565b91505092915050565b60008115159050919050565b610b3b81610b26565b82525050565b6000602082019050610b566000830184610b32565b92915050565b600080fd5b6000601f19601f8301169050919050565b7f4e487b7100000000000000000000000000000000000000000000000000000000600052604160045260246000fd5b610baa82610b61565b810181811067ffffffffffffffff82111715610bc957610bc8610b72565b5b80604052505050565b6000610bdc6108c5565b9050610be88282610ba1565b919050565b600067ffffffffffffffff821115610c0857610c07610b72565b5b610c1182610b61565b9050602081019050919050565b82818337600083830152505050565b6000610c40610c3b84610bed565b610bd2565b905082815260208101848484011115610c5c57610c5b610b5c565b5b610c67848285610c1e565b509392505050565b600082601f830112610c8457610c8361096d565b5b8135610c94848260208601610c2d565b91505092915050565b600060208284031215610cb357610cb26108cf565b5b600082013567ffffffffffffffff811115610cd157610cd06108d4565b5b610cdd84828501610c6f565b91505092915050565b6000819050919050565b610cf981610ce6565b82525050565b6000602082019050610d146000830184610cf0565b92915050565b600080600080600060808688031215610d3657610d356108cf565b5b6000610d4488828901610922565b9550506020610d5588828901610922565b9450506040610d6688828901610958565b935050606086013567ffffffffffffffff811115610d8757610d866108d4565b5b610d938882890161097c565b92509250509295509295909350565b610dab81610aa1565b82525050565b6000602082019050610dc66000830184610da2565b92915050565b610dd581610ce6565b8114610de057600080fd5b50565b600081359050610df281610dcc565b92915050565b600080600060408486031215610e1157610e106108cf565b5b6000610e1f86828701610de3565b935050602084013567ffffffffffffffff811115610e4057610e3f6108d4565b5b610e4c8682870161097c565b92509250509250925092565b60008060408385031215610e6f57610e6e6108cf565b5b600083013567ffffffffffffffff811115610e8d57610e8c6108d4565b5b610e9985828601610c6f565b925050602083013567ffffffffffffffff811115610eba57610eb96108d4565b5b610ec685828601610c6f565b9150509250929050565b6000610edb826108d9565b9050919050565b6000610eed82610ed0565b9050919050565b610efd81610ee2565b8114610f0857600080fd5b50565b600081359050610f1a81610ef4565b92915050565b60008060408385031215610f3757610f366108cf565b5b6000610f4585828601610f0b565b925050602083013567ffffffffffffffff811115610f6657610f656108d4565b5b610f7285828601610c6f565b9150509250929050565b600081519050919050565b600082825260208201905092915050565b6000819050602082019050919050565b610fb1816108f9565b82525050565b6000610fc38383610fa8565b60208301905092915050565b6000602082019050919050565b6000610fe782610f7c565b610ff18185610f87565b9350610ffc83610f98565b8060005b8381101561102d5781516110148882610fb7565b975061101f83610fcf565b925050600181019050611000565b5085935050505092915050565b600060208201905081810360008301526110548184610fdc565b905092915050565b60008083601f8401126110725761107161096d565b5b8235905067ffffffffffffffff81111561108f5761108e610972565b5b6020830191508360208202830111156110ab576110aa610977565b5b9250929050565b60008060008060008060008060a0898b0312156110d2576110d16108cf565b5b60006110e08b828c01610922565b98505060206110f18b828c01610922565b975050604089013567ffffffffffffffff811115611112576111116108d4565b5b61111e8b828c0161105c565b9650965050606089013567ffffffffffffffff811115611141576111406108d4565b5b61114d8b828c0161105c565b9450945050608089013567ffffffffffffffff8111156111705761116f6108d4565b5b61117c8b828c0161097c565b92509250509295985092959890939650565b6000806000604084860312156111a7576111a66108cf565b5b60006111b586828701610922565b935050602084013567ffffffffffffffff8111156111d6576111d56108d4565b5b6111e28682870161097c565b92509250509250925092565b600081519050919050565b600082825260208201905092915050565b60005b8381101561122857808201518184015260208101905061120d565b60008484015250505050565b600061123f826111ee565b61124981856111f9565b935061125981856020860161120a565b61126281610b61565b840191505092915050565b600060208201905081810360008301526112878184611234565b905092915050565b60008060008060008060a087890312156112ac576112ab6108cf565b5b60006112ba89828a01610922565b96505060206112cb89828a01610922565b95505060406112dc89828a01610958565b94505060606112ed89828a01610958565b935050608087013567ffffffffffffffff81111561130e5761130d6108d4565b5b61131a89828a0161097c565b92509250509295509295509295565b600061133583856111f9565b9350611342838584610c1e565b61134b83610b61565b840190509392505050565b600060408201905081810360008301526113708186611234565b90508181036020830152611385818486611329565b9050949350505050565b60008151905061139e81610acd565b92915050565b6000602082840312156113ba576113b96108cf565b5b60006113c88482850161138f565b91505092915050565b6000815190506113e081610941565b92915050565b6000602082840312156113fc576113fb6108cf565b5b600061140a848285016113d1565b91505092915050565b600082825260208201905092915050565b7f48617368206e6f7420617070726f766564000000000000000000000000000000600082015250565b600061145a601183611413565b915061146582611424565b602082019050919050565b600060208201905081810360008301526114898161144d565b9050919050565b60006060820190506114a56000830186610cf0565b81810360208301526114b78185611234565b905081810360408301526114cb8184611234565b9050949350505050565b60006040820190506114ea6000830185610cf0565b6114f76020830184610cf0565b9392505050565b60008151905061150d81610dcc565b92915050565b600060208284031215611529576115286108cf565b5b6000611537848285016114fe565b91505092915050565b60007fff0000000000000000000000000000000000000000000000000000000000000082169050919050565b6000819050919050565b61158761158282611540565b61156c565b82525050565b6000819050919050565b6115a86115a382610ce6565b61158d565b82525050565b60006115ba8287611576565b6001820191506115ca8286611576565b6001820191506115da8285611597565b6020820191506115ea8284611597565b60208201915081905095945050505050565b611605816108f9565b82525050565b6000819050919050565b6000819050919050565b600061163a6116356116308461160b565b611615565b610937565b9050919050565b61164a8161161f565b82525050565b600060408201905061166560008301856115fc565b6116726020830184611641565b9392505050565b600067ffffffffffffffff82111561169457611693610b72565b5b602082029050602081019050919050565b6000815190506116b48161090b565b92915050565b60006116cd6116c884611679565b610bd2565b905080838252602082019050602084028301858111156116f0576116ef610977565b5b835b81811015611719578061170588826116a5565b8452602084019350506020810190506116f2565b5050509392505050565b600082601f8301126117385761173761096d565b5b81516117488482602086016116ba565b91505092915050565b60008060408385031215611768576117676108cf565b5b600083015167ffffffffffffffff811115611786576117856108d4565b5b61179285828601611723565b92505060206117a3858286016116a5565b915050925092905056fea164736f6c6343000813000a",
    "linkReferences": {}
  },
  "methodIdentifiers": {
    "getMessageHash(bytes)": "0a1028c4",
    "getMessageHashForSafe(address,bytes)": "6ac24784",
    "getModules()": "b2494df3",
    "isValidSignature(bytes,bytes)": "20c13b0b",
    "isValidSignature(bytes32,bytes)": "1626ba7e",
    "onERC1155BatchReceived(address,address,uint256[],uint256[],bytes)": "bc197c81",
    "onERC1155Received(address,address,uint256,uint256,bytes)": "f23a6e61",
    "onERC721Received(address,address,uint256,bytes)": "150b7a02",
    "simulate(address,bytes)": "bd61951d",
    "supportsInterface(bytes4)": "01ffc9a7",
    "tokensReceived(address,address,address,uint256,bytes,bytes)": "0023de29"
  },
  "id": 77
}