{
  "abi": [
    {
      "inputs": [
        {
          "internalType": "address",
          "name": "",
          "type": "address"
        },
        {
          "internalType": "address",
          "name": "",
          "type": "address"
        },
        {
          "internalType": "uint256[]",
          "name": "",
          "type": "uint256[]"
        },
        {
          "internalType": "uint256[]",
          "name": "",
          "type": "uint256[]"
        },
        {
          "internalType": "bytes",
          "name": "",
          "type": "bytes"
        }
      ],
      "name": "onERC1155BatchReceived",
      "outputs": [
        {
          "internalType": "bytes4",
          "name": "",
          "type": "bytes4"
        }
      ],
      "stateMutability": "pure",
      "type": "function"
    },
    {
      "inputs": [
        {
          "internalType": "address",
          "name": "",
          "type": "address"
        },
        {
          "internalType": "address",
          "name": "",
          "type": "address"
        },
        {
          "internalType": "uint256",
          "name": "",
          "type": "uint256"
        },
        {
          "internalType": "uint256",
          "name": "",
          "type": "uint256"
        },
        {
          "internalType": "bytes",
          "name": "",
          "type": "bytes"
        }
      ],
      "name": "onERC1155Received",
      "outputs": [
        {
          "internalType": "bytes4",
          "name": "",
          "type": "bytes4"
        }
      ],
      "stateMutability": "pure",
      "type": "function"
    },
    {
      "inputs": [
        {
          "internalType": "address",
          "name": "",
          "type": "address"
        },
        {
          "internalType": "address",
          "name": "",
          "type": "address"
        },
        {
          "internalType": "uint256",
          "name": "",
          "type": "uint256"
        },
        {
          "internalType": "bytes",
          "name": "",
          "type": "bytes"
        }
      ],
      "name": "onERC721Received",
      "outputs": [
        {
          "internalType": "bytes4",
          "name": "",
          "type": "bytes4"
        }
      ],
      "stateMutability": "pure",
      "type": "function"
    },
    {
      "inputs": [
        {
          "internalType": "bytes4",
          "name": "interfaceId",
          "type": "bytes4"
        }
      ],
      "name": "supportsInterface",
      "outputs": [
        {
          "internalType": "bool",
          "name": "",
          "type": "bool"
        }
      ],
      "stateMutability": "view",
      "type": "function"
    },
    {
      "inputs": [
        {
          "internalType": "address",
          "name": "",
          "type": "address"
        },
        {
          "internalType": "address",
          "name": "",
          "type": "address"
        },
        {
          "internalType": "address",
          "name": "",
          "type": "address"
        },
        {
          "internalType": "uint256",
          "name": "",
          "type": "uint256"
        },
        {
          "internalType": "bytes",
          "name": "",
          "type": "bytes"
        },
        {
          "internalType": "bytes",
          "name": "",
          "type": "bytes"
        }
      ],
      "name": "tokensReceived",
      "outputs": [],
      "stateMutability": "pure",
      "type": "function"
    }
  ],
  "bytecode": {
    "object": "0x608060405234801561001057600080fd5b506107e6806100206000396000f3fe608060405234801561001057600080fd5b50600436106100665760003560e01c8063150b7a0211610050578063150b7a02146100b7578063bc197c81146100e7578063f23a6e611461011757610066565b806223de291461006b57806301ffc9a714610087575b600080fd5b610085600480360381019061008091906103d1565b610147565b005b6100a1600480360381019061009c91906104f8565b610151565b6040516100ae9190610540565b60405180910390f35b6100d160048036038101906100cc919061055b565b61028b565b6040516100de91906105f2565b60405180910390f35b61010160048036038101906100fc9190610663565b6102a0565b60405161010e91906105f2565b60405180910390f35b610131600480360381019061012c919061073f565b6102b8565b60405161013e91906105f2565b60405180910390f35b5050505050505050565b60007f4e2312e0000000000000000000000000000000000000000000000000000000007bffffffffffffffffffffffffffffffffffffffffffffffffffffffff1916827bffffffffffffffffffffffffffffffffffffffffffffffffffffffff1916148061021c57507f150b7a02000000000000000000000000000000000000000000000000000000007bffffffffffffffffffffffffffffffffffffffffffffffffffffffff1916827bffffffffffffffffffffffffffffffffffffffffffffffffffffffff1916145b8061028457507f01ffc9a7000000000000000000000000000000000000000000000000000000007bffffffffffffffffffffffffffffffffffffffffffffffffffffffff1916827bffffffffffffffffffffffffffffffffffffffffffffffffffffffff1916145b9050919050565b600063150b7a0260e01b905095945050505050565b600063bc197c8160e01b905098975050505050505050565b600063f23a6e6160e01b90509695505050505050565b600080fd5b600080fd5b600073ffffffffffffffffffffffffffffffffffffffff82169050919050565b6000610303826102d8565b9050919050565b610313816102f8565b811461031e57600080fd5b50565b6000813590506103308161030a565b92915050565b6000819050919050565b61034981610336565b811461035457600080fd5b50565b60008135905061036681610340565b92915050565b600080fd5b600080fd5b600080fd5b60008083601f8401126103915761039061036c565b5b8235905067ffffffffffffffff8111156103ae576103ad610371565b5b6020830191508360018202830111156103ca576103c9610376565b5b9250929050565b60008060008060008060008060c0898b0312156103f1576103f06102ce565b5b60006103ff8b828c01610321565b98505060206104108b828c01610321565b97505060406104218b828c01610321565b96505060606104328b828c01610357565b955050608089013567ffffffffffffffff811115610453576104526102d3565b5b61045f8b828c0161037b565b945094505060a089013567ffffffffffffffff811115610482576104816102d3565b5b61048e8b828c0161037b565b92509250509295985092959890939650565b60007fffffffff0000000000000000000000000000000000000000000000000000000082169050919050565b6104d5816104a0565b81146104e057600080fd5b50565b6000813590506104f2816104cc565b92915050565b60006020828403121561050e5761050d6102ce565b5b600061051c848285016104e3565b91505092915050565b60008115159050919050565b61053a81610525565b82525050565b60006020820190506105556000830184610531565b92915050565b600080600080600060808688031215610577576105766102ce565b5b600061058588828901610321565b955050602061059688828901610321565b94505060406105a788828901610357565b935050606086013567ffffffffffffffff8111156105c8576105c76102d3565b5b6105d48882890161037b565b92509250509295509295909350565b6105ec816104a0565b82525050565b600060208201905061060760008301846105e3565b92915050565b60008083601f8401126106235761062261036c565b5b8235905067ffffffffffffffff8111156106405761063f610371565b5b60208301915083602082028301111561065c5761065b610376565b5b9250929050565b60008060008060008060008060a0898b031215610683576106826102ce565b5b60006106918b828c01610321565b98505060206106a28b828c01610321565b975050604089013567ffffffffffffffff8111156106c3576106c26102d3565b5b6106cf8b828c0161060d565b9650965050606089013567ffffffffffffffff8111156106f2576106f16102d3565b5b6106fe8b828c0161060d565b9450945050608089013567ffffffffffffffff811115610721576107206102d3565b5b61072d8b828c0161037b565b92509250509295985092959890939650565b60008060008060008060a0878903121561075c5761075b6102ce565b5b600061076a89828a01610321565b965050602061077b89828a01610321565b955050604061078c89828a01610357565b945050606061079d89828a01610357565b935050608087013567ffffffffffffffff8111156107be576107bd6102d3565b5b6107ca89828a0161037b565b9250925050929550929550929556fea164736f6c6343000813000a",
    "linkReferences": {}
  },
  "methodIdentifiers": {
    "onERC1155BatchReceived(address,address,uint256[],uint256[],bytes)": "bc197c81",
    "onERC1155Received(address,address,uint256,uint256,bytes)": "f23a6e61",
    "onERC721Received(address,address,uint256,bytes)": "150b7a02",
    "supportsInterface(bytes4)": "01ffc9a7",
    "tokensReceived(address,address,address,uint256,bytes,bytes)": "0023de29"
  },
  "id": 77
}