{
  "abi": [
    {
      "inputs": [
        {
          "internalType": "uint256",
          "name": "_blocks",
          "type": "uint256"
        }
      ],
      "name": "mineBlocks",
      "outputs": [
        {
          "components": [
            {
              "internalType": "uint256",
              "name": "timeElapsed",
              "type": "uint256"
            },
            {
              "internalType": "uint256",
              "name": "blocksElapsed",
              "type": "uint256"
            },
            {
              "internalType": "uint256",
              "name": "currentTimestamp",
              "type": "uint256"
            },
            {
              "internalType": "uint256",
              "name": "currentBlockNumber",
              "type": "uint256"
            }
          ],
          "internalType": "struct VmHelper.MineBlocksResult",
          "name": "result",
          "type": "tuple"
        }
      ],
      "stateMutability": "nonpayable",
      "type": "function"
    },
    {
      "inputs": [
        {
          "internalType": "uint256",
          "name": "secondsElapsed",
          "type": "uint256"
        }
      ],
      "name": "mineBlocksBySecond",
      "outputs": [
        {
          "components": [
            {
              "internalType": "uint256",
              "name": "timeElapsed",
              "type": "uint256"
            },
            {
              "internalType": "uint256",
              "name": "blocksElapsed",
              "type": "uint256"
            },
            {
              "internalType": "uint256",
              "name": "currentTimestamp",
              "type": "uint256"
            },
            {
              "internalType": "uint256",
              "name": "currentBlockNumber",
              "type": "uint256"
            }
          ],
          "internalType": "struct VmHelper.MineBlocksBySecondResult",
          "name": "result",
          "type": "tuple"
        }
      ],
      "stateMutability": "nonpayable",
      "type": "function"
    },
    {
      "inputs": [],
      "name": "mineOneBlock",
      "outputs": [
        {
          "components": [
            {
              "internalType": "uint256",
              "name": "timeElapsed",
              "type": "uint256"
            },
            {
              "internalType": "uint256",
              "name": "blocksElapsed",
              "type": "uint256"
            },
            {
              "internalType": "uint256",
              "name": "currentTimestamp",
              "type": "uint256"
            },
            {
              "internalType": "uint256",
              "name": "currentBlockNumber",
              "type": "uint256"
            }
          ],
          "internalType": "struct VmHelper.MineOneBlockResult",
          "name": "result",
          "type": "tuple"
        }
      ],
      "stateMutability": "nonpayable",
      "type": "function"
    }
  ],
  "bytecode": {
    "object": "0x608060405234801561001057600080fd5b506108b0806100206000396000f3fe608060405234801561001057600080fd5b50600436106100415760003560e01c80630d453eac146100465780638dda701914610076578063f82de7b014610094575b600080fd5b610060600480360381019061005b91906105e8565b6100c4565b60405161006d9190610679565b60405180910390f35b61007e610243565b60405161008b91906106e9565b60405180910390f35b6100ae60048036038101906100a991906105e8565b6103b6565b6040516100bb9190610759565b60405180910390f35b6100cc610535565b60008290506000600c846100e091906107d2565b90507f885cb69240a935d632d79c317109709ecfa91a80626ff3989d68f67f5b1dd12d60001c73ffffffffffffffffffffffffffffffffffffffff1663e5d6bf02834261012d9190610803565b6040518263ffffffff1660e01b81526004016101499190610846565b600060405180830381600087803b15801561016357600080fd5b505af1158015610177573d6000803e3d6000fd5b505050507f885cb69240a935d632d79c317109709ecfa91a80626ff3989d68f67f5b1dd12d60001c73ffffffffffffffffffffffffffffffffffffffff16631f7b4f3082436101c69190610803565b6040518263ffffffff1660e01b81526004016101e29190610846565b600060405180830381600087803b1580156101fc57600080fd5b505af1158015610210573d6000803e3d6000fd5b50505050818360000181815250508083602001818152505042836040018181525050438360600181815250505050919050565b61024b61055d565b6000600c90506000600190507f885cb69240a935d632d79c317109709ecfa91a80626ff3989d68f67f5b1dd12d60001c73ffffffffffffffffffffffffffffffffffffffff1663e5d6bf0283426102a29190610803565b6040518263ffffffff1660e01b81526004016102be9190610846565b600060405180830381600087803b1580156102d857600080fd5b505af11580156102ec573d6000803e3d6000fd5b505050507f885cb69240a935d632d79c317109709ecfa91a80626ff3989d68f67f5b1dd12d60001c73ffffffffffffffffffffffffffffffffffffffff16631f7b4f30824361033b9190610803565b6040518263ffffffff1660e01b81526004016103579190610846565b600060405180830381600087803b15801561037157600080fd5b505af1158015610385573d6000803e3d6000fd5b5050505081836000018181525050808360200181815250504283604001818152505043836060018181525050505090565b6103be610585565b600082600c6103cd9190610861565b905060008390507f885cb69240a935d632d79c317109709ecfa91a80626ff3989d68f67f5b1dd12d60001c73ffffffffffffffffffffffffffffffffffffffff1663e5d6bf02834261041f9190610803565b6040518263ffffffff1660e01b815260040161043b9190610846565b600060405180830381600087803b15801561045557600080fd5b505af1158015610469573d6000803e3d6000fd5b505050507f885cb69240a935d632d79c317109709ecfa91a80626ff3989d68f67f5b1dd12d60001c73ffffffffffffffffffffffffffffffffffffffff16631f7b4f3082436104b89190610803565b6040518263ffffffff1660e01b81526004016104d49190610846565b600060405180830381600087803b1580156104ee57600080fd5b505af1158015610502573d6000803e3d6000fd5b50505050818360000181815250508083602001818152505042836040018181525050438360600181815250505050919050565b6040518060800160405280600081526020016000815260200160008152602001600081525090565b6040518060800160405280600081526020016000815260200160008152602001600081525090565b6040518060800160405280600081526020016000815260200160008152602001600081525090565b600080fd5b6000819050919050565b6105c5816105b2565b81146105d057600080fd5b50565b6000813590506105e2816105bc565b92915050565b6000602082840312156105fe576105fd6105ad565b5b600061060c848285016105d3565b91505092915050565b61061e816105b2565b82525050565b60808201600082015161063a6000850182610615565b50602082015161064d6020850182610615565b5060408201516106606040850182610615565b5060608201516106736060850182610615565b50505050565b600060808201905061068e6000830184610624565b92915050565b6080820160008201516106aa6000850182610615565b5060208201516106bd6020850182610615565b5060408201516106d06040850182610615565b5060608201516106e36060850182610615565b50505050565b60006080820190506106fe6000830184610694565b92915050565b60808201600082015161071a6000850182610615565b50602082015161072d6020850182610615565b5060408201516107406040850182610615565b5060608201516107536060850182610615565b50505050565b600060808201905061076e6000830184610704565b92915050565b7f4e487b7100000000000000000000000000000000000000000000000000000000600052601260045260246000fd5b7f4e487b7100000000000000000000000000000000000000000000000000000000600052601160045260246000fd5b60006107dd826105b2565b91506107e8836105b2565b9250826107f8576107f7610774565b5b828204905092915050565b600061080e826105b2565b9150610819836105b2565b9250828201905080821115610831576108306107a3565b5b92915050565b610840816105b2565b82525050565b600060208201905061085b6000830184610837565b92915050565b600061086c826105b2565b9150610877836105b2565b9250828202610885816105b2565b9150828204841483151761089c5761089b6107a3565b5b509291505056fea164736f6c6343000813000a",
    "linkReferences": {}
  },
  "methodIdentifiers": {
    "mineBlocks(uint256)": "f82de7b0",
    "mineBlocksBySecond(uint256)": "0d453eac",
    "mineOneBlock()": "8dda7019"
  },
  "id": 44
}