{
  "abi": [
    {
      "inputs": [],
      "stateMutability": "nonpayable",
      "type": "constructor"
    },
    {
      "anonymous": false,
      "inputs": [
        {
          "indexed": false,
          "internalType": "address",
          "name": "owner",
          "type": "address"
        }
      ],
      "name": "AddedOwner",
      "type": "event"
    },
    {
      "anonymous": false,
      "inputs": [
        {
          "indexed": true,
          "internalType": "bytes32",
          "name": "approvedHash",
          "type": "bytes32"
        },
        {
          "indexed": true,
          "internalType": "address",
          "name": "owner",
          "type": "address"
        }
      ],
      "name": "ApproveHash",
      "type": "event"
    },
    {
      "anonymous": false,
      "inputs": [
        {
          "indexed": false,
          "internalType": "address",
          "name": "handler",
          "type": "address"
        }
      ],
      "name": "ChangedFallbackHandler",
      "type": "event"
    },
    {
      "anonymous": false,
      "inputs": [
        {
          "indexed": false,
          "internalType": "address",
          "name": "guard",
          "type": "address"
        }
      ],
      "name": "ChangedGuard",
      "type": "event"
    },
    {
      "anonymous": false,
      "inputs": [
        {
          "indexed": false,
          "internalType": "uint256",
          "name": "threshold",
          "type": "uint256"
        }
      ],
      "name": "ChangedThreshold",
      "type": "event"
    },
    {
      "anonymous": false,
      "inputs": [
        {
          "indexed": false,
          "internalType": "address",
          "name": "module",
          "type": "address"
        }
      ],
      "name": "DisabledModule",
      "type": "event"
    },
    {
      "anonymous": false,
      "inputs": [
        {
          "indexed": false,
          "internalType": "address",
          "name": "module",
          "type": "address"
        }
      ],
      "name": "EnabledModule",
      "type": "event"
    },
    {
      "anonymous": false,
      "inputs": [
        {
          "indexed": false,
          "internalType": "bytes32",
          "name": "txHash",
          "type": "bytes32"
        },
        {
          "indexed": false,
          "internalType": "uint256",
          "name": "payment",
          "type": "uint256"
        }
      ],
      "name": "ExecutionFailure",
      "type": "event"
    },
    {
      "anonymous": false,
      "inputs": [
        {
          "indexed": true,
          "internalType": "address",
          "name": "module",
          "type": "address"
        }
      ],
      "name": "ExecutionFromModuleFailure",
      "type": "event"
    },
    {
      "anonymous": false,
      "inputs": [
        {
          "indexed": true,
          "internalType": "address",
          "name": "module",
          "type": "address"
        }
      ],
      "name": "ExecutionFromModuleSuccess",
      "type": "event"
    },
    {
      "anonymous": false,
      "inputs": [
        {
          "indexed": false,
          "internalType": "bytes32",
          "name": "txHash",
          "type": "bytes32"
        },
        {
          "indexed": false,
          "internalType": "uint256",
          "name": "payment",
          "type": "uint256"
        }
      ],
      "name": "ExecutionSuccess",
      "type": "event"
    },
    {
      "anonymous": false,
      "inputs": [
        {
          "indexed": false,
          "internalType": "address",
          "name": "owner",
          "type": "address"
        }
      ],
      "name": "RemovedOwner",
      "type": "event"
    },
    {
      "anonymous": false,
      "inputs": [
        {
          "indexed": true,
          "internalType": "address",
          "name": "sender",
          "type": "address"
        },
        {
          "indexed": false,
          "internalType": "uint256",
          "name": "value",
          "type": "uint256"
        }
      ],
      "name": "SafeReceived",
      "type": "event"
    },
    {
      "anonymous": false,
      "inputs": [
        {
          "indexed": true,
          "internalType": "address",
          "name": "initiator",
          "type": "address"
        },
        {
          "indexed": false,
          "internalType": "address[]",
          "name": "owners",
          "type": "address[]"
        },
        {
          "indexed": false,
          "internalType": "uint256",
          "name": "threshold",
          "type": "uint256"
        },
        {
          "indexed": false,
          "internalType": "address",
          "name": "initializer",
          "type": "address"
        },
        {
          "indexed": false,
          "internalType": "address",
          "name": "fallbackHandler",
          "type": "address"
        }
      ],
      "name": "SafeSetup",
      "type": "event"
    },
    {
      "anonymous": false,
      "inputs": [
        {
          "indexed": true,
          "internalType": "bytes32",
          "name": "msgHash",
          "type": "bytes32"
        }
      ],
      "name": "SignMsg",
      "type": "event"
    },
    {
      "stateMutability": "nonpayable",
      "type": "fallback"
    },
    {
      "inputs": [],
      "name": "VERSION",
      "outputs": [
        {
          "internalType": "string",
          "name": "",
          "type": "string"
        }
      ],
      "stateMutability": "view",
      "type": "function"
    },
    {
      "inputs": [
        {
          "internalType": "address",
          "name": "owner",
          "type": "address"
        },
        {
          "internalType": "uint256",
          "name": "_threshold",
          "type": "uint256"
        }
      ],
      "name": "addOwnerWithThreshold",
      "outputs": [],
      "stateMutability": "nonpayable",
      "type": "function"
    },
    {
      "inputs": [
        {
          "internalType": "bytes32",
          "name": "hashToApprove",
          "type": "bytes32"
        }
      ],
      "name": "approveHash",
      "outputs": [],
      "stateMutability": "nonpayable",
      "type": "function"
    },
    {
      "inputs": [
        {
          "internalType": "address",
          "name": "",
          "type": "address"
        },
        {
          "internalType": "bytes32",
          "name": "",
          "type": "bytes32"
        }
      ],
      "name": "approvedHashes",
      "outputs": [
        {
          "internalType": "uint256",
          "name": "",
          "type": "uint256"
        }
      ],
      "stateMutability": "view",
      "type": "function"
    },
    {
      "inputs": [
        {
          "internalType": "uint256",
          "name": "_threshold",
          "type": "uint256"
        }
      ],
      "name": "changeThreshold",
      "outputs": [],
      "stateMutability": "nonpayable",
      "type": "function"
    },
    {
      "inputs": [
        {
          "internalType": "bytes32",
          "name": "dataHash",
          "type": "bytes32"
        },
        {
          "internalType": "bytes",
          "name": "data",
          "type": "bytes"
        },
        {
          "internalType": "bytes",
          "name": "signatures",
          "type": "bytes"
        },
        {
          "internalType": "uint256",
          "name": "requiredSignatures",
          "type": "uint256"
        }
      ],
      "name": "checkNSignatures",
      "outputs": [],
      "stateMutability": "view",
      "type": "function"
    },
    {
      "inputs": [
        {
          "internalType": "bytes32",
          "name": "dataHash",
          "type": "bytes32"
        },
        {
          "internalType": "bytes",
          "name": "data",
          "type": "bytes"
        },
        {
          "internalType": "bytes",
          "name": "signatures",
          "type": "bytes"
        }
      ],
      "name": "checkSignatures",
      "outputs": [],
      "stateMutability": "view",
      "type": "function"
    },
    {
      "inputs": [
        {
          "internalType": "address",
          "name": "prevModule",
          "type": "address"
        },
        {
          "internalType": "address",
          "name": "module",
          "type": "address"
        }
      ],
      "name": "disableModule",
      "outputs": [],
      "stateMutability": "nonpayable",
      "type": "function"
    },
    {
      "inputs": [],
      "name": "domainSeparator",
      "outputs": [
        {
          "internalType": "bytes32",
          "name": "",
          "type": "bytes32"
        }
      ],
      "stateMutability": "view",
      "type": "function"
    },
    {
      "inputs": [
        {
          "internalType": "address",
          "name": "module",
          "type": "address"
        }
      ],
      "name": "enableModule",
      "outputs": [],
      "stateMutability": "nonpayable",
      "type": "function"
    },
    {
      "inputs": [
        {
          "internalType": "address",
          "name": "to",
          "type": "address"
        },
        {
          "internalType": "uint256",
          "name": "value",
          "type": "uint256"
        },
        {
          "internalType": "bytes",
          "name": "data",
          "type": "bytes"
        },
        {
          "internalType": "enum Enum.Operation",
          "name": "operation",
          "type": "uint8"
        },
        {
          "internalType": "uint256",
          "name": "safeTxGas",
          "type": "uint256"
        },
        {
          "internalType": "uint256",
          "name": "baseGas",
          "type": "uint256"
        },
        {
          "internalType": "uint256",
          "name": "gasPrice",
          "type": "uint256"
        },
        {
          "internalType": "address",
          "name": "gasToken",
          "type": "address"
        },
        {
          "internalType": "address",
          "name": "refundReceiver",
          "type": "address"
        },
        {
          "internalType": "uint256",
          "name": "_nonce",
          "type": "uint256"
        }
      ],
      "name": "encodeTransactionData",
      "outputs": [
        {
          "internalType": "bytes",
          "name": "",
          "type": "bytes"
        }
      ],
      "stateMutability": "view",
      "type": "function"
    },
    {
      "inputs": [
        {
          "internalType": "address",
          "name": "to",
          "type": "address"
        },
        {
          "internalType": "uint256",
          "name": "value",
          "type": "uint256"
        },
        {
          "internalType": "bytes",
          "name": "data",
          "type": "bytes"
        },
        {
          "internalType": "enum Enum.Operation",
          "name": "operation",
          "type": "uint8"
        },
        {
          "internalType": "uint256",
          "name": "safeTxGas",
          "type": "uint256"
        },
        {
          "internalType": "uint256",
          "name": "baseGas",
          "type": "uint256"
        },
        {
          "internalType": "uint256",
          "name": "gasPrice",
          "type": "uint256"
        },
        {
          "internalType": "address",
          "name": "gasToken",
          "type": "address"
        },
        {
          "internalType": "address payable",
          "name": "refundReceiver",
          "type": "address"
        },
        {
          "internalType": "bytes",
          "name": "signatures",
          "type": "bytes"
        }
      ],
      "name": "execTransaction",
      "outputs": [
        {
          "internalType": "bool",
          "name": "success",
          "type": "bool"
        }
      ],
      "stateMutability": "payable",
      "type": "function"
    },
    {
      "inputs": [
        {
          "internalType": "address",
          "name": "to",
          "type": "address"
        },
        {
          "internalType": "uint256",
          "name": "value",
          "type": "uint256"
        },
        {
          "internalType": "bytes",
          "name": "data",
          "type": "bytes"
        },
        {
          "internalType": "enum Enum.Operation",
          "name": "operation",
          "type": "uint8"
        }
      ],
      "name": "execTransactionFromModule",
      "outputs": [
        {
          "internalType": "bool",
          "name": "success",
          "type": "bool"
        }
      ],
      "stateMutability": "nonpayable",
      "type": "function"
    },
    {
      "inputs": [
        {
          "internalType": "address",
          "name": "to",
          "type": "address"
        },
        {
          "internalType": "uint256",
          "name": "value",
          "type": "uint256"
        },
        {
          "internalType": "bytes",
          "name": "data",
          "type": "bytes"
        },
        {
          "internalType": "enum Enum.Operation",
          "name": "operation",
          "type": "uint8"
        }
      ],
      "name": "execTransactionFromModuleReturnData",
      "outputs": [
        {
          "internalType": "bool",
          "name": "success",
          "type": "bool"
        },
        {
          "internalType": "bytes",
          "name": "returnData",
          "type": "bytes"
        }
      ],
      "stateMutability": "nonpayable",
      "type": "function"
    },
    {
      "inputs": [],
      "name": "getChainId",
      "outputs": [
        {
          "internalType": "uint256",
          "name": "",
          "type": "uint256"
        }
      ],
      "stateMutability": "view",
      "type": "function"
    },
    {
      "inputs": [
        {
          "internalType": "address",
          "name": "start",
          "type": "address"
        },
        {
          "internalType": "uint256",
          "name": "pageSize",
          "type": "uint256"
        }
      ],
      "name": "getModulesPaginated",
      "outputs": [
        {
          "internalType": "address[]",
          "name": "array",
          "type": "address[]"
        },
        {
          "internalType": "address",
          "name": "next",
          "type": "address"
        }
      ],
      "stateMutability": "view",
      "type": "function"
    },
    {
      "inputs": [],
      "name": "getOwners",
      "outputs": [
        {
          "internalType": "address[]",
          "name": "",
          "type": "address[]"
        }
      ],
      "stateMutability": "view",
      "type": "function"
    },
    {
      "inputs": [
        {
          "internalType": "uint256",
          "name": "offset",
          "type": "uint256"
        },
        {
          "internalType": "uint256",
          "name": "length",
          "type": "uint256"
        }
      ],
      "name": "getStorageAt",
      "outputs": [
        {
          "internalType": "bytes",
          "name": "",
          "type": "bytes"
        }
      ],
      "stateMutability": "view",
      "type": "function"
    },
    {
      "inputs": [],
      "name": "getThreshold",
      "outputs": [
        {
          "internalType": "uint256",
          "name": "",
          "type": "uint256"
        }
      ],
      "stateMutability": "view",
      "type": "function"
    },
    {
      "inputs": [
        {
          "internalType": "address",
          "name": "to",
          "type": "address"
        },
        {
          "internalType": "uint256",
          "name": "value",
          "type": "uint256"
        },
        {
          "internalType": "bytes",
          "name": "data",
          "type": "bytes"
        },
        {
          "internalType": "enum Enum.Operation",
          "name": "operation",
          "type": "uint8"
        },
        {
          "internalType": "uint256",
          "name": "safeTxGas",
          "type": "uint256"
        },
        {
          "internalType": "uint256",
          "name": "baseGas",
          "type": "uint256"
        },
        {
          "internalType": "uint256",
          "name": "gasPrice",
          "type": "uint256"
        },
        {
          "internalType": "address",
          "name": "gasToken",
          "type": "address"
        },
        {
          "internalType": "address",
          "name": "refundReceiver",
          "type": "address"
        },
        {
          "internalType": "uint256",
          "name": "_nonce",
          "type": "uint256"
        }
      ],
      "name": "getTransactionHash",
      "outputs": [
        {
          "internalType": "bytes32",
          "name": "",
          "type": "bytes32"
        }
      ],
      "stateMutability": "view",
      "type": "function"
    },
    {
      "inputs": [
        {
          "internalType": "address",
          "name": "module",
          "type": "address"
        }
      ],
      "name": "isModuleEnabled",
      "outputs": [
        {
          "internalType": "bool",
          "name": "",
          "type": "bool"
        }
      ],
      "stateMutability": "view",
      "type": "function"
    },
    {
      "inputs": [
        {
          "internalType": "address",
          "name": "owner",
          "type": "address"
        }
      ],
      "name": "isOwner",
      "outputs": [
        {
          "internalType": "bool",
          "name": "",
          "type": "bool"
        }
      ],
      "stateMutability": "view",
      "type": "function"
    },
    {
      "inputs": [],
      "name": "nonce",
      "outputs": [
        {
          "internalType": "uint256",
          "name": "",
          "type": "uint256"
        }
      ],
      "stateMutability": "view",
      "type": "function"
    },
    {
      "inputs": [
        {
          "internalType": "address",
          "name": "prevOwner",
          "type": "address"
        },
        {
          "internalType": "address",
          "name": "owner",
          "type": "address"
        },
        {
          "internalType": "uint256",
          "name": "_threshold",
          "type": "uint256"
        }
      ],
      "name": "removeOwner",
      "outputs": [],
      "stateMutability": "nonpayable",
      "type": "function"
    },
    {
      "inputs": [
        {
          "internalType": "address",
          "name": "to",
          "type": "address"
        },
        {
          "internalType": "uint256",
          "name": "value",
          "type": "uint256"
        },
        {
          "internalType": "bytes",
          "name": "data",
          "type": "bytes"
        },
        {
          "internalType": "enum Enum.Operation",
          "name": "operation",
          "type": "uint8"
        }
      ],
      "name": "requiredTxGas",
      "outputs": [
        {
          "internalType": "uint256",
          "name": "",
          "type": "uint256"
        }
      ],
      "stateMutability": "nonpayable",
      "type": "function"
    },
    {
      "inputs": [
        {
          "internalType": "address",
          "name": "handler",
          "type": "address"
        }
      ],
      "name": "setFallbackHandler",
      "outputs": [],
      "stateMutability": "nonpayable",
      "type": "function"
    },
    {
      "inputs": [
        {
          "internalType": "address",
          "name": "guard",
          "type": "address"
        }
      ],
      "name": "setGuard",
      "outputs": [],
      "stateMutability": "nonpayable",
      "type": "function"
    },
    {
      "inputs": [
        {
          "internalType": "address[]",
          "name": "_owners",
          "type": "address[]"
        },
        {
          "internalType": "uint256",
          "name": "_threshold",
          "type": "uint256"
        },
        {
          "internalType": "address",
          "name": "to",
          "type": "address"
        },
        {
          "internalType": "bytes",
          "name": "data",
          "type": "bytes"
        },
        {
          "internalType": "address",
          "name": "fallbackHandler",
          "type": "address"
        },
        {
          "internalType": "address",
          "name": "paymentToken",
          "type": "address"
        },
        {
          "internalType": "uint256",
          "name": "payment",
          "type": "uint256"
        },
        {
          "internalType": "address payable",
          "name": "paymentReceiver",
          "type": "address"
        }
      ],
      "name": "setup",
      "outputs": [],
      "stateMutability": "nonpayable",
      "type": "function"
    },
    {
      "inputs": [
        {
          "internalType": "bytes32",
          "name": "",
          "type": "bytes32"
        }
      ],
      "name": "signedMessages",
      "outputs": [
        {
          "internalType": "uint256",
          "name": "",
          "type": "uint256"
        }
      ],
      "stateMutability": "view",
      "type": "function"
    },
    {
      "inputs": [
        {
          "internalType": "address",
          "name": "targetContract",
          "type": "address"
        },
        {
          "internalType": "bytes",
          "name": "calldataPayload",
          "type": "bytes"
        }
      ],
      "name": "simulateAndRevert",
      "outputs": [],
      "stateMutability": "nonpayable",
      "type": "function"
    },
    {
      "inputs": [
        {
          "internalType": "address",
          "name": "prevOwner",
          "type": "address"
        },
        {
          "internalType": "address",
          "name": "oldOwner",
          "type": "address"
        },
        {
          "internalType": "address",
          "name": "newOwner",
          "type": "address"
        }
      ],
      "name": "swapOwner",
      "outputs": [],
      "stateMutability": "nonpayable",
      "type": "function"
    },
    {
      "stateMutability": "payable",
      "type": "receive"
    }
  ],
  "bytecode": {
    "object": "0x608060405234801561001057600080fd5b50600160048190555061607b80620000296000396000f3fe6080604052600436106101dc5760003560e01c8063affed0e011610102578063e19a9dd911610095578063f08a032311610064578063f08a0323146107de578063f698da2514610807578063f8dc5dd914610832578063ffa1ad741461085b57610231565b8063e19a9dd914610724578063e318b52b1461074d578063e75235b814610776578063e86637db146107a157610231565b8063cc2f8452116100d1578063cc2f845214610657578063d4d9bdcd14610695578063d8d11f78146106be578063e009cfde146106fb57610231565b8063affed0e01461059d578063b4faba09146105c8578063b63e800d146105f1578063c4ca3a9c1461061a57610231565b80635624b25b1161017a5780636a761202116101495780636a761202146104dc5780637d8329741461050c578063934f3a1114610549578063a0e67e2b1461057257610231565b80635624b25b146104105780635ae6bd371461044d578063610b59251461048a578063694e80c3146104b357610231565b80632f54bf6e116101b65780632f54bf6e1461032d5780633408e4701461036a578063468721a7146103955780635229073f146103d257610231565b80630d582f131461029e57806312fb68e0146102c75780632d9ad53d146102f057610231565b36610231573373ffffffffffffffffffffffffffffffffffffffff167f3d0ce9bfc3ed7d6862dbb28b2dea94561fe714a1b4d019aa8af39730d1ad7c3d346040516102279190613e89565b60405180910390a2005b34801561023d57600080fd5b5060007f6c9a6c4a39284e37ed1cf53d337577d14212a4870fb976a4366c693b939918d560001b905080548061027257600080f35b36600080373360601b365260008060143601600080855af13d6000803e80610299573d6000fd5b3d6000f35b3480156102aa57600080fd5b506102c560048036038101906102c09190613f42565b610886565b005b3480156102d357600080fd5b506102ee60048036038101906102e991906140fe565b610c00565b005b3480156102fc57600080fd5b506103176004803603810190610312919061419d565b6111f6565b60405161032491906141e5565b60405180910390f35b34801561033957600080fd5b50610354600480360381019061034f919061419d565b6112c8565b60405161036191906141e5565b60405180910390f35b34801561037657600080fd5b5061037f61139a565b60405161038c9190613e89565b60405180910390f35b3480156103a157600080fd5b506103bc60048036038101906103b79190614225565b6113a7565b6040516103c991906141e5565b60405180910390f35b3480156103de57600080fd5b506103f960048036038101906103f49190614225565b61155a565b604051610407929190614327565b60405180910390f35b34801561041c57600080fd5b5061043760048036038101906104329190614357565b611590565b6040516104449190614397565b60405180910390f35b34801561045957600080fd5b50610474600480360381019061046f91906143b9565b611628565b6040516104819190613e89565b60405180910390f35b34801561049657600080fd5b506104b160048036038101906104ac919061419d565b611640565b005b3480156104bf57600080fd5b506104da60048036038101906104d591906143e6565b611956565b005b6104f660048036038101906104f191906144b1565b611a2a565b60405161050391906141e5565b60405180910390f35b34801561051857600080fd5b50610533600480360381019061052e91906145cd565b611deb565b6040516105409190613e89565b60405180910390f35b34801561055557600080fd5b50610570600480360381019061056b919061460d565b611e10565b005b34801561057e57600080fd5b50610587611e6c565b6040516105949190614756565b60405180910390f35b3480156105a957600080fd5b506105b2612024565b6040516105bf9190613e89565b60405180910390f35b3480156105d457600080fd5b506105ef60048036038101906105ea9190614778565b61202a565b005b3480156105fd57600080fd5b506106186004803603810190610613919061482a565b61204c565b005b34801561062657600080fd5b50610641600480360381019061063c9190614921565b61219f565b60405161064e9190613e89565b60405180910390f35b34801561066357600080fd5b5061067e60048036038101906106799190613f42565b61226b565b60405161068c9291906149b8565b60405180910390f35b3480156106a157600080fd5b506106bc60048036038101906106b791906143b9565b61246c565b005b3480156106ca57600080fd5b506106e560048036038101906106e091906149e8565b6125d7565b6040516106f29190614af7565b60405180910390f35b34801561070757600080fd5b50610722600480360381019061071d9190614b12565b612604565b005b34801561073057600080fd5b5061074b6004803603810190610746919061419d565b612919565b005b34801561075957600080fd5b50610774600480360381019061076f9190614b52565b612987565b005b34801561078257600080fd5b5061078b612f01565b6040516107989190613e89565b60405180910390f35b3480156107ad57600080fd5b506107c860048036038101906107c391906149e8565b612f0b565b6040516107d59190614397565b60405180910390f35b3480156107ea57600080fd5b506108056004803603810190610800919061419d565b612fcd565b005b34801561081357600080fd5b5061081c613018565b6040516108299190614af7565b60405180910390f35b34801561083e57600080fd5b5061085960048036038101906108549190614ba5565b613074565b005b34801561086757600080fd5b50610870613406565b60405161087d9190614c4d565b60405180910390f35b61088e61343f565b600073ffffffffffffffffffffffffffffffffffffffff168273ffffffffffffffffffffffffffffffffffffffff16141580156108f85750600173ffffffffffffffffffffffffffffffffffffffff168273ffffffffffffffffffffffffffffffffffffffff1614155b801561093057503073ffffffffffffffffffffffffffffffffffffffff168273ffffffffffffffffffffffffffffffffffffffff1614155b61096f576040517f08c379a000000000000000000000000000000000000000000000000000000000815260040161096690614cbb565b60405180910390fd5b600073ffffffffffffffffffffffffffffffffffffffff16600260008473ffffffffffffffffffffffffffffffffffffffff1673ffffffffffffffffffffffffffffffffffffffff16815260200190815260200160002060009054906101000a900473ffffffffffffffffffffffffffffffffffffffff1673ffffffffffffffffffffffffffffffffffffffff1614610a3d576040517f08c379a0000000000000000000000000000000000000000000000000000000008152600401610a3490614d27565b60405180910390fd5b60026000600173ffffffffffffffffffffffffffffffffffffffff1673ffffffffffffffffffffffffffffffffffffffff16815260200190815260200160002060009054906101000a900473ffffffffffffffffffffffffffffffffffffffff16600260008473ffffffffffffffffffffffffffffffffffffffff1673ffffffffffffffffffffffffffffffffffffffff16815260200190815260200160002060006101000a81548173ffffffffffffffffffffffffffffffffffffffff021916908373ffffffffffffffffffffffffffffffffffffffff1602179055508160026000600173ffffffffffffffffffffffffffffffffffffffff1673ffffffffffffffffffffffffffffffffffffffff16815260200190815260200160002060006101000a81548173ffffffffffffffffffffffffffffffffffffffff021916908373ffffffffffffffffffffffffffffffffffffffff16021790555060036000815480929190610bad90614d76565b91905055507f9465fa0c962cc76958e6373a993326400c1c94f8be2fe3a952adfa7f60b2ea2682604051610be19190614dbe565b60405180910390a18060045414610bfc57610bfb81611956565b5b5050565b610c146041826134af90919063ffffffff16565b82511015610c57576040517f08c379a0000000000000000000000000000000000000000000000000000000008152600401610c4e90614e25565b60405180910390fd5b6000808060008060005b868110156111ea57610c7388826134f3565b80945081955082965050505060008460ff1603610ecd578260001c9450610ca46041886134af90919063ffffffff16565b8260001c1015610ce9576040517f08c379a0000000000000000000000000000000000000000000000000000000008152600401610ce090614e91565b60405180910390fd5b8751610d0260208460001c61352290919063ffffffff16565b1115610d43576040517f08c379a0000000000000000000000000000000000000000000000000000000008152600401610d3a90614efd565b60405180910390fd5b60006020838a01015190508851610d7982610d6b60208760001c61352290919063ffffffff16565b61352290919063ffffffff16565b1115610dba576040517f08c379a0000000000000000000000000000000000000000000000000000000008152600401610db190614f69565b60405180910390fd5b60606020848b010190506320c13b0b60e01b7bffffffffffffffffffffffffffffffffffffffffffffffffffffffff19168773ffffffffffffffffffffffffffffffffffffffff166320c13b0b8d846040518363ffffffff1660e01b8152600401610e26929190614f89565b602060405180830381865afa158015610e43573d6000803e3d6000fd5b505050506040513d601f19601f82011682018060405250810190610e679190615018565b7bffffffffffffffffffffffffffffffffffffffffffffffffffffffff191614610ec6576040517f08c379a0000000000000000000000000000000000000000000000000000000008152600401610ebd90615091565b60405180910390fd5b5050611095565b60018460ff1603610fad578260001c94508473ffffffffffffffffffffffffffffffffffffffff163373ffffffffffffffffffffffffffffffffffffffff161480610f6957506000600860008773ffffffffffffffffffffffffffffffffffffffff1673ffffffffffffffffffffffffffffffffffffffff16815260200190815260200160002060008c81526020019081526020016000205414155b610fa8576040517f08c379a0000000000000000000000000000000000000000000000000000000008152600401610f9f906150fd565b60405180910390fd5b611094565b601e8460ff1611156110415760018a604051602001610fcc9190615195565b60405160208183030381529060405280519060200120600486610fef91906151c8565b85856040516000815260200160405260405161100e949392919061520c565b6020604051602081039080840390855afa158015611030573d6000803e3d6000fd5b505050602060405103519450611093565b60018a85858560405160008152602001604052604051611064949392919061520c565b6020604051602081039080840390855afa158015611086573d6000803e3d6000fd5b5050506020604051035194505b5b5b8573ffffffffffffffffffffffffffffffffffffffff168573ffffffffffffffffffffffffffffffffffffffff1611801561115c5750600073ffffffffffffffffffffffffffffffffffffffff16600260008773ffffffffffffffffffffffffffffffffffffffff1673ffffffffffffffffffffffffffffffffffffffff16815260200190815260200160002060009054906101000a900473ffffffffffffffffffffffffffffffffffffffff1673ffffffffffffffffffffffffffffffffffffffff1614155b80156111955750600173ffffffffffffffffffffffffffffffffffffffff168573ffffffffffffffffffffffffffffffffffffffff1614155b6111d4576040517f08c379a00000000000000000000000000000000000000000000000000000000081526004016111cb9061529d565b60405180910390fd5b84955080806111e290614d76565b915050610c61565b50505050505050505050565b60008173ffffffffffffffffffffffffffffffffffffffff16600173ffffffffffffffffffffffffffffffffffffffff16141580156112c15750600073ffffffffffffffffffffffffffffffffffffffff16600160008473ffffffffffffffffffffffffffffffffffffffff1673ffffffffffffffffffffffffffffffffffffffff16815260200190815260200160002060009054906101000a900473ffffffffffffffffffffffffffffffffffffffff1673ffffffffffffffffffffffffffffffffffffffff1614155b9050919050565b6000600173ffffffffffffffffffffffffffffffffffffffff168273ffffffffffffffffffffffffffffffffffffffff16141580156113935750600073ffffffffffffffffffffffffffffffffffffffff16600260008473ffffffffffffffffffffffffffffffffffffffff1673ffffffffffffffffffffffffffffffffffffffff16815260200190815260200160002060009054906101000a900473ffffffffffffffffffffffffffffffffffffffff1673ffffffffffffffffffffffffffffffffffffffff1614155b9050919050565b6000804690508091505090565b6000600173ffffffffffffffffffffffffffffffffffffffff163373ffffffffffffffffffffffffffffffffffffffff16141580156114725750600073ffffffffffffffffffffffffffffffffffffffff16600160003373ffffffffffffffffffffffffffffffffffffffff1673ffffffffffffffffffffffffffffffffffffffff16815260200190815260200160002060009054906101000a900473ffffffffffffffffffffffffffffffffffffffff1673ffffffffffffffffffffffffffffffffffffffff1614155b6114b1576040517f08c379a00000000000000000000000000000000000000000000000000000000081526004016114a890615309565b60405180910390fd5b6114be858585855a61354a565b9050801561150e573373ffffffffffffffffffffffffffffffffffffffff167f6895c13664aa4f67288b25d7a21d7aaa34916e355fb9b6fae0a139a9085becb860405160405180910390a2611552565b3373ffffffffffffffffffffffffffffffffffffffff167facd2c8702804128fdb0db2bb49f6d127dd0181c13fd45dbfe16de0930e2bd37560405160405180910390a25b949350505050565b6000606061156a868686866113a7565b915060405160203d0181016040523d81523d6000602083013e8091505094509492505050565b606060006020836115a19190615329565b67ffffffffffffffff8111156115ba576115b9613fd3565b5b6040519080825280601f01601f1916602001820160405280156115ec5781602001600182028036833780820191505090505b50905060005b8381101561161d5780850154806020830260208501015250808061161590614d76565b9150506115f2565b508091505092915050565b60076020528060005260406000206000915090505481565b61164861343f565b600073ffffffffffffffffffffffffffffffffffffffff168173ffffffffffffffffffffffffffffffffffffffff16141580156116b25750600173ffffffffffffffffffffffffffffffffffffffff168173ffffffffffffffffffffffffffffffffffffffff1614155b6116f1576040517f08c379a00000000000000000000000000000000000000000000000000000000081526004016116e8906153b7565b60405180910390fd5b600073ffffffffffffffffffffffffffffffffffffffff16600160008373ffffffffffffffffffffffffffffffffffffffff1673ffffffffffffffffffffffffffffffffffffffff16815260200190815260200160002060009054906101000a900473ffffffffffffffffffffffffffffffffffffffff1673ffffffffffffffffffffffffffffffffffffffff16146117bf576040517f08c379a00000000000000000000000000000000000000000000000000000000081526004016117b690615423565b60405180910390fd5b60016000600173ffffffffffffffffffffffffffffffffffffffff1673ffffffffffffffffffffffffffffffffffffffff16815260200190815260200160002060009054906101000a900473ffffffffffffffffffffffffffffffffffffffff16600160008373ffffffffffffffffffffffffffffffffffffffff1673ffffffffffffffffffffffffffffffffffffffff16815260200190815260200160002060006101000a81548173ffffffffffffffffffffffffffffffffffffffff021916908373ffffffffffffffffffffffffffffffffffffffff1602179055508060016000600173ffffffffffffffffffffffffffffffffffffffff1673ffffffffffffffffffffffffffffffffffffffff16815260200190815260200160002060006101000a81548173ffffffffffffffffffffffffffffffffffffffff021916908373ffffffffffffffffffffffffffffffffffffffff1602179055507fecdf3a3effea5783a3c4c2140e677577666428d44ed9d474a0b3a4c9943f84408160405161194b9190614dbe565b60405180910390a150565b61195e61343f565b6003548111156119a3576040517f08c379a000000000000000000000000000000000000000000000000000000000815260040161199a9061548f565b60405180910390fd5b60018110156119e7576040517f08c379a00000000000000000000000000000000000000000000000000000000081526004016119de906154fb565b60405180910390fd5b806004819055507f610f7ff2b304ae8903c3de74c60c6ab1f7d6226b3f52c5161905bb5ad4039c93600454604051611a1f9190613e89565b60405180910390a150565b6000806000611a448e8e8e8e8e8e8e8e8e8e600554612f0b565b905060056000815480929190611a5990614d76565b919050555080805190602001209150611a73828286611e10565b506000611a7e6135a3565b9050600073ffffffffffffffffffffffffffffffffffffffff168173ffffffffffffffffffffffffffffffffffffffff1614611b36578073ffffffffffffffffffffffffffffffffffffffff166375f0bb528f8f8f8f8f8f8f8f8f8f8f336040518d63ffffffff1660e01b8152600401611b039c9b9a999897969594939291906155ce565b600060405180830381600087803b158015611b1d57600080fd5b505af1158015611b31573d6000803e3d6000fd5b505050505b6101f4611b716109c48b611b4a9190615689565b603f60408d611b599190615329565b611b6391906156ec565b6135d490919063ffffffff16565b611b7b9190615689565b5a1015611bbd576040517f08c379a0000000000000000000000000000000000000000000000000000000008152600401611bb490615769565b60405180910390fd5b60005a9050611c2f8f8f8f8f8080601f016020809104026020016040519081016040528093929190818152602001838380828437600081840152601f19601f820116905080830192505050505050508e60008d14611c1b578e611c2a565b6109c45a611c299190615789565b5b61354a565b9350611c445a826135ee90919063ffffffff16565b90508380611c53575060008a14155b80611c5f575060008814155b611c9e576040517f08c379a0000000000000000000000000000000000000000000000000000000008152600401611c9590615809565b60405180910390fd5b600080891115611cb857611cb5828b8b8b8b613617565b90505b8415611cfc577f442e715f626346e8c54381002da614f62bee8d27386535b2521ec8540898556e8482604051611cef929190615829565b60405180910390a1611d36565b7f23428b18acfb3ea64b08dc0c1d296ea9c09702c09083ca5272e64d115b687d238482604051611d2d929190615829565b60405180910390a15b5050600073ffffffffffffffffffffffffffffffffffffffff168173ffffffffffffffffffffffffffffffffffffffff1614611dda578073ffffffffffffffffffffffffffffffffffffffff16639327136883856040518363ffffffff1660e01b8152600401611da7929190615852565b600060405180830381600087803b158015611dc157600080fd5b505af1158015611dd5573d6000803e3d6000fd5b505050505b50509b9a5050505050505050505050565b6008602052816000526040600020602052806000526040600020600091509150505481565b6000600454905060008111611e5a576040517f08c379a0000000000000000000000000000000000000000000000000000000008152600401611e51906158c7565b60405180910390fd5b611e6684848484610c00565b50505050565b6060600060035467ffffffffffffffff811115611e8c57611e8b613fd3565b5b604051908082528060200260200182016040528015611eba5781602001602082028036833780820191505090505b50905060008060026000600173ffffffffffffffffffffffffffffffffffffffff1673ffffffffffffffffffffffffffffffffffffffff16815260200190815260200160002060009054906101000a900473ffffffffffffffffffffffffffffffffffffffff1690505b600173ffffffffffffffffffffffffffffffffffffffff168173ffffffffffffffffffffffffffffffffffffffff161461201b5780838381518110611f6c57611f6b6158e7565b5b602002602001019073ffffffffffffffffffffffffffffffffffffffff16908173ffffffffffffffffffffffffffffffffffffffff1681525050600260008273ffffffffffffffffffffffffffffffffffffffff1673ffffffffffffffffffffffffffffffffffffffff16815260200190815260200160002060009054906101000a900473ffffffffffffffffffffffffffffffffffffffff169050818061201390614d76565b925050611f24565b82935050505090565b60055481565b600080825160208401855af4806000523d6020523d600060403e60403d016000fd5b6120978a8a80806020026020016040519081016040528093929190818152602001838360200280828437600081840152601f19601f82011690508083019250505050505050896137b6565b600073ffffffffffffffffffffffffffffffffffffffff168473ffffffffffffffffffffffffffffffffffffffff16146120d5576120d484613bc4565b5b6121238787878080601f016020809104026020016040519081016040528093929190818152602001838380828437600081840152601f19601f82011690508083019250505050505050613bf3565b600082111561213d5761213b82600060018685613617565b505b3373ffffffffffffffffffffffffffffffffffffffff167f141df868a6331af528e38c83b7aa03edc19be66e37ae67f9285bf4f8e3c6a1a88b8b8b8b8960405161218b9594939291906159a1565b60405180910390a250505050505050505050565b6000805a90506121f6878787878080601f016020809104026020016040519081016040528093929190818152602001838380828437600081840152601f19601f82011690508083019250505050505050865a61354a565b6121ff57600080fd5b60005a8261220d9190615789565b9050806040516020016122209190615a10565b6040516020818303038152906040526040517f08c379a00000000000000000000000000000000000000000000000000000000081526004016122629190614c4d565b60405180910390fd5b606060008267ffffffffffffffff81111561228957612288613fd3565b5b6040519080825280602002602001820160405280156122b75781602001602082028036833780820191505090505b509150600080600160008773ffffffffffffffffffffffffffffffffffffffff1673ffffffffffffffffffffffffffffffffffffffff16815260200190815260200160002060009054906101000a900473ffffffffffffffffffffffffffffffffffffffff1690505b600073ffffffffffffffffffffffffffffffffffffffff168173ffffffffffffffffffffffffffffffffffffffff161415801561238a5750600173ffffffffffffffffffffffffffffffffffffffff168173ffffffffffffffffffffffffffffffffffffffff1614155b801561239557508482105b1561245d57808483815181106123ae576123ad6158e7565b5b602002602001019073ffffffffffffffffffffffffffffffffffffffff16908173ffffffffffffffffffffffffffffffffffffffff1681525050600160008273ffffffffffffffffffffffffffffffffffffffff1673ffffffffffffffffffffffffffffffffffffffff16815260200190815260200160002060009054906101000a900473ffffffffffffffffffffffffffffffffffffffff169050818061245590614d76565b925050612320565b80925081845250509250929050565b600073ffffffffffffffffffffffffffffffffffffffff16600260003373ffffffffffffffffffffffffffffffffffffffff1673ffffffffffffffffffffffffffffffffffffffff16815260200190815260200160002060009054906101000a900473ffffffffffffffffffffffffffffffffffffffff1673ffffffffffffffffffffffffffffffffffffffff160361253a576040517f08c379a000000000000000000000000000000000000000000000000000000000815260040161253190615a77565b60405180910390fd5b6001600860003373ffffffffffffffffffffffffffffffffffffffff1673ffffffffffffffffffffffffffffffffffffffff1681526020019081526020016000206000838152602001908152602001600020819055503373ffffffffffffffffffffffffffffffffffffffff16817ff2a0eb156472d1440255b0d7c1e19cc07115d1051fe605b0dce69acfec884d9c60405160405180910390a350565b60006125ec8c8c8c8c8c8c8c8c8c8c8c612f0b565b8051906020012090509b9a5050505050505050505050565b61260c61343f565b600073ffffffffffffffffffffffffffffffffffffffff168173ffffffffffffffffffffffffffffffffffffffff16141580156126765750600173ffffffffffffffffffffffffffffffffffffffff168173ffffffffffffffffffffffffffffffffffffffff1614155b6126b5576040517f08c379a00000000000000000000000000000000000000000000000000000000081526004016126ac906153b7565b60405180910390fd5b8073ffffffffffffffffffffffffffffffffffffffff16600160008473ffffffffffffffffffffffffffffffffffffffff1673ffffffffffffffffffffffffffffffffffffffff16815260200190815260200160002060009054906101000a900473ffffffffffffffffffffffffffffffffffffffff1673ffffffffffffffffffffffffffffffffffffffff1614612782576040517f08c379a000000000000000000000000000000000000000000000000000000000815260040161277990615ae3565b60405180910390fd5b600160008273ffffffffffffffffffffffffffffffffffffffff1673ffffffffffffffffffffffffffffffffffffffff16815260200190815260200160002060009054906101000a900473ffffffffffffffffffffffffffffffffffffffff16600160008473ffffffffffffffffffffffffffffffffffffffff1673ffffffffffffffffffffffffffffffffffffffff16815260200190815260200160002060006101000a81548173ffffffffffffffffffffffffffffffffffffffff021916908373ffffffffffffffffffffffffffffffffffffffff1602179055506000600160008373ffffffffffffffffffffffffffffffffffffffff1673ffffffffffffffffffffffffffffffffffffffff16815260200190815260200160002060006101000a81548173ffffffffffffffffffffffffffffffffffffffff021916908373ffffffffffffffffffffffffffffffffffffffff1602179055507faab4fa2b463f581b2b32cb3b7e3b704b9ce37cc209b5fb4d77e593ace40542768160405161290d9190614dbe565b60405180910390a15050565b61292161343f565b60007f4a204f620c8c5ccdca3fd54d003badd85ba500436a431f0cbda4f558c93c34c860001b90508181557f1151116914515bc0891ff9047a6cb32cf902546f83066499bcf8ba33d2353fa28260405161297b9190614dbe565b60405180910390a15050565b61298f61343f565b600073ffffffffffffffffffffffffffffffffffffffff168173ffffffffffffffffffffffffffffffffffffffff16141580156129f95750600173ffffffffffffffffffffffffffffffffffffffff168173ffffffffffffffffffffffffffffffffffffffff1614155b8015612a3157503073ffffffffffffffffffffffffffffffffffffffff168173ffffffffffffffffffffffffffffffffffffffff1614155b612a70576040517f08c379a0000000000000000000000000000000000000000000000000000000008152600401612a6790614cbb565b60405180910390fd5b600073ffffffffffffffffffffffffffffffffffffffff16600260008373ffffffffffffffffffffffffffffffffffffffff1673ffffffffffffffffffffffffffffffffffffffff16815260200190815260200160002060009054906101000a900473ffffffffffffffffffffffffffffffffffffffff1673ffffffffffffffffffffffffffffffffffffffff1614612b3e576040517f08c379a0000000000000000000000000000000000000000000000000000000008152600401612b3590614d27565b60405180910390fd5b600073ffffffffffffffffffffffffffffffffffffffff168273ffffffffffffffffffffffffffffffffffffffff1614158015612ba85750600173ffffffffffffffffffffffffffffffffffffffff168273ffffffffffffffffffffffffffffffffffffffff1614155b612be7576040517f08c379a0000000000000000000000000000000000000000000000000000000008152600401612bde90614cbb565b60405180910390fd5b8173ffffffffffffffffffffffffffffffffffffffff16600260008573ffffffffffffffffffffffffffffffffffffffff1673ffffffffffffffffffffffffffffffffffffffff16815260200190815260200160002060009054906101000a900473ffffffffffffffffffffffffffffffffffffffff1673ffffffffffffffffffffffffffffffffffffffff1614612cb4576040517f08c379a0000000000000000000000000000000000000000000000000000000008152600401612cab90615b4f565b60405180910390fd5b600260008373ffffffffffffffffffffffffffffffffffffffff1673ffffffffffffffffffffffffffffffffffffffff16815260200190815260200160002060009054906101000a900473ffffffffffffffffffffffffffffffffffffffff16600260008373ffffffffffffffffffffffffffffffffffffffff1673ffffffffffffffffffffffffffffffffffffffff16815260200190815260200160002060006101000a81548173ffffffffffffffffffffffffffffffffffffffff021916908373ffffffffffffffffffffffffffffffffffffffff16021790555080600260008573ffffffffffffffffffffffffffffffffffffffff1673ffffffffffffffffffffffffffffffffffffffff16815260200190815260200160002060006101000a81548173ffffffffffffffffffffffffffffffffffffffff021916908373ffffffffffffffffffffffffffffffffffffffff1602179055506000600260008473ffffffffffffffffffffffffffffffffffffffff1673ffffffffffffffffffffffffffffffffffffffff16815260200190815260200160002060006101000a81548173ffffffffffffffffffffffffffffffffffffffff021916908373ffffffffffffffffffffffffffffffffffffffff1602179055507ff8d49fc529812e9a7c5c50e69c20f0dccc0db8fa95c98bc58cc9a4f1c1299eaf82604051612ebd9190614dbe565b60405180910390a17f9465fa0c962cc76958e6373a993326400c1c94f8be2fe3a952adfa7f60b2ea2681604051612ef49190614dbe565b60405180910390a1505050565b6000600454905090565b606060007fbb8310d486368db6bd6f849402fdd73ad53d316b5a4b2644ad6efe0f941286d860001b8d8d8d8d604051612f45929190615b9f565b60405180910390208c8c8c8c8c8c8c604051602001612f6e9b9a99989796959493929190615bb8565b604051602081830303815290604052805190602001209050601960f81b600160f81b612f98613018565b83604051602001612fac9493929190615cb0565b6040516020818303038152906040529150509b9a5050505050505050505050565b612fd561343f565b612fde81613bc4565b7f5ac6c46c93c8d0e53714ba3b53db3e7c046da994313d7ed0d192028bc7c228b08160405161300d9190614dbe565b60405180910390a150565b60007f47e79534a245952e8b16893a336b85a3d9ea9fa8c573f3d803afb92a7946921860001b61304661139a565b3060405160200161305993929190615d5d565b60405160208183030381529060405280519060200120905090565b61307c61343f565b80600160035461308c9190615789565b10156130cd576040517f08c379a00000000000000000000000000000000000000000000000000000000081526004016130c49061548f565b60405180910390fd5b600073ffffffffffffffffffffffffffffffffffffffff168273ffffffffffffffffffffffffffffffffffffffff16141580156131375750600173ffffffffffffffffffffffffffffffffffffffff168273ffffffffffffffffffffffffffffffffffffffff1614155b613176576040517f08c379a000000000000000000000000000000000000000000000000000000000815260040161316d90614cbb565b60405180910390fd5b8173ffffffffffffffffffffffffffffffffffffffff16600260008573ffffffffffffffffffffffffffffffffffffffff1673ffffffffffffffffffffffffffffffffffffffff16815260200190815260200160002060009054906101000a900473ffffffffffffffffffffffffffffffffffffffff1673ffffffffffffffffffffffffffffffffffffffff1614613243576040517f08c379a000000000000000000000000000000000000000000000000000000000815260040161323a90615b4f565b60405180910390fd5b600260008373ffffffffffffffffffffffffffffffffffffffff1673ffffffffffffffffffffffffffffffffffffffff16815260200190815260200160002060009054906101000a900473ffffffffffffffffffffffffffffffffffffffff16600260008573ffffffffffffffffffffffffffffffffffffffff1673ffffffffffffffffffffffffffffffffffffffff16815260200190815260200160002060006101000a81548173ffffffffffffffffffffffffffffffffffffffff021916908373ffffffffffffffffffffffffffffffffffffffff1602179055506000600260008473ffffffffffffffffffffffffffffffffffffffff1673ffffffffffffffffffffffffffffffffffffffff16815260200190815260200160002060006101000a81548173ffffffffffffffffffffffffffffffffffffffff021916908373ffffffffffffffffffffffffffffffffffffffff160217905550600360008154809291906133b290615d94565b91905055507ff8d49fc529812e9a7c5c50e69c20f0dccc0db8fa95c98bc58cc9a4f1c1299eaf826040516133e69190614dbe565b60405180910390a180600454146134015761340081611956565b5b505050565b6040518060400160405280600581526020017f312e332e3000000000000000000000000000000000000000000000000000000081525081565b3073ffffffffffffffffffffffffffffffffffffffff163373ffffffffffffffffffffffffffffffffffffffff16146134ad576040517f08c379a00000000000000000000000000000000000000000000000000000000081526004016134a490615e09565b60405180910390fd5b565b60008083036134c157600090506134ed565b600082846134cf9190615329565b90508284826134de91906156ec565b146134e857600080fd5b809150505b92915050565b60008060008360410260208101860151925060408101860151915060ff60418201870151169350509250925092565b60008082846135319190615689565b90508381101561354057600080fd5b8091505092915050565b600060018081111561355f5761355e615548565b5b83600181111561357257613571615548565b5b0361358a576000808551602087018986f4905061359a565b600080855160208701888a87f190505b95945050505050565b6000807f4a204f620c8c5ccdca3fd54d003badd85ba500436a431f0cbda4f558c93c34c860001b9050805491505090565b6000818310156135e457816135e6565b825b905092915050565b6000828211156135fd57600080fd5b6000828461360b9190615789565b90508091505092915050565b600080600073ffffffffffffffffffffffffffffffffffffffff168373ffffffffffffffffffffffffffffffffffffffff16146136545782613656565b325b9050600073ffffffffffffffffffffffffffffffffffffffff168473ffffffffffffffffffffffffffffffffffffffff160361373a576136bf3a861061369c573a61369e565b855b6136b1888a61352290919063ffffffff16565b6134af90919063ffffffff16565b91508073ffffffffffffffffffffffffffffffffffffffff166108fc839081150290604051600060405180830381858888f19350505050613735576040517f08c379a000000000000000000000000000000000000000000000000000000000815260040161372c90615e75565b60405180910390fd5b6137ac565b61375f85613751888a61352290919063ffffffff16565b6134af90919063ffffffff16565b915061376c848284613dc8565b6137ab576040517f08c379a00000000000000000000000000000000000000000000000000000000081526004016137a290615ee1565b60405180910390fd5b5b5095945050505050565b6000600454146137fb576040517f08c379a00000000000000000000000000000000000000000000000000000000081526004016137f290615f4d565b60405180910390fd5b815181111561383f576040517f08c379a00000000000000000000000000000000000000000000000000000000081526004016138369061548f565b60405180910390fd5b6001811015613883576040517f08c379a000000000000000000000000000000000000000000000000000000000815260040161387a906154fb565b60405180910390fd5b60006001905060005b8351811015613b305760008482815181106138aa576138a96158e7565b5b60200260200101519050600073ffffffffffffffffffffffffffffffffffffffff168173ffffffffffffffffffffffffffffffffffffffff161415801561391e5750600173ffffffffffffffffffffffffffffffffffffffff168173ffffffffffffffffffffffffffffffffffffffff1614155b801561395657503073ffffffffffffffffffffffffffffffffffffffff168173ffffffffffffffffffffffffffffffffffffffff1614155b801561398e57508073ffffffffffffffffffffffffffffffffffffffff168373ffffffffffffffffffffffffffffffffffffffff1614155b6139cd576040517f08c379a00000000000000000000000000000000000000000000000000000000081526004016139c490614cbb565b60405180910390fd5b600073ffffffffffffffffffffffffffffffffffffffff16600260008373ffffffffffffffffffffffffffffffffffffffff1673ffffffffffffffffffffffffffffffffffffffff16815260200190815260200160002060009054906101000a900473ffffffffffffffffffffffffffffffffffffffff1673ffffffffffffffffffffffffffffffffffffffff1614613a9b576040517f08c379a0000000000000000000000000000000000000000000000000000000008152600401613a9290614d27565b60405180910390fd5b80600260008573ffffffffffffffffffffffffffffffffffffffff1673ffffffffffffffffffffffffffffffffffffffff16815260200190815260200160002060006101000a81548173ffffffffffffffffffffffffffffffffffffffff021916908373ffffffffffffffffffffffffffffffffffffffff160217905550809250508080613b2890614d76565b91505061388c565b506001600260008373ffffffffffffffffffffffffffffffffffffffff1673ffffffffffffffffffffffffffffffffffffffff16815260200190815260200160002060006101000a81548173ffffffffffffffffffffffffffffffffffffffff021916908373ffffffffffffffffffffffffffffffffffffffff160217905550825160038190555081600481905550505050565b60007f6c9a6c4a39284e37ed1cf53d337577d14212a4870fb976a4366c693b939918d560001b90508181555050565b600073ffffffffffffffffffffffffffffffffffffffff1660016000600173ffffffffffffffffffffffffffffffffffffffff1673ffffffffffffffffffffffffffffffffffffffff16815260200190815260200160002060009054906101000a900473ffffffffffffffffffffffffffffffffffffffff1673ffffffffffffffffffffffffffffffffffffffff1614613cc2576040517f08c379a0000000000000000000000000000000000000000000000000000000008152600401613cb990615fb9565b60405180910390fd5b6001806000600173ffffffffffffffffffffffffffffffffffffffff1673ffffffffffffffffffffffffffffffffffffffff16815260200190815260200160002060006101000a81548173ffffffffffffffffffffffffffffffffffffffff021916908373ffffffffffffffffffffffffffffffffffffffff160217905550600073ffffffffffffffffffffffffffffffffffffffff168273ffffffffffffffffffffffffffffffffffffffff1614613dc457613d848260008360015a61354a565b613dc3576040517f08c379a0000000000000000000000000000000000000000000000000000000008152600401613dba90616025565b60405180910390fd5b5b5050565b60008063a9059cbb8484604051602401613de3929190616045565b6040516020818303038152906040529060e01b6020820180517bffffffffffffffffffffffffffffffffffffffffffffffffffffffff83818316178352505050509050602060008251602084016000896127105a03f13d60008114613e535760208114613e5b5760009350613e66565b819350613e66565b600051158215171593505b5050509392505050565b6000819050919050565b613e8381613e70565b82525050565b6000602082019050613e9e6000830184613e7a565b92915050565b6000604051905090565b600080fd5b600080fd5b600073ffffffffffffffffffffffffffffffffffffffff82169050919050565b6000613ee382613eb8565b9050919050565b613ef381613ed8565b8114613efe57600080fd5b50565b600081359050613f1081613eea565b92915050565b613f1f81613e70565b8114613f2a57600080fd5b50565b600081359050613f3c81613f16565b92915050565b60008060408385031215613f5957613f58613eae565b5b6000613f6785828601613f01565b9250506020613f7885828601613f2d565b9150509250929050565b6000819050919050565b613f9581613f82565b8114613fa057600080fd5b50565b600081359050613fb281613f8c565b92915050565b600080fd5b600080fd5b6000601f19601f8301169050919050565b7f4e487b7100000000000000000000000000000000000000000000000000000000600052604160045260246000fd5b61400b82613fc2565b810181811067ffffffffffffffff8211171561402a57614029613fd3565b5b80604052505050565b600061403d613ea4565b90506140498282614002565b919050565b600067ffffffffffffffff82111561406957614068613fd3565b5b61407282613fc2565b9050602081019050919050565b82818337600083830152505050565b60006140a161409c8461404e565b614033565b9050828152602081018484840111156140bd576140bc613fbd565b5b6140c884828561407f565b509392505050565b600082601f8301126140e5576140e4613fb8565b5b81356140f584826020860161408e565b91505092915050565b6000806000806080858703121561411857614117613eae565b5b600061412687828801613fa3565b945050602085013567ffffffffffffffff81111561414757614146613eb3565b5b614153878288016140d0565b935050604085013567ffffffffffffffff81111561417457614173613eb3565b5b614180878288016140d0565b925050606061419187828801613f2d565b91505092959194509250565b6000602082840312156141b3576141b2613eae565b5b60006141c184828501613f01565b91505092915050565b60008115159050919050565b6141df816141ca565b82525050565b60006020820190506141fa60008301846141d6565b92915050565b6002811061420d57600080fd5b50565b60008135905061421f81614200565b92915050565b6000806000806080858703121561423f5761423e613eae565b5b600061424d87828801613f01565b945050602061425e87828801613f2d565b935050604085013567ffffffffffffffff81111561427f5761427e613eb3565b5b61428b878288016140d0565b925050606061429c87828801614210565b91505092959194509250565b600081519050919050565b600082825260208201905092915050565b60005b838110156142e25780820151818401526020810190506142c7565b60008484015250505050565b60006142f9826142a8565b61430381856142b3565b93506143138185602086016142c4565b61431c81613fc2565b840191505092915050565b600060408201905061433c60008301856141d6565b818103602083015261434e81846142ee565b90509392505050565b6000806040838503121561436e5761436d613eae565b5b600061437c85828601613f2d565b925050602061438d85828601613f2d565b9150509250929050565b600060208201905081810360008301526143b181846142ee565b905092915050565b6000602082840312156143cf576143ce613eae565b5b60006143dd84828501613fa3565b91505092915050565b6000602082840312156143fc576143fb613eae565b5b600061440a84828501613f2d565b91505092915050565b600080fd5b600080fd5b60008083601f84011261443357614432613fb8565b5b8235905067ffffffffffffffff8111156144505761444f614413565b5b60208301915083600182028301111561446c5761446b614418565b5b9250929050565b600061447e82613eb8565b9050919050565b61448e81614473565b811461449957600080fd5b50565b6000813590506144ab81614485565b92915050565b60008060008060008060008060008060006101408c8e0312156144d7576144d6613eae565b5b60006144e58e828f01613f01565b9b505060206144f68e828f01613f2d565b9a505060408c013567ffffffffffffffff81111561451757614516613eb3565b5b6145238e828f0161441d565b995099505060606145368e828f01614210565b97505060806145478e828f01613f2d565b96505060a06145588e828f01613f2d565b95505060c06145698e828f01613f2d565b94505060e061457a8e828f01613f01565b93505061010061458c8e828f0161449c565b9250506101208c013567ffffffffffffffff8111156145ae576145ad613eb3565b5b6145ba8e828f016140d0565b9150509295989b509295989b9093969950565b600080604083850312156145e4576145e3613eae565b5b60006145f285828601613f01565b925050602061460385828601613fa3565b9150509250929050565b60008060006060848603121561462657614625613eae565b5b600061463486828701613fa3565b935050602084013567ffffffffffffffff81111561465557614654613eb3565b5b614661868287016140d0565b925050604084013567ffffffffffffffff81111561468257614681613eb3565b5b61468e868287016140d0565b9150509250925092565b600081519050919050565b600082825260208201905092915050565b6000819050602082019050919050565b6146cd81613ed8565b82525050565b60006146df83836146c4565b60208301905092915050565b6000602082019050919050565b600061470382614698565b61470d81856146a3565b9350614718836146b4565b8060005b8381101561474957815161473088826146d3565b975061473b836146eb565b92505060018101905061471c565b5085935050505092915050565b6000602082019050818103600083015261477081846146f8565b905092915050565b6000806040838503121561478f5761478e613eae565b5b600061479d85828601613f01565b925050602083013567ffffffffffffffff8111156147be576147bd613eb3565b5b6147ca858286016140d0565b9150509250929050565b60008083601f8401126147ea576147e9613fb8565b5b8235905067ffffffffffffffff81111561480757614806614413565b5b60208301915083602082028301111561482357614822614418565b5b9250929050565b6000806000806000806000806000806101008b8d03121561484e5761484d613eae565b5b60008b013567ffffffffffffffff81111561486c5761486b613eb3565b5b6148788d828e016147d4565b9a509a5050602061488b8d828e01613f2d565b985050604061489c8d828e01613f01565b97505060608b013567ffffffffffffffff8111156148bd576148bc613eb3565b5b6148c98d828e0161441d565b965096505060806148dc8d828e01613f01565b94505060a06148ed8d828e01613f01565b93505060c06148fe8d828e01613f2d565b92505060e061490f8d828e0161449c565b9150509295989b9194979a5092959850565b60008060008060006080868803121561493d5761493c613eae565b5b600061494b88828901613f01565b955050602061495c88828901613f2d565b945050604086013567ffffffffffffffff81111561497d5761497c613eb3565b5b6149898882890161441d565b9350935050606061499c88828901614210565b9150509295509295909350565b6149b281613ed8565b82525050565b600060408201905081810360008301526149d281856146f8565b90506149e160208301846149a9565b9392505050565b60008060008060008060008060008060006101408c8e031215614a0e57614a0d613eae565b5b6000614a1c8e828f01613f01565b9b50506020614a2d8e828f01613f2d565b9a505060408c013567ffffffffffffffff811115614a4e57614a4d613eb3565b5b614a5a8e828f0161441d565b99509950506060614a6d8e828f01614210565b9750506080614a7e8e828f01613f2d565b96505060a0614a8f8e828f01613f2d565b95505060c0614aa08e828f01613f2d565b94505060e0614ab18e828f01613f01565b935050610100614ac38e828f01613f01565b925050610120614ad58e828f01613f2d565b9150509295989b509295989b9093969950565b614af181613f82565b82525050565b6000602082019050614b0c6000830184614ae8565b92915050565b60008060408385031215614b2957614b28613eae565b5b6000614b3785828601613f01565b9250506020614b4885828601613f01565b9150509250929050565b600080600060608486031215614b6b57614b6a613eae565b5b6000614b7986828701613f01565b9350506020614b8a86828701613f01565b9250506040614b9b86828701613f01565b9150509250925092565b600080600060608486031215614bbe57614bbd613eae565b5b6000614bcc86828701613f01565b9350506020614bdd86828701613f01565b9250506040614bee86828701613f2d565b9150509250925092565b600081519050919050565b600082825260208201905092915050565b6000614c1f82614bf8565b614c298185614c03565b9350614c398185602086016142c4565b614c4281613fc2565b840191505092915050565b60006020820190508181036000830152614c678184614c14565b905092915050565b7f4753323033000000000000000000000000000000000000000000000000000000600082015250565b6000614ca5600583614c03565b9150614cb082614c6f565b602082019050919050565b60006020820190508181036000830152614cd481614c98565b9050919050565b7f4753323034000000000000000000000000000000000000000000000000000000600082015250565b6000614d11600583614c03565b9150614d1c82614cdb565b602082019050919050565b60006020820190508181036000830152614d4081614d04565b9050919050565b7f4e487b7100000000000000000000000000000000000000000000000000000000600052601160045260246000fd5b6000614d8182613e70565b91507fffffffffffffffffffffffffffffffffffffffffffffffffffffffffffffffff8203614db357614db2614d47565b5b600182019050919050565b6000602082019050614dd360008301846149a9565b92915050565b7f4753303230000000000000000000000000000000000000000000000000000000600082015250565b6000614e0f600583614c03565b9150614e1a82614dd9565b602082019050919050565b60006020820190508181036000830152614e3e81614e02565b9050919050565b7f4753303231000000000000000000000000000000000000000000000000000000600082015250565b6000614e7b600583614c03565b9150614e8682614e45565b602082019050919050565b60006020820190508181036000830152614eaa81614e6e565b9050919050565b7f4753303232000000000000000000000000000000000000000000000000000000600082015250565b6000614ee7600583614c03565b9150614ef282614eb1565b602082019050919050565b60006020820190508181036000830152614f1681614eda565b9050919050565b7f4753303233000000000000000000000000000000000000000000000000000000600082015250565b6000614f53600583614c03565b9150614f5e82614f1d565b602082019050919050565b60006020820190508181036000830152614f8281614f46565b9050919050565b60006040820190508181036000830152614fa381856142ee565b90508181036020830152614fb781846142ee565b90509392505050565b60007fffffffff0000000000000000000000000000000000000000000000000000000082169050919050565b614ff581614fc0565b811461500057600080fd5b50565b60008151905061501281614fec565b92915050565b60006020828403121561502e5761502d613eae565b5b600061503c84828501615003565b91505092915050565b7f4753303234000000000000000000000000000000000000000000000000000000600082015250565b600061507b600583614c03565b915061508682615045565b602082019050919050565b600060208201905081810360008301526150aa8161506e565b9050919050565b7f4753303235000000000000000000000000000000000000000000000000000000600082015250565b60006150e7600583614c03565b91506150f2826150b1565b602082019050919050565b60006020820190508181036000830152615116816150da565b9050919050565b600081905092915050565b7f19457468657265756d205369676e6564204d6573736167653a0a333200000000600082015250565b600061515e601c8361511d565b915061516982615128565b601c82019050919050565b6000819050919050565b61518f61518a82613f82565b615174565b82525050565b60006151a082615151565b91506151ac828461517e565b60208201915081905092915050565b600060ff82169050919050565b60006151d3826151bb565b91506151de836151bb565b9250828203905060ff8111156151f7576151f6614d47565b5b92915050565b615206816151bb565b82525050565b60006080820190506152216000830187614ae8565b61522e60208301866151fd565b61523b6040830185614ae8565b6152486060830184614ae8565b95945050505050565b7f4753303236000000000000000000000000000000000000000000000000000000600082015250565b6000615287600583614c03565b915061529282615251565b602082019050919050565b600060208201905081810360008301526152b68161527a565b9050919050565b7f4753313034000000000000000000000000000000000000000000000000000000600082015250565b60006152f3600583614c03565b91506152fe826152bd565b602082019050919050565b60006020820190508181036000830152615322816152e6565b9050919050565b600061533482613e70565b915061533f83613e70565b925082820261534d81613e70565b9150828204841483151761536457615363614d47565b5b5092915050565b7f4753313031000000000000000000000000000000000000000000000000000000600082015250565b60006153a1600583614c03565b91506153ac8261536b565b602082019050919050565b600060208201905081810360008301526153d081615394565b9050919050565b7f4753313032000000000000000000000000000000000000000000000000000000600082015250565b600061540d600583614c03565b9150615418826153d7565b602082019050919050565b6000602082019050818103600083015261543c81615400565b9050919050565b7f4753323031000000000000000000000000000000000000000000000000000000600082015250565b6000615479600583614c03565b915061548482615443565b602082019050919050565b600060208201905081810360008301526154a88161546c565b9050919050565b7f4753323032000000000000000000000000000000000000000000000000000000600082015250565b60006154e5600583614c03565b91506154f0826154af565b602082019050919050565b60006020820190508181036000830152615514816154d8565b9050919050565b600061552783856142b3565b935061553483858461407f565b61553d83613fc2565b840190509392505050565b7f4e487b7100000000000000000000000000000000000000000000000000000000600052602160045260246000fd5b6002811061558857615587615548565b5b50565b600081905061559982615577565b919050565b60006155a98261558b565b9050919050565b6155b98161559e565b82525050565b6155c881614473565b82525050565b6000610160820190506155e4600083018f6149a9565b6155f1602083018e613e7a565b8181036040830152615604818c8e61551b565b9050615613606083018b6155b0565b615620608083018a613e7a565b61562d60a0830189613e7a565b61563a60c0830188613e7a565b61564760e08301876149a9565b6156556101008301866155bf565b81810361012083015261566881856142ee565b90506156786101408301846149a9565b9d9c50505050505050505050505050565b600061569482613e70565b915061569f83613e70565b92508282019050808211156156b7576156b6614d47565b5b92915050565b7f4e487b7100000000000000000000000000000000000000000000000000000000600052601260045260246000fd5b60006156f782613e70565b915061570283613e70565b925082615712576157116156bd565b5b828204905092915050565b7f4753303130000000000000000000000000000000000000000000000000000000600082015250565b6000615753600583614c03565b915061575e8261571d565b602082019050919050565b6000602082019050818103600083015261578281615746565b9050919050565b600061579482613e70565b915061579f83613e70565b92508282039050818111156157b7576157b6614d47565b5b92915050565b7f4753303133000000000000000000000000000000000000000000000000000000600082015250565b60006157f3600583614c03565b91506157fe826157bd565b602082019050919050565b60006020820190508181036000830152615822816157e6565b9050919050565b600060408201905061583e6000830185614ae8565b61584b6020830184613e7a565b9392505050565b60006040820190506158676000830185614ae8565b61587460208301846141d6565b9392505050565b7f4753303031000000000000000000000000000000000000000000000000000000600082015250565b60006158b1600583614c03565b91506158bc8261587b565b602082019050919050565b600060208201905081810360008301526158e0816158a4565b9050919050565b7f4e487b7100000000000000000000000000000000000000000000000000000000600052603260045260246000fd5b6000819050919050565b600061592f6020840184613f01565b905092915050565b6000602082019050919050565b600061595083856146a3565b935061595b82615916565b8060005b85811015615994576159718284615920565b61597b88826146d3565b975061598683615937565b92505060018101905061595f565b5085925050509392505050565b600060808201905081810360008301526159bc818789615944565b90506159cb6020830186613e7a565b6159d860408301856149a9565b6159e560608301846149a9565b9695505050505050565b6000819050919050565b615a0a615a0582613e70565b6159ef565b82525050565b6000615a1c82846159f9565b60208201915081905092915050565b7f4753303330000000000000000000000000000000000000000000000000000000600082015250565b6000615a61600583614c03565b9150615a6c82615a2b565b602082019050919050565b60006020820190508181036000830152615a9081615a54565b9050919050565b7f4753313033000000000000000000000000000000000000000000000000000000600082015250565b6000615acd600583614c03565b9150615ad882615a97565b602082019050919050565b60006020820190508181036000830152615afc81615ac0565b9050919050565b7f4753323035000000000000000000000000000000000000000000000000000000600082015250565b6000615b39600583614c03565b9150615b4482615b03565b602082019050919050565b60006020820190508181036000830152615b6881615b2c565b9050919050565b600081905092915050565b6000615b868385615b6f565b9350615b9383858461407f565b82840190509392505050565b6000615bac828486615b7a565b91508190509392505050565b600061016082019050615bce600083018e614ae8565b615bdb602083018d6149a9565b615be8604083018c613e7a565b615bf5606083018b614ae8565b615c02608083018a6155b0565b615c0f60a0830189613e7a565b615c1c60c0830188613e7a565b615c2960e0830187613e7a565b615c376101008301866149a9565b615c456101208301856149a9565b615c53610140830184613e7a565b9c9b505050505050505050505050565b60007fff0000000000000000000000000000000000000000000000000000000000000082169050919050565b6000819050919050565b615caa615ca582615c63565b615c8f565b82525050565b6000615cbc8287615c99565b600182019150615ccc8286615c99565b600182019150615cdc828561517e565b602082019150615cec828461517e565b60208201915081905095945050505050565b6000819050919050565b6000615d23615d1e615d1984613eb8565b615cfe565b613eb8565b9050919050565b6000615d3582615d08565b9050919050565b6000615d4782615d2a565b9050919050565b615d5781615d3c565b82525050565b6000606082019050615d726000830186614ae8565b615d7f6020830185613e7a565b615d8c6040830184615d4e565b949350505050565b6000615d9f82613e70565b915060008203615db257615db1614d47565b5b600182039050919050565b7f4753303331000000000000000000000000000000000000000000000000000000600082015250565b6000615df3600583614c03565b9150615dfe82615dbd565b602082019050919050565b60006020820190508181036000830152615e2281615de6565b9050919050565b7f4753303131000000000000000000000000000000000000000000000000000000600082015250565b6000615e5f600583614c03565b9150615e6a82615e29565b602082019050919050565b60006020820190508181036000830152615e8e81615e52565b9050919050565b7f4753303132000000000000000000000000000000000000000000000000000000600082015250565b6000615ecb600583614c03565b9150615ed682615e95565b602082019050919050565b60006020820190508181036000830152615efa81615ebe565b9050919050565b7f4753323030000000000000000000000000000000000000000000000000000000600082015250565b6000615f37600583614c03565b9150615f4282615f01565b602082019050919050565b60006020820190508181036000830152615f6681615f2a565b9050919050565b7f4753313030000000000000000000000000000000000000000000000000000000600082015250565b6000615fa3600583614c03565b9150615fae82615f6d565b602082019050919050565b60006020820190508181036000830152615fd281615f96565b9050919050565b7f4753303030000000000000000000000000000000000000000000000000000000600082015250565b600061600f600583614c03565b915061601a82615fd9565b602082019050919050565b6000602082019050818103600083015261603e81616002565b9050919050565b600060408201905061605a60008301856149a9565b6160676020830184613e7a565b939250505056fea164736f6c6343000813000a",
    "linkReferences": {}
  },
  "methodIdentifiers": {
    "VERSION()": "ffa1ad74",
    "addOwnerWithThreshold(address,uint256)": "0d582f13",
    "approveHash(bytes32)": "d4d9bdcd",
    "approvedHashes(address,bytes32)": "7d832974",
    "changeThreshold(uint256)": "694e80c3",
    "checkNSignatures(bytes32,bytes,bytes,uint256)": "12fb68e0",
    "checkSignatures(bytes32,bytes,bytes)": "934f3a11",
    "disableModule(address,address)": "e009cfde",
    "domainSeparator()": "f698da25",
    "enableModule(address)": "610b5925",
    "encodeTransactionData(address,uint256,bytes,uint8,uint256,uint256,uint256,address,address,uint256)": "e86637db",
    "execTransaction(address,uint256,bytes,uint8,uint256,uint256,uint256,address,address,bytes)": "6a761202",
    "execTransactionFromModule(address,uint256,bytes,uint8)": "468721a7",
    "execTransactionFromModuleReturnData(address,uint256,bytes,uint8)": "5229073f",
    "getChainId()": "3408e470",
    "getModulesPaginated(address,uint256)": "cc2f8452",
    "getOwners()": "a0e67e2b",
    "getStorageAt(uint256,uint256)": "5624b25b",
    "getThreshold()": "e75235b8",
    "getTransactionHash(address,uint256,bytes,uint8,uint256,uint256,uint256,address,address,uint256)": "d8d11f78",
    "isModuleEnabled(address)": "2d9ad53d",
    "isOwner(address)": "2f54bf6e",
    "nonce()": "affed0e0",
    "removeOwner(address,address,uint256)": "f8dc5dd9",
    "requiredTxGas(address,uint256,bytes,uint8)": "c4ca3a9c",
    "setFallbackHandler(address)": "f08a0323",
    "setGuard(address)": "e19a9dd9",
    "setup(address[],uint256,address,bytes,address,address,uint256,address)": "b63e800d",
    "signedMessages(bytes32)": "5ae6bd37",
    "simulateAndRevert(address,bytes)": "b4faba09",
    "swapOwner(address,address,address)": "e318b52b"
  },
  "id": 0
}