{
  "abi": [
    {
      "inputs": [
        {
          "components": [
            {
              "internalType": "string",
              "name": "name",
              "type": "string"
            },
            {
              "internalType": "address",
              "name": "veFxs",
              "type": "address"
            },
            {
              "internalType": "address",
              "name": "veFxsVotingDelegation",
              "type": "address"
            },
            {
              "internalType": "address[]",
              "name": "safeAllowlist",
              "type": "address[]"
            },
            {
              "internalType": "address payable",
              "name": "timelockController",
              "type": "address"
            },
            {
              "internalType": "uint256",
              "name": "initialVotingDelay",
              "type": "uint256"
            },
            {
              "internalType": "uint256",
              "name": "initialVotingPeriod",
              "type": "uint256"
            },
            {
              "internalType": "uint256",
              "name": "initialProposalThreshold",
              "type": "uint256"
            },
            {
              "internalType": "uint256",
              "name": "quorumNumeratorValue",
              "type": "uint256"
            },
            {
              "internalType": "uint256",
              "name": "initialVotingDelayBlocks",
              "type": "uint256"
            },
            {
              "internalType": "uint256",
              "name": "initialShortCircuitNumerator",
              "type": "uint256"
            }
          ],
          "internalType": "struct ConstructorParams",
          "name": "params",
          "type": "tuple"
        }
      ],
      "stateMutability": "nonpayable",
      "type": "constructor"
    },
    {
      "inputs": [],
      "name": "BadBatchArgs",
      "type": "error"
    },
    {
      "inputs": [],
      "name": "CannotCancelOptimisticTransaction",
      "type": "error"
    },
    {
      "inputs": [],
      "name": "CannotPropose",
      "type": "error"
    },
    {
      "inputs": [],
      "name": "CannotRelay",
      "type": "error"
    },
    {
      "inputs": [
        {
          "internalType": "address",
          "name": "target",
          "type": "address"
        }
      ],
      "name": "DisallowedTarget",
      "type": "error"
    },
    {
      "inputs": [],
      "name": "InvalidShortString",
      "type": "error"
    },
    {
      "inputs": [],
      "name": "InvalidTimepoint",
      "type": "error"
    },
    {
      "inputs": [],
      "name": "NonceReserved",
      "type": "error"
    },
    {
      "inputs": [],
      "name": "NotTimelockController",
      "type": "error"
    },
    {
      "inputs": [],
      "name": "ParamLengthsNotEqual",
      "type": "error"
    },
    {
      "inputs": [],
      "name": "ProposalAlreadyCanceled",
      "type": "error"
    },
    {
      "inputs": [
        {
          "internalType": "address",
          "name": "safe",
          "type": "address"
        }
      ],
      "name": "SafeAlreadyOnAllowlist",
      "type": "error"
    },
    {
      "inputs": [
        {
          "internalType": "address",
          "name": "safe",
          "type": "address"
        }
      ],
      "name": "SafeNotOnAllowlist",
      "type": "error"
    },
    {
      "inputs": [],
      "name": "SameSafeVotingPeriod",
      "type": "error"
    },
    {
      "inputs": [],
      "name": "SenderVotingWeightBelowProposalThreshold",
      "type": "error"
    },
    {
      "inputs": [],
      "name": "ShortCircuitNumeratorGreaterThanQuorumDenominator",
      "type": "error"
    },
    {
      "inputs": [
        {
          "internalType": "string",
          "name": "str",
          "type": "string"
        }
      ],
      "name": "StringTooLong",
      "type": "error"
    },
    {
      "inputs": [
        {
          "internalType": "bytes32",
          "name": "txHash",
          "type": "bytes32"
        }
      ],
      "name": "TransactionAlreadyApproved",
      "type": "error"
    },
    {
      "inputs": [],
      "name": "Unauthorized",
      "type": "error"
    },
    {
      "inputs": [],
      "name": "WrongNonce",
      "type": "error"
    },
    {
      "inputs": [],
      "name": "WrongProposalState",
      "type": "error"
    },
    {
      "inputs": [],
      "name": "WrongSafeSignatureType",
      "type": "error"
    },
    {
      "anonymous": false,
      "inputs": [
        {
          "indexed": true,
          "internalType": "address",
          "name": "safe",
          "type": "address"
        }
      ],
      "name": "AddSafeToAllowlist",
      "type": "event"
    },
    {
      "anonymous": false,
      "inputs": [],
      "name": "EIP712DomainChanged",
      "type": "event"
    },
    {
      "anonymous": false,
      "inputs": [
        {
          "indexed": false,
          "internalType": "uint256",
          "name": "proposalId",
          "type": "uint256"
        }
      ],
      "name": "ProposalCanceled",
      "type": "event"
    },
    {
      "anonymous": false,
      "inputs": [
        {
          "indexed": false,
          "internalType": "uint256",
          "name": "proposalId",
          "type": "uint256"
        },
        {
          "indexed": false,
          "internalType": "address",
          "name": "proposer",
          "type": "address"
        },
        {
          "indexed": false,
          "internalType": "address[]",
          "name": "targets",
          "type": "address[]"
        },
        {
          "indexed": false,
          "internalType": "uint256[]",
          "name": "values",
          "type": "uint256[]"
        },
        {
          "indexed": false,
          "internalType": "string[]",
          "name": "signatures",
          "type": "string[]"
        },
        {
          "indexed": false,
          "internalType": "bytes[]",
          "name": "calldatas",
          "type": "bytes[]"
        },
        {
          "indexed": false,
          "internalType": "uint256",
          "name": "voteStart",
          "type": "uint256"
        },
        {
          "indexed": false,
          "internalType": "uint256",
          "name": "voteEnd",
          "type": "uint256"
        },
        {
          "indexed": false,
          "internalType": "string",
          "name": "description",
          "type": "string"
        }
      ],
      "name": "ProposalCreated",
      "type": "event"
    },
    {
      "anonymous": false,
      "inputs": [
        {
          "indexed": false,
          "internalType": "uint256",
          "name": "proposalId",
          "type": "uint256"
        }
      ],
      "name": "ProposalExecuted",
      "type": "event"
    },
    {
      "anonymous": false,
      "inputs": [
        {
          "indexed": false,
          "internalType": "uint256",
          "name": "oldProposalThreshold",
          "type": "uint256"
        },
        {
          "indexed": false,
          "internalType": "uint256",
          "name": "newProposalThreshold",
          "type": "uint256"
        }
      ],
      "name": "ProposalThresholdSet",
      "type": "event"
    },
    {
      "anonymous": false,
      "inputs": [
        {
          "indexed": false,
          "internalType": "uint256",
          "name": "oldQuorumNumerator",
          "type": "uint256"
        },
        {
          "indexed": false,
          "internalType": "uint256",
          "name": "newQuorumNumerator",
          "type": "uint256"
        }
      ],
      "name": "QuorumNumeratorUpdated",
      "type": "event"
    },
    {
      "anonymous": false,
      "inputs": [
        {
          "indexed": true,
          "internalType": "address",
          "name": "safe",
          "type": "address"
        }
      ],
      "name": "RemoveSafeFromAllowlist",
      "type": "event"
    },
    {
      "anonymous": false,
      "inputs": [
        {
          "indexed": false,
          "internalType": "address",
          "name": "safe",
          "type": "address"
        },
        {
          "indexed": false,
          "internalType": "uint256",
          "name": "oldSafeVotingPeriod",
          "type": "uint256"
        },
        {
          "indexed": false,
          "internalType": "uint256",
          "name": "newSafeVotingPeriod",
          "type": "uint256"
        }
      ],
      "name": "SafeVotingPeriodSet",
      "type": "event"
    },
    {
      "anonymous": false,
      "inputs": [
        {
          "indexed": false,
          "internalType": "uint256",
          "name": "oldShortCircuitNumerator",
          "type": "uint256"
        },
        {
          "indexed": false,
          "internalType": "uint256",
          "name": "newShortCircuitNumerator",
          "type": "uint256"
        }
      ],
      "name": "ShortCircuitNumeratorUpdated",
      "type": "event"
    },
    {
      "anonymous": false,
      "inputs": [
        {
          "indexed": true,
          "internalType": "address",
          "name": "safe",
          "type": "address"
        },
        {
          "indexed": false,
          "internalType": "uint256",
          "name": "nonce",
          "type": "uint256"
        },
        {
          "indexed": true,
          "internalType": "bytes32",
          "name": "txHash",
          "type": "bytes32"
        },
        {
          "indexed": true,
          "internalType": "uint256",
          "name": "proposalId",
          "type": "uint256"
        }
      ],
      "name": "TransactionProposed",
      "type": "event"
    },
    {
      "anonymous": false,
      "inputs": [
        {
          "indexed": false,
          "internalType": "address",
          "name": "oldVotingDelegation",
          "type": "address"
        },
        {
          "indexed": false,
          "internalType": "address",
          "name": "newVotingDelegation",
          "type": "address"
        }
      ],
      "name": "VeFxsVotingDelegationSet",
      "type": "event"
    },
    {
      "anonymous": false,
      "inputs": [
        {
          "indexed": true,
          "internalType": "address",
          "name": "voter",
          "type": "address"
        },
        {
          "indexed": false,
          "internalType": "uint256",
          "name": "proposalId",
          "type": "uint256"
        },
        {
          "indexed": false,
          "internalType": "uint8",
          "name": "support",
          "type": "uint8"
        },
        {
          "indexed": false,
          "internalType": "uint256",
          "name": "weight",
          "type": "uint256"
        },
        {
          "indexed": false,
          "internalType": "string",
          "name": "reason",
          "type": "string"
        }
      ],
      "name": "VoteCast",
      "type": "event"
    },
    {
      "anonymous": false,
      "inputs": [
        {
          "indexed": true,
          "internalType": "address",
          "name": "voter",
          "type": "address"
        },
        {
          "indexed": false,
          "internalType": "uint256",
          "name": "proposalId",
          "type": "uint256"
        },
        {
          "indexed": false,
          "internalType": "uint8",
          "name": "support",
          "type": "uint8"
        },
        {
          "indexed": false,
          "internalType": "uint256",
          "name": "weight",
          "type": "uint256"
        },
        {
          "indexed": false,
          "internalType": "string",
          "name": "reason",
          "type": "string"
        },
        {
          "indexed": false,
          "internalType": "bytes",
          "name": "params",
          "type": "bytes"
        }
      ],
      "name": "VoteCastWithParams",
      "type": "event"
    },
    {
      "anonymous": false,
      "inputs": [
        {
          "indexed": false,
          "internalType": "uint256",
          "name": "oldVotingDelayBlocks",
          "type": "uint256"
        },
        {
          "indexed": false,
          "internalType": "uint256",
          "name": "newVotingDelayBlocks",
          "type": "uint256"
        }
      ],
      "name": "VotingDelayBlocksSet",
      "type": "event"
    },
    {
      "anonymous": false,
      "inputs": [
        {
          "indexed": false,
          "internalType": "uint256",
          "name": "oldVotingDelay",
          "type": "uint256"
        },
        {
          "indexed": false,
          "internalType": "uint256",
          "name": "newVotingDelay",
          "type": "uint256"
        }
      ],
      "name": "VotingDelaySet",
      "type": "event"
    },
    {
      "anonymous": false,
      "inputs": [
        {
          "indexed": false,
          "internalType": "uint256",
          "name": "oldVotingPeriod",
          "type": "uint256"
        },
        {
          "indexed": false,
          "internalType": "uint256",
          "name": "newVotingPeriod",
          "type": "uint256"
        }
      ],
      "name": "VotingPeriodSet",
      "type": "event"
    },
    {
      "inputs": [
        {
          "internalType": "address",
          "name": "safe",
          "type": "address"
        },
        {
          "internalType": "uint256",
          "name": "safeNonce",
          "type": "uint256"
        }
      ],
      "name": "$gnosisSafeToNonceToTxHash",
      "outputs": [
        {
          "internalType": "bytes32",
          "name": "txHash",
          "type": "bytes32"
        }
      ],
      "stateMutability": "view",
      "type": "function"
    },
    {
      "inputs": [
        {
          "internalType": "address",
          "name": "safe",
          "type": "address"
        }
      ],
      "name": "$safeAllowlist",
      "outputs": [
        {
          "internalType": "uint256",
          "name": "status",
          "type": "uint256"
        }
      ],
      "stateMutability": "view",
      "type": "function"
    },
    {
      "inputs": [
        {
          "internalType": "address",
          "name": "safe",
          "type": "address"
        }
      ],
      "name": "$safeVotingPeriod",
      "outputs": [
        {
          "internalType": "uint256",
          "name": "votingPeriod",
          "type": "uint256"
        }
      ],
      "stateMutability": "view",
      "type": "function"
    },
    {
      "inputs": [
        {
          "internalType": "uint256",
          "name": "snapshot",
          "type": "uint256"
        }
      ],
      "name": "$snapshotTimestampToSnapshotBlockNumber",
      "outputs": [
        {
          "internalType": "uint256",
          "name": "blockNumber",
          "type": "uint256"
        }
      ],
      "stateMutability": "view",
      "type": "function"
    },
    {
      "inputs": [],
      "name": "$votingDelayBlocks",
      "outputs": [
        {
          "internalType": "uint256",
          "name": "",
          "type": "uint256"
        }
      ],
      "stateMutability": "view",
      "type": "function"
    },
    {
      "inputs": [],
      "name": "BALLOT_TYPEHASH",
      "outputs": [
        {
          "internalType": "bytes32",
          "name": "",
          "type": "bytes32"
        }
      ],
      "stateMutability": "view",
      "type": "function"
    },
    {
      "inputs": [],
      "name": "CLOCK_MODE",
      "outputs": [
        {
          "internalType": "string",
          "name": "",
          "type": "string"
        }
      ],
      "stateMutability": "view",
      "type": "function"
    },
    {
      "inputs": [],
      "name": "COUNTING_MODE",
      "outputs": [
        {
          "internalType": "string",
          "name": "",
          "type": "string"
        }
      ],
      "stateMutability": "pure",
      "type": "function"
    },
    {
      "inputs": [],
      "name": "EXTENDED_BALLOT_TYPEHASH",
      "outputs": [
        {
          "internalType": "bytes32",
          "name": "",
          "type": "bytes32"
        }
      ],
      "stateMutability": "view",
      "type": "function"
    },
    {
      "inputs": [],
      "name": "TIMELOCK_CONTROLLER",
      "outputs": [
        {
          "internalType": "address",
          "name": "",
          "type": "address"
        }
      ],
      "stateMutability": "view",
      "type": "function"
    },
    {
      "inputs": [],
      "name": "VE_FXS",
      "outputs": [
        {
          "internalType": "contract IVeFxs",
          "name": "",
          "type": "address"
        }
      ],
      "stateMutability": "view",
      "type": "function"
    },
    {
      "inputs": [
        {
          "internalType": "address",
          "name": "teamSafe",
          "type": "address"
        },
        {
          "internalType": "bytes",
          "name": "signatures",
          "type": "bytes"
        }
      ],
      "name": "abortTransaction",
      "outputs": [],
      "stateMutability": "nonpayable",
      "type": "function"
    },
    {
      "inputs": [
        {
          "internalType": "address[]",
          "name": "safes",
          "type": "address[]"
        }
      ],
      "name": "addSafesToAllowlist",
      "outputs": [],
      "stateMutability": "nonpayable",
      "type": "function"
    },
    {
      "inputs": [
        {
          "internalType": "address",
          "name": "teamSafe",
          "type": "address"
        },
        {
          "components": [
            {
              "internalType": "address",
              "name": "to",
              "type": "address"
            },
            {
              "internalType": "uint256",
              "name": "value",
              "type": "uint256"
            },
            {
              "internalType": "bytes",
              "name": "data",
              "type": "bytes"
            },
            {
              "internalType": "enum Enum.Operation",
              "name": "operation",
              "type": "uint8"
            },
            {
              "internalType": "uint256",
              "name": "safeTxGas",
              "type": "uint256"
            },
            {
              "internalType": "uint256",
              "name": "baseGas",
              "type": "uint256"
            },
            {
              "internalType": "uint256",
              "name": "gasPrice",
              "type": "uint256"
            },
            {
              "internalType": "address",
              "name": "gasToken",
              "type": "address"
            },
            {
              "internalType": "address",
              "name": "refundReceiver",
              "type": "address"
            },
            {
              "internalType": "uint256",
              "name": "_nonce",
              "type": "uint256"
            }
          ],
          "internalType": "struct IFraxGovernorOmega.TxHashArgs",
          "name": "args",
          "type": "tuple"
        },
        {
          "internalType": "bytes",
          "name": "signatures",
          "type": "bytes"
        }
      ],
      "name": "addTransaction",
      "outputs": [
        {
          "internalType": "uint256",
          "name": "optimisticProposalId",
          "type": "uint256"
        }
      ],
      "stateMutability": "nonpayable",
      "type": "function"
    },
    {
      "inputs": [
        {
          "internalType": "address[]",
          "name": "teamSafes",
          "type": "address[]"
        },
        {
          "components": [
            {
              "internalType": "address",
              "name": "to",
              "type": "address"
            },
            {
              "internalType": "uint256",
              "name": "value",
              "type": "uint256"
            },
            {
              "internalType": "bytes",
              "name": "data",
              "type": "bytes"
            },
            {
              "internalType": "enum Enum.Operation",
              "name": "operation",
              "type": "uint8"
            },
            {
              "internalType": "uint256",
              "name": "safeTxGas",
              "type": "uint256"
            },
            {
              "internalType": "uint256",
              "name": "baseGas",
              "type": "uint256"
            },
            {
              "internalType": "uint256",
              "name": "gasPrice",
              "type": "uint256"
            },
            {
              "internalType": "address",
              "name": "gasToken",
              "type": "address"
            },
            {
              "internalType": "address",
              "name": "refundReceiver",
              "type": "address"
            },
            {
              "internalType": "uint256",
              "name": "_nonce",
              "type": "uint256"
            }
          ],
          "internalType": "struct IFraxGovernorOmega.TxHashArgs[]",
          "name": "args",
          "type": "tuple[]"
        },
        {
          "internalType": "bytes[]",
          "name": "signatures",
          "type": "bytes[]"
        }
      ],
      "name": "batchAddTransaction",
      "outputs": [
        {
          "internalType": "uint256[]",
          "name": "optimisticProposalIds",
          "type": "uint256[]"
        }
      ],
      "stateMutability": "nonpayable",
      "type": "function"
    },
    {
      "inputs": [
        {
          "internalType": "uint256[]",
          "name": "proposalId",
          "type": "uint256[]"
        },
        {
          "internalType": "uint8[]",
          "name": "support",
          "type": "uint8[]"
        }
      ],
      "name": "bulkCastVote",
      "outputs": [],
      "stateMutability": "nonpayable",
      "type": "function"
    },
    {
      "inputs": [
        {
          "internalType": "address[]",
          "name": "",
          "type": "address[]"
        },
        {
          "internalType": "uint256[]",
          "name": "",
          "type": "uint256[]"
        },
        {
          "internalType": "bytes[]",
          "name": "",
          "type": "bytes[]"
        },
        {
          "internalType": "bytes32",
          "name": "",
          "type": "bytes32"
        }
      ],
      "name": "cancel",
      "outputs": [
        {
          "internalType": "uint256",
          "name": "",
          "type": "uint256"
        }
      ],
      "stateMutability": "pure",
      "type": "function"
    },
    {
      "inputs": [
        {
          "internalType": "uint256",
          "name": "proposalId",
          "type": "uint256"
        },
        {
          "internalType": "uint8",
          "name": "support",
          "type": "uint8"
        }
      ],
      "name": "castVote",
      "outputs": [
        {
          "internalType": "uint256",
          "name": "",
          "type": "uint256"
        }
      ],
      "stateMutability": "nonpayable",
      "type": "function"
    },
    {
      "inputs": [
        {
          "internalType": "uint256",
          "name": "proposalId",
          "type": "uint256"
        },
        {
          "internalType": "uint8",
          "name": "support",
          "type": "uint8"
        },
        {
          "internalType": "uint8",
          "name": "v",
          "type": "uint8"
        },
        {
          "internalType": "bytes32",
          "name": "r",
          "type": "bytes32"
        },
        {
          "internalType": "bytes32",
          "name": "s",
          "type": "bytes32"
        }
      ],
      "name": "castVoteBySig",
      "outputs": [
        {
          "internalType": "uint256",
          "name": "",
          "type": "uint256"
        }
      ],
      "stateMutability": "nonpayable",
      "type": "function"
    },
    {
      "inputs": [
        {
          "internalType": "uint256",
          "name": "proposalId",
          "type": "uint256"
        },
        {
          "internalType": "uint8",
          "name": "support",
          "type": "uint8"
        },
        {
          "internalType": "string",
          "name": "reason",
          "type": "string"
        }
      ],
      "name": "castVoteWithReason",
      "outputs": [
        {
          "internalType": "uint256",
          "name": "",
          "type": "uint256"
        }
      ],
      "stateMutability": "nonpayable",
      "type": "function"
    },
    {
      "inputs": [
        {
          "internalType": "uint256",
          "name": "proposalId",
          "type": "uint256"
        },
        {
          "internalType": "uint8",
          "name": "support",
          "type": "uint8"
        },
        {
          "internalType": "string",
          "name": "reason",
          "type": "string"
        },
        {
          "internalType": "bytes",
          "name": "params",
          "type": "bytes"
        }
      ],
      "name": "castVoteWithReasonAndParams",
      "outputs": [
        {
          "internalType": "uint256",
          "name": "",
          "type": "uint256"
        }
      ],
      "stateMutability": "nonpayable",
      "type": "function"
    },
    {
      "inputs": [
        {
          "internalType": "uint256",
          "name": "proposalId",
          "type": "uint256"
        },
        {
          "internalType": "uint8",
          "name": "support",
          "type": "uint8"
        },
        {
          "internalType": "string",
          "name": "reason",
          "type": "string"
        },
        {
          "internalType": "bytes",
          "name": "params",
          "type": "bytes"
        },
        {
          "internalType": "uint8",
          "name": "v",
          "type": "uint8"
        },
        {
          "internalType": "bytes32",
          "name": "r",
          "type": "bytes32"
        },
        {
          "internalType": "bytes32",
          "name": "s",
          "type": "bytes32"
        }
      ],
      "name": "castVoteWithReasonAndParamsBySig",
      "outputs": [
        {
          "internalType": "uint256",
          "name": "",
          "type": "uint256"
        }
      ],
      "stateMutability": "nonpayable",
      "type": "function"
    },
    {
      "inputs": [],
      "name": "clock",
      "outputs": [
        {
          "internalType": "uint48",
          "name": "",
          "type": "uint48"
        }
      ],
      "stateMutability": "view",
      "type": "function"
    },
    {
      "inputs": [],
      "name": "eip712Domain",
      "outputs": [
        {
          "internalType": "bytes1",
          "name": "fields",
          "type": "bytes1"
        },
        {
          "internalType": "string",
          "name": "name",
          "type": "string"
        },
        {
          "internalType": "string",
          "name": "version",
          "type": "string"
        },
        {
          "internalType": "uint256",
          "name": "chainId",
          "type": "uint256"
        },
        {
          "internalType": "address",
          "name": "verifyingContract",
          "type": "address"
        },
        {
          "internalType": "bytes32",
          "name": "salt",
          "type": "bytes32"
        },
        {
          "internalType": "uint256[]",
          "name": "extensions",
          "type": "uint256[]"
        }
      ],
      "stateMutability": "view",
      "type": "function"
    },
    {
      "inputs": [
        {
          "internalType": "address[]",
          "name": "targets",
          "type": "address[]"
        },
        {
          "internalType": "uint256[]",
          "name": "values",
          "type": "uint256[]"
        },
        {
          "internalType": "bytes[]",
          "name": "calldatas",
          "type": "bytes[]"
        },
        {
          "internalType": "bytes32",
          "name": "descriptionHash",
          "type": "bytes32"
        }
      ],
      "name": "execute",
      "outputs": [
        {
          "internalType": "uint256",
          "name": "",
          "type": "uint256"
        }
      ],
      "stateMutability": "payable",
      "type": "function"
    },
    {
      "inputs": [
        {
          "internalType": "address",
          "name": "",
          "type": "address"
        }
      ],
      "name": "fractionalVoteNonce",
      "outputs": [
        {
          "internalType": "uint128",
          "name": "",
          "type": "uint128"
        }
      ],
      "stateMutability": "view",
      "type": "function"
    },
    {
      "inputs": [
        {
          "internalType": "address",
          "name": "account",
          "type": "address"
        },
        {
          "internalType": "uint256",
          "name": "timepoint",
          "type": "uint256"
        }
      ],
      "name": "getVotes",
      "outputs": [
        {
          "internalType": "uint256",
          "name": "",
          "type": "uint256"
        }
      ],
      "stateMutability": "view",
      "type": "function"
    },
    {
      "inputs": [
        {
          "internalType": "address",
          "name": "account",
          "type": "address"
        },
        {
          "internalType": "uint256",
          "name": "timepoint",
          "type": "uint256"
        },
        {
          "internalType": "bytes",
          "name": "params",
          "type": "bytes"
        }
      ],
      "name": "getVotesWithParams",
      "outputs": [
        {
          "internalType": "uint256",
          "name": "",
          "type": "uint256"
        }
      ],
      "stateMutability": "view",
      "type": "function"
    },
    {
      "inputs": [
        {
          "internalType": "uint256",
          "name": "proposalId",
          "type": "uint256"
        },
        {
          "internalType": "address",
          "name": "account",
          "type": "address"
        }
      ],
      "name": "hasVoted",
      "outputs": [
        {
          "internalType": "bool",
          "name": "",
          "type": "bool"
        }
      ],
      "stateMutability": "view",
      "type": "function"
    },
    {
      "inputs": [
        {
          "internalType": "address[]",
          "name": "targets",
          "type": "address[]"
        },
        {
          "internalType": "uint256[]",
          "name": "values",
          "type": "uint256[]"
        },
        {
          "internalType": "bytes[]",
          "name": "calldatas",
          "type": "bytes[]"
        },
        {
          "internalType": "bytes32",
          "name": "descriptionHash",
          "type": "bytes32"
        }
      ],
      "name": "hashProposal",
      "outputs": [
        {
          "internalType": "uint256",
          "name": "",
          "type": "uint256"
        }
      ],
      "stateMutability": "pure",
      "type": "function"
    },
    {
      "inputs": [],
      "name": "name",
      "outputs": [
        {
          "internalType": "string",
          "name": "",
          "type": "string"
        }
      ],
      "stateMutability": "view",
      "type": "function"
    },
    {
      "inputs": [
        {
          "internalType": "address",
          "name": "",
          "type": "address"
        },
        {
          "internalType": "address",
          "name": "",
          "type": "address"
        },
        {
          "internalType": "uint256[]",
          "name": "",
          "type": "uint256[]"
        },
        {
          "internalType": "uint256[]",
          "name": "",
          "type": "uint256[]"
        },
        {
          "internalType": "bytes",
          "name": "",
          "type": "bytes"
        }
      ],
      "name": "onERC1155BatchReceived",
      "outputs": [
        {
          "internalType": "bytes4",
          "name": "",
          "type": "bytes4"
        }
      ],
      "stateMutability": "nonpayable",
      "type": "function"
    },
    {
      "inputs": [
        {
          "internalType": "address",
          "name": "",
          "type": "address"
        },
        {
          "internalType": "address",
          "name": "",
          "type": "address"
        },
        {
          "internalType": "uint256",
          "name": "",
          "type": "uint256"
        },
        {
          "internalType": "uint256",
          "name": "",
          "type": "uint256"
        },
        {
          "internalType": "bytes",
          "name": "",
          "type": "bytes"
        }
      ],
      "name": "onERC1155Received",
      "outputs": [
        {
          "internalType": "bytes4",
          "name": "",
          "type": "bytes4"
        }
      ],
      "stateMutability": "nonpayable",
      "type": "function"
    },
    {
      "inputs": [
        {
          "internalType": "address",
          "name": "",
          "type": "address"
        },
        {
          "internalType": "address",
          "name": "",
          "type": "address"
        },
        {
          "internalType": "uint256",
          "name": "",
          "type": "uint256"
        },
        {
          "internalType": "bytes",
          "name": "",
          "type": "bytes"
        }
      ],
      "name": "onERC721Received",
      "outputs": [
        {
          "internalType": "bytes4",
          "name": "",
          "type": "bytes4"
        }
      ],
      "stateMutability": "nonpayable",
      "type": "function"
    },
    {
      "inputs": [
        {
          "internalType": "uint256",
          "name": "proposalId",
          "type": "uint256"
        }
      ],
      "name": "proposalDeadline",
      "outputs": [
        {
          "internalType": "uint256",
          "name": "",
          "type": "uint256"
        }
      ],
      "stateMutability": "view",
      "type": "function"
    },
    {
      "inputs": [
        {
          "internalType": "uint256",
          "name": "proposalId",
          "type": "uint256"
        }
      ],
      "name": "proposalProposer",
      "outputs": [
        {
          "internalType": "address",
          "name": "",
          "type": "address"
        }
      ],
      "stateMutability": "view",
      "type": "function"
    },
    {
      "inputs": [
        {
          "internalType": "uint256",
          "name": "proposalId",
          "type": "uint256"
        }
      ],
      "name": "proposalSnapshot",
      "outputs": [
        {
          "internalType": "uint256",
          "name": "",
          "type": "uint256"
        }
      ],
      "stateMutability": "view",
      "type": "function"
    },
    {
      "inputs": [],
      "name": "proposalThreshold",
      "outputs": [
        {
          "internalType": "uint256",
          "name": "",
          "type": "uint256"
        }
      ],
      "stateMutability": "view",
      "type": "function"
    },
    {
      "inputs": [
        {
          "internalType": "uint256",
          "name": "proposalId",
          "type": "uint256"
        }
      ],
      "name": "proposalVotes",
      "outputs": [
        {
          "internalType": "uint256",
          "name": "againstVotes",
          "type": "uint256"
        },
        {
          "internalType": "uint256",
          "name": "forVotes",
          "type": "uint256"
        },
        {
          "internalType": "uint256",
          "name": "abstainVotes",
          "type": "uint256"
        }
      ],
      "stateMutability": "view",
      "type": "function"
    },
    {
      "inputs": [
        {
          "internalType": "uint256",
          "name": "",
          "type": "uint256"
        }
      ],
      "name": "proposals",
      "outputs": [
        {
          "internalType": "address",
          "name": "proposer",
          "type": "address"
        },
        {
          "internalType": "uint40",
          "name": "voteStart",
          "type": "uint40"
        },
        {
          "internalType": "uint40",
          "name": "voteEnd",
          "type": "uint40"
        },
        {
          "internalType": "bool",
          "name": "executed",
          "type": "bool"
        },
        {
          "internalType": "bool",
          "name": "canceled",
          "type": "bool"
        }
      ],
      "stateMutability": "view",
      "type": "function"
    },
    {
      "inputs": [
        {
          "internalType": "address[]",
          "name": "",
          "type": "address[]"
        },
        {
          "internalType": "uint256[]",
          "name": "",
          "type": "uint256[]"
        },
        {
          "internalType": "bytes[]",
          "name": "",
          "type": "bytes[]"
        },
        {
          "internalType": "string",
          "name": "",
          "type": "string"
        }
      ],
      "name": "propose",
      "outputs": [
        {
          "internalType": "uint256",
          "name": "",
          "type": "uint256"
        }
      ],
      "stateMutability": "pure",
      "type": "function"
    },
    {
      "inputs": [
        {
          "internalType": "uint256",
          "name": "timepoint",
          "type": "uint256"
        }
      ],
      "name": "quorum",
      "outputs": [
        {
          "internalType": "uint256",
          "name": "quorumAtTimepoint",
          "type": "uint256"
        }
      ],
      "stateMutability": "view",
      "type": "function"
    },
    {
      "inputs": [],
      "name": "quorumDenominator",
      "outputs": [
        {
          "internalType": "uint256",
          "name": "",
          "type": "uint256"
        }
      ],
      "stateMutability": "view",
      "type": "function"
    },
    {
      "inputs": [
        {
          "internalType": "uint256",
          "name": "timepoint",
          "type": "uint256"
        }
      ],
      "name": "quorumNumerator",
      "outputs": [
        {
          "internalType": "uint256",
          "name": "",
          "type": "uint256"
        }
      ],
      "stateMutability": "view",
      "type": "function"
    },
    {
      "inputs": [],
      "name": "quorumNumerator",
      "outputs": [
        {
          "internalType": "uint256",
          "name": "",
          "type": "uint256"
        }
      ],
      "stateMutability": "view",
      "type": "function"
    },
    {
      "inputs": [
        {
          "internalType": "address",
          "name": "teamSafe",
          "type": "address"
        },
        {
          "internalType": "uint256",
          "name": "nonce",
          "type": "uint256"
        }
      ],
      "name": "rejectTransaction",
      "outputs": [],
      "stateMutability": "nonpayable",
      "type": "function"
    },
    {
      "inputs": [
        {
          "internalType": "address",
          "name": "",
          "type": "address"
        },
        {
          "internalType": "uint256",
          "name": "",
          "type": "uint256"
        },
        {
          "internalType": "bytes",
          "name": "",
          "type": "bytes"
        }
      ],
      "name": "relay",
      "outputs": [],
      "stateMutability": "payable",
      "type": "function"
    },
    {
      "inputs": [
        {
          "internalType": "address[]",
          "name": "safes",
          "type": "address[]"
        }
      ],
      "name": "removeSafesFromAllowlist",
      "outputs": [],
      "stateMutability": "nonpayable",
      "type": "function"
    },
    {
      "inputs": [
        {
          "internalType": "uint256",
          "name": "newProposalThreshold",
          "type": "uint256"
        }
      ],
      "name": "setProposalThreshold",
      "outputs": [],
      "stateMutability": "nonpayable",
      "type": "function"
    },
    {
      "inputs": [
        {
          "internalType": "address",
          "name": "safe",
          "type": "address"
        },
        {
          "internalType": "uint256",
          "name": "newSafeVotingPeriod",
          "type": "uint256"
        }
      ],
      "name": "setSafeVotingPeriod",
      "outputs": [],
      "stateMutability": "nonpayable",
      "type": "function"
    },
    {
      "inputs": [
        {
          "internalType": "address",
          "name": "veFxsVotingDelegation",
          "type": "address"
        }
      ],
      "name": "setVeFxsVotingDelegation",
      "outputs": [],
      "stateMutability": "nonpayable",
      "type": "function"
    },
    {
      "inputs": [
        {
          "internalType": "uint256",
          "name": "newVotingDelay",
          "type": "uint256"
        }
      ],
      "name": "setVotingDelay",
      "outputs": [],
      "stateMutability": "nonpayable",
      "type": "function"
    },
    {
      "inputs": [
        {
          "internalType": "uint256",
          "name": "newVotingDelayBlocks",
          "type": "uint256"
        }
      ],
      "name": "setVotingDelayBlocks",
      "outputs": [],
      "stateMutability": "nonpayable",
      "type": "function"
    },
    {
      "inputs": [
        {
          "internalType": "uint256",
          "name": "newVotingPeriod",
          "type": "uint256"
        }
      ],
      "name": "setVotingPeriod",
      "outputs": [],
      "stateMutability": "nonpayable",
      "type": "function"
    },
    {
      "inputs": [],
      "name": "shortCircuitNumerator",
      "outputs": [
        {
          "internalType": "uint256",
          "name": "latestShortCircuitNumerator",
          "type": "uint256"
        }
      ],
      "stateMutability": "view",
      "type": "function"
    },
    {
      "inputs": [
        {
          "internalType": "uint256",
          "name": "timepoint",
          "type": "uint256"
        }
      ],
      "name": "shortCircuitNumerator",
      "outputs": [
        {
          "internalType": "uint256",
          "name": "shortCircuitNumeratorAtTimepoint",
          "type": "uint256"
        }
      ],
      "stateMutability": "view",
      "type": "function"
    },
    {
      "inputs": [
        {
          "internalType": "uint256",
          "name": "timepoint",
          "type": "uint256"
        }
      ],
      "name": "shortCircuitThreshold",
      "outputs": [
        {
          "internalType": "uint256",
          "name": "shortCircuitThresholdAtTimepoint",
          "type": "uint256"
        }
      ],
      "stateMutability": "view",
      "type": "function"
    },
    {
      "inputs": [
        {
          "internalType": "uint256",
          "name": "proposalId",
          "type": "uint256"
        }
      ],
      "name": "state",
      "outputs": [
        {
          "internalType": "enum IGovernor.ProposalState",
          "name": "proposalState",
          "type": "uint8"
        }
      ],
      "stateMutability": "view",
      "type": "function"
    },
    {
      "inputs": [
        {
          "internalType": "bytes4",
          "name": "interfaceId",
          "type": "bytes4"
        }
      ],
      "name": "supportsInterface",
      "outputs": [
        {
          "internalType": "bool",
          "name": "",
          "type": "bool"
        }
      ],
      "stateMutability": "view",
      "type": "function"
    },
    {
      "inputs": [],
      "name": "token",
      "outputs": [
        {
          "internalType": "contract IERC5805",
          "name": "",
          "type": "address"
        }
      ],
      "stateMutability": "view",
      "type": "function"
    },
    {
      "inputs": [
        {
          "internalType": "uint256",
          "name": "newQuorumNumerator",
          "type": "uint256"
        }
      ],
      "name": "updateQuorumNumerator",
      "outputs": [],
      "stateMutability": "nonpayable",
      "type": "function"
    },
    {
      "inputs": [
        {
          "internalType": "uint256",
          "name": "newShortCircuitNumerator",
          "type": "uint256"
        }
      ],
      "name": "updateShortCircuitNumerator",
      "outputs": [],
      "stateMutability": "nonpayable",
      "type": "function"
    },
    {
      "inputs": [],
      "name": "version",
      "outputs": [
        {
          "internalType": "string",
          "name": "",
          "type": "string"
        }
      ],
      "stateMutability": "view",
      "type": "function"
    },
    {
      "inputs": [
        {
          "internalType": "uint256",
          "name": "proposalId",
          "type": "uint256"
        },
        {
          "internalType": "address",
          "name": "account",
          "type": "address"
        }
      ],
      "name": "voteWeightCast",
      "outputs": [
        {
          "internalType": "uint128",
          "name": "",
          "type": "uint128"
        }
      ],
      "stateMutability": "view",
      "type": "function"
    },
    {
      "inputs": [],
      "name": "votingDelay",
      "outputs": [
        {
          "internalType": "uint256",
          "name": "",
          "type": "uint256"
        }
      ],
      "stateMutability": "view",
      "type": "function"
    },
    {
      "inputs": [],
      "name": "votingPeriod",
      "outputs": [
        {
          "internalType": "uint256",
          "name": "",
          "type": "uint256"
        }
      ],
      "stateMutability": "view",
      "type": "function"
    },
    {
      "stateMutability": "payable",
      "type": "receive"
    }
  ],
  "bytecode": {
    "object": "0x6101a0604052348015630000001357600080fd5b50604051630000c093380380630000c0938339818101604052810190630000003d919063000015f9565b604051806101200160405280826020015173ffffffffffffffffffffffffffffffffffffffff168152602001826040015173ffffffffffffffffffffffffffffffffffffffff168152602001826000015181526020018260a0015181526020018260c0015181526020018260e001518152602001826101000151815260200182610120015181526020018261014001518152508060c001518160200151826060015183608001518460a001518560400151806300000101630000036160201b60201c565b6300000119600083630000039e60201b90919060201c565b61012081815250506300000139600182630000039e60201b90919060201c565b6101408181525050818051906020012060e08181525050808051906020012061010081815250504660a08181525050630000017a63000003fe60201b60201c565b608081815250503073ffffffffffffffffffffffffffffffffffffffff1660c08173ffffffffffffffffffffffffffffffffffffffff16815250505050806002908163000001ca919063000018bd565b505063000001df83630000045d60201b60201c565b63000001f28263000004a660201b60201c565b630000020581630000053860201b60201c565b50505080600960006101000a81548173ffffffffffffffffffffffffffffffffffffffff021916908373ffffffffffffffffffffffffffffffffffffffff16021790555050630000025d81630000058160201b60201c565b50806000015173ffffffffffffffffffffffffffffffffffffffff166101608173ffffffffffffffffffffffffffffffffffffffff168152505063000002af816101000151630000068b60201b60201c565b63000002c68160e00151630000078860201b60201c565b7fc255828f3e19c78de5df3dd5b6706d49bd5dd58e76275f97bd6998787009952060008260200151604051630000030092919063000019cc565b60405180910390a150806080015173ffffffffffffffffffffffffffffffffffffffff166101808173ffffffffffffffffffffffffffffffffffffffff16815250506300000359816060015163000007d760201b60201c565b506300002136565b60606040518060400160405280600181526020017f3100000000000000000000000000000000000000000000000000000000000000815250905090565b600060208351101563000003c85763000003bf83630000099260201b60201c565b905063000003f8565b8263000003dc836300000a0460201b60201c565b600001908163000003ef919063000018bd565b5060ff60001b90505b92915050565b60007f8b73c3c69bb8fe3d512ecc4cf759cc79239f7b179b0ffacaa9a75d522b39400f60e05161010051463060405160200163000004429594939291906300001a2d565b60405160208183030381529060405280519060200120905090565b7fc565b045403dc03c2eea82b81a0465edad9e2e7fc4d97e11421c209da93d7a936006548260405163000004949291906300001a94565b60405180910390a18060068190555050565b6000811163000004ef576040517f08c379a000000000000000000000000000000000000000000000000000000000815260040163000004e6906300001b50565b60405180910390fd5b7f7e3f7f0708a84de9203036abaa450dccc85ad5ff52f78c170f3edb55cf5e88286007548260405163000005269291906300001a94565b60405180910390a18060078190555050565b7fccb45da8d5717e6c4544694297c4ba5cf151d455c9bb0ed4fc7a38411bc0546160085482604051630000056f9291906300001a94565b60405180910390a18060088190555050565b63000005936300000a0e60201b60201c565b81111563000005db576040517f08c379a000000000000000000000000000000000000000000000000000000000815260040163000005d2906300001c14565b60405180910390fd5b600063000005ef6300000a1760201b60201c565b905063000006486300000622630000060d6300000a5060201b60201c565b65ffffffffffff166300000b0c60201b60201c565b6300000635846300000b6560201b60201c565b600a6300000bd660201b9092919060201c565b50507f0553476bf02ef2726e8ce5ced78d63e26e602e4a2257b1f559418e24b46339978183604051630000067f9291906300001a94565b60405180910390a15050565b630000069d6300000a0e60201b60201c565b81111563000006d8576040517f01c78a6400000000000000000000000000000000000000000000000000000000815260040160405180910390fd5b600063000006ec6300000bfd60201b60201c565b90506300000745630000071f630000070a6300000a5060201b60201c565b65ffffffffffff166300000b0c60201b60201c565b6300000732846300000b6560201b60201c565b600f6300000bd660201b9092919060201c565b50507fdd2b8b2d874e19a344cba53b9fb534ea748ef117ed4b75c67569a794864541938183604051630000077c9291906300001a94565b60405180910390a15050565b6000600e54905081600e819055507fd3c1cdfd662fbb8e44190410d3a0d46855746182cb8d1e5e41bc84f5afecef4f818360405163000007cb9291906300001a94565b60405180910390a15050565b60005b8151811015630000098e5760016011600084848151811063000008045763000008036300001c38565b5b602002602001015173ffffffffffffffffffffffffffffffffffffffff1673ffffffffffffffffffffffffffffffffffffffff168152602001908152602001600020540363000008af5781818151811063000008675763000008666300001c38565b5b60200260200101516040517ff41dd33000000000000000000000000000000000000000000000000000000000815260040163000008a691906300001c67565b60405180910390fd5b60016011600084848151811063000008ce5763000008cd6300001c38565b5b602002602001015173ffffffffffffffffffffffffffffffffffffffff1673ffffffffffffffffffffffffffffffffffffffff16815260200190815260200160002081905550818181518110630000092d57630000092c6300001c38565b5b602002602001015173ffffffffffffffffffffffffffffffffffffffff167fa04753a74f890631c71d35beb4ccc5e7e63932069a6c6ca83a48ffde668dfa0660405160405180910390a2806300000985906300001cb5565b905063000007da565b5050565b600080829050601f8151111563000009e557826040517f305a27a900000000000000000000000000000000000000000000000000000000815260040163000009dc91906300001d50565b60405180910390fd5b80518163000009f5906300001daa565b60001c1760001b915050919050565b6000819050919050565b60006064905090565b60006300000a2d600a6300000c3660201b60201c565b7bffffffffffffffffffffffffffffffffffffffffffffffffffffffff16905090565b6000600960009054906101000a900473ffffffffffffffffffffffffffffffffffffffff1673ffffffffffffffffffffffffffffffffffffffff166391ddadf46040518163ffffffff1660e01b8152600401602060405180830381865afa9250505080156300000ae257506040513d601f19601f820116820180604052508101906300000adf91906300001e6b565b60015b6300000b04576300000afb436300000cb260201b60201c565b90506300000b09565b809150505b90565b600063ffffffff80168211156300000b5d576040517f08c379a00000000000000000000000000000000000000000000000000000000081526004016300000b54906300001f1c565b60405180910390fd5b819050919050565b60007bffffffffffffffffffffffffffffffffffffffffffffffffffffffff80168211156300000bce576040517f08c379a00000000000000000000000000000000000000000000000000000000081526004016300000bc5906300001fba565b60405180910390fd5b819050919050565b6000806300000bf18560000185856300000d0d60201b60201c565b91509150935093915050565b60006300000c13600f6300000c3660201b60201c565b7bffffffffffffffffffffffffffffffffffffffffffffffffffffffff16905090565b60008082600001805490509050600081146300000ca7576300000c74836000016001836300000c6791906300001fde565b63000010bd60201b60201c565b60000160049054906101000a90047bffffffffffffffffffffffffffffffffffffffffffffffffffffffff166300000caa565b60005b915050919050565b600065ffffffffffff80168211156300000d05576040517f08c379a00000000000000000000000000000000000000000000000000000000081526004016300000cfc90630000209a565b60405180910390fd5b819050919050565b60008060008580549050905060008111156300000fcd5760006300000d4a876001846300000d3d91906300001fde565b63000010bd60201b60201c565b6040518060400160405290816000820160009054906101000a900463ffffffff1663ffffffff1663ffffffff1681526020016000820160049054906101000a90047bffffffffffffffffffffffffffffffffffffffffffffffffffffffff167bffffffffffffffffffffffffffffffffffffffffffffffffffffffff167bffffffffffffffffffffffffffffffffffffffffffffffffffffffff168152505090508563ffffffff16816000015163ffffffff1611156300000e44576040517f08c379a00000000000000000000000000000000000000000000000000000000081526004016300000e3b906300002112565b60405180910390fd5b8563ffffffff16816000015163ffffffff16036300000eda57846300000e82886001856300000e7591906300001fde565b63000010bd60201b60201c565b60000160046101000a8154817bffffffffffffffffffffffffffffffffffffffffffffffffffffffff02191690837bffffffffffffffffffffffffffffffffffffffffffffffffffffffff1602179055506300000fba565b8660405180604001604052808863ffffffff168152602001877bffffffffffffffffffffffffffffffffffffffffffffffffffffffff168152509080600181540180825580915050600190039060005260206000200160009091909190915060008201518160000160006101000a81548163ffffffff021916908363ffffffff16021790555060208201518160000160046101000a8154817bffffffffffffffffffffffffffffffffffffffffffffffffffffffff02191690837bffffffffffffffffffffffffffffffffffffffffffffffffffffffff16021790555050505b80602001518593509350505063000010b5565b8560405180604001604052808763ffffffff168152602001867bffffffffffffffffffffffffffffffffffffffffffffffffffffffff168152509080600181540180825580915050600190039060005260206000200160009091909190915060008201518160000160006101000a81548163ffffffff021916908363ffffffff16021790555060208201518160000160046101000a8154817bffffffffffffffffffffffffffffffffffffffffffffffffffffffff02191690837bffffffffffffffffffffffffffffffffffffffffffffffffffffffff160217905550505060008492509250505b935093915050565b60008260005281602060002001905092915050565b6000604051905090565b600080fd5b600080fd5b600080fd5b6000601f19601f8301169050919050565b7f4e487b7100000000000000000000000000000000000000000000000000000000600052604160045260246000fd5b63000011388263000010eb565b810181811067ffffffffffffffff82111715630000115d57630000115c63000010fc565b5b80604052505050565b6000630000117463000010d2565b905063000011848282630000112b565b919050565b600080fd5b600080fd5b600080fd5b600067ffffffffffffffff82111563000011b95763000011b863000010fc565b5b63000011c68263000010eb565b9050602081019050919050565b60005b8381101563000011f557808201518184015260208101905063000011d6565b60008484015250505050565b6000630000121c6300001215846300001198565b6300001166565b905082815260208101848484011115630000123e57630000123d6300001193565b5b630000124d84828563000011d3565b509392505050565b600082601f830112630000127057630000126f630000118e565b5b815163000012848482602086016300001201565b91505092915050565b600073ffffffffffffffffffffffffffffffffffffffff82169050919050565b600063000012bc82630000128d565b9050919050565b63000012d08163000012ad565b811463000012dd57600080fd5b50565b60008151905063000012f38163000012c3565b92915050565b600067ffffffffffffffff821115630000131a57630000131963000010fc565b5b602082029050602081019050919050565b600080fd5b6000630000134b63000013448463000012f9565b6300001166565b905080838252602082019050602084028301858111156300001374576300001373630000132b565b5b835b8181101563000013a55780630000138f888263000012e0565b8452602084019350506020810190506300001376565b5050509392505050565b600082601f83011263000013ca5763000013c9630000118e565b5b815163000013de8482602086016300001330565b91505092915050565b600063000013f682630000128d565b9050919050565b630000140a8163000013e7565b8114630000141757600080fd5b50565b600081519050630000142d8163000013fd565b92915050565b6000819050919050565b630000144a816300001433565b8114630000145757600080fd5b50565b600081519050630000146d81630000143d565b92915050565b60006101608284031215630000149057630000148f63000010e6565b5b630000149f6101606300001166565b9050600082015167ffffffffffffffff81111563000014c55763000014c46300001189565b5b63000014d5848285016300001255565b600083015250602063000014ed8482850163000012e0565b602083015250604063000015058482850163000012e0565b604083015250606082015167ffffffffffffffff811115630000152f57630000152e6300001189565b5b630000153f8482850163000013af565b6060830152506080630000155784828501630000141a565b60808301525060a0630000156f84828501630000145a565b60a08301525060c0630000158784828501630000145a565b60c08301525060e0630000159f84828501630000145a565b60e08301525061010063000015b884828501630000145a565b6101008301525061012063000015d284828501630000145a565b6101208301525061014063000015ec84828501630000145a565b6101408301525092915050565b600060208284031215630000161557630000161463000010dc565b5b600082015167ffffffffffffffff811115630000163957630000163863000010e1565b5b6300001649848285016300001473565b91505092915050565b600081519050919050565b7f4e487b7100000000000000000000000000000000000000000000000000000000600052602260045260246000fd5b6000600282049050600182168063000016a657607f821691505b60208210810363000016bf5763000016be630000165d565b5b50919050565b60008190508160005260206000209050919050565b60006020601f8301049050919050565b600082821b905092915050565b600060088302630000172b7fffffffffffffffffffffffffffffffffffffffffffffffffffffffffffffffff8263000016ea565b6300001739868363000016ea565b95508019841693508086168417925050509392505050565b6000819050919050565b60006300001782630000177b6300001774846300001433565b6300001751565b6300001433565b9050919050565b6000819050919050565b63000017a083630000175b565b63000017bc63000017b2826300001789565b84845463000016f7565b825550505050565b600090565b63000017d563000017c4565b63000017e48184846300001793565b505050565b5b81811015630000181057630000180360008263000017c9565b60018101905063000017ea565b5050565b601f821115630000186957630000182c8163000016c5565b63000018398463000016da565b81016020851015630000184a578190505b6300001866630000185c8563000016da565b83018263000017e9565b50505b505050565b600082821c905092915050565b6000630000189060001984600802630000186e565b1980831691505092915050565b600063000018ad8383630000187b565b9150826002028217905092915050565b63000018ca826300001652565b67ffffffffffffffff81111563000018e95763000018e863000010fc565b5b63000018f78254630000168c565b63000019068282856300001814565b600060209050601f83116001811463000019435760008415630000192b578287015190505b63000019398582630000189d565b86555063000019b1565b601f19841663000019558663000016c5565b60005b828110156300001981578489015182556001820191506020850194506020810190506300001958565b8683101563000019a4578489015163000019a0601f891682630000187b565b8355505b6001600288020188555050505b505050505050565b63000019c68163000012ad565b82525050565b600060408201905063000019e5600083018563000019b9565b63000019f6602083018463000019b9565b9392505050565b6000819050919050565b6300001a148163000019fd565b82525050565b6300001a27816300001433565b82525050565b600060a0820190506300001a4660008301886300001a07565b6300001a5760208301876300001a07565b6300001a6860408301866300001a07565b6300001a7960608301856300001a1a565b6300001a8a608083018463000019b9565b9695505050505050565b60006040820190506300001aad60008301856300001a1a565b6300001abe60208301846300001a1a565b9392505050565b600082825260208201905092915050565b7f476f7665726e6f7253657474696e67733a20766f74696e6720706572696f642060008201527f746f6f206c6f7700000000000000000000000000000000000000000000000000602082015250565b60006300001b366027836300001ac5565b91506300001b45826300001ad6565b604082019050919050565b600060208201905081810360008301526300001b6d816300001b25565b9050919050565b7f476f7665726e6f72566f74657351756f72756d4672616374696f6e3a2071756f60008201527f72756d4e756d657261746f72206f7665722071756f72756d44656e6f6d696e6160208201527f746f720000000000000000000000000000000000000000000000000000000000604082015250565b60006300001bfa6043836300001ac5565b91506300001c09826300001b74565b606082019050919050565b600060208201905081810360008301526300001c31816300001be9565b9050919050565b7f4e487b7100000000000000000000000000000000000000000000000000000000600052603260045260246000fd5b60006020820190506300001c80600083018463000019b9565b92915050565b7f4e487b7100000000000000000000000000000000000000000000000000000000600052601160045260246000fd5b60006300001cc4826300001433565b91507fffffffffffffffffffffffffffffffffffffffffffffffffffffffffffffffff82036300001cfc576300001cfb6300001c86565b5b600182019050919050565b60006300001d16826300001652565b6300001d2481856300001ac5565b93506300001d3881856020860163000011d3565b6300001d458163000010eb565b840191505092915050565b600060208201905081810360008301526300001d6e81846300001d07565b905092915050565b600081519050919050565b6000819050602082019050919050565b60006300001da1825163000019fd565b80915050919050565b60006300001db9826300001d76565b826300001dc7846300001d81565b90506300001dd6816300001d91565b925060208210156300001e1c576300001e177fffffffffffffffffffffffffffffffffffffffffffffffffffffffffffffffff8360200360080263000016ea565b831692505b5050919050565b600065ffffffffffff82169050919050565b6300001e42816300001e23565b81146300001e4f57600080fd5b50565b6000815190506300001e65816300001e35565b92915050565b6000602082840312156300001e87576300001e8663000010dc565b5b60006300001e99848285016300001e52565b91505092915050565b7f53616665436173743a2076616c756520646f65736e27742066697420696e203360008201527f3220626974730000000000000000000000000000000000000000000000000000602082015250565b60006300001f026026836300001ac5565b91506300001f11826300001ea2565b604082019050919050565b600060208201905081810360008301526300001f39816300001ef1565b9050919050565b7f53616665436173743a2076616c756520646f65736e27742066697420696e203260008201527f3234206269747300000000000000000000000000000000000000000000000000602082015250565b60006300001fa06027836300001ac5565b91506300001faf826300001f40565b604082019050919050565b600060208201905081810360008301526300001fd7816300001f8f565b9050919050565b60006300001fed826300001433565b91506300001ffc836300001433565b9250828203905081811115630000201a5763000020196300001c86565b5b92915050565b7f53616665436173743a2076616c756520646f65736e27742066697420696e203460008201527f3820626974730000000000000000000000000000000000000000000000000000602082015250565b600063000020806026836300001ac5565b9150630000208f826300002020565b604082019050919050565b6000602082019050818103600083015263000020b781630000206f565b9050919050565b7f436865636b706f696e743a2064656372656173696e67206b6579730000000000600082015250565b600063000020f8601b836300001ac5565b915063000021078263000020be565b602082019050919050565b60006020820190508181036000830152630000212f8163000020e7565b9050919050565b60805160a05160c05160e0516101005161012051610140516101605161018051619ed663000021bd600039600081816121680152613b7f015260008181611d210152818161351e0152613776015260006125670152600061253301526000615df001526000615dcf01526000615364015260006153ba015260006153e30152619ed66000f3fe6080604052600436106103fd5760003560e01c80637b3c71d31161020d578063c1de4eed11610128578063dfc3c9e7116100bb578063ece40cc11161008a578063f8cc2e3c1161006f578063f8cc2e3c1461113d578063f8ce560a14611166578063fc0c546a146111a357610479565b8063ece40cc1146110d7578063f23a6e611461110057610479565b8063dfc3c9e714610ff7578063ea0217cf14611034578063eb9019d41461105d578063ec2de58b1461109a57610479565b8063d914e172116100f7578063d914e17214610f27578063dd4e2ba514610f64578063deaaa7cc14610f8f578063df482caf14610fba57610479565b8063c1de4eed14610e66578063c28bc2fa14610ea3578063c59057e414610ebf578063ccb8370b14610efc57610479565b8063a7713a70116101a0578063b12c32771161016f578063b12c327714610d98578063b58131b014610dc1578063bc197c8114610dec578063c01f9e3714610e2957610479565b8063a7713a7014610cdc578063a89f263814610d07578063aa75a3c214610d32578063b021d2c314610d5b57610479565b80638d124e47116101dc5780638d124e4714610c2057806391ddadf414610c4957806397c3d33414610c745780639a802a6d14610c9f57610479565b80637b3c71d314610b4c5780637d5e81e214610b8957806382d304ab14610bc657806384b0196e14610bef57610479565b80633e4f49e61161031857806354fd4d50116102ab5780635f398a141161027a57806364cda3d41161025f57806364cda3d414610ad157806370b0f66014610afa57806377d7660214610b2357610479565b80635f398a1414610a5757806360c4247f14610a9457610479565b806354fd4d501461099b57806356781388146109c65780635c08558914610a035780635d049c0a14610a2c57610479565b80634571969b116102e75780634571969b146108c95780634bf5d7e914610906578063506d1f8114610931578063544ffc9c1461095c57610479565b80633e4f49e6146107e9578063438596321461082657806343ec3e0914610863578063452115d61461088c57610479565b8063150b7a02116103905780632fe3e2611161035f5780632fe3e26114610719578063342cfab6146107445780633932abb1146107815780633bccf4fd146107ac57610479565b8063150b7a02146106325780632214a33f1461066f5780632656227d146106ac5780632d63f693146106dc57610479565b806306f3f9e6116103cc57806306f3f9e61461056457806306fdde031461058d578063072c8e0d146105b8578063143489d0146105f557610479565b8063013cf08b1461047e57806301ffc9a7146104bf57806302a251a3146104fc578063034201811461052757610479565b36610479573073ffffffffffffffffffffffffffffffffffffffff166104216111ce565b73ffffffffffffffffffffffffffffffffffffffff1614610477576040517f08c379a000000000000000000000000000000000000000000000000000000000815260040161046e90616876565b60405180910390fd5b005b600080fd5b34801561048a57600080fd5b506104a560048036038101906104a091906168e0565b6111d6565b6040516104b6959493929190616989565b60405180910390f35b3480156104cb57600080fd5b506104e660048036038101906104e19190616a34565b611268565b6040516104f39190616a61565b60405180910390f35b34801561050857600080fd5b50610511611484565b60405161051e9190616a8b565b60405180910390f35b34801561053357600080fd5b5061054e60048036038101906105499190616cbb565b61148e565b60405161055b9190616a8b565b60405180910390f35b34801561057057600080fd5b5061058b600480360381019061058691906168e0565b6114ae565b005b34801561059957600080fd5b506105a26114c2565b6040516105af9190616e07565b60405180910390f35b3480156105c457600080fd5b506105df60048036038101906105da9190616f2b565b611554565b6040516105ec919061709d565b60405180910390f35b34801561060157600080fd5b5061061c600480360381019061061791906168e0565b6116b9565b60405161062991906170bf565b60405180910390f35b34801561063e57600080fd5b5061065960048036038101906106549190617106565b6116f9565b6040516106669190617198565b60405180910390f35b34801561067b57600080fd5b50610696600480360381019061069191906171b3565b61170d565b6040516106a39190616a8b565b60405180910390f35b6106c660048036038101906106c19190617447565b611725565b6040516106d39190616a8b565b60405180910390f35b3480156106e857600080fd5b5061070360048036038101906106fe91906168e0565b611873565b6040516107109190616a8b565b60405180910390f35b34801561072557600080fd5b5061072e6118ab565b60405161073b9190617511565b60405180910390f35b34801561075057600080fd5b5061076b6004803603810190610766919061752c565b6118cf565b6040516107789190617597565b60405180910390f35b34801561078d57600080fd5b50610796611946565b6040516107a39190616a8b565b60405180910390f35b3480156107b857600080fd5b506107d360048036038101906107ce91906175b2565b611950565b6040516107e09190616a8b565b60405180910390f35b3480156107f557600080fd5b50610810600480360381019061080b91906168e0565b6119da565b60405161081d91906176a4565b60405180910390f35b34801561083257600080fd5b5061084d6004803603810190610848919061752c565b611b5a565b60405161085a9190616a61565b60405180910390f35b34801561086f57600080fd5b5061088a600480360381019061088591906168e0565b611be5565b005b34801561089857600080fd5b506108b360048036038101906108ae9190617447565b611bf9565b6040516108c09190616a8b565b60405180910390f35b3480156108d557600080fd5b506108f060048036038101906108eb91906171b3565b611c2d565b6040516108fd9190616a8b565b60405180910390f35b34801561091257600080fd5b5061091b611c45565b6040516109289190616e07565b60405180910390f35b34801561093d57600080fd5b50610946611d1f565b604051610953919061771e565b60405180910390f35b34801561096857600080fd5b50610983600480360381019061097e91906168e0565b611d43565b60405161099293929190617739565b60405180910390f35b3480156109a757600080fd5b506109b0611e0e565b6040516109bd9190616e07565b60405180910390f35b3480156109d257600080fd5b506109ed60048036038101906109e89190617770565b611e4b565b6040516109fa9190616a8b565b60405180910390f35b348015610a0f57600080fd5b50610a2a6004803603810190610a2591906177b0565b611e7c565b005b348015610a3857600080fd5b50610a41612166565b604051610a4e91906170bf565b60405180910390f35b348015610a6357600080fd5b50610a7e6004803603810190610a7991906177f0565b61218a565b604051610a8b9190616a8b565b60405180910390f35b348015610aa057600080fd5b50610abb6004803603810190610ab691906168e0565b6121f4565b604051610ac89190616a8b565b60405180910390f35b348015610add57600080fd5b50610af86004803603810190610af391906168e0565b612353565b005b348015610b0657600080fd5b50610b216004803603810190610b1c91906168e0565b612367565b005b348015610b2f57600080fd5b50610b4a6004803603810190610b459190617940565b61237b565b005b348015610b5857600080fd5b50610b736004803603810190610b6e91906179c1565b61242e565b604051610b809190616a8b565b60405180910390f35b348015610b9557600080fd5b50610bb06004803603810190610bab9190617ad6565b612496565b604051610bbd9190616a8b565b60405180910390f35b348015610bd257600080fd5b50610bed6004803603810190610be89190617bad565b6124ca565b005b348015610bfb57600080fd5b50610c04612520565b604051610c179796959493929190617c35565b60405180910390f35b348015610c2c57600080fd5b50610c476004803603810190610c429190617bad565b612622565b005b348015610c5557600080fd5b50610c5e6127f4565b604051610c6b9190617cda565b60405180910390f35b348015610c8057600080fd5b50610c8961289c565b604051610c969190616a8b565b60405180910390f35b348015610cab57600080fd5b50610cc66004803603810190610cc19190617cf5565b6128a5565b604051610cd39190616a8b565b60405180910390f35b348015610ce857600080fd5b50610cf16128bb565b604051610cfe9190616a8b565b60405180910390f35b348015610d1357600080fd5b50610d1c6128ea565b604051610d299190616a8b565b60405180910390f35b348015610d3e57600080fd5b50610d596004803603810190610d5491906171b3565b6128f0565b005b348015610d6757600080fd5b50610d826004803603810190610d7d9190617ddf565b612904565b604051610d8f9190616a8b565b60405180910390f35b348015610da457600080fd5b50610dbf6004803603810190610dba9190617e6f565b612d3d565b005b348015610dcd57600080fd5b50610dd6613174565b604051610de39190616a8b565b60405180910390f35b348015610df857600080fd5b50610e136004803603810190610e0e9190617ecf565b613183565b604051610e209190617198565b60405180910390f35b348015610e3557600080fd5b50610e506004803603810190610e4b91906168e0565b613198565b604051610e5d9190616a8b565b60405180910390f35b348015610e7257600080fd5b50610e8d6004803603810190610e8891906177b0565b6131d0565b604051610e9a9190617511565b60405180910390f35b610ebd6004803603810190610eb89190617f9e565b6131f5565b005b348015610ecb57600080fd5b50610ee66004803603810190610ee19190617447565b613227565b604051610ef39190616a8b565b60405180910390f35b348015610f0857600080fd5b50610f11613263565b604051610f1e9190616a8b565b60405180910390f35b348015610f3357600080fd5b50610f4e6004803603810190610f4991906168e0565b613292565b604051610f5b9190616a8b565b60405180910390f35b348015610f7057600080fd5b50610f796132aa565b604051610f869190616e07565b60405180910390f35b348015610f9b57600080fd5b50610fa46132ca565b604051610fb19190617511565b60405180910390f35b348015610fc657600080fd5b50610fe16004803603810190610fdc91906171b3565b6132ee565b604051610fee9190617597565b60405180910390f35b34801561100357600080fd5b5061101e600480360381019061101991906168e0565b61331d565b60405161102b9190616a8b565b60405180910390f35b34801561104057600080fd5b5061105b600480360381019061105691906168e0565b61347c565b005b34801561106957600080fd5b50611084600480360381019061107f91906177b0565b613490565b6040516110919190616a8b565b60405180910390f35b3480156110a657600080fd5b506110c160048036038101906110bc91906168e0565b6134ac565b6040516110ce9190616a8b565b60405180910390f35b3480156110e357600080fd5b506110fe60048036038101906110f991906168e0565b6135d2565b005b34801561110c57600080fd5b5061112760048036038101906111229190618012565b6135e6565b6040516111349190617198565b60405180910390f35b34801561114957600080fd5b50611164600480360381019061115f91906177b0565b6135fb565b005b34801561117257600080fd5b5061118d600480360381019061118891906168e0565b613704565b60405161119a9190616a8b565b60405180910390f35b3480156111af57600080fd5b506111b861382a565b6040516111c591906180ca565b60405180910390f35b600030905090565b60036020528060005260406000206000915090508060000160009054906101000a900473ffffffffffffffffffffffffffffffffffffffff16908060000160149054906101000a900464ffffffffff16908060000160199054906101000a900464ffffffffff169080600001601e9054906101000a900460ff169080600001601f9054906101000a900460ff16905085565b60008063143489d060e01b63452115d660e01b1890506000639a802a6d60e01b630342018160e01b635f398a1460e01b18189050600081837fda287a1d000000000000000000000000000000000000000000000000000000007ff2e09f740000000000000000000000000000000000000000000000000000000018181890506000837fda287a1d000000000000000000000000000000000000000000000000000000007ff2e09f740000000000000000000000000000000000000000000000000000000018189050817bffffffffffffffffffffffffffffffffffffffffffffffffffffffff1916867bffffffffffffffffffffffffffffffffffffffffffffffffffffffff191614806113b95750807bffffffffffffffffffffffffffffffffffffffffffffffffffffffff1916867bffffffffffffffffffffffffffffffffffffffffffffffffffffffff1916145b806114015750837bffffffffffffffffffffffffffffffffffffffffffffffffffffffff1916867bffffffffffffffffffffffffffffffffffffffffffffffffffffffff1916145b8061146957507f4e2312e0000000000000000000000000000000000000000000000000000000007bffffffffffffffffffffffffffffffffffffffffffffffffffffffff1916867bffffffffffffffffffffffffffffffffffffffffffffffffffffffff1916145b80611479575061147886613850565b5b945050505050919050565b6000600754905090565b60006114a089898989898989896138ba565b905098975050505050505050565b6114b6613b7d565b6114bf81613c04565b50565b6060600280546114d190618114565b80601f01602080910402602001604051908101604052809291908181526020018280546114fd90618114565b801561154a5780601f1061151f5761010080835404028352916020019161154a565b820191906000526020600020905b81548152906001019060200180831161152d57829003601f168201915b5050505050905090565b606084849050878790501415806115715750828290508787905014155b156115a8576040517f143d65a200000000000000000000000000000000000000000000000000000000815260040160405180910390fd5b8686905067ffffffffffffffff8111156115c5576115c4616b5a565b5b6040519080825280602002602001820160405280156115f35781602001602082028036833780820191505090505b50905060005b878790508110156116ae5761167e88888381811061161a57611619618145565b5b905060200201602081019061162f91906171b3565b87878481811061164257611641618145565b5b90506020028101906116549190618183565b86868581811061166757611666618145565b5b905060200281019061167991906181ac565b612904565b82828151811061169157611690618145565b5b602002602001018181525050806116a79061823e565b90506115f9565b509695505050505050565b60006003600083815260200190815260200160002060000160009054906101000a900473ffffffffffffffffffffffffffffffffffffffff169050919050565b600063150b7a0260e01b9050949350505050565b60126020528060005260406000206000915090505481565b60008061173486868686613227565b90506000611741826119da565b9050600460078111156117575761175661762d565b5b81600781111561176a5761176961762d565b5b148061179a5750600560078111156117855761178461762d565b5b8160078111156117985761179761762d565b5b145b6117d9576040517f08c379a00000000000000000000000000000000000000000000000000000000081526004016117d0906182f8565b60405180910390fd5b600160036000848152602001908152602001600020600001601e6101000a81548160ff0219169083151502179055507f712ae1383f79ac853f8d882153778e0260ef8f03b504e2866e0593e04d2b291f826040516118379190616a8b565b60405180910390a161184c8288888888613cce565b6118598288888888613db1565b6118668288888888613ec0565b8192505050949350505050565b60006003600083815260200190815260200160002060000160149054906101000a900464ffffffffff1664ffffffffff169050919050565b7fb3b3f3b703cd84ce352197dcff232b1b5d3cfb2025ce47cf04742d0651f1af8881565b6000600c600084815260200190815260200160002060008373ffffffffffffffffffffffffffffffffffffffff1673ffffffffffffffffffffffffffffffffffffffff16815260200190815260200160002060009054906101000a90046fffffffffffffffffffffffffffffffff16905092915050565b6000600654905090565b6000806119b16119a97f150214d74d59b7d1e90c73fc22ef3d991dd0a76b046543d4d80ab92d2a50328f898960405160200161198e93929190618327565b60405160208183030381529060405280519060200120613f1b565b868686613f35565b90506119ce87828860405180602001604052806000815250613f60565b91505095945050505050565b60008060036000848152602001908152602001600020905080600001601e9054906101000a900460ff1615611a13576007915050611b55565b80600001601f9054906101000a900460ff1615611a34576002915050611b55565b6000611a3f84611873565b905060008103611a84576040517f08c379a0000000000000000000000000000000000000000000000000000000008152600401611a7b906183aa565b60405180910390fd5b6000611a8e6127f4565b65ffffffffffff1690508082101580611aba575043601060008481526020019081526020016000205410155b15611acb5760009350505050611b55565b611ad485613f80565b15611ae55760049350505050611b55565b611aee85613fb1565b15611aff5760039350505050611b55565b6000611b0a86613198565b9050818110611b20576001945050505050611b55565b611b2986613fe2565b8015611b3a5750611b398661403a565b5b15611b4c576003945050505050611b55565b60049450505050505b919050565b600080600c600085815260200190815260200160002060008473ffffffffffffffffffffffffffffffffffffffff1673ffffffffffffffffffffffffffffffffffffffff16815260200190815260200160002060009054906101000a90046fffffffffffffffffffffffffffffffff166fffffffffffffffffffffffffffffffff1611905092915050565b611bed613b7d565b611bf68161407b565b50565b60006040517fffa8c69000000000000000000000000000000000000000000000000000000000815260040160405180910390fd5b60116020528060005260406000206000915090505481565b6060600960009054906101000a900473ffffffffffffffffffffffffffffffffffffffff1673ffffffffffffffffffffffffffffffffffffffff16634bf5d7e96040518163ffffffff1660e01b8152600401600060405180830381865afa925050508015611cd657506040513d6000823e3d601f19601f82011682018060405250810190611cd3919061843a565b60015b611d17576040518060400160405280601d81526020017f6d6f64653d626c6f636b6e756d6265722666726f6d3d64656661756c740000008152509050611d1c565b809150505b90565b7f000000000000000000000000000000000000000000000000000000000000000081565b600080600080600b600086815260200190815260200160002090508060000160009054906101000a90046fffffffffffffffffffffffffffffffff168160000160109054906101000a90046fffffffffffffffffffffffffffffffff168260010160009054906101000a90046fffffffffffffffffffffffffffffffff16826fffffffffffffffffffffffffffffffff169250816fffffffffffffffffffffffffffffffff169150806fffffffffffffffffffffffffffffffff169050935093509350509193909250565b60606040518060400160405280600181526020017f3100000000000000000000000000000000000000000000000000000000000000815250905090565b600080611e5661413c565b9050611e7384828560405180602001604052806000815250613f60565b91505092915050565b6000601360008473ffffffffffffffffffffffffffffffffffffffff1673ffffffffffffffffffffffffffffffffffffffff16815260200190815260200160002060008381526020019081526020016000205490506000806000611ee08685614144565b92509250925060036007811115611efa57611ef961762d565b5b611f24611f1f8585856040518060200160405280600081525080519060200120613227565b6119da565b6007811115611f3657611f3561762d565b5b14611f6d576040517ffd1155b000000000000000000000000000000000000000000000000000000000815260040160405180910390fd5b6000869050600061202d826040518061014001604052808b73ffffffffffffffffffffffffffffffffffffffff1681526020016000815260200160405180602001604052806000815250815260200160006001811115611fd057611fcf61762d565b5b8152602001600081526020016000815260200160008152602001600073ffffffffffffffffffffffffffffffffffffffff168152602001600073ffffffffffffffffffffffffffffffffffffffff1681526020018a81525061433f565b905060018273ffffffffffffffffffffffffffffffffffffffff16637d83297430846040518363ffffffff1660e01b815260040161206c929190618483565b6020604051808303816000875af115801561208b573d6000803e3d6000fd5b505050506040513d601f19601f820116820180604052508101906120af91906184c1565b036120f157806040517fb81578da0000000000000000000000000000000000000000000000000000000081526004016120e89190617511565b60405180910390fd5b8173ffffffffffffffffffffffffffffffffffffffff1663d4d9bdcd826040518263ffffffff1660e01b815260040161212a9190617511565b600060405180830381600087803b15801561214457600080fd5b505af1158015612158573d6000803e3d6000fd5b505050505050505050505050565b7f000000000000000000000000000000000000000000000000000000000000000081565b60008061219561413c565b90506121e887828888888080601f016020809104026020016040519081016040528093929190818152602001838380828437600081840152601f19601f82011690508083019250505050505050876143ff565b91505095945050505050565b600080600a6000018054905090506000600a60000160018361221691906184ee565b8154811061222757612226618145565b5b906000526020600020016040518060400160405290816000820160009054906101000a900463ffffffff1663ffffffff1663ffffffff1681526020016000820160049054906101000a90047bffffffffffffffffffffffffffffffffffffffffffffffffffffffff167bffffffffffffffffffffffffffffffffffffffffffffffffffffffff167bffffffffffffffffffffffffffffffffffffffffffffffffffffffff1681525050905083816000015163ffffffff161161230f5780602001517bffffffffffffffffffffffffffffffffffffffffffffffffffffffff169250505061234e565b61232b61231b85614585565b600a6145d890919063ffffffff16565b7bffffffffffffffffffffffffffffffffffffffffffffffffffffffff16925050505b919050565b61235b613b7d565b612364816146ce565b50565b61236f613b7d565b61237881614719565b50565b60008484905090508282905081146123bf576040517fa669fc0500000000000000000000000000000000000000000000000000000000815260040160405180910390fd5b60005b81811015612426576124148686838181106123e0576123df618145565b5b905060200201358585848181106123fa576123f9618145565b5b905060200201602081019061240f9190618522565b611e4b565b508061241f9061823e565b90506123c2565b505050505050565b60008061243961413c565b905061248b86828787878080601f016020809104026020016040519081016040528093929190818152602001838380828437600081840152601f19601f82011690508083019250505050505050613f60565b915050949350505050565b60006040517f098bb82f00000000000000000000000000000000000000000000000000000000815260040160405180910390fd5b6124d2613b7d565b61251c828280806020026020016040519081016040528093929190818152602001838360200280828437600081840152601f19601f8201169050808301925050505050505061475e565b5050565b60006060806000806000606061256060007f00000000000000000000000000000000000000000000000000000000000000006148f390919063ffffffff16565b61259460017f00000000000000000000000000000000000000000000000000000000000000006148f390919063ffffffff16565b46306000801b600067ffffffffffffffff8111156125b5576125b4616b5a565b5b6040519080825280602002602001820160405280156125e35781602001602082028036833780820191505090505b507f0f00000000000000000000000000000000000000000000000000000000000000959493929190965096509650965096509650965090919293949596565b61262a613b7d565b60005b828290508110156127ef5760006011600085858581811061265157612650618145565b5b905060200201602081019061266691906171b3565b73ffffffffffffffffffffffffffffffffffffffff1673ffffffffffffffffffffffffffffffffffffffff168152602001908152602001600020540361270a578282828181106126b9576126b8618145565b5b90506020020160208101906126ce91906171b3565b6040517fba16274700000000000000000000000000000000000000000000000000000000815260040161270191906170bf565b60405180910390fd5b6011600084848481811061272157612720618145565b5b905060200201602081019061273691906171b3565b73ffffffffffffffffffffffffffffffffffffffff1673ffffffffffffffffffffffffffffffffffffffff1681526020019081526020016000206000905582828281811061278757612786618145565b5b905060200201602081019061279c91906171b3565b73ffffffffffffffffffffffffffffffffffffffff167f56e8b093d97199cb709117a5c978849a7718ef5ac8c75f9260f1a787c97c17e560405160405180910390a2806127e89061823e565b905061262d565b505050565b6000600960009054906101000a900473ffffffffffffffffffffffffffffffffffffffff1673ffffffffffffffffffffffffffffffffffffffff166391ddadf46040518163ffffffff1660e01b8152600401602060405180830381865afa92505050801561288057506040513d601f19601f8201168201806040525081019061287d919061857b565b60015b6128945761288d436149a3565b9050612899565b809150505b90565b60006064905090565b60006128b28484846149f8565b90509392505050565b60006128c7600a614aa1565b7bffffffffffffffffffffffffffffffffffffffffffffffffffffffff16905090565b600e5481565b6128f8613b7d565b61290181614b0b565b50565b600061290f85614bb0565b8473ffffffffffffffffffffffffffffffffffffffff1684600001602081019061293991906171b3565b73ffffffffffffffffffffffffffffffffffffffff16036129a35783600001602081019061296791906171b3565b6040517f794e51f300000000000000000000000000000000000000000000000000000000815260040161299a91906170bf565b60405180910390fd5b6000859050600060018273ffffffffffffffffffffffffffffffffffffffff1663e75235b86040518163ffffffff1660e01b8152600401602060405180830381865afa1580156129f7573d6000803e3d6000fd5b505050506040513d601f19601f82011682018060405250810190612a1b91906184c1565b612a2591906184ee565b9050612a7585858080601f016020809104026020016040519081016040528093929190818152602001838380828437600081840152601f19601f8201169050808301925050505050505082614c2c565b6000801b601360008973ffffffffffffffffffffffffffffffffffffffff1673ffffffffffffffffffffffffffffffffffffffff168152602001908152602001600020600088610120013581526020019081526020016000205414612b06576040517f9e01d15b00000000000000000000000000000000000000000000000000000000815260040160405180910390fd5b8173ffffffffffffffffffffffffffffffffffffffff1663affed0e06040518163ffffffff1660e01b81526004016020604051808303816000875af1158015612b53573d6000803e3d6000fd5b505050506040513d601f19601f82011682018060405250810190612b7791906184c1565b8661012001351015612bb5576040517fd9c6386f00000000000000000000000000000000000000000000000000000000815260040160405180910390fd5b6000612bca8388612bc5906186e9565b61433f565b90508273ffffffffffffffffffffffffffffffffffffffff166312fb68e082898060400190612bf991906181ac565b8a8a886040518763ffffffff1660e01b8152600401612c1d9695949392919061873a565b60006040518083038186803b158015612c3557600080fd5b505afa158015612c49573d6000803e3d6000fd5b505050506000806000612c5c8b85614144565b925092509250612c7e838383604051806020016040528060008152508f614ca2565b965083601360008d73ffffffffffffffffffffffffffffffffffffffff1673ffffffffffffffffffffffffffffffffffffffff16815260200190815260200160002060008c610120013581526020019081526020016000208190555086848c73ffffffffffffffffffffffffffffffffffffffff167f5ed3fb2763971f1f5e3d1e6f215e92ebe28160b512c2da07f4b12a46021adb0b8d6101200135604051612d279190616a8b565b60405180910390a4505050505050949350505050565b612d4683614bb0565b6000839050600060018273ffffffffffffffffffffffffffffffffffffffff1663e75235b86040518163ffffffff1660e01b8152600401602060405180830381865afa158015612d9a573d6000803e3d6000fd5b505050506040513d601f19601f82011682018060405250810190612dbe91906184c1565b612dc891906184ee565b9050612e1884848080601f016020809104026020016040519081016040528093929190818152602001838380828437600081840152601f19601f8201169050808301925050505050505082614c2c565b60008273ffffffffffffffffffffffffffffffffffffffff1663affed0e06040518163ffffffff1660e01b81526004016020604051808303816000875af1158015612e67573d6000803e3d6000fd5b505050506040513d601f19601f82011682018060405250810190612e8b91906184c1565b905060008373ffffffffffffffffffffffffffffffffffffffff1663d8d11f788860008060008060008060008b6040518a63ffffffff1660e01b8152600401612edc9998979695949392919061885b565b602060405180830381865afa158015612ef9573d6000803e3d6000fd5b505050506040513d601f19601f82011682018060405250810190612f1d9190618911565b90508373ffffffffffffffffffffffffffffffffffffffff166312fb68e0828888876040518563ffffffff1660e01b8152600401612f5e949392919061893e565b60006040518083038186803b158015612f7657600080fd5b505afa158015612f8a573d6000803e3d6000fd5b505050506000601360008973ffffffffffffffffffffffffffffffffffffffff1673ffffffffffffffffffffffffffffffffffffffff168152602001908152602001600020600084815260200190815260200160002054905060008060001b82146130fe576000806000612ffe8c86614144565b9250925092506130268383836040518060200160405280600081525080519060200120613227565b93506000613033856119da565b9050600260078111156130495761304861762d565b5b81600781111561305c5761305b61762d565b5b03613093576040517f7fe099a000000000000000000000000000000000000000000000000000000000815260040160405180910390fd5b600160036000878152602001908152602001600020600001601f6101000a81548160ff0219169083151502179055507f789cf55be980739dad1d0699b93b58e806b51c9d96619bfa8fe0a28abaa7b30c856040516130f19190616a8b565b60405180910390a1505050505b8573ffffffffffffffffffffffffffffffffffffffff1663d4d9bdcd846040518263ffffffff1660e01b81526004016131379190617511565b600060405180830381600087803b15801561315157600080fd5b505af1158015613165573d6000803e3d6000fd5b50505050505050505050505050565b600061317e615096565b905090565b600063bc197c8160e01b905095945050505050565b60006003600083815260200190815260200160002060000160199054906101000a900464ffffffffff1664ffffffffff169050919050565b6013602052816000526040600020602052806000526040600020600091509150505481565b6040517f5adddc5500000000000000000000000000000000000000000000000000000000815260040160405180910390fd5b6000848484846040516020016132409493929190618b66565b6040516020818303038152906040528051906020012060001c9050949350505050565b600061326f600f614aa1565b7bffffffffffffffffffffffffffffffffffffffffffffffffffffffff16905090565b60106020528060005260406000206000915090505481565b6060604051806080016040528060498152602001619e8160499139905090565b7f150214d74d59b7d1e90c73fc22ef3d991dd0a76b046543d4d80ab92d2a50328f81565b600d6020528060005260406000206000915054906101000a90046fffffffffffffffffffffffffffffffff1681565b600080600f6000018054905090506000600f60000160018361333f91906184ee565b815481106133505761334f618145565b5b906000526020600020016040518060400160405290816000820160009054906101000a900463ffffffff1663ffffffff1663ffffffff1681526020016000820160049054906101000a90047bffffffffffffffffffffffffffffffffffffffffffffffffffffffff167bffffffffffffffffffffffffffffffffffffffffffffffffffffffff167bffffffffffffffffffffffffffffffffffffffffffffffffffffffff1681525050905083816000015163ffffffff16116134385780602001517bffffffffffffffffffffffffffffffffffffffffffffffffffffffff1692505050613477565b61345461344485614585565b600f6145d890919063ffffffff16565b7bffffffffffffffffffffffffffffffffffffffffffffffffffffffff16925050505b919050565b613484613b7d565b61348d816150a0565b50565b60006134a4838361349f615128565b6149f8565b905092915050565b6000806010600084815260200190815260200160002054905060008114806134d45750438110155b1561350b576040517f749c2c6d00000000000000000000000000000000000000000000000000000000815260040160405180910390fd5b61351361289c565b61351c8461331d565b7f000000000000000000000000000000000000000000000000000000000000000073ffffffffffffffffffffffffffffffffffffffff1663981b24d0846040518263ffffffff1660e01b81526004016135759190616a8b565b602060405180830381865afa158015613592573d6000803e3d6000fd5b505050506040513d601f19601f820116820180604052508101906135b691906184c1565b6135c09190618bc0565b6135ca9190618c31565b915050919050565b6135da613b7d565b6135e38161513f565b50565b600063f23a6e6160e01b905095945050505050565b613603613b7d565b6000601260008473ffffffffffffffffffffffffffffffffffffffff1673ffffffffffffffffffffffffffffffffffffffff168152602001908152602001600020549050818103613680576040517f34e77b4600000000000000000000000000000000000000000000000000000000815260040160405180910390fd5b81601260008573ffffffffffffffffffffffffffffffffffffffff1673ffffffffffffffffffffffffffffffffffffffff168152602001908152602001600020819055507fad48c7f5802308fb2675c0f699237e1a6d39e5170f647470b1d8ed2803262e598382846040516136f793929190618c62565b60405180910390a1505050565b60008060106000848152602001908152602001600020549050600081148061372c5750438110155b15613763576040517f749c2c6d00000000000000000000000000000000000000000000000000000000815260040160405180910390fd5b61376b61289c565b613774846121f4565b7f000000000000000000000000000000000000000000000000000000000000000073ffffffffffffffffffffffffffffffffffffffff1663981b24d0846040518263ffffffff1660e01b81526004016137cd9190616a8b565b602060405180830381865afa1580156137ea573d6000803e3d6000fd5b505050506040513d601f19601f8201168201806040525081019061380e91906184c1565b6138189190618bc0565b6138229190618c31565b915050919050565b600960009054906101000a900473ffffffffffffffffffffffffffffffffffffffff1681565b60007f01ffc9a7000000000000000000000000000000000000000000000000000000007bffffffffffffffffffffffffffffffffffffffffffffffffffffffff1916827bffffffffffffffffffffffffffffffffffffffffffffffffffffffff1916149050919050565b60006040855114806138cd575060008551145b61390c576040517f08c379a000000000000000000000000000000000000000000000000000000000815260040161390390618d31565b60405180910390fd5b600061398e6139867fb3b3f3b703cd84ce352197dcff232b1b5d3cfb2025ce47cf04742d0651f1af888c8c8c8c604051613947929190618d81565b60405180910390208b8051906020012060405160200161396b959493929190618d9a565b60405160208183030381529060405280519060200120613f1b565b868686613f35565b90506040865103613b1d57600060408701516fffffffffffffffffffffffffffffffff169050806fffffffffffffffffffffffffffffffff16600d60008473ffffffffffffffffffffffffffffffffffffffff1673ffffffffffffffffffffffffffffffffffffffff16815260200190815260200160002060009054906101000a90046fffffffffffffffffffffffffffffffff166fffffffffffffffffffffffffffffffff1614613a75576040517f08c379a0000000000000000000000000000000000000000000000000000000008152600401613a6c90618e5f565b60405180910390fd5b600d60008373ffffffffffffffffffffffffffffffffffffffff1673ffffffffffffffffffffffffffffffffffffffff168152602001908152602001600020600081819054906101000a90046fffffffffffffffffffffffffffffffff1680929190613ae090618e7f565b91906101000a8154816fffffffffffffffffffffffffffffffff02191690836fffffffffffffffffffffffffffffffff1602179055505060308752505b613b6e8a828b8b8b8080601f016020809104026020016040519081016040528093929190818152602001838380828437600081840152601f19601f820116905080830192505050505050508a6143ff565b91505098975050505050505050565b7f000000000000000000000000000000000000000000000000000000000000000073ffffffffffffffffffffffffffffffffffffffff163373ffffffffffffffffffffffffffffffffffffffff1614613c02576040517fc589ff4a00000000000000000000000000000000000000000000000000000000815260040160405180910390fd5b565b613c0c61289c565b811115613c4e576040517f08c379a0000000000000000000000000000000000000000000000000000000008152600401613c4590618f4f565b60405180910390fd5b6000613c586128bb565b9050613c8f613c75613c686127f4565b65ffffffffffff16614585565b613c7e84615184565b600a6151ef9092919063ffffffff16565b50507f0553476bf02ef2726e8ce5ced78d63e26e602e4a2257b1f559418e24b46339978183604051613cc2929190618f6f565b60405180910390a15050565b3073ffffffffffffffffffffffffffffffffffffffff16613ced6111ce565b73ffffffffffffffffffffffffffffffffffffffff1614613daa5760005b8451811015613da8573073ffffffffffffffffffffffffffffffffffffffff16858281518110613d3e57613d3d618145565b5b602002602001015173ffffffffffffffffffffffffffffffffffffffff1603613d9757613d96838281518110613d7757613d76618145565b5b602002602001015180519060200120600461520c90919063ffffffff16565b5b80613da19061823e565b9050613d0b565b505b5050505050565b6000604051806060016040528060278152602001619e5a60279139905060005b8551811015613eb757600080878381518110613df057613def618145565b5b602002602001015173ffffffffffffffffffffffffffffffffffffffff16878481518110613e2157613e20618145565b5b6020026020010151878581518110613e3c57613e3b618145565b5b6020026020010151604051613e519190618fc9565b60006040518083038185875af1925050503d8060008114613e8e576040519150601f19603f3d011682016040523d82523d6000602084013e613e93565b606091505b5091509150613ea3828286615288565b50505080613eb09061823e565b9050613dd1565b50505050505050565b3073ffffffffffffffffffffffffffffffffffffffff16613edf6111ce565b73ffffffffffffffffffffffffffffffffffffffff1614613f1457613f0460046152aa565b613f1357613f1260046152df565b5b5b5050505050565b6000613f2e613f28615360565b83615417565b9050919050565b6000806000613f4687878787615458565b91509150613f538161553a565b8192505050949350505050565b6000613f7685858585613f71615128565b6143ff565b9050949350505050565b600080613f8c83611d43565b509150506000613f9b84611873565b9050613fa6816134ac565b821192505050919050565b600080613fbd83611d43565b505090506000613fcc84611873565b9050613fd7816134ac565b821192505050919050565b600080600080613ff185611d43565b92509250925060008284116140065782614008565b835b9050600061401587611873565b905082826140239190618fe0565b61402c82613704565b111595505050505050919050565b600080600061404884611d43565b509150915060008214801561405d5750600081145b1561406d57600092505050614076565b81811115925050505b919050565b61408361289c565b8111156140bc576040517f01c78a6400000000000000000000000000000000000000000000000000000000815260040160405180910390fd5b60006140c6613263565b90506140fd6140e36140d66127f4565b65ffffffffffff16614585565b6140ec84615184565b600f6151ef9092919063ffffffff16565b50507fdd2b8b2d874e19a344cba53b9fb534ea748ef117ed4b75c67569a794864541938183604051614130929190618f6f565b60405180910390a15050565b600033905090565b6060806060600167ffffffffffffffff81111561416457614163616b5a565b5b6040519080825280602002602001820160405280156141925781602001602082028036833780820191505090505b509250600167ffffffffffffffff8111156141b0576141af616b5a565b5b6040519080825280602002602001820160405280156141de5781602001602082028036833780820191505090505b509150600167ffffffffffffffff8111156141fc576141fb616b5a565b5b60405190808252806020026020018201604052801561422f57816020015b606081526020019060019003908161421a5790505b509050848360008151811061424757614246618145565b5b602002602001019073ffffffffffffffffffffffffffffffffffffffff16908173ffffffffffffffffffffffffffffffffffffffff168152505060008260008151811061429757614296618145565b5b60200260200101818152505063d4d9bdcd60e01b846040516024016142bc9190617511565b604051602081830303815290604052907bffffffffffffffffffffffffffffffffffffffffffffffffffffffff19166020820180517bffffffffffffffffffffffffffffffffffffffffffffffffffffffff83818316178352505050508160008151811061432d5761432c618145565b5b60200260200101819052509250925092565b60008273ffffffffffffffffffffffffffffffffffffffff1663d8d11f78836000015184602001518560400151866060015187608001518860a001518960c001518a60e001518b61010001518c61012001516040518b63ffffffff1660e01b81526004016143b69a9998979695949392919061904d565b602060405180830381865afa1580156143d3573d6000803e3d6000fd5b505050506040513d601f19601f820116820180604052508101906143f79190618911565b905092915050565b6000806003600088815260200190815260200160002090506001600781111561442b5761442a61762d565b5b614434886119da565b60078111156144465761444561762d565b5b14614486576040517f08c379a000000000000000000000000000000000000000000000000000000000815260040161447d90619162565b60405180910390fd5b60006144af878360000160149054906101000a900464ffffffffff1664ffffffffff16866149f8565b90506144be88888884886156a0565b6000845103614520578673ffffffffffffffffffffffffffffffffffffffff167fb8e138887d0aa13bab447e82de9d5c1777041ecd21ca36ba824ff1e6c07ddda4898884896040516145139493929190619182565b60405180910390a2614577565b8673ffffffffffffffffffffffffffffffffffffffff167fe2babfbac5889a709b63bb7f598b324e08bc5a4fb9ec647fb3cbc9ec07eb8712898884898960405161456e9594939291906191ce565b60405180910390a25b809250505095945050505050565b600063ffffffff80168211156145d0576040517f08c379a00000000000000000000000000000000000000000000000000000000081526004016145c7906192a1565b60405180910390fd5b819050919050565b60008083600001805490509050600080829050600583111561465a5760006145ff846157df565b8461460a91906184ee565b905061461987600001826158d8565b60000160009054906101000a900463ffffffff1663ffffffff168663ffffffff16101561464857809150614658565b6001816146559190618fe0565b92505b505b600061466b876000018785856158ed565b9050600081146146bf5761468e8760000160018361468991906184ee565b6158d8565b60000160049054906101000a90047bffffffffffffffffffffffffffffffffffffffffffffffffffffffff166146c2565b60005b94505050505092915050565b6000600e54905081600e819055507fd3c1cdfd662fbb8e44190410d3a0d46855746182cb8d1e5e41bc84f5afecef4f818360405161470d929190618f6f565b60405180910390a15050565b7fc565b045403dc03c2eea82b81a0465edad9e2e7fc4d97e11421c209da93d7a936006548260405161474c929190618f6f565b60405180910390a18060068190555050565b60005b81518110156148ef5760016011600084848151811061478357614782618145565b5b602002602001015173ffffffffffffffffffffffffffffffffffffffff1673ffffffffffffffffffffffffffffffffffffffff1681526020019081526020016000205403614822578181815181106147de576147dd618145565b5b60200260200101516040517ff41dd33000000000000000000000000000000000000000000000000000000000815260040161481991906170bf565b60405180910390fd5b60016011600084848151811061483b5761483a618145565b5b602002602001015173ffffffffffffffffffffffffffffffffffffffff1673ffffffffffffffffffffffffffffffffffffffff1681526020019081526020016000208190555081818151811061489457614893618145565b5b602002602001015173ffffffffffffffffffffffffffffffffffffffff167fa04753a74f890631c71d35beb4ccc5e7e63932069a6c6ca83a48ffde668dfa0660405160405180910390a2806148e89061823e565b9050614761565b5050565b606060ff60001b83146149105761490983615960565b905061499d565b81805461491c90618114565b80601f016020809104026020016040519081016040528092919081815260200182805461494890618114565b80156149955780601f1061496a57610100808354040283529160200191614995565b820191906000526020600020905b81548152906001019060200180831161497857829003601f168201915b505050505090505b92915050565b600065ffffffffffff80168211156149f0576040517f08c379a00000000000000000000000000000000000000000000000000000000081526004016149e790619333565b60405180910390fd5b819050919050565b6000600960009054906101000a900473ffffffffffffffffffffffffffffffffffffffff1673ffffffffffffffffffffffffffffffffffffffff16633a46b1a885856040518363ffffffff1660e01b8152600401614a57929190619353565b602060405180830381865afa158015614a74573d6000803e3d6000fd5b505050506040513d601f19601f82011682018060405250810190614a9891906184c1565b90509392505050565b6000808260000180549050905060008114614b0057614acf83600001600183614aca91906184ee565b6158d8565b60000160049054906101000a90047bffffffffffffffffffffffffffffffffffffffffffffffffffffffff16614b03565b60005b915050919050565b6000600960009054906101000a900473ffffffffffffffffffffffffffffffffffffffff16905081600960006101000a81548173ffffffffffffffffffffffffffffffffffffffff021916908373ffffffffffffffffffffffffffffffffffffffff1602179055507fc255828f3e19c78de5df3dd5b6706d49bd5dd58e76275f97bd699878700995208183604051614ba492919061937c565b60405180910390a15050565b6000601160008373ffffffffffffffffffffffffffffffffffffffff1673ffffffffffffffffffffffffffffffffffffffff1681526020019081526020016000205403614c29576040517f82b4290000000000000000000000000000000000000000000000000000000000815260040160405180910390fd5b50565b600080600090505b82811015614c9c578060410260ff604182018601511692505060028260ff161015614c8b576040517f47dd8ef800000000000000000000000000000000000000000000000000000000815260040160405180910390fd5b80614c959061823e565b9050614c34565b50505050565b6000614cb78686868680519060200120613227565b90508451865114614cfd576040517f08c379a0000000000000000000000000000000000000000000000000000000008152600401614cf490619417565b60405180910390fd5b8351865114614d41576040517f08c379a0000000000000000000000000000000000000000000000000000000008152600401614d3890619417565b60405180910390fd5b6000865111614d85576040517f08c379a0000000000000000000000000000000000000000000000000000000008152600401614d7c90619483565b60405180910390fd5b60006003600083815260200190815260200160002060000160149054906101000a900464ffffffffff1664ffffffffff1614614df6576040517f08c379a0000000000000000000000000000000000000000000000000000000008152600401614ded90619515565b60405180910390fd5b60003390506000614e05611946565b614e0d6127f4565b65ffffffffffff16614e1f9190618fe0565b9050600080601260008773ffffffffffffffffffffffffffffffffffffffff1673ffffffffffffffffffffffffffffffffffffffff1681526020019081526020016000205490506000808203614e7c57614e77611484565b614e7e565b815b90508084614e8c9190618fe0565b925050506040518060a001604052808473ffffffffffffffffffffffffffffffffffffffff1681526020018364ffffffffff1681526020018264ffffffffff168152602001600015158152602001600015158152506003600086815260200190815260200160002060008201518160000160006101000a81548173ffffffffffffffffffffffffffffffffffffffff021916908373ffffffffffffffffffffffffffffffffffffffff16021790555060208201518160000160146101000a81548164ffffffffff021916908364ffffffffff16021790555060408201518160000160196101000a81548164ffffffffff021916908364ffffffffff160217905550606082015181600001601e6101000a81548160ff021916908315150217905550608082015181600001601f6101000a81548160ff021916908315150217905550905050600e5443614fde9190618fe0565b60106000848152602001908152602001600020819055507f7d84a6263ae0d98d3329bd7b46bb4e8d6f98cd35a7adb45c274c8b7fd5ebd5e084848b8b8d5167ffffffffffffffff81111561503557615034616b5a565b5b60405190808252806020026020018201604052801561506857816020015b60608152602001906001900390816150535790505b508c88888e60405161508299989796959493929190619641565b60405180910390a150505095945050505050565b6000600854905090565b600081116150e3576040517f08c379a00000000000000000000000000000000000000000000000000000000081526004016150da90619763565b60405180910390fd5b7f7e3f7f0708a84de9203036abaa450dccc85ad5ff52f78c170f3edb55cf5e882860075482604051615116929190618f6f565b60405180910390a18060078190555050565b606060405180602001604052806000815250905090565b7fccb45da8d5717e6c4544694297c4ba5cf151d455c9bb0ed4fc7a38411bc0546160085482604051615172929190618f6f565b60405180910390a18060088190555050565b60007bffffffffffffffffffffffffffffffffffffffffffffffffffffffff80168211156151e7576040517f08c379a00000000000000000000000000000000000000000000000000000000081526004016151de906197f5565b60405180910390fd5b819050919050565b6000806152008560000185856159d4565b91509150935093915050565b60008260000160109054906101000a9004600f0b90508183600101600083600f0b600f0b815260200190815260200160002081905550600181018360000160106101000a8154816fffffffffffffffffffffffffffffffff0219169083600f0b6fffffffffffffffffffffffffffffffff160217905550505050565b60608315615298578290506152a3565b6152a28383615d5a565b5b9392505050565b60008160000160009054906101000a9004600f0b600f0b8260000160109054906101000a9004600f0b600f0b13159050919050565b60008160000160006101000a8154816fffffffffffffffffffffffffffffffff0219169083600f0b6fffffffffffffffffffffffffffffffff16021790555060008160000160106101000a8154816fffffffffffffffffffffffffffffffff0219169083600f0b6fffffffffffffffffffffffffffffffff16021790555050565b60007f000000000000000000000000000000000000000000000000000000000000000073ffffffffffffffffffffffffffffffffffffffff163073ffffffffffffffffffffffffffffffffffffffff161480156153dc57507f000000000000000000000000000000000000000000000000000000000000000046145b15615409577f00000000000000000000000000000000000000000000000000000000000000009050615414565b615411615daa565b90505b90565b60006040517f190100000000000000000000000000000000000000000000000000000000000081528360028201528260228201526042812091505092915050565b6000807f7fffffffffffffffffffffffffffffff5d576e7357a4501ddfe92f46681b20a08360001c1115615493576000600391509150615531565b6000600187878787604051600081526020016040526040516154b89493929190619815565b6020604051602081039080840390855afa1580156154da573d6000803e3d6000fd5b505050602060405103519050600073ffffffffffffffffffffffffffffffffffffffff168173ffffffffffffffffffffffffffffffffffffffff160361552857600060019250925050615531565b80600092509250505b94509492505050565b6000600481111561554e5761554d61762d565b5b8160048111156155615761556061762d565b5b031561569d576001600481111561557b5761557a61762d565b5b81600481111561558e5761558d61762d565b5b036155ce576040517f08c379a00000000000000000000000000000000000000000000000000000000081526004016155c5906198a6565b60405180910390fd5b600260048111156155e2576155e161762d565b5b8160048111156155f5576155f461762d565b5b03615635576040517f08c379a000000000000000000000000000000000000000000000000000000000815260040161562c90619912565b60405180910390fd5b600360048111156156495761564861762d565b5b81600481111561565c5761565b61762d565b5b0361569c576040517f08c379a0000000000000000000000000000000000000000000000000000000008152600401615693906199a4565b60405180910390fd5b5b50565b600082116156e3576040517f08c379a00000000000000000000000000000000000000000000000000000000081526004016156da90619a36565b60405180910390fd5b81600c600087815260200190815260200160002060008673ffffffffffffffffffffffffffffffffffffffff1673ffffffffffffffffffffffffffffffffffffffff16815260200190815260200160002060009054906101000a90046fffffffffffffffffffffffffffffffff166fffffffffffffffffffffffffffffffff16106157a3576040517f08c379a000000000000000000000000000000000000000000000000000000000815260040161579a90619ac8565b60405180910390fd5b60006157ae83615e40565b905060008251036157ca576157c586868387615e9f565b6157d7565b6157d6868683856161fd565b5b505050505050565b60008082036157f157600090506158d3565b600060016157fe84616670565b901c6001901b9050600181848161581857615817618c02565b5b048201901c9050600181848161583157615830618c02565b5b048201901c9050600181848161584a57615849618c02565b5b048201901c9050600181848161586357615862618c02565b5b048201901c9050600181848161587c5761587b618c02565b5b048201901c9050600181848161589557615894618c02565b5b048201901c905060018184816158ae576158ad618c02565b5b048201901c90506158cf818285816158c9576158c8618c02565b5b04616751565b9150505b919050565b60008260005281602060002001905092915050565b60005b81831015615955576000615904848461676a565b90508463ffffffff1661591787836158d8565b60000160009054906101000a900463ffffffff1663ffffffff16111561593f5780925061594f565b60018161594c9190618fe0565b93505b506158f0565b819050949350505050565b6060600061596d83616790565b90506000602067ffffffffffffffff81111561598c5761598b616b5a565b5b6040519080825280601f01601f1916602001820160405280156159be5781602001600182028036833780820191505090505b5090508181528360208201528092505050919050565b6000806000858054905090506000811115615c6a576000615a01876001846159fc91906184ee565b6158d8565b6040518060400160405290816000820160009054906101000a900463ffffffff1663ffffffff1663ffffffff1681526020016000820160049054906101000a90047bffffffffffffffffffffffffffffffffffffffffffffffffffffffff167bffffffffffffffffffffffffffffffffffffffffffffffffffffffff167bffffffffffffffffffffffffffffffffffffffffffffffffffffffff168152505090508563ffffffff16816000015163ffffffff161115615af5576040517f08c379a0000000000000000000000000000000000000000000000000000000008152600401615aec90619b34565b60405180910390fd5b8563ffffffff16816000015163ffffffff1603615b795784615b2388600185615b1e91906184ee565b6158d8565b60000160046101000a8154817bffffffffffffffffffffffffffffffffffffffffffffffffffffffff02191690837bffffffffffffffffffffffffffffffffffffffffffffffffffffffff160217905550615c59565b8660405180604001604052808863ffffffff168152602001877bffffffffffffffffffffffffffffffffffffffffffffffffffffffff168152509080600181540180825580915050600190039060005260206000200160009091909190915060008201518160000160006101000a81548163ffffffff021916908363ffffffff16021790555060208201518160000160046101000a8154817bffffffffffffffffffffffffffffffffffffffffffffffffffffffff02191690837bffffffffffffffffffffffffffffffffffffffffffffffffffffffff16021790555050505b806020015185935093505050615d52565b8560405180604001604052808763ffffffff168152602001867bffffffffffffffffffffffffffffffffffffffffffffffffffffffff168152509080600181540180825580915050600190039060005260206000200160009091909190915060008201518160000160006101000a81548163ffffffff021916908363ffffffff16021790555060208201518160000160046101000a8154817bffffffffffffffffffffffffffffffffffffffffffffffffffffffff02191690837bffffffffffffffffffffffffffffffffffffffffffffffffffffffff160217905550505060008492509250505b935093915050565b600082511115615d6d5781518083602001fd5b806040517f08c379a0000000000000000000000000000000000000000000000000000000008152600401615da19190616e07565b60405180910390fd5b60007f8b73c3c69bb8fe3d512ecc4cf759cc79239f7b179b0ffacaa9a75d522b39400f7f00000000000000000000000000000000000000000000000000000000000000007f00000000000000000000000000000000000000000000000000000000000000004630604051602001615e25959493929190619b54565b60405160208183030381529060405280519060200120905090565b60006fffffffffffffffffffffffffffffffff8016821115615e97576040517f08c379a0000000000000000000000000000000000000000000000000000000008152600401615e8e90619c19565b60405180910390fd5b819050919050565b6000600c600086815260200190815260200160002060008573ffffffffffffffffffffffffffffffffffffffff1673ffffffffffffffffffffffffffffffffffffffff16815260200190815260200160002060009054906101000a90046fffffffffffffffffffffffffffffffff166fffffffffffffffffffffffffffffffff1614615f60576040517f08c379a0000000000000000000000000000000000000000000000000000000008152600401615f5790619cab565b60405180910390fd5b81600c600086815260200190815260200160002060008573ffffffffffffffffffffffffffffffffffffffff1673ffffffffffffffffffffffffffffffffffffffff16815260200190815260200160002060006101000a8154816fffffffffffffffffffffffffffffffff02191690836fffffffffffffffffffffffffffffffff16021790555060006002811115615ffb57615ffa61762d565b5b60ff168160ff16036160835781600b600086815260200190815260200160002060000160008282829054906101000a90046fffffffffffffffffffffffffffffffff166160489190619ccb565b92506101000a8154816fffffffffffffffffffffffffffffffff02191690836fffffffffffffffffffffffffffffffff1602179055506161f7565b600160028111156160975761609661762d565b5b60ff168160ff160361611f5781600b600086815260200190815260200160002060000160108282829054906101000a90046fffffffffffffffffffffffffffffffff166160e49190619ccb565b92506101000a8154816fffffffffffffffffffffffffffffffff02191690836fffffffffffffffffffffffffffffffff1602179055506161f6565b6002808111156161325761613161762d565b5b60ff168160ff16036161ba5781600b600086815260200190815260200160002060010160008282829054906101000a90046fffffffffffffffffffffffffffffffff1661617f9190619ccb565b92506101000a8154816fffffffffffffffffffffffffffffffff02191690836fffffffffffffffffffffffffffffffff1602179055506161f5565b6040517f08c379a00000000000000000000000000000000000000000000000000000000081526004016161ec90619da7565b60405180910390fd5b5b5b50505050565b6030815114616241576040517f08c379a000000000000000000000000000000000000000000000000000000000815260040161623890619e39565b60405180910390fd5b600080600061624f846167e0565b9250925092506000600c600089815260200190815260200160002060008873ffffffffffffffffffffffffffffffffffffffff1673ffffffffffffffffffffffffffffffffffffffff16815260200190815260200160002060009054906101000a90046fffffffffffffffffffffffffffffffff1690506000816fffffffffffffffffffffffffffffffff16836fffffffffffffffffffffffffffffffff16856fffffffffffffffffffffffffffffffff16876fffffffffffffffffffffffffffffffff1661631e9190618fe0565b6163289190618fe0565b6163329190618fe0565b9050866fffffffffffffffffffffffffffffffff16811115616389576040517f08c379a000000000000000000000000000000000000000000000000000000000815260040161638090619cab565b60405180910390fd5b80600c60008b815260200190815260200160002060008a73ffffffffffffffffffffffffffffffffffffffff1673ffffffffffffffffffffffffffffffffffffffff16815260200190815260200160002060006101000a8154816fffffffffffffffffffffffffffffffff02191690836fffffffffffffffffffffffffffffffff1602179055506000600b60008b81526020019081526020016000206040518060600160405290816000820160009054906101000a90046fffffffffffffffffffffffffffffffff166fffffffffffffffffffffffffffffffff166fffffffffffffffffffffffffffffffff1681526020016000820160109054906101000a90046fffffffffffffffffffffffffffffffff166fffffffffffffffffffffffffffffffff166fffffffffffffffffffffffffffffffff1681526020016001820160009054906101000a90046fffffffffffffffffffffffffffffffff166fffffffffffffffffffffffffffffffff166fffffffffffffffffffffffffffffffff16815250509050604051806060016040528087836000015161652b9190619ccb565b6fffffffffffffffffffffffffffffffff1681526020018683602001516165529190619ccb565b6fffffffffffffffffffffffffffffffff1681526020018583604001516165799190619ccb565b6fffffffffffffffffffffffffffffffff16815250905080600b60008c815260200190815260200160002060008201518160000160006101000a8154816fffffffffffffffffffffffffffffffff02191690836fffffffffffffffffffffffffffffffff16021790555060208201518160000160106101000a8154816fffffffffffffffffffffffffffffffff02191690836fffffffffffffffffffffffffffffffff16021790555060408201518160010160006101000a8154816fffffffffffffffffffffffffffffffff02191690836fffffffffffffffffffffffffffffffff16021790555090505050505050505050505050565b600080600090506000608084901c111561669257608083901c92506080810190505b6000604084901c11156166ad57604083901c92506040810190505b6000602084901c11156166c857602083901c92506020810190505b6000601084901c11156166e357601083901c92506010810190505b6000600884901c11156166fe57600883901c92506008810190505b6000600484901c111561671957600483901c92506004810190505b6000600284901c111561673457600283901c92506002810190505b6000600184901c1115616748576001810190505b80915050919050565b60008183106167605781616762565b825b905092915050565b6000600282841861677b9190618c31565b8284166167889190618fe0565b905092915050565b60008060ff8360001c169050601f8111156167d7576040517fb3512b0c00000000000000000000000000000000000000000000000000000000815260040160405180910390fd5b80915050919050565b6000806000602084015160801c925060208401516fffffffffffffffffffffffffffffffff169150604084015160801c90509193909250565b600082825260208201905092915050565b7f476f7665726e6f723a206d7573742073656e6420746f206578656375746f7200600082015250565b6000616860601f83616819565b915061686b8261682a565b602082019050919050565b6000602082019050818103600083015261688f81616853565b9050919050565b6000604051905090565b600080fd5b600080fd5b6000819050919050565b6168bd816168aa565b81146168c857600080fd5b50565b6000813590506168da816168b4565b92915050565b6000602082840312156168f6576168f56168a0565b5b6000616904848285016168cb565b91505092915050565b600073ffffffffffffffffffffffffffffffffffffffff82169050919050565b60006169388261690d565b9050919050565b6169488161692d565b82525050565b600064ffffffffff82169050919050565b6169688161694e565b82525050565b60008115159050919050565b6169838161696e565b82525050565b600060a08201905061699e600083018861693f565b6169ab602083018761695f565b6169b8604083018661695f565b6169c5606083018561697a565b6169d2608083018461697a565b9695505050505050565b60007fffffffff0000000000000000000000000000000000000000000000000000000082169050919050565b616a11816169dc565b8114616a1c57600080fd5b50565b600081359050616a2e81616a08565b92915050565b600060208284031215616a4a57616a496168a0565b5b6000616a5884828501616a1f565b91505092915050565b6000602082019050616a76600083018461697a565b92915050565b616a85816168aa565b82525050565b6000602082019050616aa06000830184616a7c565b92915050565b600060ff82169050919050565b616abc81616aa6565b8114616ac757600080fd5b50565b600081359050616ad981616ab3565b92915050565b600080fd5b600080fd5b600080fd5b60008083601f840112616b0457616b03616adf565b5b8235905067ffffffffffffffff811115616b2157616b20616ae4565b5b602083019150836001820283011115616b3d57616b3c616ae9565b5b9250929050565b600080fd5b6000601f19601f8301169050919050565b7f4e487b7100000000000000000000000000000000000000000000000000000000600052604160045260246000fd5b616b9282616b49565b810181811067ffffffffffffffff82111715616bb157616bb0616b5a565b5b80604052505050565b6000616bc4616896565b9050616bd08282616b89565b919050565b600067ffffffffffffffff821115616bf057616bef616b5a565b5b616bf982616b49565b9050602081019050919050565b82818337600083830152505050565b6000616c28616c2384616bd5565b616bba565b905082815260208101848484011115616c4457616c43616b44565b5b616c4f848285616c06565b509392505050565b600082601f830112616c6c57616c6b616adf565b5b8135616c7c848260208601616c15565b91505092915050565b6000819050919050565b616c9881616c85565b8114616ca357600080fd5b50565b600081359050616cb581616c8f565b92915050565b60008060008060008060008060e0898b031215616cdb57616cda6168a0565b5b6000616ce98b828c016168cb565b9850506020616cfa8b828c01616aca565b975050604089013567ffffffffffffffff811115616d1b57616d1a6168a5565b5b616d278b828c01616aee565b9650965050606089013567ffffffffffffffff811115616d4a57616d496168a5565b5b616d568b828c01616c57565b9450506080616d678b828c01616aca565b93505060a0616d788b828c01616ca6565b92505060c0616d898b828c01616ca6565b9150509295985092959890939650565b600081519050919050565b60005b83811015616dc2578082015181840152602081019050616da7565b60008484015250505050565b6000616dd982616d99565b616de38185616819565b9350616df3818560208601616da4565b616dfc81616b49565b840191505092915050565b60006020820190508181036000830152616e218184616dce565b905092915050565b60008083601f840112616e3f57616e3e616adf565b5b8235905067ffffffffffffffff811115616e5c57616e5b616ae4565b5b602083019150836020820283011115616e7857616e77616ae9565b5b9250929050565b60008083601f840112616e9557616e94616adf565b5b8235905067ffffffffffffffff811115616eb257616eb1616ae4565b5b602083019150836020820283011115616ece57616ecd616ae9565b5b9250929050565b60008083601f840112616eeb57616eea616adf565b5b8235905067ffffffffffffffff811115616f0857616f07616ae4565b5b602083019150836020820283011115616f2457616f23616ae9565b5b9250929050565b60008060008060008060608789031215616f4857616f476168a0565b5b600087013567ffffffffffffffff811115616f6657616f656168a5565b5b616f7289828a01616e29565b9650965050602087013567ffffffffffffffff811115616f9557616f946168a5565b5b616fa189828a01616e7f565b9450945050604087013567ffffffffffffffff811115616fc457616fc36168a5565b5b616fd089828a01616ed5565b92509250509295509295509295565b600081519050919050565b600082825260208201905092915050565b6000819050602082019050919050565b617014816168aa565b82525050565b6000617026838361700b565b60208301905092915050565b6000602082019050919050565b600061704a82616fdf565b6170548185616fea565b935061705f83616ffb565b8060005b83811015617090578151617077888261701a565b975061708283617032565b925050600181019050617063565b5085935050505092915050565b600060208201905081810360008301526170b7818461703f565b905092915050565b60006020820190506170d4600083018461693f565b92915050565b6170e38161692d565b81146170ee57600080fd5b50565b600081359050617100816170da565b92915050565b600080600080608085870312156171205761711f6168a0565b5b600061712e878288016170f1565b945050602061713f878288016170f1565b9350506040617150878288016168cb565b925050606085013567ffffffffffffffff811115617171576171706168a5565b5b61717d87828801616c57565b91505092959194509250565b617192816169dc565b82525050565b60006020820190506171ad6000830184617189565b92915050565b6000602082840312156171c9576171c86168a0565b5b60006171d7848285016170f1565b91505092915050565b600067ffffffffffffffff8211156171fb576171fa616b5a565b5b602082029050602081019050919050565b600061721f61721a846171e0565b616bba565b9050808382526020820190506020840283018581111561724257617241616ae9565b5b835b8181101561726b578061725788826170f1565b845260208401935050602081019050617244565b5050509392505050565b600082601f83011261728a57617289616adf565b5b813561729a84826020860161720c565b91505092915050565b600067ffffffffffffffff8211156172be576172bd616b5a565b5b602082029050602081019050919050565b60006172e26172dd846172a3565b616bba565b9050808382526020820190506020840283018581111561730557617304616ae9565b5b835b8181101561732e578061731a88826168cb565b845260208401935050602081019050617307565b5050509392505050565b600082601f83011261734d5761734c616adf565b5b813561735d8482602086016172cf565b91505092915050565b600067ffffffffffffffff82111561738157617380616b5a565b5b602082029050602081019050919050565b60006173a56173a084617366565b616bba565b905080838252602082019050602084028301858111156173c8576173c7616ae9565b5b835b8181101561740f57803567ffffffffffffffff8111156173ed576173ec616adf565b5b8086016173fa8982616c57565b855260208501945050506020810190506173ca565b5050509392505050565b600082601f83011261742e5761742d616adf565b5b813561743e848260208601617392565b91505092915050565b60008060008060808587031215617461576174606168a0565b5b600085013567ffffffffffffffff81111561747f5761747e6168a5565b5b61748b87828801617275565b945050602085013567ffffffffffffffff8111156174ac576174ab6168a5565b5b6174b887828801617338565b935050604085013567ffffffffffffffff8111156174d9576174d86168a5565b5b6174e587828801617419565b92505060606174f687828801616ca6565b91505092959194509250565b61750b81616c85565b82525050565b60006020820190506175266000830184617502565b92915050565b60008060408385031215617543576175426168a0565b5b6000617551858286016168cb565b9250506020617562858286016170f1565b9150509250929050565b60006fffffffffffffffffffffffffffffffff82169050919050565b6175918161756c565b82525050565b60006020820190506175ac6000830184617588565b92915050565b600080600080600060a086880312156175ce576175cd6168a0565b5b60006175dc888289016168cb565b95505060206175ed88828901616aca565b94505060406175fe88828901616aca565b935050606061760f88828901616ca6565b925050608061762088828901616ca6565b9150509295509295909350565b7f4e487b7100000000000000000000000000000000000000000000000000000000600052602160045260246000fd5b6008811061766d5761766c61762d565b5b50565b600081905061767e8261765c565b919050565b600061768e82617670565b9050919050565b61769e81617683565b82525050565b60006020820190506176b96000830184617695565b92915050565b6000819050919050565b60006176e46176df6176da8461690d565b6176bf565b61690d565b9050919050565b60006176f6826176c9565b9050919050565b6000617708826176eb565b9050919050565b617718816176fd565b82525050565b6000602082019050617733600083018461770f565b92915050565b600060608201905061774e6000830186616a7c565b61775b6020830185616a7c565b6177686040830184616a7c565b949350505050565b60008060408385031215617787576177866168a0565b5b6000617795858286016168cb565b92505060206177a685828601616aca565b9150509250929050565b600080604083850312156177c7576177c66168a0565b5b60006177d5858286016170f1565b92505060206177e6858286016168cb565b9150509250929050565b60008060008060006080868803121561780c5761780b6168a0565b5b600061781a888289016168cb565b955050602061782b88828901616aca565b945050604086013567ffffffffffffffff81111561784c5761784b6168a5565b5b61785888828901616aee565b9350935050606086013567ffffffffffffffff81111561787b5761787a6168a5565b5b61788788828901616c57565b9150509295509295909350565b60008083601f8401126178aa576178a9616adf565b5b8235905067ffffffffffffffff8111156178c7576178c6616ae4565b5b6020830191508360208202830111156178e3576178e2616ae9565b5b9250929050565b60008083601f840112617900576178ff616adf565b5b8235905067ffffffffffffffff81111561791d5761791c616ae4565b5b60208301915083602082028301111561793957617938616ae9565b5b9250929050565b6000806000806040858703121561795a576179596168a0565b5b600085013567ffffffffffffffff811115617978576179776168a5565b5b61798487828801617894565b9450945050602085013567ffffffffffffffff8111156179a7576179a66168a5565b5b6179b3878288016178ea565b925092505092959194509250565b600080600080606085870312156179db576179da6168a0565b5b60006179e9878288016168cb565b94505060206179fa87828801616aca565b935050604085013567ffffffffffffffff811115617a1b57617a1a6168a5565b5b617a2787828801616aee565b925092505092959194509250565b600067ffffffffffffffff821115617a5057617a4f616b5a565b5b617a5982616b49565b9050602081019050919050565b6000617a79617a7484617a35565b616bba565b905082815260208101848484011115617a9557617a94616b44565b5b617aa0848285616c06565b509392505050565b600082601f830112617abd57617abc616adf565b5b8135617acd848260208601617a66565b91505092915050565b60008060008060808587031215617af057617aef6168a0565b5b600085013567ffffffffffffffff811115617b0e57617b0d6168a5565b5b617b1a87828801617275565b945050602085013567ffffffffffffffff811115617b3b57617b3a6168a5565b5b617b4787828801617338565b935050604085013567ffffffffffffffff811115617b6857617b676168a5565b5b617b7487828801617419565b925050606085013567ffffffffffffffff811115617b9557617b946168a5565b5b617ba187828801617aa8565b91505092959194509250565b60008060208385031215617bc457617bc36168a0565b5b600083013567ffffffffffffffff811115617be257617be16168a5565b5b617bee85828601616e29565b92509250509250929050565b60007fff0000000000000000000000000000000000000000000000000000000000000082169050919050565b617c2f81617bfa565b82525050565b600060e082019050617c4a600083018a617c26565b8181036020830152617c5c8189616dce565b90508181036040830152617c708188616dce565b9050617c7f6060830187616a7c565b617c8c608083018661693f565b617c9960a0830185617502565b81810360c0830152617cab818461703f565b905098975050505050505050565b600065ffffffffffff82169050919050565b617cd481617cb9565b82525050565b6000602082019050617cef6000830184617ccb565b92915050565b600080600060608486031215617d0e57617d0d6168a0565b5b6000617d1c868287016170f1565b9350506020617d2d868287016168cb565b925050604084013567ffffffffffffffff811115617d4e57617d4d6168a5565b5b617d5a86828701616c57565b9150509250925092565b600080fd5b60006101408284031215617d8057617d7f617d64565b5b81905092915050565b60008083601f840112617d9f57617d9e616adf565b5b8235905067ffffffffffffffff811115617dbc57617dbb616ae4565b5b602083019150836001820283011115617dd857617dd7616ae9565b5b9250929050565b60008060008060608587031215617df957617df86168a0565b5b6000617e07878288016170f1565b945050602085013567ffffffffffffffff811115617e2857617e276168a5565b5b617e3487828801617d69565b935050604085013567ffffffffffffffff811115617e5557617e546168a5565b5b617e6187828801617d89565b925092505092959194509250565b600080600060408486031215617e8857617e876168a0565b5b6000617e96868287016170f1565b935050602084013567ffffffffffffffff811115617eb757617eb66168a5565b5b617ec386828701617d89565b92509250509250925092565b600080600080600060a08688031215617eeb57617eea6168a0565b5b6000617ef9888289016170f1565b9550506020617f0a888289016170f1565b945050604086013567ffffffffffffffff811115617f2b57617f2a6168a5565b5b617f3788828901617338565b935050606086013567ffffffffffffffff811115617f5857617f576168a5565b5b617f6488828901617338565b925050608086013567ffffffffffffffff811115617f8557617f846168a5565b5b617f9188828901616c57565b9150509295509295909350565b60008060008060608587031215617fb857617fb76168a0565b5b6000617fc6878288016170f1565b9450506020617fd7878288016168cb565b935050604085013567ffffffffffffffff811115617ff857617ff76168a5565b5b61800487828801617d89565b925092505092959194509250565b600080600080600060a0868803121561802e5761802d6168a0565b5b600061803c888289016170f1565b955050602061804d888289016170f1565b945050604061805e888289016168cb565b935050606061806f888289016168cb565b925050608086013567ffffffffffffffff8111156180905761808f6168a5565b5b61809c88828901616c57565b9150509295509295909350565b60006180b4826176eb565b9050919050565b6180c4816180a9565b82525050565b60006020820190506180df60008301846180bb565b92915050565b7f4e487b7100000000000000000000000000000000000000000000000000000000600052602260045260246000fd5b6000600282049050600182168061812c57607f821691505b60208210810361813f5761813e6180e5565b5b50919050565b7f4e487b7100000000000000000000000000000000000000000000000000000000600052603260045260246000fd5b600080fd5b600080fd5b600080fd5b600082356001610140038336030381126181a05761819f618174565b5b80830191505092915050565b600080833560016020038436030381126181c9576181c8618174565b5b80840192508235915067ffffffffffffffff8211156181eb576181ea618179565b5b6020830192506001820236038313156182075761820661817e565b5b509250929050565b7f4e487b7100000000000000000000000000000000000000000000000000000000600052601160045260246000fd5b6000618249826168aa565b91507fffffffffffffffffffffffffffffffffffffffffffffffffffffffffffffffff820361827b5761827a61820f565b5b600182019050919050565b7f476f7665726e6f723a2070726f706f73616c206e6f742073756363657373667560008201527f6c00000000000000000000000000000000000000000000000000000000000000602082015250565b60006182e2602183616819565b91506182ed82618286565b604082019050919050565b60006020820190508181036000830152618311816182d5565b9050919050565b61832181616aa6565b82525050565b600060608201905061833c6000830186617502565b6183496020830185616a7c565b6183566040830184618318565b949350505050565b7f476f7665726e6f723a20756e6b6e6f776e2070726f706f73616c206964000000600082015250565b6000618394601d83616819565b915061839f8261835e565b602082019050919050565b600060208201905081810360008301526183c381618387565b9050919050565b60006183dd6183d884617a35565b616bba565b9050828152602081018484840111156183f9576183f8616b44565b5b618404848285616da4565b509392505050565b600082601f83011261842157618420616adf565b5b81516184318482602086016183ca565b91505092915050565b6000602082840312156184505761844f6168a0565b5b600082015167ffffffffffffffff81111561846e5761846d6168a5565b5b61847a8482850161840c565b91505092915050565b6000604082019050618498600083018561693f565b6184a56020830184617502565b9392505050565b6000815190506184bb816168b4565b92915050565b6000602082840312156184d7576184d66168a0565b5b60006184e5848285016184ac565b91505092915050565b60006184f9826168aa565b9150618504836168aa565b925082820390508181111561851c5761851b61820f565b5b92915050565b600060208284031215618538576185376168a0565b5b600061854684828501616aca565b91505092915050565b61855881617cb9565b811461856357600080fd5b50565b6000815190506185758161854f565b92915050565b600060208284031215618591576185906168a0565b5b600061859f84828501618566565b91505092915050565b600080fd5b600080fd5b600281106185bf57600080fd5b50565b6000813590506185d1816185b2565b92915050565b600061014082840312156185ee576185ed6185a8565b5b6185f9610140616bba565b90506000618609848285016170f1565b600083015250602061861d848285016168cb565b602083015250604082013567ffffffffffffffff811115618641576186406185ad565b5b61864d84828501616c57565b6040830152506060618661848285016185c2565b6060830152506080618675848285016168cb565b60808301525060a0618689848285016168cb565b60a08301525060c061869d848285016168cb565b60c08301525060e06186b1848285016170f1565b60e0830152506101006186c6848285016170f1565b610100830152506101206186dc848285016168cb565b6101208301525092915050565b60006186f536836185d7565b9050919050565b600082825260208201905092915050565b600061871983856186fc565b9350618726838584616c06565b61872f83616b49565b840190509392505050565b600060808201905061874f6000830189617502565b818103602083015261876281878961870d565b9050818103604083015261877781858761870d565b90506187866060830184616a7c565b979650505050505050565b6000819050919050565b60006187b66187b16187ac84618791565b6176bf565b6168aa565b9050919050565b6187c68161879b565b82525050565b50565b60006187dc6000836186fc565b91506187e7826187cc565b600082019050919050565b600281106188035761880261762d565b5b50565b6000819050618814826187f2565b919050565b600061882482618806565b9050919050565b61883481618819565b82525050565b6000618845826176eb565b9050919050565b6188558161883a565b82525050565b600061014082019050618871600083018c61693f565b61887e602083018b6187bd565b818103604083015261888f816187cf565b905061889e606083018a61882b565b6188ab60808301896187bd565b6188b860a08301886187bd565b6188c560c08301876187bd565b6188d260e083018661693f565b6188e061010083018561884c565b6188ee610120830184616a7c565b9a9950505050505050505050565b60008151905061890b81616c8f565b92915050565b600060208284031215618927576189266168a0565b5b6000618935848285016188fc565b91505092915050565b60006080820190506189536000830187617502565b8181036020830152618964816187cf565b9050818103604083015261897981858761870d565b90506189886060830184616a7c565b95945050505050565b600081519050919050565b600082825260208201905092915050565b6000819050602082019050919050565b6189c68161692d565b82525050565b60006189d883836189bd565b60208301905092915050565b6000602082019050919050565b60006189fc82618991565b618a06818561899c565b9350618a11836189ad565b8060005b83811015618a42578151618a2988826189cc565b9750618a34836189e4565b925050600181019050618a15565b5085935050505092915050565b600081519050919050565b600082825260208201905092915050565b6000819050602082019050919050565b600081519050919050565b600082825260208201905092915050565b6000618aa282618a7b565b618aac8185618a86565b9350618abc818560208601616da4565b618ac581616b49565b840191505092915050565b6000618adc8383618a97565b905092915050565b6000602082019050919050565b6000618afc82618a4f565b618b068185618a5a565b935083602082028501618b1885618a6b565b8060005b85811015618b545784840389528151618b358582618ad0565b9450618b4083618ae4565b925060208a01995050600181019050618b1c565b50829750879550505050505092915050565b60006080820190508181036000830152618b8081876189f1565b90508181036020830152618b94818661703f565b90508181036040830152618ba88185618af1565b9050618bb76060830184617502565b95945050505050565b6000618bcb826168aa565b9150618bd6836168aa565b9250828202618be4816168aa565b91508282048414831517618bfb57618bfa61820f565b5b5092915050565b7f4e487b7100000000000000000000000000000000000000000000000000000000600052601260045260246000fd5b6000618c3c826168aa565b9150618c47836168aa565b925082618c5757618c56618c02565b5b828204905092915050565b6000606082019050618c77600083018661693f565b618c846020830185616a7c565b618c916040830184616a7c565b949350505050565b7f476f7665726e6f72436f756e74696e674672616374696f6e616c3a20696e766160008201527f6c696420706172616d7320666f72207369676e61747572652d6261736564207660208201527f6f74650000000000000000000000000000000000000000000000000000000000604082015250565b6000618d1b604383616819565b9150618d2682618c99565b606082019050919050565b60006020820190508181036000830152618d4a81618d0e565b9050919050565b600081905092915050565b6000618d688385618d51565b9350618d75838584616c06565b82840190509392505050565b6000618d8e828486618d5c565b91508190509392505050565b600060a082019050618daf6000830188617502565b618dbc6020830187616a7c565b618dc96040830186618318565b618dd66060830185617502565b618de36080830184617502565b9695505050505050565b7f476f7665726e6f72436f756e74696e674672616374696f6e616c3a207369676e60008201527f61747572652068617320616c7265616479206265656e20757365640000000000602082015250565b6000618e49603b83616819565b9150618e5482618ded565b604082019050919050565b60006020820190508181036000830152618e7881618e3c565b9050919050565b6000618e8a8261756c565b91506fffffffffffffffffffffffffffffffff8203618eac57618eab61820f565b5b600182019050919050565b7f476f7665726e6f72566f74657351756f72756d4672616374696f6e3a2071756f60008201527f72756d4e756d657261746f72206f7665722071756f72756d44656e6f6d696e6160208201527f746f720000000000000000000000000000000000000000000000000000000000604082015250565b6000618f39604383616819565b9150618f4482618eb7565b606082019050919050565b60006020820190508181036000830152618f6881618f2c565b9050919050565b6000604082019050618f846000830185616a7c565b618f916020830184616a7c565b9392505050565b6000618fa382618a7b565b618fad8185618d51565b9350618fbd818560208601616da4565b80840191505092915050565b6000618fd58284618f98565b915081905092915050565b6000618feb826168aa565b9150618ff6836168aa565b925082820190508082111561900e5761900d61820f565b5b92915050565b600061901f82618a7b565b61902981856186fc565b9350619039818560208601616da4565b61904281616b49565b840191505092915050565b600061014082019050619063600083018d61693f565b619070602083018c616a7c565b8181036040830152619082818b619014565b9050619091606083018a61882b565b61909e6080830189616a7c565b6190ab60a0830188616a7c565b6190b860c0830187616a7c565b6190c560e083018661693f565b6190d361010083018561693f565b6190e1610120830184616a7c565b9b9a5050505050505050505050565b7f476f7665726e6f723a20766f7465206e6f742063757272656e746c792061637460008201527f6976650000000000000000000000000000000000000000000000000000000000602082015250565b600061914c602383616819565b9150619157826190f0565b604082019050919050565b6000602082019050818103600083015261917b8161913f565b9050919050565b60006080820190506191976000830187616a7c565b6191a46020830186618318565b6191b16040830185616a7c565b81810360608301526191c38184616dce565b905095945050505050565b600060a0820190506191e36000830188616a7c565b6191f06020830187618318565b6191fd6040830186616a7c565b818103606083015261920f8185616dce565b905081810360808301526192238184619014565b90509695505050505050565b7f53616665436173743a2076616c756520646f65736e27742066697420696e203360008201527f3220626974730000000000000000000000000000000000000000000000000000602082015250565b600061928b602683616819565b91506192968261922f565b604082019050919050565b600060208201905081810360008301526192ba8161927e565b9050919050565b7f53616665436173743a2076616c756520646f65736e27742066697420696e203460008201527f3820626974730000000000000000000000000000000000000000000000000000602082015250565b600061931d602683616819565b9150619328826192c1565b604082019050919050565b6000602082019050818103600083015261934c81619310565b9050919050565b6000604082019050619368600083018561693f565b6193756020830184616a7c565b9392505050565b6000604082019050619391600083018561693f565b61939e602083018461693f565b9392505050565b7f476f7665726e6f723a20696e76616c69642070726f706f73616c206c656e677460008201527f6800000000000000000000000000000000000000000000000000000000000000602082015250565b6000619401602183616819565b915061940c826193a5565b604082019050919050565b60006020820190508181036000830152619430816193f4565b9050919050565b7f476f7665726e6f723a20656d7074792070726f706f73616c0000000000000000600082015250565b600061946d601883616819565b915061947882619437565b602082019050919050565b6000602082019050818103600083015261949c81619460565b9050919050565b7f476f7665726e6f723a2070726f706f73616c20616c726561647920657869737460008201527f7300000000000000000000000000000000000000000000000000000000000000602082015250565b60006194ff602183616819565b915061950a826194a3565b604082019050919050565b6000602082019050818103600083015261952e816194f2565b9050919050565b600081519050919050565b600082825260208201905092915050565b6000819050602082019050919050565b600082825260208201905092915050565b600061957d82616d99565b6195878185619561565b9350619597818560208601616da4565b6195a081616b49565b840191505092915050565b60006195b78383619572565b905092915050565b6000602082019050919050565b60006195d782619535565b6195e18185619540565b9350836020820285016195f385619551565b8060005b8581101561962f578484038952815161961085826195ab565b945061961b836195bf565b925060208a019950506001810190506195f7565b50829750879550505050505092915050565b600061012082019050619657600083018c616a7c565b619664602083018b61693f565b8181036040830152619676818a6189f1565b9050818103606083015261968a818961703f565b9050818103608083015261969e81886195cc565b905081810360a08301526196b28187618af1565b90506196c160c0830186616a7c565b6196ce60e0830185616a7c565b8181036101008301526196e18184616dce565b90509a9950505050505050505050565b7f476f7665726e6f7253657474696e67733a20766f74696e6720706572696f642060008201527f746f6f206c6f7700000000000000000000000000000000000000000000000000602082015250565b600061974d602783616819565b9150619758826196f1565b604082019050919050565b6000602082019050818103600083015261977c81619740565b9050919050565b7f53616665436173743a2076616c756520646f65736e27742066697420696e203260008201527f3234206269747300000000000000000000000000000000000000000000000000602082015250565b60006197df602783616819565b91506197ea82619783565b604082019050919050565b6000602082019050818103600083015261980e816197d2565b9050919050565b600060808201905061982a6000830187617502565b6198376020830186618318565b6198446040830185617502565b6198516060830184617502565b95945050505050565b7f45434453413a20696e76616c6964207369676e61747572650000000000000000600082015250565b6000619890601883616819565b915061989b8261985a565b602082019050919050565b600060208201905081810360008301526198bf81619883565b9050919050565b7f45434453413a20696e76616c6964207369676e6174757265206c656e67746800600082015250565b60006198fc601f83616819565b9150619907826198c6565b602082019050919050565b6000602082019050818103600083015261992b816198ef565b9050919050565b7f45434453413a20696e76616c6964207369676e6174757265202773272076616c60008201527f7565000000000000000000000000000000000000000000000000000000000000602082015250565b600061998e602283616819565b915061999982619932565b604082019050919050565b600060208201905081810360008301526199bd81619981565b9050919050565b7f476f7665726e6f72436f756e74696e674672616374696f6e616c3a206e6f207760008201527f6569676874000000000000000000000000000000000000000000000000000000602082015250565b6000619a20602583616819565b9150619a2b826199c4565b604082019050919050565b60006020820190508181036000830152619a4f81619a13565b9050919050565b7f476f7665726e6f72436f756e74696e674672616374696f6e616c3a20616c6c2060008201527f7765696768742063617374000000000000000000000000000000000000000000602082015250565b6000619ab2602b83616819565b9150619abd82619a56565b604082019050919050565b60006020820190508181036000830152619ae181619aa5565b9050919050565b7f436865636b706f696e743a2064656372656173696e67206b6579730000000000600082015250565b6000619b1e601b83616819565b9150619b2982619ae8565b602082019050919050565b60006020820190508181036000830152619b4d81619b11565b9050919050565b600060a082019050619b696000830188617502565b619b766020830187617502565b619b836040830186617502565b619b906060830185616a7c565b619b9d608083018461693f565b9695505050505050565b7f53616665436173743a2076616c756520646f65736e27742066697420696e203160008201527f3238206269747300000000000000000000000000000000000000000000000000602082015250565b6000619c03602783616819565b9150619c0e82619ba7565b604082019050919050565b60006020820190508181036000830152619c3281619bf6565b9050919050565b7f476f7665726e6f72436f756e74696e674672616374696f6e616c3a20766f746560008201527f20776f756c642065786365656420776569676874000000000000000000000000602082015250565b6000619c95603483616819565b9150619ca082619c39565b604082019050919050565b60006020820190508181036000830152619cc481619c88565b9050919050565b6000619cd68261756c565b9150619ce18361756c565b925082820190506fffffffffffffffffffffffffffffffff811115619d0957619d0861820f565b5b92915050565b7f476f7665726e6f72436f756e74696e674672616374696f6e616c3a20696e766160008201527f6c696420737570706f72742076616c75652c206d75737420626520696e636c7560208201527f64656420696e20566f74655479706520656e756d000000000000000000000000604082015250565b6000619d91605483616819565b9150619d9c82619d0f565b606082019050919050565b60006020820190508181036000830152619dc081619d84565b9050919050565b7f476f7665726e6f72436f756e74696e674672616374696f6e616c3a20696e766160008201527f6c696420766f7465446174610000000000000000000000000000000000000000602082015250565b6000619e23602c83616819565b9150619e2e82619dc7565b604082019050919050565b60006020820190508181036000830152619e5281619e16565b905091905056fe476f7665726e6f723a2063616c6c20726576657274656420776974686f7574206d657373616765737570706f72743d627261766f2671756f72756d3d616761696e73742c6162737461696e2671756f72756d3d666f722c6162737461696e26706172616d733d6672616374696f6e616ca164736f6c6343000813000a",
    "linkReferences": {}
  },
  "methodIdentifiers": {
    "$gnosisSafeToNonceToTxHash(address,uint256)": "c1de4eed",
    "$safeAllowlist(address)": "4571969b",
    "$safeVotingPeriod(address)": "2214a33f",
    "$snapshotTimestampToSnapshotBlockNumber(uint256)": "d914e172",
    "$votingDelayBlocks()": "a89f2638",
    "BALLOT_TYPEHASH()": "deaaa7cc",
    "CLOCK_MODE()": "4bf5d7e9",
    "COUNTING_MODE()": "dd4e2ba5",
    "EXTENDED_BALLOT_TYPEHASH()": "2fe3e261",
    "TIMELOCK_CONTROLLER()": "5d049c0a",
    "VE_FXS()": "506d1f81",
    "abortTransaction(address,bytes)": "b12c3277",
    "addSafesToAllowlist(address[])": "82d304ab",
    "addTransaction(address,(address,uint256,bytes,uint8,uint256,uint256,uint256,address,address,uint256),bytes)": "b021d2c3",
    "batchAddTransaction(address[],(address,uint256,bytes,uint8,uint256,uint256,uint256,address,address,uint256)[],bytes[])": "072c8e0d",
    "bulkCastVote(uint256[],uint8[])": "77d76602",
    "cancel(address[],uint256[],bytes[],bytes32)": "452115d6",
    "castVote(uint256,uint8)": "56781388",
    "castVoteBySig(uint256,uint8,uint8,bytes32,bytes32)": "3bccf4fd",
    "castVoteWithReason(uint256,uint8,string)": "7b3c71d3",
    "castVoteWithReasonAndParams(uint256,uint8,string,bytes)": "5f398a14",
    "castVoteWithReasonAndParamsBySig(uint256,uint8,string,bytes,uint8,bytes32,bytes32)": "03420181",
    "clock()": "91ddadf4",
    "eip712Domain()": "84b0196e",
    "execute(address[],uint256[],bytes[],bytes32)": "2656227d",
    "fractionalVoteNonce(address)": "df482caf",
    "getVotes(address,uint256)": "eb9019d4",
    "getVotesWithParams(address,uint256,bytes)": "9a802a6d",
    "hasVoted(uint256,address)": "43859632",
    "hashProposal(address[],uint256[],bytes[],bytes32)": "c59057e4",
    "name()": "06fdde03",
    "onERC1155BatchReceived(address,address,uint256[],uint256[],bytes)": "bc197c81",
    "onERC1155Received(address,address,uint256,uint256,bytes)": "f23a6e61",
    "onERC721Received(address,address,uint256,bytes)": "150b7a02",
    "proposalDeadline(uint256)": "c01f9e37",
    "proposalProposer(uint256)": "143489d0",
    "proposalSnapshot(uint256)": "2d63f693",
    "proposalThreshold()": "b58131b0",
    "proposalVotes(uint256)": "544ffc9c",
    "proposals(uint256)": "013cf08b",
    "propose(address[],uint256[],bytes[],string)": "7d5e81e2",
    "quorum(uint256)": "f8ce560a",
    "quorumDenominator()": "97c3d334",
    "quorumNumerator()": "a7713a70",
    "quorumNumerator(uint256)": "60c4247f",
    "rejectTransaction(address,uint256)": "5c085589",
    "relay(address,uint256,bytes)": "c28bc2fa",
    "removeSafesFromAllowlist(address[])": "8d124e47",
    "setProposalThreshold(uint256)": "ece40cc1",
    "setSafeVotingPeriod(address,uint256)": "f8cc2e3c",
    "setVeFxsVotingDelegation(address)": "aa75a3c2",
    "setVotingDelay(uint256)": "70b0f660",
    "setVotingDelayBlocks(uint256)": "64cda3d4",
    "setVotingPeriod(uint256)": "ea0217cf",
    "shortCircuitNumerator()": "ccb8370b",
    "shortCircuitNumerator(uint256)": "dfc3c9e7",
    "shortCircuitThreshold(uint256)": "ec2de58b",
    "state(uint256)": "3e4f49e6",
    "supportsInterface(bytes4)": "01ffc9a7",
    "token()": "fc0c546a",
    "updateQuorumNumerator(uint256)": "06f3f9e6",
    "updateShortCircuitNumerator(uint256)": "43ec3e09",
    "version()": "54fd4d50",
    "voteWeightCast(uint256,address)": "342cfab6",
    "votingDelay()": "3932abb1",
    "votingPeriod()": "02a251a3"
  },
  "id": 86
}