{
  "abi": [
    {
      "inputs": [
        {
          "internalType": "address",
          "name": "fraxGovernorOmega",
          "type": "address"
        }
      ],
      "stateMutability": "nonpayable",
      "type": "constructor"
    },
    {
      "inputs": [],
      "name": "Unauthorized",
      "type": "error"
    },
    {
      "inputs": [],
      "name": "FRAX_GOVERNOR_OMEGA_ADDRESS",
      "outputs": [
        {
          "internalType": "address",
          "name": "",
          "type": "address"
        }
      ],
      "stateMutability": "view",
      "type": "function"
    },
    {
      "inputs": [
        {
          "internalType": "bytes32",
          "name": "",
          "type": "bytes32"
        },
        {
          "internalType": "bool",
          "name": "",
          "type": "bool"
        }
      ],
      "name": "checkAfterExecution",
      "outputs": [],
      "stateMutability": "nonpayable",
      "type": "function"
    },
    {
      "inputs": [
        {
          "internalType": "address",
          "name": "to",
          "type": "address"
        },
        {
          "internalType": "uint256",
          "name": "value",
          "type": "uint256"
        },
        {
          "internalType": "bytes",
          "name": "data",
          "type": "bytes"
        },
        {
          "internalType": "enum Enum.Operation",
          "name": "operation",
          "type": "uint8"
        },
        {
          "internalType": "uint256",
          "name": "safeTxGas",
          "type": "uint256"
        },
        {
          "internalType": "uint256",
          "name": "baseGas",
          "type": "uint256"
        },
        {
          "internalType": "uint256",
          "name": "gasPrice",
          "type": "uint256"
        },
        {
          "internalType": "address",
          "name": "gasToken",
          "type": "address"
        },
        {
          "internalType": "address payable",
          "name": "refundReceiver",
          "type": "address"
        },
        {
          "internalType": "bytes",
          "name": "",
          "type": "bytes"
        },
        {
          "internalType": "address",
          "name": "msgSender",
          "type": "address"
        }
      ],
      "name": "checkTransaction",
      "outputs": [],
      "stateMutability": "nonpayable",
      "type": "function"
    },
    {
      "inputs": [
        {
          "internalType": "bytes4",
          "name": "interfaceId",
          "type": "bytes4"
        }
      ],
      "name": "supportsInterface",
      "outputs": [
        {
          "internalType": "bool",
          "name": "",
          "type": "bool"
        }
      ],
      "stateMutability": "view",
      "type": "function"
    }
  ],
  "bytecode": {
    "object": "0x60a060405234801561001057600080fd5b50604051610de5380380610de5833981810160405281019061003291906100cf565b8073ffffffffffffffffffffffffffffffffffffffff1660808173ffffffffffffffffffffffffffffffffffffffff1681525050506100fc565b600080fd5b600073ffffffffffffffffffffffffffffffffffffffff82169050919050565b600061009c82610071565b9050919050565b6100ac81610091565b81146100b757600080fd5b50565b6000815190506100c9816100a3565b92915050565b6000602082840312156100e5576100e461006c565b5b60006100f3848285016100ba565b91505092915050565b608051610cc761011e6000396000818161035d01526104280152610cc76000f3fe608060405234801561001057600080fd5b506004361061004c5760003560e01c806301ffc9a71461005157806375f0bb52146100815780637a76fa4a1461009d57806393271368146100bb575b600080fd5b61006b600480360381019061006691906104ba565b6100d7565b6040516100789190610502565b60405180910390f35b61009b6004803603810190610096919061075a565b6101a9565b005b6100a5610426565b6040516100b29190610895565b60405180910390f35b6100d560048036038101906100d09190610912565b61044a565b005b60007fe6d7a83a000000000000000000000000000000000000000000000000000000007bffffffffffffffffffffffffffffffffffffffffffffffffffffffff1916827bffffffffffffffffffffffffffffffffffffffffffffffffffffffff191614806101a257507f01ffc9a7000000000000000000000000000000000000000000000000000000007bffffffffffffffffffffffffffffffffffffffffffffffffffffffff1916827bffffffffffffffffffffffffffffffffffffffffffffffffffffffff1916145b9050919050565b600033905060008173ffffffffffffffffffffffffffffffffffffffff1663d8d11f788e8e8e8e8e8e8e8e8e60018d73ffffffffffffffffffffffffffffffffffffffff1663affed0e06040518163ffffffff1660e01b81526004016020604051808303816000875af1158015610224573d6000803e3d6000fd5b505050506040513d601f19601f820116820180604052508101906102489190610967565b61025291906109c3565b6040518b63ffffffff1660e01b81526004016102779a99989796959493929190610b5b565b602060405180830381865afa158015610294573d6000803e3d6000fd5b505050506040513d601f19601f820116820180604052508101906102b89190610c13565b90508173ffffffffffffffffffffffffffffffffffffffff16632f54bf6e846040518263ffffffff1660e01b81526004016102f39190610895565b6020604051808303816000875af1158015610312573d6000803e3d6000fd5b505050506040513d601f19601f820116820180604052508101906103369190610c55565b15806103e0575060018273ffffffffffffffffffffffffffffffffffffffff16637d8329747f0000000000000000000000000000000000000000000000000000000000000000846040518363ffffffff1660e01b815260040161039a929190610c91565b6020604051808303816000875af11580156103b9573d6000803e3d6000fd5b505050506040513d601f19601f820116820180604052508101906103dd9190610967565b14155b15610417576040517f82b4290000000000000000000000000000000000000000000000000000000000815260040160405180910390fd5b50505050505050505050505050565b7f000000000000000000000000000000000000000000000000000000000000000081565b5050565b6000604051905090565b600080fd5b600080fd5b60007fffffffff0000000000000000000000000000000000000000000000000000000082169050919050565b61049781610462565b81146104a257600080fd5b50565b6000813590506104b48161048e565b92915050565b6000602082840312156104d0576104cf610458565b5b60006104de848285016104a5565b91505092915050565b60008115159050919050565b6104fc816104e7565b82525050565b600060208201905061051760008301846104f3565b92915050565b600073ffffffffffffffffffffffffffffffffffffffff82169050919050565b60006105488261051d565b9050919050565b6105588161053d565b811461056357600080fd5b50565b6000813590506105758161054f565b92915050565b6000819050919050565b61058e8161057b565b811461059957600080fd5b50565b6000813590506105ab81610585565b92915050565b600080fd5b600080fd5b6000601f19601f8301169050919050565b7f4e487b7100000000000000000000000000000000000000000000000000000000600052604160045260246000fd5b610604826105bb565b810181811067ffffffffffffffff82111715610623576106226105cc565b5b80604052505050565b600061063661044e565b905061064282826105fb565b919050565b600067ffffffffffffffff821115610662576106616105cc565b5b61066b826105bb565b9050602081019050919050565b82818337600083830152505050565b600061069a61069584610647565b61062c565b9050828152602081018484840111156106b6576106b56105b6565b5b6106c1848285610678565b509392505050565b600082601f8301126106de576106dd6105b1565b5b81356106ee848260208601610687565b91505092915050565b6002811061070457600080fd5b50565b600081359050610716816106f7565b92915050565b60006107278261051d565b9050919050565b6107378161071c565b811461074257600080fd5b50565b6000813590506107548161072e565b92915050565b60008060008060008060008060008060006101608c8e0312156107805761077f610458565b5b600061078e8e828f01610566565b9b5050602061079f8e828f0161059c565b9a505060408c013567ffffffffffffffff8111156107c0576107bf61045d565b5b6107cc8e828f016106c9565b99505060606107dd8e828f01610707565b98505060806107ee8e828f0161059c565b97505060a06107ff8e828f0161059c565b96505060c06108108e828f0161059c565b95505060e06108218e828f01610566565b9450506101006108338e828f01610745565b9350506101208c013567ffffffffffffffff8111156108555761085461045d565b5b6108618e828f016106c9565b9250506101406108738e828f01610566565b9150509295989b509295989b9093969950565b61088f8161053d565b82525050565b60006020820190506108aa6000830184610886565b92915050565b6000819050919050565b6108c3816108b0565b81146108ce57600080fd5b50565b6000813590506108e0816108ba565b92915050565b6108ef816104e7565b81146108fa57600080fd5b50565b60008135905061090c816108e6565b92915050565b6000806040838503121561092957610928610458565b5b6000610937858286016108d1565b9250506020610948858286016108fd565b9150509250929050565b60008151905061096181610585565b92915050565b60006020828403121561097d5761097c610458565b5b600061098b84828501610952565b91505092915050565b7f4e487b7100000000000000000000000000000000000000000000000000000000600052601160045260246000fd5b60006109ce8261057b565b91506109d98361057b565b92508282039050818111156109f1576109f0610994565b5b92915050565b610a008161057b565b82525050565b600081519050919050565b600082825260208201905092915050565b60005b83811015610a40578082015181840152602081019050610a25565b60008484015250505050565b6000610a5782610a06565b610a618185610a11565b9350610a71818560208601610a22565b610a7a816105bb565b840191505092915050565b7f4e487b7100000000000000000000000000000000000000000000000000000000600052602160045260246000fd5b60028110610ac557610ac4610a85565b5b50565b6000819050610ad682610ab4565b919050565b6000610ae682610ac8565b9050919050565b610af681610adb565b82525050565b6000819050919050565b6000610b21610b1c610b178461051d565b610afc565b61051d565b9050919050565b6000610b3382610b06565b9050919050565b6000610b4582610b28565b9050919050565b610b5581610b3a565b82525050565b600061014082019050610b71600083018d610886565b610b7e602083018c6109f7565b8181036040830152610b90818b610a4c565b9050610b9f606083018a610aed565b610bac60808301896109f7565b610bb960a08301886109f7565b610bc660c08301876109f7565b610bd360e0830186610886565b610be1610100830185610b4c565b610bef6101208301846109f7565b9b9a5050505050505050505050565b600081519050610c0d816108ba565b92915050565b600060208284031215610c2957610c28610458565b5b6000610c3784828501610bfe565b91505092915050565b600081519050610c4f816108e6565b92915050565b600060208284031215610c6b57610c6a610458565b5b6000610c7984828501610c40565b91505092915050565b610c8b816108b0565b82525050565b6000604082019050610ca66000830185610886565b610cb36020830184610c82565b939250505056fea164736f6c6343000813000a",
    "linkReferences": {}
  },
  "methodIdentifiers": {
    "FRAX_GOVERNOR_OMEGA_ADDRESS()": "7a76fa4a",
    "checkAfterExecution(bytes32,bool)": "93271368",
    "checkTransaction(address,uint256,bytes,uint8,uint256,uint256,uint256,address,address,bytes,address)": "75f0bb52",
    "supportsInterface(bytes4)": "01ffc9a7"
  },
  "id": 87
}