{
  "abi": [
    {
      "anonymous": false,
      "inputs": [
        {
          "indexed": false,
          "internalType": "contract GnosisSafeProxy",
          "name": "proxy",
          "type": "address"
        },
        {
          "indexed": false,
          "internalType": "address",
          "name": "singleton",
          "type": "address"
        }
      ],
      "name": "ProxyCreation",
      "type": "event"
    },
    {
      "inputs": [
        {
          "internalType": "address",
          "name": "_singleton",
          "type": "address"
        },
        {
          "internalType": "bytes",
          "name": "initializer",
          "type": "bytes"
        },
        {
          "internalType": "uint256",
          "name": "saltNonce",
          "type": "uint256"
        }
      ],
      "name": "calculateCreateProxyWithNonceAddress",
      "outputs": [
        {
          "internalType": "contract GnosisSafeProxy",
          "name": "proxy",
          "type": "address"
        }
      ],
      "stateMutability": "nonpayable",
      "type": "function"
    },
    {
      "inputs": [
        {
          "internalType": "address",
          "name": "singleton",
          "type": "address"
        },
        {
          "internalType": "bytes",
          "name": "data",
          "type": "bytes"
        }
      ],
      "name": "createProxy",
      "outputs": [
        {
          "internalType": "contract GnosisSafeProxy",
          "name": "proxy",
          "type": "address"
        }
      ],
      "stateMutability": "nonpayable",
      "type": "function"
    },
    {
      "inputs": [
        {
          "internalType": "address",
          "name": "_singleton",
          "type": "address"
        },
        {
          "internalType": "bytes",
          "name": "initializer",
          "type": "bytes"
        },
        {
          "internalType": "uint256",
          "name": "saltNonce",
          "type": "uint256"
        },
        {
          "internalType": "contract IProxyCreationCallback",
          "name": "callback",
          "type": "address"
        }
      ],
      "name": "createProxyWithCallback",
      "outputs": [
        {
          "internalType": "contract GnosisSafeProxy",
          "name": "proxy",
          "type": "address"
        }
      ],
      "stateMutability": "nonpayable",
      "type": "function"
    },
    {
      "inputs": [
        {
          "internalType": "address",
          "name": "_singleton",
          "type": "address"
        },
        {
          "internalType": "bytes",
          "name": "initializer",
          "type": "bytes"
        },
        {
          "internalType": "uint256",
          "name": "saltNonce",
          "type": "uint256"
        }
      ],
      "name": "createProxyWithNonce",
      "outputs": [
        {
          "internalType": "contract GnosisSafeProxy",
          "name": "proxy",
          "type": "address"
        }
      ],
      "stateMutability": "nonpayable",
      "type": "function"
    },
    {
      "inputs": [],
      "name": "proxyCreationCode",
      "outputs": [
        {
          "internalType": "bytes",
          "name": "",
          "type": "bytes"
        }
      ],
      "stateMutability": "pure",
      "type": "function"
    },
    {
      "inputs": [],
      "name": "proxyRuntimeCode",
      "outputs": [
        {
          "internalType": "bytes",
          "name": "",
          "type": "bytes"
        }
      ],
      "stateMutability": "pure",
      "type": "function"
    }
  ],
  "bytecode": {
    "object": "0x608060405234801561001057600080fd5b506112b6806100206000396000f3fe60806040523480156200001157600080fd5b50600436106200007c5760003560e01c806361b69abd116200005757806361b69abd146200010f578063addacc0f1462000145578063d18af54d1462000167576200007c565b80631688f0b914620000815780632500510e14620000b757806353e5d93514620000ed575b600080fd5b6200009f600480360381019062000099919062000813565b6200019d565b604051620000ae9190620008f9565b60405180910390f35b620000d56004803603810190620000cf91906200097f565b62000217565b604051620000e49190620008f9565b60405180910390f35b620000f7620002cc565b60405162000106919062000a88565b60405180910390f35b6200012d600480360381019062000127919062000aac565b620002f9565b6040516200013c9190620008f9565b60405180910390f35b6200014f6200039e565b6040516200015e919062000a88565b60405180910390f35b6200018560048036038101906200017f919062000b57565b620003cb565b604051620001949190620008f9565b60405180910390f35b6000620001ac848484620004c1565b9050600083511115620001d55760008060008551602087016000865af103620001d457600080fd5b5b7f4f51faf6c4561ff95f067657e43439f0f856d97c04d9ec9070a6199ad418e23581856040516200020892919062000bf9565b60405180910390a19392505050565b60006200026a8585858080601f016020809104026020016040519081016040528093929190818152602001838380828437600081840152601f19601f8201169050808301925050505050505084620004c1565b9050806040516020016200027f919062000c76565b6040516020818303038152906040526040517f08c379a0000000000000000000000000000000000000000000000000000000008152600401620002c3919062000cf0565b60405180910390fd5b606060405180602001620002e090620005e2565b6020820181038252601f19601f82011660405250905090565b6000826040516200030a90620005e2565b62000316919062000d14565b604051809103906000f08015801562000333573d6000803e3d6000fd5b5090506000825111156200035d5760008060008451602086016000865af1036200035c57600080fd5b5b7f4f51faf6c4561ff95f067657e43439f0f856d97c04d9ec9070a6199ad418e23581846040516200039092919062000bf9565b60405180910390a192915050565b606060405180602001620003b290620005f0565b6020820181038252601f19601f82011660405250905090565b6000808383604051602001620003e392919062000dad565b6040516020818303038152906040528051906020012060001c90506200040b8686836200019d565b9150600073ffffffffffffffffffffffffffffffffffffffff168373ffffffffffffffffffffffffffffffffffffffff1614620004b8578273ffffffffffffffffffffffffffffffffffffffff16631e52b518838888886040518563ffffffff1660e01b815260040162000483949392919062000dee565b600060405180830381600087803b1580156200049e57600080fd5b505af1158015620004b3573d6000803e3d6000fd5b505050505b50949350505050565b600080838051906020012083604051602001620004e092919062000e71565b6040516020818303038152906040528051906020012090506000604051806020016200050c90620005e2565b6020820181038252601f19601f820116604052508673ffffffffffffffffffffffffffffffffffffffff166040516020016200054a92919062000ee3565b6040516020818303038152906040529050818151826020016000f59250600073ffffffffffffffffffffffffffffffffffffffff168373ffffffffffffffffffffffffffffffffffffffff1603620005d9576040517f08c379a0000000000000000000000000000000000000000000000000000000008152600401620005d09062000f5f565b60405180910390fd5b50509392505050565b6102a88062000f8283390190565b6080806200122a83390190565b6000604051905090565b600080fd5b600080fd5b600073ffffffffffffffffffffffffffffffffffffffff82169050919050565b60006200063e8262000611565b9050919050565b620006508162000631565b81146200065c57600080fd5b50565b600081359050620006708162000645565b92915050565b600080fd5b600080fd5b6000601f19601f8301169050919050565b7f4e487b7100000000000000000000000000000000000000000000000000000000600052604160045260246000fd5b620006cb8262000680565b810181811067ffffffffffffffff82111715620006ed57620006ec62000691565b5b80604052505050565b600062000702620005fd565b9050620007108282620006c0565b919050565b600067ffffffffffffffff82111562000733576200073262000691565b5b6200073e8262000680565b9050602081019050919050565b82818337600083830152505050565b6000620007716200076b8462000715565b620006f6565b90508281526020810184848401111562000790576200078f6200067b565b5b6200079d8482856200074b565b509392505050565b600082601f830112620007bd57620007bc62000676565b5b8135620007cf8482602086016200075a565b91505092915050565b6000819050919050565b620007ed81620007d8565b8114620007f957600080fd5b50565b6000813590506200080d81620007e2565b92915050565b6000806000606084860312156200082f576200082e62000607565b5b60006200083f868287016200065f565b935050602084013567ffffffffffffffff8111156200086357620008626200060c565b5b6200087186828701620007a5565b92505060406200088486828701620007fc565b9150509250925092565b6000819050919050565b6000620008b9620008b3620008ad8462000611565b6200088e565b62000611565b9050919050565b6000620008cd8262000898565b9050919050565b6000620008e182620008c0565b9050919050565b620008f381620008d4565b82525050565b6000602082019050620009106000830184620008e8565b92915050565b600080fd5b600080fd5b60008083601f84011262000939576200093862000676565b5b8235905067ffffffffffffffff81111562000959576200095862000916565b5b6020830191508360018202830111156200097857620009776200091b565b5b9250929050565b600080600080606085870312156200099c576200099b62000607565b5b6000620009ac878288016200065f565b945050602085013567ffffffffffffffff811115620009d057620009cf6200060c565b5b620009de8782880162000920565b93509350506040620009f387828801620007fc565b91505092959194509250565b600081519050919050565b600082825260208201905092915050565b60005b8381101562000a3b57808201518184015260208101905062000a1e565b60008484015250505050565b600062000a5482620009ff565b62000a60818562000a0a565b935062000a7281856020860162000a1b565b62000a7d8162000680565b840191505092915050565b6000602082019050818103600083015262000aa4818462000a47565b905092915050565b6000806040838503121562000ac65762000ac562000607565b5b600062000ad6858286016200065f565b925050602083013567ffffffffffffffff81111562000afa5762000af96200060c565b5b62000b0885828601620007a5565b9150509250929050565b600062000b1f8262000631565b9050919050565b62000b318162000b12565b811462000b3d57600080fd5b50565b60008135905062000b518162000b26565b92915050565b6000806000806080858703121562000b745762000b7362000607565b5b600062000b84878288016200065f565b945050602085013567ffffffffffffffff81111562000ba85762000ba76200060c565b5b62000bb687828801620007a5565b935050604062000bc987828801620007fc565b925050606062000bdc8782880162000b40565b91505092959194509250565b62000bf38162000631565b82525050565b600060408201905062000c106000830185620008e8565b62000c1f602083018462000be8565b9392505050565b60008160601b9050919050565b600062000c408262000c26565b9050919050565b600062000c548262000c33565b9050919050565b62000c7062000c6a82620008d4565b62000c47565b82525050565b600062000c84828462000c5b565b60148201915081905092915050565b600081519050919050565b600082825260208201905092915050565b600062000cbc8262000c93565b62000cc8818562000c9e565b935062000cda81856020860162000a1b565b62000ce58162000680565b840191505092915050565b6000602082019050818103600083015262000d0c818462000caf565b905092915050565b600060208201905062000d2b600083018462000be8565b92915050565b6000819050919050565b62000d5062000d4a82620007d8565b62000d31565b82525050565b600062000d638262000898565b9050919050565b600062000d778262000d56565b9050919050565b600062000d8b8262000c33565b9050919050565b62000da762000da18262000d6a565b62000d7e565b82525050565b600062000dbb828562000d3b565b60208201915062000dcd828462000d92565b6014820191508190509392505050565b62000de881620007d8565b82525050565b600060808201905062000e056000830187620008e8565b62000e14602083018662000be8565b818103604083015262000e28818562000a47565b905062000e39606083018462000ddd565b95945050505050565b6000819050919050565b6000819050919050565b62000e6b62000e658262000e42565b62000e4c565b82525050565b600062000e7f828562000e56565b60208201915062000e91828462000d3b565b6020820191508190509392505050565b600081905092915050565b600062000eb982620009ff565b62000ec5818562000ea1565b935062000ed781856020860162000a1b565b80840191505092915050565b600062000ef1828562000eac565b915062000eff828462000d3b565b6020820191508190509392505050565b7f437265617465322063616c6c206661696c656400000000000000000000000000600082015250565b600062000f4760138362000c9e565b915062000f548262000f0f565b602082019050919050565b6000602082019050818103600083015262000f7a8162000f38565b905091905056fe608060405234801561001057600080fd5b506040516102a83803806102a88339818101604052810190610032919061014a565b600073ffffffffffffffffffffffffffffffffffffffff168173ffffffffffffffffffffffffffffffffffffffff16036100a1576040517f08c379a0000000000000000000000000000000000000000000000000000000008152600401610098906101fa565b60405180910390fd5b806000806101000a81548173ffffffffffffffffffffffffffffffffffffffff021916908373ffffffffffffffffffffffffffffffffffffffff1602179055505061021a565b600080fd5b600073ffffffffffffffffffffffffffffffffffffffff82169050919050565b6000610117826100ec565b9050919050565b6101278161010c565b811461013257600080fd5b50565b6000815190506101448161011e565b92915050565b6000602082840312156101605761015f6100e7565b5b600061016e84828501610135565b91505092915050565b600082825260208201905092915050565b7f496e76616c69642073696e676c65746f6e20616464726573732070726f76696460008201527f6564000000000000000000000000000000000000000000000000000000000000602082015250565b60006101e4602283610177565b91506101ef82610188565b604082019050919050565b60006020820190508181036000830152610213816101d7565b9050919050565b6080806102286000396000f3fe608060405273ffffffffffffffffffffffffffffffffffffffff600054167fa619486e0000000000000000000000000000000000000000000000000000000060003503604f578060005260206000f35b3660008037600080366000845af43d6000803e60008103606e573d6000fd5b3d6000f3fea164736f6c6343000813000a608060405273ffffffffffffffffffffffffffffffffffffffff600054167fa619486e0000000000000000000000000000000000000000000000000000000060003503604f578060005260206000f35b3660008037600080366000845af43d6000803e60008103606e573d6000fd5b3d6000f3fea164736f6c6343000813000aa164736f6c6343000813000a",
    "linkReferences": {}
  },
  "methodIdentifiers": {
    "calculateCreateProxyWithNonceAddress(address,bytes,uint256)": "2500510e",
    "createProxy(address,bytes)": "61b69abd",
    "createProxyWithCallback(address,bytes,uint256,address)": "d18af54d",
    "createProxyWithNonce(address,bytes,uint256)": "1688f0b9",
    "proxyCreationCode()": "53e5d935",
    "proxyRuntimeCode()": "addacc0f"
  },
  "id": 22
}