{
  "abi": [
    {
      "inputs": [
        {
          "components": [
            {
              "internalType": "string",
              "name": "name",
              "type": "string"
            },
            {
              "internalType": "address",
              "name": "veFxs",
              "type": "address"
            },
            {
              "internalType": "address",
              "name": "veFxsVotingDelegation",
              "type": "address"
            },
            {
              "internalType": "address payable",
              "name": "timelockController",
              "type": "address"
            },
            {
              "internalType": "uint256",
              "name": "initialVotingDelay",
              "type": "uint256"
            },
            {
              "internalType": "uint256",
              "name": "initialVotingPeriod",
              "type": "uint256"
            },
            {
              "internalType": "uint256",
              "name": "initialProposalThreshold",
              "type": "uint256"
            },
            {
              "internalType": "uint256",
              "name": "quorumNumeratorValue",
              "type": "uint256"
            },
            {
              "internalType": "uint256",
              "name": "initialVotingDelayBlocks",
              "type": "uint256"
            },
            {
              "internalType": "uint256",
              "name": "initialShortCircuitNumerator",
              "type": "uint256"
            },
            {
              "internalType": "uint64",
              "name": "initialVoteExtension",
              "type": "uint64"
            }
          ],
          "internalType": "struct ConstructorParams",
          "name": "params",
          "type": "tuple"
        }
      ],
      "stateMutability": "nonpayable",
      "type": "constructor"
    },
    {
      "inputs": [],
      "name": "Empty",
      "type": "error"
    },
    {
      "inputs": [],
      "name": "InvalidShortString",
      "type": "error"
    },
    {
      "inputs": [],
      "name": "InvalidTimepoint",
      "type": "error"
    },
    {
      "inputs": [],
      "name": "ParamLengthsNotEqual",
      "type": "error"
    },
    {
      "inputs": [],
      "name": "SenderVotingWeightBelowProposalThreshold",
      "type": "error"
    },
    {
      "inputs": [],
      "name": "ShortCircuitNumeratorGreaterThanQuorumDenominator",
      "type": "error"
    },
    {
      "inputs": [
        {
          "internalType": "string",
          "name": "str",
          "type": "string"
        }
      ],
      "name": "StringTooLong",
      "type": "error"
    },
    {
      "inputs": [],
      "name": "Unauthorized",
      "type": "error"
    },
    {
      "anonymous": false,
      "inputs": [],
      "name": "EIP712DomainChanged",
      "type": "event"
    },
    {
      "anonymous": false,
      "inputs": [
        {
          "indexed": false,
          "internalType": "uint64",
          "name": "oldVoteExtension",
          "type": "uint64"
        },
        {
          "indexed": false,
          "internalType": "uint64",
          "name": "newVoteExtension",
          "type": "uint64"
        }
      ],
      "name": "LateQuorumVoteExtensionSet",
      "type": "event"
    },
    {
      "anonymous": false,
      "inputs": [
        {
          "indexed": false,
          "internalType": "uint256",
          "name": "proposalId",
          "type": "uint256"
        }
      ],
      "name": "ProposalCanceled",
      "type": "event"
    },
    {
      "anonymous": false,
      "inputs": [
        {
          "indexed": false,
          "internalType": "uint256",
          "name": "proposalId",
          "type": "uint256"
        },
        {
          "indexed": false,
          "internalType": "address",
          "name": "proposer",
          "type": "address"
        },
        {
          "indexed": false,
          "internalType": "address[]",
          "name": "targets",
          "type": "address[]"
        },
        {
          "indexed": false,
          "internalType": "uint256[]",
          "name": "values",
          "type": "uint256[]"
        },
        {
          "indexed": false,
          "internalType": "string[]",
          "name": "signatures",
          "type": "string[]"
        },
        {
          "indexed": false,
          "internalType": "bytes[]",
          "name": "calldatas",
          "type": "bytes[]"
        },
        {
          "indexed": false,
          "internalType": "uint256",
          "name": "voteStart",
          "type": "uint256"
        },
        {
          "indexed": false,
          "internalType": "uint256",
          "name": "voteEnd",
          "type": "uint256"
        },
        {
          "indexed": false,
          "internalType": "string",
          "name": "description",
          "type": "string"
        }
      ],
      "name": "ProposalCreated",
      "type": "event"
    },
    {
      "anonymous": false,
      "inputs": [
        {
          "indexed": false,
          "internalType": "uint256",
          "name": "proposalId",
          "type": "uint256"
        }
      ],
      "name": "ProposalExecuted",
      "type": "event"
    },
    {
      "anonymous": false,
      "inputs": [
        {
          "indexed": true,
          "internalType": "uint256",
          "name": "proposalId",
          "type": "uint256"
        },
        {
          "indexed": false,
          "internalType": "uint64",
          "name": "extendedDeadline",
          "type": "uint64"
        }
      ],
      "name": "ProposalExtended",
      "type": "event"
    },
    {
      "anonymous": false,
      "inputs": [
        {
          "indexed": false,
          "internalType": "uint256",
          "name": "proposalId",
          "type": "uint256"
        },
        {
          "indexed": false,
          "internalType": "uint256",
          "name": "eta",
          "type": "uint256"
        }
      ],
      "name": "ProposalQueued",
      "type": "event"
    },
    {
      "anonymous": false,
      "inputs": [
        {
          "indexed": false,
          "internalType": "uint256",
          "name": "oldProposalThreshold",
          "type": "uint256"
        },
        {
          "indexed": false,
          "internalType": "uint256",
          "name": "newProposalThreshold",
          "type": "uint256"
        }
      ],
      "name": "ProposalThresholdSet",
      "type": "event"
    },
    {
      "anonymous": false,
      "inputs": [
        {
          "indexed": false,
          "internalType": "uint256",
          "name": "oldQuorumNumerator",
          "type": "uint256"
        },
        {
          "indexed": false,
          "internalType": "uint256",
          "name": "newQuorumNumerator",
          "type": "uint256"
        }
      ],
      "name": "QuorumNumeratorUpdated",
      "type": "event"
    },
    {
      "anonymous": false,
      "inputs": [
        {
          "indexed": false,
          "internalType": "uint256",
          "name": "oldShortCircuitNumerator",
          "type": "uint256"
        },
        {
          "indexed": false,
          "internalType": "uint256",
          "name": "newShortCircuitNumerator",
          "type": "uint256"
        }
      ],
      "name": "ShortCircuitNumeratorUpdated",
      "type": "event"
    },
    {
      "anonymous": false,
      "inputs": [
        {
          "indexed": false,
          "internalType": "address",
          "name": "oldTimelock",
          "type": "address"
        },
        {
          "indexed": false,
          "internalType": "address",
          "name": "newTimelock",
          "type": "address"
        }
      ],
      "name": "TimelockChange",
      "type": "event"
    },
    {
      "anonymous": false,
      "inputs": [
        {
          "indexed": false,
          "internalType": "address",
          "name": "oldVotingDelegation",
          "type": "address"
        },
        {
          "indexed": false,
          "internalType": "address",
          "name": "newVotingDelegation",
          "type": "address"
        }
      ],
      "name": "VeFxsVotingDelegationSet",
      "type": "event"
    },
    {
      "anonymous": false,
      "inputs": [
        {
          "indexed": true,
          "internalType": "address",
          "name": "voter",
          "type": "address"
        },
        {
          "indexed": false,
          "internalType": "uint256",
          "name": "proposalId",
          "type": "uint256"
        },
        {
          "indexed": false,
          "internalType": "uint8",
          "name": "support",
          "type": "uint8"
        },
        {
          "indexed": false,
          "internalType": "uint256",
          "name": "weight",
          "type": "uint256"
        },
        {
          "indexed": false,
          "internalType": "string",
          "name": "reason",
          "type": "string"
        }
      ],
      "name": "VoteCast",
      "type": "event"
    },
    {
      "anonymous": false,
      "inputs": [
        {
          "indexed": true,
          "internalType": "address",
          "name": "voter",
          "type": "address"
        },
        {
          "indexed": false,
          "internalType": "uint256",
          "name": "proposalId",
          "type": "uint256"
        },
        {
          "indexed": false,
          "internalType": "uint8",
          "name": "support",
          "type": "uint8"
        },
        {
          "indexed": false,
          "internalType": "uint256",
          "name": "weight",
          "type": "uint256"
        },
        {
          "indexed": false,
          "internalType": "string",
          "name": "reason",
          "type": "string"
        },
        {
          "indexed": false,
          "internalType": "bytes",
          "name": "params",
          "type": "bytes"
        }
      ],
      "name": "VoteCastWithParams",
      "type": "event"
    },
    {
      "anonymous": false,
      "inputs": [
        {
          "indexed": false,
          "internalType": "uint256",
          "name": "oldVotingDelayBlocks",
          "type": "uint256"
        },
        {
          "indexed": false,
          "internalType": "uint256",
          "name": "newVotingDelayBlocks",
          "type": "uint256"
        }
      ],
      "name": "VotingDelayBlocksSet",
      "type": "event"
    },
    {
      "anonymous": false,
      "inputs": [
        {
          "indexed": false,
          "internalType": "uint256",
          "name": "oldVotingDelay",
          "type": "uint256"
        },
        {
          "indexed": false,
          "internalType": "uint256",
          "name": "newVotingDelay",
          "type": "uint256"
        }
      ],
      "name": "VotingDelaySet",
      "type": "event"
    },
    {
      "anonymous": false,
      "inputs": [
        {
          "indexed": false,
          "internalType": "uint256",
          "name": "oldVotingPeriod",
          "type": "uint256"
        },
        {
          "indexed": false,
          "internalType": "uint256",
          "name": "newVotingPeriod",
          "type": "uint256"
        }
      ],
      "name": "VotingPeriodSet",
      "type": "event"
    },
    {
      "inputs": [
        {
          "internalType": "uint256",
          "name": "",
          "type": "uint256"
        }
      ],
      "name": "$extendedDeadlines",
      "outputs": [
        {
          "internalType": "uint64",
          "name": "",
          "type": "uint64"
        }
      ],
      "stateMutability": "view",
      "type": "function"
    },
    {
      "inputs": [
        {
          "internalType": "uint256",
          "name": "snapshot",
          "type": "uint256"
        }
      ],
      "name": "$snapshotTimestampToSnapshotBlockNumber",
      "outputs": [
        {
          "internalType": "uint256",
          "name": "blockNumber",
          "type": "uint256"
        }
      ],
      "stateMutability": "view",
      "type": "function"
    },
    {
      "inputs": [],
      "name": "$timelock",
      "outputs": [
        {
          "internalType": "contract TimelockController",
          "name": "",
          "type": "address"
        }
      ],
      "stateMutability": "view",
      "type": "function"
    },
    {
      "inputs": [
        {
          "internalType": "uint256",
          "name": "",
          "type": "uint256"
        }
      ],
      "name": "$timelockIds",
      "outputs": [
        {
          "internalType": "bytes32",
          "name": "",
          "type": "bytes32"
        }
      ],
      "stateMutability": "view",
      "type": "function"
    },
    {
      "inputs": [],
      "name": "$voteExtension",
      "outputs": [
        {
          "internalType": "uint64",
          "name": "",
          "type": "uint64"
        }
      ],
      "stateMutability": "view",
      "type": "function"
    },
    {
      "inputs": [],
      "name": "$votingDelayBlocks",
      "outputs": [
        {
          "internalType": "uint256",
          "name": "",
          "type": "uint256"
        }
      ],
      "stateMutability": "view",
      "type": "function"
    },
    {
      "inputs": [],
      "name": "BALLOT_TYPEHASH",
      "outputs": [
        {
          "internalType": "bytes32",
          "name": "",
          "type": "bytes32"
        }
      ],
      "stateMutability": "view",
      "type": "function"
    },
    {
      "inputs": [],
      "name": "CLOCK_MODE",
      "outputs": [
        {
          "internalType": "string",
          "name": "",
          "type": "string"
        }
      ],
      "stateMutability": "view",
      "type": "function"
    },
    {
      "inputs": [],
      "name": "COUNTING_MODE",
      "outputs": [
        {
          "internalType": "string",
          "name": "",
          "type": "string"
        }
      ],
      "stateMutability": "pure",
      "type": "function"
    },
    {
      "inputs": [],
      "name": "EXTENDED_BALLOT_TYPEHASH",
      "outputs": [
        {
          "internalType": "bytes32",
          "name": "",
          "type": "bytes32"
        }
      ],
      "stateMutability": "view",
      "type": "function"
    },
    {
      "inputs": [],
      "name": "VE_FXS",
      "outputs": [
        {
          "internalType": "contract IVeFxs",
          "name": "",
          "type": "address"
        }
      ],
      "stateMutability": "view",
      "type": "function"
    },
    {
      "inputs": [
        {
          "internalType": "uint256[]",
          "name": "proposalId",
          "type": "uint256[]"
        },
        {
          "internalType": "uint8[]",
          "name": "support",
          "type": "uint8[]"
        }
      ],
      "name": "bulkCastVote",
      "outputs": [],
      "stateMutability": "nonpayable",
      "type": "function"
    },
    {
      "inputs": [
        {
          "internalType": "address[]",
          "name": "targets",
          "type": "address[]"
        },
        {
          "internalType": "uint256[]",
          "name": "values",
          "type": "uint256[]"
        },
        {
          "internalType": "bytes[]",
          "name": "calldatas",
          "type": "bytes[]"
        },
        {
          "internalType": "bytes32",
          "name": "descriptionHash",
          "type": "bytes32"
        }
      ],
      "name": "cancel",
      "outputs": [
        {
          "internalType": "uint256",
          "name": "",
          "type": "uint256"
        }
      ],
      "stateMutability": "nonpayable",
      "type": "function"
    },
    {
      "inputs": [
        {
          "internalType": "uint256",
          "name": "proposalId",
          "type": "uint256"
        },
        {
          "internalType": "uint8",
          "name": "support",
          "type": "uint8"
        }
      ],
      "name": "castVote",
      "outputs": [
        {
          "internalType": "uint256",
          "name": "",
          "type": "uint256"
        }
      ],
      "stateMutability": "nonpayable",
      "type": "function"
    },
    {
      "inputs": [
        {
          "internalType": "uint256",
          "name": "proposalId",
          "type": "uint256"
        },
        {
          "internalType": "uint8",
          "name": "support",
          "type": "uint8"
        },
        {
          "internalType": "uint8",
          "name": "v",
          "type": "uint8"
        },
        {
          "internalType": "bytes32",
          "name": "r",
          "type": "bytes32"
        },
        {
          "internalType": "bytes32",
          "name": "s",
          "type": "bytes32"
        }
      ],
      "name": "castVoteBySig",
      "outputs": [
        {
          "internalType": "uint256",
          "name": "",
          "type": "uint256"
        }
      ],
      "stateMutability": "nonpayable",
      "type": "function"
    },
    {
      "inputs": [
        {
          "internalType": "uint256",
          "name": "proposalId",
          "type": "uint256"
        },
        {
          "internalType": "uint8",
          "name": "support",
          "type": "uint8"
        },
        {
          "internalType": "string",
          "name": "reason",
          "type": "string"
        }
      ],
      "name": "castVoteWithReason",
      "outputs": [
        {
          "internalType": "uint256",
          "name": "",
          "type": "uint256"
        }
      ],
      "stateMutability": "nonpayable",
      "type": "function"
    },
    {
      "inputs": [
        {
          "internalType": "uint256",
          "name": "proposalId",
          "type": "uint256"
        },
        {
          "internalType": "uint8",
          "name": "support",
          "type": "uint8"
        },
        {
          "internalType": "string",
          "name": "reason",
          "type": "string"
        },
        {
          "internalType": "bytes",
          "name": "params",
          "type": "bytes"
        }
      ],
      "name": "castVoteWithReasonAndParams",
      "outputs": [
        {
          "internalType": "uint256",
          "name": "",
          "type": "uint256"
        }
      ],
      "stateMutability": "nonpayable",
      "type": "function"
    },
    {
      "inputs": [
        {
          "internalType": "uint256",
          "name": "proposalId",
          "type": "uint256"
        },
        {
          "internalType": "uint8",
          "name": "support",
          "type": "uint8"
        },
        {
          "internalType": "string",
          "name": "reason",
          "type": "string"
        },
        {
          "internalType": "bytes",
          "name": "params",
          "type": "bytes"
        },
        {
          "internalType": "uint8",
          "name": "v",
          "type": "uint8"
        },
        {
          "internalType": "bytes32",
          "name": "r",
          "type": "bytes32"
        },
        {
          "internalType": "bytes32",
          "name": "s",
          "type": "bytes32"
        }
      ],
      "name": "castVoteWithReasonAndParamsBySig",
      "outputs": [
        {
          "internalType": "uint256",
          "name": "",
          "type": "uint256"
        }
      ],
      "stateMutability": "nonpayable",
      "type": "function"
    },
    {
      "inputs": [],
      "name": "clock",
      "outputs": [
        {
          "internalType": "uint48",
          "name": "",
          "type": "uint48"
        }
      ],
      "stateMutability": "view",
      "type": "function"
    },
    {
      "inputs": [],
      "name": "eip712Domain",
      "outputs": [
        {
          "internalType": "bytes1",
          "name": "fields",
          "type": "bytes1"
        },
        {
          "internalType": "string",
          "name": "name",
          "type": "string"
        },
        {
          "internalType": "string",
          "name": "version",
          "type": "string"
        },
        {
          "internalType": "uint256",
          "name": "chainId",
          "type": "uint256"
        },
        {
          "internalType": "address",
          "name": "verifyingContract",
          "type": "address"
        },
        {
          "internalType": "bytes32",
          "name": "salt",
          "type": "bytes32"
        },
        {
          "internalType": "uint256[]",
          "name": "extensions",
          "type": "uint256[]"
        }
      ],
      "stateMutability": "view",
      "type": "function"
    },
    {
      "inputs": [
        {
          "internalType": "address[]",
          "name": "targets",
          "type": "address[]"
        },
        {
          "internalType": "uint256[]",
          "name": "values",
          "type": "uint256[]"
        },
        {
          "internalType": "bytes[]",
          "name": "calldatas",
          "type": "bytes[]"
        },
        {
          "internalType": "bytes32",
          "name": "descriptionHash",
          "type": "bytes32"
        }
      ],
      "name": "execute",
      "outputs": [
        {
          "internalType": "uint256",
          "name": "",
          "type": "uint256"
        }
      ],
      "stateMutability": "payable",
      "type": "function"
    },
    {
      "inputs": [
        {
          "internalType": "address",
          "name": "",
          "type": "address"
        }
      ],
      "name": "fractionalVoteNonce",
      "outputs": [
        {
          "internalType": "uint128",
          "name": "",
          "type": "uint128"
        }
      ],
      "stateMutability": "view",
      "type": "function"
    },
    {
      "inputs": [
        {
          "internalType": "address",
          "name": "account",
          "type": "address"
        },
        {
          "internalType": "uint256",
          "name": "timepoint",
          "type": "uint256"
        }
      ],
      "name": "getVotes",
      "outputs": [
        {
          "internalType": "uint256",
          "name": "",
          "type": "uint256"
        }
      ],
      "stateMutability": "view",
      "type": "function"
    },
    {
      "inputs": [
        {
          "internalType": "address",
          "name": "account",
          "type": "address"
        },
        {
          "internalType": "uint256",
          "name": "timepoint",
          "type": "uint256"
        },
        {
          "internalType": "bytes",
          "name": "params",
          "type": "bytes"
        }
      ],
      "name": "getVotesWithParams",
      "outputs": [
        {
          "internalType": "uint256",
          "name": "",
          "type": "uint256"
        }
      ],
      "stateMutability": "view",
      "type": "function"
    },
    {
      "inputs": [
        {
          "internalType": "uint256",
          "name": "proposalId",
          "type": "uint256"
        },
        {
          "internalType": "address",
          "name": "account",
          "type": "address"
        }
      ],
      "name": "hasVoted",
      "outputs": [
        {
          "internalType": "bool",
          "name": "",
          "type": "bool"
        }
      ],
      "stateMutability": "view",
      "type": "function"
    },
    {
      "inputs": [
        {
          "internalType": "address[]",
          "name": "targets",
          "type": "address[]"
        },
        {
          "internalType": "uint256[]",
          "name": "values",
          "type": "uint256[]"
        },
        {
          "internalType": "bytes[]",
          "name": "calldatas",
          "type": "bytes[]"
        },
        {
          "internalType": "bytes32",
          "name": "descriptionHash",
          "type": "bytes32"
        }
      ],
      "name": "hashProposal",
      "outputs": [
        {
          "internalType": "uint256",
          "name": "",
          "type": "uint256"
        }
      ],
      "stateMutability": "pure",
      "type": "function"
    },
    {
      "inputs": [],
      "name": "lateQuorumVoteExtension",
      "outputs": [
        {
          "internalType": "uint64",
          "name": "",
          "type": "uint64"
        }
      ],
      "stateMutability": "view",
      "type": "function"
    },
    {
      "inputs": [],
      "name": "name",
      "outputs": [
        {
          "internalType": "string",
          "name": "",
          "type": "string"
        }
      ],
      "stateMutability": "view",
      "type": "function"
    },
    {
      "inputs": [
        {
          "internalType": "address",
          "name": "",
          "type": "address"
        },
        {
          "internalType": "address",
          "name": "",
          "type": "address"
        },
        {
          "internalType": "uint256[]",
          "name": "",
          "type": "uint256[]"
        },
        {
          "internalType": "uint256[]",
          "name": "",
          "type": "uint256[]"
        },
        {
          "internalType": "bytes",
          "name": "",
          "type": "bytes"
        }
      ],
      "name": "onERC1155BatchReceived",
      "outputs": [
        {
          "internalType": "bytes4",
          "name": "",
          "type": "bytes4"
        }
      ],
      "stateMutability": "nonpayable",
      "type": "function"
    },
    {
      "inputs": [
        {
          "internalType": "address",
          "name": "",
          "type": "address"
        },
        {
          "internalType": "address",
          "name": "",
          "type": "address"
        },
        {
          "internalType": "uint256",
          "name": "",
          "type": "uint256"
        },
        {
          "internalType": "uint256",
          "name": "",
          "type": "uint256"
        },
        {
          "internalType": "bytes",
          "name": "",
          "type": "bytes"
        }
      ],
      "name": "onERC1155Received",
      "outputs": [
        {
          "internalType": "bytes4",
          "name": "",
          "type": "bytes4"
        }
      ],
      "stateMutability": "nonpayable",
      "type": "function"
    },
    {
      "inputs": [
        {
          "internalType": "address",
          "name": "",
          "type": "address"
        },
        {
          "internalType": "address",
          "name": "",
          "type": "address"
        },
        {
          "internalType": "uint256",
          "name": "",
          "type": "uint256"
        },
        {
          "internalType": "bytes",
          "name": "",
          "type": "bytes"
        }
      ],
      "name": "onERC721Received",
      "outputs": [
        {
          "internalType": "bytes4",
          "name": "",
          "type": "bytes4"
        }
      ],
      "stateMutability": "nonpayable",
      "type": "function"
    },
    {
      "inputs": [
        {
          "internalType": "uint256",
          "name": "proposalId",
          "type": "uint256"
        }
      ],
      "name": "proposalDeadline",
      "outputs": [
        {
          "internalType": "uint256",
          "name": "",
          "type": "uint256"
        }
      ],
      "stateMutability": "view",
      "type": "function"
    },
    {
      "inputs": [
        {
          "internalType": "uint256",
          "name": "proposalId",
          "type": "uint256"
        }
      ],
      "name": "proposalEta",
      "outputs": [
        {
          "internalType": "uint256",
          "name": "",
          "type": "uint256"
        }
      ],
      "stateMutability": "view",
      "type": "function"
    },
    {
      "inputs": [
        {
          "internalType": "uint256",
          "name": "proposalId",
          "type": "uint256"
        }
      ],
      "name": "proposalProposer",
      "outputs": [
        {
          "internalType": "address",
          "name": "",
          "type": "address"
        }
      ],
      "stateMutability": "view",
      "type": "function"
    },
    {
      "inputs": [
        {
          "internalType": "uint256",
          "name": "proposalId",
          "type": "uint256"
        }
      ],
      "name": "proposalSnapshot",
      "outputs": [
        {
          "internalType": "uint256",
          "name": "",
          "type": "uint256"
        }
      ],
      "stateMutability": "view",
      "type": "function"
    },
    {
      "inputs": [],
      "name": "proposalThreshold",
      "outputs": [
        {
          "internalType": "uint256",
          "name": "",
          "type": "uint256"
        }
      ],
      "stateMutability": "view",
      "type": "function"
    },
    {
      "inputs": [
        {
          "internalType": "uint256",
          "name": "proposalId",
          "type": "uint256"
        }
      ],
      "name": "proposalVotes",
      "outputs": [
        {
          "internalType": "uint256",
          "name": "againstVotes",
          "type": "uint256"
        },
        {
          "internalType": "uint256",
          "name": "forVotes",
          "type": "uint256"
        },
        {
          "internalType": "uint256",
          "name": "abstainVotes",
          "type": "uint256"
        }
      ],
      "stateMutability": "view",
      "type": "function"
    },
    {
      "inputs": [
        {
          "internalType": "uint256",
          "name": "",
          "type": "uint256"
        }
      ],
      "name": "proposals",
      "outputs": [
        {
          "internalType": "address",
          "name": "proposer",
          "type": "address"
        },
        {
          "internalType": "uint40",
          "name": "voteStart",
          "type": "uint40"
        },
        {
          "internalType": "uint40",
          "name": "voteEnd",
          "type": "uint40"
        },
        {
          "internalType": "bool",
          "name": "executed",
          "type": "bool"
        },
        {
          "internalType": "bool",
          "name": "canceled",
          "type": "bool"
        }
      ],
      "stateMutability": "view",
      "type": "function"
    },
    {
      "inputs": [
        {
          "internalType": "address[]",
          "name": "targets",
          "type": "address[]"
        },
        {
          "internalType": "uint256[]",
          "name": "values",
          "type": "uint256[]"
        },
        {
          "internalType": "bytes[]",
          "name": "calldatas",
          "type": "bytes[]"
        },
        {
          "internalType": "string",
          "name": "description",
          "type": "string"
        }
      ],
      "name": "propose",
      "outputs": [
        {
          "internalType": "uint256",
          "name": "proposalId",
          "type": "uint256"
        }
      ],
      "stateMutability": "nonpayable",
      "type": "function"
    },
    {
      "inputs": [
        {
          "internalType": "address[]",
          "name": "targets",
          "type": "address[]"
        },
        {
          "internalType": "uint256[]",
          "name": "values",
          "type": "uint256[]"
        },
        {
          "internalType": "bytes[]",
          "name": "calldatas",
          "type": "bytes[]"
        },
        {
          "internalType": "bytes32",
          "name": "descriptionHash",
          "type": "bytes32"
        }
      ],
      "name": "queue",
      "outputs": [
        {
          "internalType": "uint256",
          "name": "",
          "type": "uint256"
        }
      ],
      "stateMutability": "nonpayable",
      "type": "function"
    },
    {
      "inputs": [
        {
          "internalType": "uint256",
          "name": "timepoint",
          "type": "uint256"
        }
      ],
      "name": "quorum",
      "outputs": [
        {
          "internalType": "uint256",
          "name": "quorumAtTimepoint",
          "type": "uint256"
        }
      ],
      "stateMutability": "view",
      "type": "function"
    },
    {
      "inputs": [],
      "name": "quorumDenominator",
      "outputs": [
        {
          "internalType": "uint256",
          "name": "",
          "type": "uint256"
        }
      ],
      "stateMutability": "view",
      "type": "function"
    },
    {
      "inputs": [
        {
          "internalType": "uint256",
          "name": "timepoint",
          "type": "uint256"
        }
      ],
      "name": "quorumNumerator",
      "outputs": [
        {
          "internalType": "uint256",
          "name": "",
          "type": "uint256"
        }
      ],
      "stateMutability": "view",
      "type": "function"
    },
    {
      "inputs": [],
      "name": "quorumNumerator",
      "outputs": [
        {
          "internalType": "uint256",
          "name": "",
          "type": "uint256"
        }
      ],
      "stateMutability": "view",
      "type": "function"
    },
    {
      "inputs": [
        {
          "internalType": "address",
          "name": "target",
          "type": "address"
        },
        {
          "internalType": "uint256",
          "name": "value",
          "type": "uint256"
        },
        {
          "internalType": "bytes",
          "name": "data",
          "type": "bytes"
        }
      ],
      "name": "relay",
      "outputs": [],
      "stateMutability": "payable",
      "type": "function"
    },
    {
      "inputs": [
        {
          "internalType": "uint64",
          "name": "newVoteExtension",
          "type": "uint64"
        }
      ],
      "name": "setLateQuorumVoteExtension",
      "outputs": [],
      "stateMutability": "nonpayable",
      "type": "function"
    },
    {
      "inputs": [
        {
          "internalType": "uint256",
          "name": "newProposalThreshold",
          "type": "uint256"
        }
      ],
      "name": "setProposalThreshold",
      "outputs": [],
      "stateMutability": "nonpayable",
      "type": "function"
    },
    {
      "inputs": [
        {
          "internalType": "address",
          "name": "veFxsVotingDelegation",
          "type": "address"
        }
      ],
      "name": "setVeFxsVotingDelegation",
      "outputs": [],
      "stateMutability": "nonpayable",
      "type": "function"
    },
    {
      "inputs": [
        {
          "internalType": "uint256",
          "name": "newVotingDelay",
          "type": "uint256"
        }
      ],
      "name": "setVotingDelay",
      "outputs": [],
      "stateMutability": "nonpayable",
      "type": "function"
    },
    {
      "inputs": [
        {
          "internalType": "uint256",
          "name": "newVotingDelayBlocks",
          "type": "uint256"
        }
      ],
      "name": "setVotingDelayBlocks",
      "outputs": [],
      "stateMutability": "nonpayable",
      "type": "function"
    },
    {
      "inputs": [
        {
          "internalType": "uint256",
          "name": "newVotingPeriod",
          "type": "uint256"
        }
      ],
      "name": "setVotingPeriod",
      "outputs": [],
      "stateMutability": "nonpayable",
      "type": "function"
    },
    {
      "inputs": [],
      "name": "shortCircuitNumerator",
      "outputs": [
        {
          "internalType": "uint256",
          "name": "latestShortCircuitNumerator",
          "type": "uint256"
        }
      ],
      "stateMutability": "view",
      "type": "function"
    },
    {
      "inputs": [
        {
          "internalType": "uint256",
          "name": "timepoint",
          "type": "uint256"
        }
      ],
      "name": "shortCircuitNumerator",
      "outputs": [
        {
          "internalType": "uint256",
          "name": "shortCircuitNumeratorAtTimepoint",
          "type": "uint256"
        }
      ],
      "stateMutability": "view",
      "type": "function"
    },
    {
      "inputs": [
        {
          "internalType": "uint256",
          "name": "timepoint",
          "type": "uint256"
        }
      ],
      "name": "shortCircuitThreshold",
      "outputs": [
        {
          "internalType": "uint256",
          "name": "shortCircuitThresholdAtTimepoint",
          "type": "uint256"
        }
      ],
      "stateMutability": "view",
      "type": "function"
    },
    {
      "inputs": [
        {
          "internalType": "uint256",
          "name": "proposalId",
          "type": "uint256"
        }
      ],
      "name": "state",
      "outputs": [
        {
          "internalType": "enum IGovernor.ProposalState",
          "name": "proposalState",
          "type": "uint8"
        }
      ],
      "stateMutability": "view",
      "type": "function"
    },
    {
      "inputs": [
        {
          "internalType": "bytes4",
          "name": "interfaceId",
          "type": "bytes4"
        }
      ],
      "name": "supportsInterface",
      "outputs": [
        {
          "internalType": "bool",
          "name": "",
          "type": "bool"
        }
      ],
      "stateMutability": "view",
      "type": "function"
    },
    {
      "inputs": [],
      "name": "timelock",
      "outputs": [
        {
          "internalType": "address",
          "name": "",
          "type": "address"
        }
      ],
      "stateMutability": "view",
      "type": "function"
    },
    {
      "inputs": [],
      "name": "token",
      "outputs": [
        {
          "internalType": "contract IERC5805",
          "name": "",
          "type": "address"
        }
      ],
      "stateMutability": "view",
      "type": "function"
    },
    {
      "inputs": [
        {
          "internalType": "uint256",
          "name": "newQuorumNumerator",
          "type": "uint256"
        }
      ],
      "name": "updateQuorumNumerator",
      "outputs": [],
      "stateMutability": "nonpayable",
      "type": "function"
    },
    {
      "inputs": [
        {
          "internalType": "uint256",
          "name": "newShortCircuitNumerator",
          "type": "uint256"
        }
      ],
      "name": "updateShortCircuitNumerator",
      "outputs": [],
      "stateMutability": "nonpayable",
      "type": "function"
    },
    {
      "inputs": [
        {
          "internalType": "contract TimelockController",
          "name": "newTimelock",
          "type": "address"
        }
      ],
      "name": "updateTimelock",
      "outputs": [],
      "stateMutability": "nonpayable",
      "type": "function"
    },
    {
      "inputs": [],
      "name": "version",
      "outputs": [
        {
          "internalType": "string",
          "name": "",
          "type": "string"
        }
      ],
      "stateMutability": "view",
      "type": "function"
    },
    {
      "inputs": [
        {
          "internalType": "uint256",
          "name": "proposalId",
          "type": "uint256"
        },
        {
          "internalType": "address",
          "name": "account",
          "type": "address"
        }
      ],
      "name": "voteWeightCast",
      "outputs": [
        {
          "internalType": "uint128",
          "name": "",
          "type": "uint128"
        }
      ],
      "stateMutability": "view",
      "type": "function"
    },
    {
      "inputs": [],
      "name": "votingDelay",
      "outputs": [
        {
          "internalType": "uint256",
          "name": "",
          "type": "uint256"
        }
      ],
      "stateMutability": "view",
      "type": "function"
    },
    {
      "inputs": [],
      "name": "votingPeriod",
      "outputs": [
        {
          "internalType": "uint256",
          "name": "",
          "type": "uint256"
        }
      ],
      "stateMutability": "view",
      "type": "function"
    },
    {
      "stateMutability": "payable",
      "type": "receive"
    }
  ],
  "bytecode": {
    "object": "0x6101806040523480156200001257600080fd5b506040516200ba8c3803806200ba8c83398181016040528101906200003891906200139d565b8061014001518160600151604051806101200160405280846020015173ffffffffffffffffffffffffffffffffffffffff168152602001846040015173ffffffffffffffffffffffffffffffffffffffff16815260200184600001518152602001846080015181526020018460a0015181526020018460c0015181526020018460e00151815260200184610100015181526020018461012001518152508060c001518160200151826060015183608001518460a00151856040015180620001046200032160201b60201c565b6200011a6000836200035e60201b90919060201c565b6101208181525050620001386001826200035e60201b90919060201c565b6101408181525050818051906020012060e08181525050808051906020012061010081815250504660a0818152505062000177620003b660201b60201c565b608081815250503073ffffffffffffffffffffffffffffffffffffffff1660c08173ffffffffffffffffffffffffffffffffffffffff168152505050508060029081620001c591906200162f565b5050620001d8836200041360201b60201c565b620001e9826200045a60201b60201c565b620001fa81620004e760201b60201c565b50505080600960006101000a81548173ffffffffffffffffffffffffffffffffffffffff021916908373ffffffffffffffffffffffffffffffffffffffff1602179055505062000250816200052e60201b60201c565b50806000015173ffffffffffffffffffffffffffffffffffffffff166101608173ffffffffffffffffffffffffffffffffffffffff1681525050620002a08161010001516200062760201b60201c565b620002b58160e001516200071560201b60201c565b7fc255828f3e19c78de5df3dd5b6706d49bd5dd58e76275f97bd6998787009952060008260200151604051620002ed92919062001727565b60405180910390a15062000307816200076260201b60201c565b5062000319816200080360201b60201c565b505062001dcf565b60606040518060400160405280600181526020017f3100000000000000000000000000000000000000000000000000000000000000815250905090565b600060208351101562000384576200037c836200088060201b60201c565b9050620003b0565b826200039683620008ed60201b60201c565b6000019081620003a791906200162f565b5060ff60001b90505b92915050565b60007f8b73c3c69bb8fe3d512ecc4cf759cc79239f7b179b0ffacaa9a75d522b39400f60e051610100514630604051602001620003f895949392919062001780565b60405160208183030381529060405280519060200120905090565b7fc565b045403dc03c2eea82b81a0465edad9e2e7fc4d97e11421c209da93d7a936006548260405162000448929190620017dd565b60405180910390a18060068190555050565b60008111620004a0576040517f08c379a0000000000000000000000000000000000000000000000000000000008152600401620004979062001891565b60405180910390fd5b7f7e3f7f0708a84de9203036abaa450dccc85ad5ff52f78c170f3edb55cf5e882860075482604051620004d5929190620017dd565b60405180910390a18060078190555050565b7fccb45da8d5717e6c4544694297c4ba5cf151d455c9bb0ed4fc7a38411bc05461600854826040516200051c929190620017dd565b60405180910390a18060088190555050565b6200053e620008f760201b60201c565b81111562000583576040517f08c379a00000000000000000000000000000000000000000000000000000000081526004016200057a906200194f565b60405180910390fd5b6000620005956200090060201b60201c565b9050620005e6620005c3620005af6200093760201b60201c565b65ffffffffffff16620009ec60201b60201c565b620005d48462000a4260201b60201c565b600a62000ab060201b9092919060201c565b50507f0553476bf02ef2726e8ce5ced78d63e26e602e4a2257b1f559418e24b463399781836040516200061b929190620017dd565b60405180910390a15050565b62000637620008f760201b60201c565b81111562000671576040517f01c78a6400000000000000000000000000000000000000000000000000000000815260040160405180910390fd5b60006200068362000ad560201b60201c565b9050620006d4620006b16200069d6200093760201b60201c565b65ffffffffffff16620009ec60201b60201c565b620006c28462000a4260201b60201c565b600f62000ab060201b9092919060201c565b50507fdd2b8b2d874e19a344cba53b9fb534ea748ef117ed4b75c67569a79486454193818360405162000709929190620017dd565b60405180910390a15050565b6000600e54905081600e819055507fd3c1cdfd662fbb8e44190410d3a0d46855746182cb8d1e5e41bc84f5afecef4f818360405162000756929190620017dd565b60405180910390a15050565b7f08f74ea46ef7894f65eabfb5e6e695de773a000b47c529ab559178069b226401601160009054906101000a900473ffffffffffffffffffffffffffffffffffffffff1682604051620007b792919062001727565b60405180910390a180601160006101000a81548173ffffffffffffffffffffffffffffffffffffffff021916908373ffffffffffffffffffffffffffffffffffffffff16021790555050565b7f7ca4ac117ed3cdce75c1161d8207c440389b1a15d69d096831664657c07dafc2601360009054906101000a900467ffffffffffffffff16826040516200084c92919062001982565b60405180910390a180601360006101000a81548167ffffffffffffffff021916908367ffffffffffffffff16021790555050565b600080829050601f81511115620008d057826040517f305a27a9000000000000000000000000000000000000000000000000000000008152600401620008c79190620019f0565b60405180910390fd5b805181620008de9062001a46565b60001c1760001b915050919050565b6000819050919050565b60006064905090565b600062000914600a62000b0c60201b60201c565b7bffffffffffffffffffffffffffffffffffffffffffffffffffffffff16905090565b6000600960009054906101000a900473ffffffffffffffffffffffffffffffffffffffff1673ffffffffffffffffffffffffffffffffffffffff166391ddadf46040518163ffffffff1660e01b8152600401602060405180830381865afa925050508015620009c657506040513d601f19601f82011682018060405250810190620009c3919062001af9565b60015b620009e457620009dc4362000b8260201b60201c565b9050620009e9565b809150505b90565b600063ffffffff801682111562000a3a576040517f08c379a000000000000000000000000000000000000000000000000000000000815260040162000a319062001ba1565b60405180910390fd5b819050919050565b60007bffffffffffffffffffffffffffffffffffffffffffffffffffffffff801682111562000aa8576040517f08c379a000000000000000000000000000000000000000000000000000000000815260040162000a9f9062001c39565b60405180910390fd5b819050919050565b60008062000ac985600001858562000bda60201b60201c565b91509150935093915050565b600062000ae9600f62000b0c60201b60201c565b7bffffffffffffffffffffffffffffffffffffffffffffffffffffffff16905090565b600080826000018054905090506000811462000b775762000b458360000160018362000b39919062001c8a565b62000f7b60201b60201c565b60000160049054906101000a90047bffffffffffffffffffffffffffffffffffffffffffffffffffffffff1662000b7a565b60005b915050919050565b600065ffffffffffff801682111562000bd2576040517f08c379a000000000000000000000000000000000000000000000000000000000815260040162000bc99062001d3b565b60405180910390fd5b819050919050565b600080600085805490509050600081111562000e8b57600062000c128760018462000c06919062001c8a565b62000f7b60201b60201c565b6040518060400160405290816000820160009054906101000a900463ffffffff1663ffffffff1663ffffffff1681526020016000820160049054906101000a90047bffffffffffffffffffffffffffffffffffffffffffffffffffffffff167bffffffffffffffffffffffffffffffffffffffffffffffffffffffff167bffffffffffffffffffffffffffffffffffffffffffffffffffffffff168152505090508563ffffffff16816000015163ffffffff16111562000d09576040517f08c379a000000000000000000000000000000000000000000000000000000000815260040162000d009062001dad565b60405180910390fd5b8563ffffffff16816000015163ffffffff160362000d99578462000d428860018562000d36919062001c8a565b62000f7b60201b60201c565b60000160046101000a8154817bffffffffffffffffffffffffffffffffffffffffffffffffffffffff02191690837bffffffffffffffffffffffffffffffffffffffffffffffffffffffff16021790555062000e79565b8660405180604001604052808863ffffffff168152602001877bffffffffffffffffffffffffffffffffffffffffffffffffffffffff168152509080600181540180825580915050600190039060005260206000200160009091909190915060008201518160000160006101000a81548163ffffffff021916908363ffffffff16021790555060208201518160000160046101000a8154817bffffffffffffffffffffffffffffffffffffffffffffffffffffffff02191690837bffffffffffffffffffffffffffffffffffffffffffffffffffffffff16021790555050505b80602001518593509350505062000f73565b8560405180604001604052808763ffffffff168152602001867bffffffffffffffffffffffffffffffffffffffffffffffffffffffff168152509080600181540180825580915050600190039060005260206000200160009091909190915060008201518160000160006101000a81548163ffffffff021916908363ffffffff16021790555060208201518160000160046101000a8154817bffffffffffffffffffffffffffffffffffffffffffffffffffffffff02191690837bffffffffffffffffffffffffffffffffffffffffffffffffffffffff160217905550505060008492509250505b935093915050565b60008260005281602060002001905092915050565b6000604051905090565b600080fd5b600080fd5b600080fd5b6000601f19601f8301169050919050565b7f4e487b7100000000000000000000000000000000000000000000000000000000600052604160045260246000fd5b62000ff48262000fa9565b810181811067ffffffffffffffff8211171562001016576200101562000fba565b5b80604052505050565b60006200102b62000f90565b905062001039828262000fe9565b919050565b600080fd5b600080fd5b600080fd5b600067ffffffffffffffff8211156200106b576200106a62000fba565b5b620010768262000fa9565b9050602081019050919050565b60005b83811015620010a357808201518184015260208101905062001086565b60008484015250505050565b6000620010c6620010c0846200104d565b6200101f565b905082815260208101848484011115620010e557620010e462001048565b5b620010f284828562001083565b509392505050565b600082601f83011262001112576200111162001043565b5b815162001124848260208601620010af565b91505092915050565b600073ffffffffffffffffffffffffffffffffffffffff82169050919050565b60006200115a826200112d565b9050919050565b6200116c816200114d565b81146200117857600080fd5b50565b6000815190506200118c8162001161565b92915050565b60006200119f826200112d565b9050919050565b620011b18162001192565b8114620011bd57600080fd5b50565b600081519050620011d181620011a6565b92915050565b6000819050919050565b620011ec81620011d7565b8114620011f857600080fd5b50565b6000815190506200120c81620011e1565b92915050565b600067ffffffffffffffff82169050919050565b620012318162001212565b81146200123d57600080fd5b50565b600081519050620012518162001226565b92915050565b6000610160828403121562001271576200127062000fa4565b5b6200127e6101606200101f565b9050600082015167ffffffffffffffff811115620012a157620012a06200103e565b5b620012af84828501620010fa565b6000830152506020620012c5848285016200117b565b6020830152506040620012db848285016200117b565b6040830152506060620012f184828501620011c0565b60608301525060806200130784828501620011fb565b60808301525060a06200131d84828501620011fb565b60a08301525060c06200133384828501620011fb565b60c08301525060e06200134984828501620011fb565b60e0830152506101006200136084828501620011fb565b610100830152506101206200137884828501620011fb565b61012083015250610140620013908482850162001240565b6101408301525092915050565b600060208284031215620013b657620013b562000f9a565b5b600082015167ffffffffffffffff811115620013d757620013d662000f9f565b5b620013e58482850162001257565b91505092915050565b600081519050919050565b7f4e487b7100000000000000000000000000000000000000000000000000000000600052602260045260246000fd5b600060028204905060018216806200144157607f821691505b602082108103620014575762001456620013f9565b5b50919050565b60008190508160005260206000209050919050565b60006020601f8301049050919050565b600082821b905092915050565b600060088302620014c17fffffffffffffffffffffffffffffffffffffffffffffffffffffffffffffffff8262001482565b620014cd868362001482565b95508019841693508086168417925050509392505050565b6000819050919050565b6000620015106200150a6200150484620011d7565b620014e5565b620011d7565b9050919050565b6000819050919050565b6200152c83620014ef565b620015446200153b8262001517565b8484546200148f565b825550505050565b600090565b6200155b6200154c565b6200156881848462001521565b505050565b5b8181101562001590576200158460008262001551565b6001810190506200156e565b5050565b601f821115620015df57620015a9816200145d565b620015b48462001472565b81016020851015620015c4578190505b620015dc620015d38562001472565b8301826200156d565b50505b505050565b600082821c905092915050565b60006200160460001984600802620015e4565b1980831691505092915050565b60006200161f8383620015f1565b9150826002028217905092915050565b6200163a82620013ee565b67ffffffffffffffff81111562001656576200165562000fba565b5b62001662825462001428565b6200166f82828562001594565b600060209050601f831160018114620016a7576000841562001692578287015190505b6200169e858262001611565b8655506200170e565b601f198416620016b7866200145d565b60005b82811015620016e157848901518255600182019150602085019450602081019050620016ba565b86831015620017015784890151620016fd601f891682620015f1565b8355505b6001600288020188555050505b505050505050565b62001721816200114d565b82525050565b60006040820190506200173e600083018562001716565b6200174d602083018462001716565b9392505050565b6000819050919050565b620017698162001754565b82525050565b6200177a81620011d7565b82525050565b600060a0820190506200179760008301886200175e565b620017a660208301876200175e565b620017b560408301866200175e565b620017c460608301856200176f565b620017d3608083018462001716565b9695505050505050565b6000604082019050620017f460008301856200176f565b6200180360208301846200176f565b9392505050565b600082825260208201905092915050565b7f476f7665726e6f7253657474696e67733a20766f74696e6720706572696f642060008201527f746f6f206c6f7700000000000000000000000000000000000000000000000000602082015250565b6000620018796027836200180a565b915062001886826200181b565b604082019050919050565b60006020820190508181036000830152620018ac816200186a565b9050919050565b7f476f7665726e6f72566f74657351756f72756d4672616374696f6e3a2071756f60008201527f72756d4e756d657261746f72206f7665722071756f72756d44656e6f6d696e6160208201527f746f720000000000000000000000000000000000000000000000000000000000604082015250565b6000620019376043836200180a565b91506200194482620018b3565b606082019050919050565b600060208201905081810360008301526200196a8162001928565b9050919050565b6200197c8162001212565b82525050565b600060408201905062001999600083018562001971565b620019a8602083018462001971565b9392505050565b6000620019bc82620013ee565b620019c881856200180a565b9350620019da81856020860162001083565b620019e58162000fa9565b840191505092915050565b6000602082019050818103600083015262001a0c8184620019af565b905092915050565b600081519050919050565b6000819050602082019050919050565b600062001a3d825162001754565b80915050919050565b600062001a538262001a14565b8262001a5f8462001a1f565b905062001a6c8162001a2f565b9250602082101562001aaf5762001aaa7fffffffffffffffffffffffffffffffffffffffffffffffffffffffffffffffff8360200360080262001482565b831692505b5050919050565b600065ffffffffffff82169050919050565b62001ad38162001ab6565b811462001adf57600080fd5b50565b60008151905062001af38162001ac8565b92915050565b60006020828403121562001b125762001b1162000f9a565b5b600062001b228482850162001ae2565b91505092915050565b7f53616665436173743a2076616c756520646f65736e27742066697420696e203360008201527f3220626974730000000000000000000000000000000000000000000000000000602082015250565b600062001b896026836200180a565b915062001b968262001b2b565b604082019050919050565b6000602082019050818103600083015262001bbc8162001b7a565b9050919050565b7f53616665436173743a2076616c756520646f65736e27742066697420696e203260008201527f3234206269747300000000000000000000000000000000000000000000000000602082015250565b600062001c216027836200180a565b915062001c2e8262001bc3565b604082019050919050565b6000602082019050818103600083015262001c548162001c12565b9050919050565b7f4e487b7100000000000000000000000000000000000000000000000000000000600052601160045260246000fd5b600062001c9782620011d7565b915062001ca483620011d7565b925082820390508181111562001cbf5762001cbe62001c5b565b5b92915050565b7f53616665436173743a2076616c756520646f65736e27742066697420696e203460008201527f3820626974730000000000000000000000000000000000000000000000000000602082015250565b600062001d236026836200180a565b915062001d308262001cc5565b604082019050919050565b6000602082019050818103600083015262001d568162001d14565b9050919050565b7f436865636b706f696e743a2064656372656173696e67206b6579730000000000600082015250565b600062001d95601b836200180a565b915062001da28262001d5d565b602082019050919050565b6000602082019050818103600083015262001dc88162001d86565b9050919050565b60805160a05160c05160e05161010051610120516101405161016051619c4962001e4360003960008181611f5d0152818161317501526133a7015260006125f1015260006125bd01526000615add01526000615abc01526000614d7901526000614dcf01526000614df80152619c496000f3fe6080604052600436106103e25760003560e01c80637d5e81e21161020d578063c59057e411610128578063df482caf116100bb578063ec2de58b1161008a578063f23a6e611161006f578063f23a6e61146110d7578063f8ce560a14611114578063fc0c546a146111515761045e565b8063ec2de58b14611071578063ece40cc1146110ae5761045e565b8063df482caf14610f91578063dfc3c9e714610fce578063ea0217cf1461100b578063eb9019d4146110345761045e565b8063d914e172116100f7578063d914e17214610ed3578063da22f06e14610f10578063dd4e2ba514610f3b578063deaaa7cc14610f665761045e565b8063c59057e414610e17578063ccb8370b14610e54578063d07f91e914610e7f578063d33219b414610ea85761045e565b8063a89f2638116101a0578063bc197c811161016f578063bc197c8114610d56578063c01f9e3714610d93578063c28bc2fa14610dd0578063c4e1da7014610dec5761045e565b8063a89f263814610c9a578063aa75a3c214610cc5578063ab58fb8e14610cee578063b58131b014610d2b5761045e565b80639a802a6d116101dc5780639a802a6d14610bcc5780639e2cf01e14610c09578063a7713a7014610c46578063a890c91014610c715761045e565b80637d5e81e214610b0857806384b0196e14610b4557806391ddadf414610b7657806397c3d33414610ba15761045e565b80633bccf4fd116102fd57806354fd4d501161029057806364cda3d41161025f57806364cda3d414610a5057806370b0f66014610a7957806377d7660214610aa25780637b3c71d314610acb5761045e565b806354fd4d501461096e57806356781388146109995780635f398a14146109d657806360c4247f14610a135761045e565b8063452115d6116102cc578063452115d61461089c5780634bf5d7e9146108d9578063506d1f8114610904578063544ffc9c1461092f5761045e565b80633bccf4fd146107bc5780633e4f49e6146107f9578063438596321461083657806343ec3e09146108735761045e565b8063150b7a02116103755780632fe3e261116103445780632fe3e261146106fe57806332b8113e14610729578063342cfab6146107545780633932abb1146107915761045e565b8063150b7a0214610617578063160cbed7146106545780632656227d146106915780632d63f693146106c15761045e565b806305ddb8ac116103b157806305ddb8ac1461054957806306f3f9e61461058657806306fdde03146105af578063143489d0146105da5761045e565b8063013cf08b1461046357806301ffc9a7146104a457806302a251a3146104e1578063034201811461050c5761045e565b3661045e573073ffffffffffffffffffffffffffffffffffffffff1661040661117c565b73ffffffffffffffffffffffffffffffffffffffff161461045c576040517f08c379a000000000000000000000000000000000000000000000000000000000815260040161045390616982565b60405180910390fd5b005b600080fd5b34801561046f57600080fd5b5061048a600480360381019061048591906169ec565b61118b565b60405161049b959493929190616a95565b60405180910390f35b3480156104b057600080fd5b506104cb60048036038101906104c69190616b40565b61121d565b6040516104d89190616b6d565b60405180910390f35b3480156104ed57600080fd5b506104f661122f565b6040516105039190616b97565b60405180910390f35b34801561051857600080fd5b50610533600480360381019061052e9190616dc7565b611239565b6040516105409190616b97565b60405180910390f35b34801561055557600080fd5b50610570600480360381019061056b91906169ec565b611259565b60405161057d9190616ec8565b60405180910390f35b34801561059257600080fd5b506105ad60048036038101906105a891906169ec565b611280565b005b3480156105bb57600080fd5b506105c4611377565b6040516105d19190616f51565b60405180910390f35b3480156105e657600080fd5b5061060160048036038101906105fc91906169ec565b611409565b60405161060e9190616f73565b60405180910390f35b34801561062357600080fd5b5061063e60048036038101906106399190616fba565b611449565b60405161064b919061704c565b60405180910390f35b34801561066057600080fd5b5061067b600480360381019061067691906172ce565b61145d565b6040516106889190616b97565b60405180910390f35b6106ab60048036038101906106a691906172ce565b611717565b6040516106b89190616b97565b60405180910390f35b3480156106cd57600080fd5b506106e860048036038101906106e391906169ec565b611865565b6040516106f59190616b97565b60405180910390f35b34801561070a57600080fd5b5061071361189d565b6040516107209190617398565b60405180910390f35b34801561073557600080fd5b5061073e6118c1565b60405161074b9190616ec8565b60405180910390f35b34801561076057600080fd5b5061077b600480360381019061077691906173b3565b6118df565b604051610788919061741e565b60405180910390f35b34801561079d57600080fd5b506107a6611956565b6040516107b39190616b97565b60405180910390f35b3480156107c857600080fd5b506107e360048036038101906107de9190617439565b611960565b6040516107f09190616b97565b60405180910390f35b34801561080557600080fd5b50610820600480360381019061081b91906169ec565b6119ea565b60405161082d919061752b565b60405180910390f35b34801561084257600080fd5b5061085d600480360381019061085891906173b3565b611bbd565b60405161086a9190616b6d565b60405180910390f35b34801561087f57600080fd5b5061089a600480360381019061089591906169ec565b611c48565b005b3480156108a857600080fd5b506108c360048036038101906108be91906172ce565b611d3f565b6040516108d09190616b97565b60405180910390f35b3480156108e557600080fd5b506108ee611e81565b6040516108fb9190616f51565b60405180910390f35b34801561091057600080fd5b50610919611f5b565b60405161092691906175a5565b60405180910390f35b34801561093b57600080fd5b50610956600480360381019061095191906169ec565b611f7f565b604051610965939291906175c0565b60405180910390f35b34801561097a57600080fd5b5061098361204a565b6040516109909190616f51565b60405180910390f35b3480156109a557600080fd5b506109c060048036038101906109bb91906175f7565b612087565b6040516109cd9190616b97565b60405180910390f35b3480156109e257600080fd5b506109fd60048036038101906109f89190617637565b6120b8565b604051610a0a9190616b97565b60405180910390f35b348015610a1f57600080fd5b50610a3a6004803603810190610a3591906169ec565b612122565b604051610a479190616b97565b60405180910390f35b348015610a5c57600080fd5b50610a776004803603810190610a7291906169ec565b612281565b005b348015610a8557600080fd5b50610aa06004803603810190610a9b91906169ec565b612378565b005b348015610aae57600080fd5b50610ac96004803603810190610ac49190617787565b61246f565b005b348015610ad757600080fd5b50610af26004803603810190610aed9190617808565b612522565b604051610aff9190616b97565b60405180910390f35b348015610b1457600080fd5b50610b2f6004803603810190610b2a919061791d565b61258a565b604051610b3c9190616b97565b60405180910390f35b348015610b5157600080fd5b50610b5a6125aa565b604051610b6d9796959493929190617aed565b60405180910390f35b348015610b8257600080fd5b50610b8b6126ac565b604051610b989190617b92565b60405180910390f35b348015610bad57600080fd5b50610bb6612754565b604051610bc39190616b97565b60405180910390f35b348015610bd857600080fd5b50610bf36004803603810190610bee9190617bad565b61275d565b604051610c009190616b97565b60405180910390f35b348015610c1557600080fd5b50610c306004803603810190610c2b91906169ec565b612773565b604051610c3d9190617398565b60405180910390f35b348015610c5257600080fd5b50610c5b61278b565b604051610c689190616b97565b60405180910390f35b348015610c7d57600080fd5b50610c986004803603810190610c939190617c6c565b6127ba565b005b348015610ca657600080fd5b50610caf6128b1565b604051610cbc9190616b97565b60405180910390f35b348015610cd157600080fd5b50610cec6004803603810190610ce79190617c99565b6128b7565b005b348015610cfa57600080fd5b50610d156004803603810190610d1091906169ec565b6129ae565b604051610d229190616b97565b60405180910390f35b348015610d3757600080fd5b50610d40612a7b565b604051610d4d9190616b97565b60405180910390f35b348015610d6257600080fd5b50610d7d6004803603810190610d789190617cc6565b612a8a565b604051610d8a919061704c565b60405180910390f35b348015610d9f57600080fd5b50610dba6004803603810190610db591906169ec565b612a9f565b604051610dc79190616b97565b60405180910390f35b610dea6004803603810190610de59190617deb565b612ab1565b005b348015610df857600080fd5b50610e01612c3a565b604051610e0e9190616ec8565b60405180910390f35b348015610e2357600080fd5b50610e3e6004803603810190610e3991906172ce565b612c54565b604051610e4b9190616b97565b60405180910390f35b348015610e6057600080fd5b50610e69612c90565b604051610e769190616b97565b60405180910390f35b348015610e8b57600080fd5b50610ea66004803603810190610ea19190617e8b565b612cbf565b005b348015610eb457600080fd5b50610ebd612db6565b604051610eca9190616f73565b60405180910390f35b348015610edf57600080fd5b50610efa6004803603810190610ef591906169ec565b612de0565b604051610f079190616b97565b60405180910390f35b348015610f1c57600080fd5b50610f25612df8565b604051610f329190617eeb565b60405180910390f35b348015610f4757600080fd5b50610f50612e1e565b604051610f5d9190616f51565b60405180910390f35b348015610f7257600080fd5b50610f7b612e3e565b604051610f889190617398565b60405180910390f35b348015610f9d57600080fd5b50610fb86004803603810190610fb39190617c99565b612e62565b604051610fc5919061741e565b60405180910390f35b348015610fda57600080fd5b50610ff56004803603810190610ff091906169ec565b612e91565b6040516110029190616b97565b60405180910390f35b34801561101757600080fd5b50611032600480360381019061102d91906169ec565b612ff0565b005b34801561104057600080fd5b5061105b60048036038101906110569190617f06565b6130e7565b6040516110689190616b97565b60405180910390f35b34801561107d57600080fd5b50611098600480360381019061109391906169ec565b613103565b6040516110a59190616b97565b60405180910390f35b3480156110ba57600080fd5b506110d560048036038101906110d091906169ec565b613229565b005b3480156110e357600080fd5b506110fe60048036038101906110f99190617f46565b613320565b60405161110b919061704c565b60405180910390f35b34801561112057600080fd5b5061113b600480360381019061113691906169ec565b613335565b6040516111489190616b97565b60405180910390f35b34801561115d57600080fd5b5061116661345b565b6040516111739190617ffe565b60405180910390f35b6000611186613481565b905090565b60036020528060005260406000206000915090508060000160009054906101000a900473ffffffffffffffffffffffffffffffffffffffff16908060000160149054906101000a900464ffffffffff16908060000160199054906101000a900464ffffffffff169080600001601e9054906101000a900460ff169080600001601f9054906101000a900460ff16905085565b6000611228826134ab565b9050919050565b6000600754905090565b600061124b8989898989898989613525565b905098975050505050505050565b60146020528060005260406000206000915054906101000a900467ffffffffffffffff1681565b61128861117c565b73ffffffffffffffffffffffffffffffffffffffff166112a6613545565b73ffffffffffffffffffffffffffffffffffffffff16146112fc576040517f08c379a00000000000000000000000000000000000000000000000000000000081526004016112f390618065565b60405180910390fd5b3073ffffffffffffffffffffffffffffffffffffffff1661131b61117c565b73ffffffffffffffffffffffffffffffffffffffff161461136b57600061134061354d565b60405161134e9291906180b5565b604051809103902090505b80611364600461355a565b0361135957505b61137481613636565b50565b606060028054611386906180fd565b80601f01602080910402602001604051908101604052809291908181526020018280546113b2906180fd565b80156113ff5780601f106113d4576101008083540402835291602001916113ff565b820191906000526020600020905b8154815290600101906020018083116113e257829003601f168201915b5050505050905090565b60006003600083815260200190815260200160002060000160009054906101000a900473ffffffffffffffffffffffffffffffffffffffff169050919050565b600063150b7a0260e01b9050949350505050565b60008061146c86868686612c54565b905060046007811115611482576114816174b4565b5b61148b826119ea565b600781111561149d5761149c6174b4565b5b146114dd576040517f08c379a00000000000000000000000000000000000000000000000000000000081526004016114d4906181a0565b60405180910390fd5b6000601160009054906101000a900473ffffffffffffffffffffffffffffffffffffffff1673ffffffffffffffffffffffffffffffffffffffff1663f27a0c926040518163ffffffff1660e01b8152600401602060405180830381865afa15801561154c573d6000803e3d6000fd5b505050506040513d601f19601f8201168201806040525081019061157091906181d5565b9050601160009054906101000a900473ffffffffffffffffffffffffffffffffffffffff1673ffffffffffffffffffffffffffffffffffffffff1663b1c5f4278888886000896040518663ffffffff1660e01b81526004016115d695949392919061841f565b602060405180830381865afa1580156115f3573d6000803e3d6000fd5b505050506040513d601f19601f82011682018060405250810190611617919061849c565b6012600084815260200190815260200160002081905550601160009054906101000a900473ffffffffffffffffffffffffffffffffffffffff1673ffffffffffffffffffffffffffffffffffffffff16638f2a0bb0888888600089876040518763ffffffff1660e01b8152600401611694969594939291906184c9565b600060405180830381600087803b1580156116ae57600080fd5b505af11580156116c2573d6000803e3d6000fd5b505050507f9a2e42fd6722813d69113e7d0079d3d940171428df7373df9c7f7617cfda28928282426116f4919061856e565b6040516117029291906185a2565b60405180910390a18192505050949350505050565b60008061172686868686612c54565b90506000611733826119ea565b905060046007811115611749576117486174b4565b5b81600781111561175c5761175b6174b4565b5b148061178c575060056007811115611777576117766174b4565b5b81600781111561178a576117896174b4565b5b145b6117cb576040517f08c379a00000000000000000000000000000000000000000000000000000000081526004016117c2906181a0565b60405180910390fd5b600160036000848152602001908152602001600020600001601e6101000a81548160ff0219169083151502179055507f712ae1383f79ac853f8d882153778e0260ef8f03b504e2866e0593e04d2b291f826040516118299190616b97565b60405180910390a161183e8288888888613700565b61184b82888888886137e3565b61185882888888886137f7565b8192505050949350505050565b60006003600083815260200190815260200160002060000160149054906101000a900464ffffffffff1664ffffffffff169050919050565b7fb3b3f3b703cd84ce352197dcff232b1b5d3cfb2025ce47cf04742d0651f1af8881565b6000601360009054906101000a900467ffffffffffffffff16905090565b6000600c600084815260200190815260200160002060008373ffffffffffffffffffffffffffffffffffffffff1673ffffffffffffffffffffffffffffffffffffffff16815260200190815260200160002060009054906101000a90046fffffffffffffffffffffffffffffffff16905092915050565b6000600654905090565b6000806119c16119b97f150214d74d59b7d1e90c73fc22ef3d991dd0a76b046543d4d80ab92d2a50328f898960405160200161199e939291906185da565b60405160208183030381529060405280519060200120613852565b86868661386c565b90506119de87828860405180602001604052806000815250613897565b91505095945050505050565b6000806119f6836138b7565b905060046007811115611a0c57611a0b6174b4565b5b816007811115611a1f57611a1e6174b4565b5b14611a2d5780915050611bb8565b6000601260008581526020019081526020016000205490506000801b8103611a59578192505050611bb8565b601160009054906101000a900473ffffffffffffffffffffffffffffffffffffffff1673ffffffffffffffffffffffffffffffffffffffff16632ab0f529826040518263ffffffff1660e01b8152600401611ab49190617398565b602060405180830381865afa158015611ad1573d6000803e3d6000fd5b505050506040513d601f19601f82011682018060405250810190611af5919061863d565b15611b0557600792505050611bb8565b601160009054906101000a900473ffffffffffffffffffffffffffffffffffffffff1673ffffffffffffffffffffffffffffffffffffffff1663584b153e826040518263ffffffff1660e01b8152600401611b609190617398565b602060405180830381865afa158015611b7d573d6000803e3d6000fd5b505050506040513d601f19601f82011682018060405250810190611ba1919061863d565b15611bb157600592505050611bb8565b6002925050505b919050565b600080600c600085815260200190815260200160002060008473ffffffffffffffffffffffffffffffffffffffff1673ffffffffffffffffffffffffffffffffffffffff16815260200190815260200160002060009054906101000a90046fffffffffffffffffffffffffffffffff166fffffffffffffffffffffffffffffffff1611905092915050565b611c5061117c565b73ffffffffffffffffffffffffffffffffffffffff16611c6e613545565b73ffffffffffffffffffffffffffffffffffffffff1614611cc4576040517f08c379a0000000000000000000000000000000000000000000000000000000008152600401611cbb90618065565b60405180910390fd5b3073ffffffffffffffffffffffffffffffffffffffff16611ce361117c565b73ffffffffffffffffffffffffffffffffffffffff1614611d33576000611d0861354d565b604051611d169291906180b5565b604051809103902090505b80611d2c600461355a565b03611d2157505b611d3c81613a37565b50565b600080611d4e86868686612c54565b905060006007811115611d6457611d636174b4565b5b611d6d826119ea565b6007811115611d7f57611d7e6174b4565b5b14611dbf576040517f08c379a0000000000000000000000000000000000000000000000000000000008152600401611db6906186b6565b60405180910390fd5b6003600082815260200190815260200160002060000160009054906101000a900473ffffffffffffffffffffffffffffffffffffffff1673ffffffffffffffffffffffffffffffffffffffff16611e14613545565b73ffffffffffffffffffffffffffffffffffffffff1614611e6a576040517f08c379a0000000000000000000000000000000000000000000000000000000008152600401611e6190618748565b60405180910390fd5b611e7686868686613af8565b915050949350505050565b6060600960009054906101000a900473ffffffffffffffffffffffffffffffffffffffff1673ffffffffffffffffffffffffffffffffffffffff16634bf5d7e96040518163ffffffff1660e01b8152600401600060405180830381865afa925050508015611f1257506040513d6000823e3d601f19601f82011682018060405250810190611f0f91906187d8565b60015b611f53576040518060400160405280601d81526020017f6d6f64653d626c6f636b6e756d6265722666726f6d3d64656661756c740000008152509050611f58565b809150505b90565b7f000000000000000000000000000000000000000000000000000000000000000081565b600080600080600b600086815260200190815260200160002090508060000160009054906101000a90046fffffffffffffffffffffffffffffffff168160000160109054906101000a90046fffffffffffffffffffffffffffffffff168260010160009054906101000a90046fffffffffffffffffffffffffffffffff16826fffffffffffffffffffffffffffffffff169250816fffffffffffffffffffffffffffffffff169150806fffffffffffffffffffffffffffffffff169050935093509350509193909250565b60606040518060400160405280600181526020017f3100000000000000000000000000000000000000000000000000000000000000815250905090565b600080612092613545565b90506120af84828560405180602001604052806000815250613897565b91505092915050565b6000806120c3613545565b905061211687828888888080601f016020809104026020016040519081016040528093929190818152602001838380828437600081840152601f19601f8201169050808301925050505050505087613b10565b91505095945050505050565b600080600a6000018054905090506000600a6000016001836121449190618821565b8154811061215557612154618855565b5b906000526020600020016040518060400160405290816000820160009054906101000a900463ffffffff1663ffffffff1663ffffffff1681526020016000820160049054906101000a90047bffffffffffffffffffffffffffffffffffffffffffffffffffffffff167bffffffffffffffffffffffffffffffffffffffffffffffffffffffff167bffffffffffffffffffffffffffffffffffffffffffffffffffffffff1681525050905083816000015163ffffffff161161223d5780602001517bffffffffffffffffffffffffffffffffffffffffffffffffffffffff169250505061227c565b61225961224985613b2a565b600a613b7d90919063ffffffff16565b7bffffffffffffffffffffffffffffffffffffffffffffffffffffffff16925050505b919050565b61228961117c565b73ffffffffffffffffffffffffffffffffffffffff166122a7613545565b73ffffffffffffffffffffffffffffffffffffffff16146122fd576040517f08c379a00000000000000000000000000000000000000000000000000000000081526004016122f490618065565b60405180910390fd5b3073ffffffffffffffffffffffffffffffffffffffff1661231c61117c565b73ffffffffffffffffffffffffffffffffffffffff161461236c57600061234161354d565b60405161234f9291906180b5565b604051809103902090505b80612365600461355a565b0361235a57505b61237581613c73565b50565b61238061117c565b73ffffffffffffffffffffffffffffffffffffffff1661239e613545565b73ffffffffffffffffffffffffffffffffffffffff16146123f4576040517f08c379a00000000000000000000000000000000000000000000000000000000081526004016123eb90618065565b60405180910390fd5b3073ffffffffffffffffffffffffffffffffffffffff1661241361117c565b73ffffffffffffffffffffffffffffffffffffffff161461246357600061243861354d565b6040516124469291906180b5565b604051809103902090505b8061245c600461355a565b0361245157505b61246c81613cbe565b50565b60008484905090508282905081146124b3576040517fa669fc0500000000000000000000000000000000000000000000000000000000815260040160405180910390fd5b60005b8181101561251a576125088686838181106124d4576124d3618855565b5b905060200201358585848181106124ee576124ed618855565b5b90506020020160208101906125039190618884565b612087565b5080612513906188b1565b90506124b6565b505050505050565b60008061252d613545565b905061257f86828787878080601f016020809104026020016040519081016040528093929190818152602001838380828437600081840152601f19601f82011690508083019250505050505050613897565b915050949350505050565b6000612594613d03565b6125a085858585613d6b565b9050949350505050565b6000606080600080600060606125ea60007f000000000000000000000000000000000000000000000000000000000000000061410690919063ffffffff16565b61261e60017f000000000000000000000000000000000000000000000000000000000000000061410690919063ffffffff16565b46306000801b600067ffffffffffffffff81111561263f5761263e616c66565b5b60405190808252806020026020018201604052801561266d5781602001602082028036833780820191505090505b507f0f00000000000000000000000000000000000000000000000000000000000000959493929190965096509650965096509650965090919293949596565b6000600960009054906101000a900473ffffffffffffffffffffffffffffffffffffffff1673ffffffffffffffffffffffffffffffffffffffff166391ddadf46040518163ffffffff1660e01b8152600401602060405180830381865afa92505050801561273857506040513d601f19601f820116820180604052508101906127359190618925565b60015b61274c57612745436141b6565b9050612751565b809150505b90565b60006064905090565b600061276a84848461420b565b90509392505050565b60126020528060005260406000206000915090505481565b6000612797600a6142b4565b7bffffffffffffffffffffffffffffffffffffffffffffffffffffffff16905090565b6127c261117c565b73ffffffffffffffffffffffffffffffffffffffff166127e0613545565b73ffffffffffffffffffffffffffffffffffffffff1614612836576040517f08c379a000000000000000000000000000000000000000000000000000000000815260040161282d90618065565b60405180910390fd5b3073ffffffffffffffffffffffffffffffffffffffff1661285561117c565b73ffffffffffffffffffffffffffffffffffffffff16146128a557600061287a61354d565b6040516128889291906180b5565b604051809103902090505b8061289e600461355a565b0361289357505b6128ae8161431e565b50565b600e5481565b6128bf61117c565b73ffffffffffffffffffffffffffffffffffffffff166128dd613545565b73ffffffffffffffffffffffffffffffffffffffff1614612933576040517f08c379a000000000000000000000000000000000000000000000000000000000815260040161292a90618065565b60405180910390fd5b3073ffffffffffffffffffffffffffffffffffffffff1661295261117c565b73ffffffffffffffffffffffffffffffffffffffff16146129a257600061297761354d565b6040516129859291906180b5565b604051809103902090505b8061299b600461355a565b0361299057505b6129ab816143bd565b50565b600080601160009054906101000a900473ffffffffffffffffffffffffffffffffffffffff1673ffffffffffffffffffffffffffffffffffffffff1663d45c443560126000868152602001908152602001600020546040518263ffffffff1660e01b8152600401612a1f9190617398565b602060405180830381865afa158015612a3c573d6000803e3d6000fd5b505050506040513d601f19601f82011682018060405250810190612a6091906181d5565b905060018114612a705780612a73565b60005b915050919050565b6000612a85614462565b905090565b600063bc197c8160e01b905095945050505050565b6000612aaa82614471565b9050919050565b612ab961117c565b73ffffffffffffffffffffffffffffffffffffffff16612ad7613545565b73ffffffffffffffffffffffffffffffffffffffff1614612b2d576040517f08c379a0000000000000000000000000000000000000000000000000000000008152600401612b2490618065565b60405180910390fd5b3073ffffffffffffffffffffffffffffffffffffffff16612b4c61117c565b73ffffffffffffffffffffffffffffffffffffffff1614612b9c576000612b7161354d565b604051612b7f9291906180b5565b604051809103902090505b80612b95600461355a565b03612b8a57505b6000808573ffffffffffffffffffffffffffffffffffffffff16858585604051612bc79291906180b5565b60006040518083038185875af1925050503d8060008114612c04576040519150601f19603f3d011682016040523d82523d6000602084013e612c09565b606091505b5091509150612c318282604051806060016040528060288152602001619bcc602891396144bd565b50505050505050565b601360009054906101000a900467ffffffffffffffff1681565b600084848484604051602001612c6d9493929190618952565b6040516020818303038152906040528051906020012060001c9050949350505050565b6000612c9c600f6142b4565b7bffffffffffffffffffffffffffffffffffffffffffffffffffffffff16905090565b612cc761117c565b73ffffffffffffffffffffffffffffffffffffffff16612ce5613545565b73ffffffffffffffffffffffffffffffffffffffff1614612d3b576040517f08c379a0000000000000000000000000000000000000000000000000000000008152600401612d3290618065565b60405180910390fd5b3073ffffffffffffffffffffffffffffffffffffffff16612d5a61117c565b73ffffffffffffffffffffffffffffffffffffffff1614612daa576000612d7f61354d565b604051612d8d9291906180b5565b604051809103902090505b80612da3600461355a565b03612d9857505b612db3816144df565b50565b6000601160009054906101000a900473ffffffffffffffffffffffffffffffffffffffff16905090565b60106020528060005260406000206000915090505481565b601160009054906101000a900473ffffffffffffffffffffffffffffffffffffffff1681565b6060604051806080016040528060498152602001619bf460499139905090565b7f150214d74d59b7d1e90c73fc22ef3d991dd0a76b046543d4d80ab92d2a50328f81565b600d6020528060005260406000206000915054906101000a90046fffffffffffffffffffffffffffffffff1681565b600080600f6000018054905090506000600f600001600183612eb39190618821565b81548110612ec457612ec3618855565b5b906000526020600020016040518060400160405290816000820160009054906101000a900463ffffffff1663ffffffff1663ffffffff1681526020016000820160049054906101000a90047bffffffffffffffffffffffffffffffffffffffffffffffffffffffff167bffffffffffffffffffffffffffffffffffffffffffffffffffffffff167bffffffffffffffffffffffffffffffffffffffffffffffffffffffff1681525050905083816000015163ffffffff1611612fac5780602001517bffffffffffffffffffffffffffffffffffffffffffffffffffffffff1692505050612feb565b612fc8612fb885613b2a565b600f613b7d90919063ffffffff16565b7bffffffffffffffffffffffffffffffffffffffffffffffffffffffff16925050505b919050565b612ff861117c565b73ffffffffffffffffffffffffffffffffffffffff16613016613545565b73ffffffffffffffffffffffffffffffffffffffff161461306c576040517f08c379a000000000000000000000000000000000000000000000000000000000815260040161306390618065565b60405180910390fd5b3073ffffffffffffffffffffffffffffffffffffffff1661308b61117c565b73ffffffffffffffffffffffffffffffffffffffff16146130db5760006130b061354d565b6040516130be9291906180b5565b604051809103902090505b806130d4600461355a565b036130c957505b6130e48161455a565b50565b60006130fb83836130f66145e2565b61420b565b905092915050565b60008060106000848152602001908152602001600020549050600081148061312b5750438110155b15613162576040517f749c2c6d00000000000000000000000000000000000000000000000000000000815260040160405180910390fd5b61316a612754565b61317384612e91565b7f000000000000000000000000000000000000000000000000000000000000000073ffffffffffffffffffffffffffffffffffffffff1663981b24d0846040518263ffffffff1660e01b81526004016131cc9190616b97565b602060405180830381865afa1580156131e9573d6000803e3d6000fd5b505050506040513d601f19601f8201168201806040525081019061320d91906181d5565b61321791906189ac565b6132219190618a1d565b915050919050565b61323161117c565b73ffffffffffffffffffffffffffffffffffffffff1661324f613545565b73ffffffffffffffffffffffffffffffffffffffff16146132a5576040517f08c379a000000000000000000000000000000000000000000000000000000000815260040161329c90618065565b60405180910390fd5b3073ffffffffffffffffffffffffffffffffffffffff166132c461117c565b73ffffffffffffffffffffffffffffffffffffffff16146133145760006132e961354d565b6040516132f79291906180b5565b604051809103902090505b8061330d600461355a565b0361330257505b61331d816145f9565b50565b600063f23a6e6160e01b905095945050505050565b60008060106000848152602001908152602001600020549050600081148061335d5750438110155b15613394576040517f749c2c6d00000000000000000000000000000000000000000000000000000000815260040160405180910390fd5b61339c612754565b6133a584612122565b7f000000000000000000000000000000000000000000000000000000000000000073ffffffffffffffffffffffffffffffffffffffff1663981b24d0846040518263ffffffff1660e01b81526004016133fe9190616b97565b602060405180830381865afa15801561341b573d6000803e3d6000fd5b505050506040513d601f19601f8201168201806040525081019061343f91906181d5565b61344991906189ac565b6134539190618a1d565b915050919050565b600960009054906101000a900473ffffffffffffffffffffffffffffffffffffffff1681565b6000601160009054906101000a900473ffffffffffffffffffffffffffffffffffffffff16905090565b60007f6e665ced000000000000000000000000000000000000000000000000000000007bffffffffffffffffffffffffffffffffffffffffffffffffffffffff1916827bffffffffffffffffffffffffffffffffffffffffffffffffffffffff1916148061351e575061351d8261463e565b5b9050919050565b6000613537898989898989898961485a565b905098975050505050505050565b600033905090565b3660008036915091509091565b600061356582614b1d565b1561359c576040517f3db2a12a00000000000000000000000000000000000000000000000000000000815260040160405180910390fd5b60008260000160009054906101000a9004600f0b905082600101600082600f0b600f0b815260200190815260200160002054915082600101600082600f0b600f0b815260200190815260200160002060009055600181018360000160006101000a8154816fffffffffffffffffffffffffffffffff0219169083600f0b6fffffffffffffffffffffffffffffffff16021790555050919050565b61363e612754565b811115613680576040517f08c379a000000000000000000000000000000000000000000000000000000000815260040161367790618ae6565b60405180910390fd5b600061368a61278b565b90506136c16136a761369a6126ac565b65ffffffffffff16613b2a565b6136b084614b52565b600a614bbd9092919063ffffffff16565b50507f0553476bf02ef2726e8ce5ced78d63e26e602e4a2257b1f559418e24b463399781836040516136f49291906185a2565b60405180910390a15050565b3073ffffffffffffffffffffffffffffffffffffffff1661371f61117c565b73ffffffffffffffffffffffffffffffffffffffff16146137dc5760005b84518110156137da573073ffffffffffffffffffffffffffffffffffffffff168582815181106137705761376f618855565b5b602002602001015173ffffffffffffffffffffffffffffffffffffffff16036137c9576137c88382815181106137a9576137a8618855565b5b6020026020010151805190602001206004614bda90919063ffffffff16565b5b806137d3906188b1565b905061373d565b505b5050505050565b6137f08585858585614c56565b5050505050565b3073ffffffffffffffffffffffffffffffffffffffff1661381661117c565b73ffffffffffffffffffffffffffffffffffffffff161461384b5761383b6004614b1d565b61384a576138496004614cf4565b5b5b5050505050565b600061386561385f614d75565b83614e2c565b9050919050565b600080600061387d87878787614e6d565b9150915061388a81614f4f565b8192505050949350505050565b60006138ad858585856138a86145e2565b613b10565b9050949350505050565b60008060036000848152602001908152602001600020905080600001601e9054906101000a900460ff16156138f0576007915050613a32565b80600001601f9054906101000a900460ff1615613911576002915050613a32565b600061391c84611865565b905060008103613961576040517f08c379a000000000000000000000000000000000000000000000000000000000815260040161395890618b52565b60405180910390fd5b600061396b6126ac565b65ffffffffffff1690508082101580613997575043601060008481526020019081526020016000205410155b156139a85760009350505050613a32565b6139b1856150b5565b156139c25760049350505050613a32565b6139cb856150e6565b156139dc5760039350505050613a32565b60006139e786612a9f565b90508181106139fd576001945050505050613a32565b613a0686615117565b8015613a175750613a168661516f565b5b15613a29576004945050505050613a32565b60039450505050505b919050565b613a3f612754565b811115613a78576040517f01c78a6400000000000000000000000000000000000000000000000000000000815260040160405180910390fd5b6000613a82612c90565b9050613ab9613a9f613a926126ac565b65ffffffffffff16613b2a565b613aa884614b52565b600f614bbd9092919063ffffffff16565b50507fdd2b8b2d874e19a344cba53b9fb534ea748ef117ed4b75c67569a794864541938183604051613aec9291906185a2565b60405180910390a15050565b6000613b06858585856151f6565b9050949350505050565b6000613b1f86868686866152e8565b905095945050505050565b600063ffffffff8016821115613b75576040517f08c379a0000000000000000000000000000000000000000000000000000000008152600401613b6c90618be4565b60405180910390fd5b819050919050565b600080836000018054905090506000808290506005831115613bff576000613ba484615407565b84613baf9190618821565b9050613bbe8760000182615500565b60000160009054906101000a900463ffffffff1663ffffffff168663ffffffff161015613bed57809150613bfd565b600181613bfa919061856e565b92505b505b6000613c1087600001878585615515565b905060008114613c6457613c3387600001600183613c2e9190618821565b615500565b60000160049054906101000a90047bffffffffffffffffffffffffffffffffffffffffffffffffffffffff16613c67565b60005b94505050505092915050565b6000600e54905081600e819055507fd3c1cdfd662fbb8e44190410d3a0d46855746182cb8d1e5e41bc84f5afecef4f8183604051613cb29291906185a2565b60405180910390a15050565b7fc565b045403dc03c2eea82b81a0465edad9e2e7fc4d97e11421c209da93d7a9360065482604051613cf19291906185a2565b60405180910390a18060068190555050565b613d0b612a7b565b613d3133600142613d1c9190618821565b6040518060200160405280600081525061420b565b1015613d69576040517f69c6f82100000000000000000000000000000000000000000000000000000000815260040160405180910390fd5b565b6000613d808585858580519060200120612c54565b90508351855114613dc6576040517f08c379a0000000000000000000000000000000000000000000000000000000008152600401613dbd90618c76565b60405180910390fd5b8251855114613e0a576040517f08c379a0000000000000000000000000000000000000000000000000000000008152600401613e0190618c76565b60405180910390fd5b6000855111613e4e576040517f08c379a0000000000000000000000000000000000000000000000000000000008152600401613e4590618ce2565b60405180910390fd5b60006003600083815260200190815260200160002060000160149054906101000a900464ffffffffff1664ffffffffff1614613ebf576040517f08c379a0000000000000000000000000000000000000000000000000000000008152600401613eb690618d74565b60405180910390fd5b60003390506000613ece611956565b613ed66126ac565b65ffffffffffff16613ee8919061856e565b90506000613ef461122f565b82613eff919061856e565b90506040518060a001604052808473ffffffffffffffffffffffffffffffffffffffff1681526020018364ffffffffff1681526020018264ffffffffff168152602001600015158152602001600015158152506003600086815260200190815260200160002060008201518160000160006101000a81548173ffffffffffffffffffffffffffffffffffffffff021916908373ffffffffffffffffffffffffffffffffffffffff16021790555060208201518160000160146101000a81548164ffffffffff021916908364ffffffffff16021790555060408201518160000160196101000a81548164ffffffffff021916908364ffffffffff160217905550606082015181600001601e6101000a81548160ff021916908315150217905550608082015181600001601f6101000a81548160ff021916908315150217905550905050600e544361404f919061856e565b60106000848152602001908152602001600020819055507f7d84a6263ae0d98d3329bd7b46bb4e8d6f98cd35a7adb45c274c8b7fd5ebd5e084848a8a8c5167ffffffffffffffff8111156140a6576140a5616c66565b5b6040519080825280602002602001820160405280156140d957816020015b60608152602001906001900390816140c45790505b508b88888d6040516140f399989796959493929190618ea0565b60405180910390a1505050949350505050565b606060ff60001b83146141235761411c83615588565b90506141b0565b81805461412f906180fd565b80601f016020809104026020016040519081016040528092919081815260200182805461415b906180fd565b80156141a85780601f1061417d576101008083540402835291602001916141a8565b820191906000526020600020905b81548152906001019060200180831161418b57829003601f168201915b505050505090505b92915050565b600065ffffffffffff8016821115614203576040517f08c379a00000000000000000000000000000000000000000000000000000000081526004016141fa90618fc2565b60405180910390fd5b819050919050565b6000600960009054906101000a900473ffffffffffffffffffffffffffffffffffffffff1673ffffffffffffffffffffffffffffffffffffffff16633a46b1a885856040518363ffffffff1660e01b815260040161426a929190618fe2565b602060405180830381865afa158015614287573d6000803e3d6000fd5b505050506040513d601f19601f820116820180604052508101906142ab91906181d5565b90509392505050565b6000808260000180549050905060008114614313576142e2836000016001836142dd9190618821565b615500565b60000160049054906101000a90047bffffffffffffffffffffffffffffffffffffffffffffffffffffffff16614316565b60005b915050919050565b7f08f74ea46ef7894f65eabfb5e6e695de773a000b47c529ab559178069b226401601160009054906101000a900473ffffffffffffffffffffffffffffffffffffffff168260405161437192919061900b565b60405180910390a180601160006101000a81548173ffffffffffffffffffffffffffffffffffffffff021916908373ffffffffffffffffffffffffffffffffffffffff16021790555050565b6000600960009054906101000a900473ffffffffffffffffffffffffffffffffffffffff16905081600960006101000a81548173ffffffffffffffffffffffffffffffffffffffff021916908373ffffffffffffffffffffffffffffffffffffffff1602179055507fc255828f3e19c78de5df3dd5b6706d49bd5dd58e76275f97bd69987870099520818360405161445692919061900b565b60405180910390a15050565b600061446c6155fc565b905090565b60006144b661447f83615606565b6014600085815260200190815260200160002060009054906101000a900467ffffffffffffffff1667ffffffffffffffff1661563e565b9050919050565b606083156144cd578290506144d8565b6144d78383615657565b5b9392505050565b7f7ca4ac117ed3cdce75c1161d8207c440389b1a15d69d096831664657c07dafc2601360009054906101000a900467ffffffffffffffff1682604051614526929190619034565b60405180910390a180601360006101000a81548167ffffffffffffffff021916908367ffffffffffffffff16021790555050565b6000811161459d576040517f08c379a0000000000000000000000000000000000000000000000000000000008152600401614594906190cf565b60405180910390fd5b7f7e3f7f0708a84de9203036abaa450dccc85ad5ff52f78c170f3edb55cf5e8828600754826040516145d09291906185a2565b60405180910390a18060078190555050565b606060405180602001604052806000815250905090565b7fccb45da8d5717e6c4544694297c4ba5cf151d455c9bb0ed4fc7a38411bc054616008548260405161462c9291906185a2565b60405180910390a18060088190555050565b60008063143489d060e01b63452115d660e01b1890506000639a802a6d60e01b630342018160e01b635f398a1460e01b18189050600081837fda287a1d000000000000000000000000000000000000000000000000000000007ff2e09f740000000000000000000000000000000000000000000000000000000018181890506000837fda287a1d000000000000000000000000000000000000000000000000000000007ff2e09f740000000000000000000000000000000000000000000000000000000018189050817bffffffffffffffffffffffffffffffffffffffffffffffffffffffff1916867bffffffffffffffffffffffffffffffffffffffffffffffffffffffff1916148061478f5750807bffffffffffffffffffffffffffffffffffffffffffffffffffffffff1916867bffffffffffffffffffffffffffffffffffffffffffffffffffffffff1916145b806147d75750837bffffffffffffffffffffffffffffffffffffffffffffffffffffffff1916867bffffffffffffffffffffffffffffffffffffffffffffffffffffffff1916145b8061483f57507f4e2312e0000000000000000000000000000000000000000000000000000000007bffffffffffffffffffffffffffffffffffffffffffffffffffffffff1916867bffffffffffffffffffffffffffffffffffffffffffffffffffffffff1916145b8061484f575061484e866156a7565b5b945050505050919050565b600060408551148061486d575060008551145b6148ac576040517f08c379a00000000000000000000000000000000000000000000000000000000081526004016148a390619187565b60405180910390fd5b600061492e6149267fb3b3f3b703cd84ce352197dcff232b1b5d3cfb2025ce47cf04742d0651f1af888c8c8c8c6040516148e79291906180b5565b60405180910390208b8051906020012060405160200161490b9594939291906191a7565b60405160208183030381529060405280519060200120613852565b86868661386c565b90506040865103614abd57600060408701516fffffffffffffffffffffffffffffffff169050806fffffffffffffffffffffffffffffffff16600d60008473ffffffffffffffffffffffffffffffffffffffff1673ffffffffffffffffffffffffffffffffffffffff16815260200190815260200160002060009054906101000a90046fffffffffffffffffffffffffffffffff166fffffffffffffffffffffffffffffffff1614614a15576040517f08c379a0000000000000000000000000000000000000000000000000000000008152600401614a0c9061926c565b60405180910390fd5b600d60008373ffffffffffffffffffffffffffffffffffffffff1673ffffffffffffffffffffffffffffffffffffffff168152602001908152602001600020600081819054906101000a90046fffffffffffffffffffffffffffffffff1680929190614a809061928c565b91906101000a8154816fffffffffffffffffffffffffffffffff02191690836fffffffffffffffffffffffffffffffff1602179055505060308752505b614b0e8a828b8b8b8080601f016020809104026020016040519081016040528093929190818152602001838380828437600081840152601f19601f820116905080830192505050505050508a613b10565b91505098975050505050505050565b60008160000160009054906101000a9004600f0b600f0b8260000160109054906101000a9004600f0b600f0b13159050919050565b60007bffffffffffffffffffffffffffffffffffffffffffffffffffffffff8016821115614bb5576040517f08c379a0000000000000000000000000000000000000000000000000000000008152600401614bac90619336565b60405180910390fd5b819050919050565b600080614bce856000018585615711565b91509150935093915050565b60008260000160109054906101000a9004600f0b90508183600101600083600f0b600f0b815260200190815260200160002081905550600181018360000160106101000a8154816fffffffffffffffffffffffffffffffff0219169083600f0b6fffffffffffffffffffffffffffffffff160217905550505050565b601160009054906101000a900473ffffffffffffffffffffffffffffffffffffffff1673ffffffffffffffffffffffffffffffffffffffff1663e38335e5348686866000876040518763ffffffff1660e01b8152600401614cbb95949392919061841f565b6000604051808303818588803b158015614cd457600080fd5b505af1158015614ce8573d6000803e3d6000fd5b50505050505050505050565b60008160000160006101000a8154816fffffffffffffffffffffffffffffffff0219169083600f0b6fffffffffffffffffffffffffffffffff16021790555060008160000160106101000a8154816fffffffffffffffffffffffffffffffff0219169083600f0b6fffffffffffffffffffffffffffffffff16021790555050565b60007f000000000000000000000000000000000000000000000000000000000000000073ffffffffffffffffffffffffffffffffffffffff163073ffffffffffffffffffffffffffffffffffffffff16148015614df157507f000000000000000000000000000000000000000000000000000000000000000046145b15614e1e577f00000000000000000000000000000000000000000000000000000000000000009050614e29565b614e26615a97565b90505b90565b60006040517f190100000000000000000000000000000000000000000000000000000000000081528360028201528260228201526042812091505092915050565b6000807f7fffffffffffffffffffffffffffffff5d576e7357a4501ddfe92f46681b20a08360001c1115614ea8576000600391509150614f46565b600060018787878760405160008152602001604052604051614ecd9493929190619356565b6020604051602081039080840390855afa158015614eef573d6000803e3d6000fd5b505050602060405103519050600073ffffffffffffffffffffffffffffffffffffffff168173ffffffffffffffffffffffffffffffffffffffff1603614f3d57600060019250925050614f46565b80600092509250505b94509492505050565b60006004811115614f6357614f626174b4565b5b816004811115614f7657614f756174b4565b5b03156150b25760016004811115614f9057614f8f6174b4565b5b816004811115614fa357614fa26174b4565b5b03614fe3576040517f08c379a0000000000000000000000000000000000000000000000000000000008152600401614fda906193e7565b60405180910390fd5b60026004811115614ff757614ff66174b4565b5b81600481111561500a576150096174b4565b5b0361504a576040517f08c379a000000000000000000000000000000000000000000000000000000000815260040161504190619453565b60405180910390fd5b6003600481111561505e5761505d6174b4565b5b816004811115615071576150706174b4565b5b036150b1576040517f08c379a00000000000000000000000000000000000000000000000000000000081526004016150a8906194e5565b60405180910390fd5b5b50565b6000806150c183611f7f565b5091505060006150d084611865565b90506150db81613103565b821192505050919050565b6000806150f283611f7f565b50509050600061510184611865565b905061510c81613103565b821192505050919050565b60008060008061512685611f7f565b925092509250600082841161513b578261513d565b835b9050600061514a87611865565b90508282615158919061856e565b61516182613335565b111595505050505050919050565b600080600b600084815260200190815260200160002090508060000160009054906101000a90046fffffffffffffffffffffffffffffffff166fffffffffffffffffffffffffffffffff168160000160109054906101000a90046fffffffffffffffffffffffffffffffff166fffffffffffffffffffffffffffffffff1611915050919050565b60008061520586868686615b2d565b90506000801b6012600083815260200190815260200160002054146152dc57601160009054906101000a900473ffffffffffffffffffffffffffffffffffffffff1673ffffffffffffffffffffffffffffffffffffffff1663c4d252f560126000848152602001908152602001600020546040518263ffffffff1660e01b81526004016152929190617398565b600060405180830381600087803b1580156152ac57600080fd5b505af11580156152c0573d6000803e3d6000fd5b5050505060126000828152602001908152602001600020600090555b80915050949350505050565b6000806152f88787878787615c87565b905060006014600089815260200190815260200160002060009054906101000a900467ffffffffffffffff1667ffffffffffffffff16148015615340575061533f87615117565b5b156153fa57600061534f6118c1565b6153576126ac565b65ffffffffffff166153699190619505565b905061537488612a9f565b8167ffffffffffffffff1611156153be57877f541f725fb9f7c98a30cc9c0ff32fbb14358cd7159c847a3aa20a2bdc442ba511826040516153b59190616ec8565b60405180910390a25b80601460008a815260200190815260200160002060006101000a81548167ffffffffffffffff021916908367ffffffffffffffff160217905550505b8091505095945050505050565b600080820361541957600090506154fb565b6000600161542684615e0d565b901c6001901b905060018184816154405761543f6189ee565b5b048201901c90506001818481615459576154586189ee565b5b048201901c90506001818481615472576154716189ee565b5b048201901c9050600181848161548b5761548a6189ee565b5b048201901c905060018184816154a4576154a36189ee565b5b048201901c905060018184816154bd576154bc6189ee565b5b048201901c905060018184816154d6576154d56189ee565b5b048201901c90506154f7818285816154f1576154f06189ee565b5b04615eee565b9150505b919050565b60008260005281602060002001905092915050565b60005b8183101561557d57600061552c8484615f07565b90508463ffffffff1661553f8783615500565b60000160009054906101000a900463ffffffff1663ffffffff16111561556757809250615577565b600181615574919061856e565b93505b50615518565b819050949350505050565b6060600061559583615f2d565b90506000602067ffffffffffffffff8111156155b4576155b3616c66565b5b6040519080825280601f01601f1916602001820160405280156155e65781602001600182028036833780820191505090505b5090508181528360208201528092505050919050565b6000600854905090565b60006003600083815260200190815260200160002060000160199054906101000a900464ffffffffff1664ffffffffff169050919050565b600081831161564d578161564f565b825b905092915050565b60008251111561566a5781518083602001fd5b806040517f08c379a000000000000000000000000000000000000000000000000000000000815260040161569e9190616f51565b60405180910390fd5b60007f01ffc9a7000000000000000000000000000000000000000000000000000000007bffffffffffffffffffffffffffffffffffffffffffffffffffffffff1916827bffffffffffffffffffffffffffffffffffffffffffffffffffffffff1916149050919050565b60008060008580549050905060008111156159a757600061573e876001846157399190618821565b615500565b6040518060400160405290816000820160009054906101000a900463ffffffff1663ffffffff1663ffffffff1681526020016000820160049054906101000a90047bffffffffffffffffffffffffffffffffffffffffffffffffffffffff167bffffffffffffffffffffffffffffffffffffffffffffffffffffffff167bffffffffffffffffffffffffffffffffffffffffffffffffffffffff168152505090508563ffffffff16816000015163ffffffff161115615832576040517f08c379a00000000000000000000000000000000000000000000000000000000081526004016158299061958d565b60405180910390fd5b8563ffffffff16816000015163ffffffff16036158b657846158608860018561585b9190618821565b615500565b60000160046101000a8154817bffffffffffffffffffffffffffffffffffffffffffffffffffffffff02191690837bffffffffffffffffffffffffffffffffffffffffffffffffffffffff160217905550615996565b8660405180604001604052808863ffffffff168152602001877bffffffffffffffffffffffffffffffffffffffffffffffffffffffff168152509080600181540180825580915050600190039060005260206000200160009091909190915060008201518160000160006101000a81548163ffffffff021916908363ffffffff16021790555060208201518160000160046101000a8154817bffffffffffffffffffffffffffffffffffffffffffffffffffffffff02191690837bffffffffffffffffffffffffffffffffffffffffffffffffffffffff16021790555050505b806020015185935093505050615a8f565b8560405180604001604052808763ffffffff168152602001867bffffffffffffffffffffffffffffffffffffffffffffffffffffffff168152509080600181540180825580915050600190039060005260206000200160009091909190915060008201518160000160006101000a81548163ffffffff021916908363ffffffff16021790555060208201518160000160046101000a8154817bffffffffffffffffffffffffffffffffffffffffffffffffffffffff02191690837bffffffffffffffffffffffffffffffffffffffffffffffffffffffff160217905550505060008492509250505b935093915050565b60007f8b73c3c69bb8fe3d512ecc4cf759cc79239f7b179b0ffacaa9a75d522b39400f7f00000000000000000000000000000000000000000000000000000000000000007f00000000000000000000000000000000000000000000000000000000000000004630604051602001615b129594939291906195ad565b60405160208183030381529060405280519060200120905090565b600080615b3c86868686612c54565b90506000615b49826119ea565b905060026007811115615b5f57615b5e6174b4565b5b816007811115615b7257615b716174b4565b5b14158015615ba5575060066007811115615b8f57615b8e6174b4565b5b816007811115615ba257615ba16174b4565b5b14155b8015615bd55750600780811115615bbf57615bbe6174b4565b5b816007811115615bd257615bd16174b4565b5b14155b615c14576040517f08c379a0000000000000000000000000000000000000000000000000000000008152600401615c0b9061964c565b60405180910390fd5b600160036000848152602001908152602001600020600001601f6101000a81548160ff0219169083151502179055507f789cf55be980739dad1d0699b93b58e806b51c9d96619bfa8fe0a28abaa7b30c82604051615c729190616b97565b60405180910390a18192505050949350505050565b60008060036000888152602001908152602001600020905060016007811115615cb357615cb26174b4565b5b615cbc886119ea565b6007811115615cce57615ccd6174b4565b5b14615d0e576040517f08c379a0000000000000000000000000000000000000000000000000000000008152600401615d05906196de565b60405180910390fd5b6000615d37878360000160149054906101000a900464ffffffffff1664ffffffffff168661420b565b9050615d468888888488615f7d565b6000845103615da8578673ffffffffffffffffffffffffffffffffffffffff167fb8e138887d0aa13bab447e82de9d5c1777041ecd21ca36ba824ff1e6c07ddda489888489604051615d9b94939291906196fe565b60405180910390a2615dff565b8673ffffffffffffffffffffffffffffffffffffffff167fe2babfbac5889a709b63bb7f598b324e08bc5a4fb9ec647fb3cbc9ec07eb87128988848989604051615df6959493929190619794565b60405180910390a25b809250505095945050505050565b600080600090506000608084901c1115615e2f57608083901c92506080810190505b6000604084901c1115615e4a57604083901c92506040810190505b6000602084901c1115615e6557602083901c92506020810190505b6000601084901c1115615e8057601083901c92506010810190505b6000600884901c1115615e9b57600883901c92506008810190505b6000600484901c1115615eb657600483901c92506004810190505b6000600284901c1115615ed157600283901c92506002810190505b6000600184901c1115615ee5576001810190505b80915050919050565b6000818310615efd5781615eff565b825b905092915050565b60006002828418615f189190618a1d565b828416615f25919061856e565b905092915050565b60008060ff8360001c169050601f811115615f74576040517fb3512b0c00000000000000000000000000000000000000000000000000000000815260040160405180910390fd5b80915050919050565b60008211615fc0576040517f08c379a0000000000000000000000000000000000000000000000000000000008152600401615fb790619867565b60405180910390fd5b81600c600087815260200190815260200160002060008673ffffffffffffffffffffffffffffffffffffffff1673ffffffffffffffffffffffffffffffffffffffff16815260200190815260200160002060009054906101000a90046fffffffffffffffffffffffffffffffff166fffffffffffffffffffffffffffffffff1610616080576040517f08c379a0000000000000000000000000000000000000000000000000000000008152600401616077906198f9565b60405180910390fd5b600061608b836160bc565b905060008251036160a7576160a28686838761611b565b6160b4565b6160b386868385616479565b5b505050505050565b60006fffffffffffffffffffffffffffffffff8016821115616113576040517f08c379a000000000000000000000000000000000000000000000000000000000815260040161610a9061998b565b60405180910390fd5b819050919050565b6000600c600086815260200190815260200160002060008573ffffffffffffffffffffffffffffffffffffffff1673ffffffffffffffffffffffffffffffffffffffff16815260200190815260200160002060009054906101000a90046fffffffffffffffffffffffffffffffff166fffffffffffffffffffffffffffffffff16146161dc576040517f08c379a00000000000000000000000000000000000000000000000000000000081526004016161d390619a1d565b60405180910390fd5b81600c600086815260200190815260200160002060008573ffffffffffffffffffffffffffffffffffffffff1673ffffffffffffffffffffffffffffffffffffffff16815260200190815260200160002060006101000a8154816fffffffffffffffffffffffffffffffff02191690836fffffffffffffffffffffffffffffffff16021790555060006002811115616277576162766174b4565b5b60ff168160ff16036162ff5781600b600086815260200190815260200160002060000160008282829054906101000a90046fffffffffffffffffffffffffffffffff166162c49190619a3d565b92506101000a8154816fffffffffffffffffffffffffffffffff02191690836fffffffffffffffffffffffffffffffff160217905550616473565b60016002811115616313576163126174b4565b5b60ff168160ff160361639b5781600b600086815260200190815260200160002060000160108282829054906101000a90046fffffffffffffffffffffffffffffffff166163609190619a3d565b92506101000a8154816fffffffffffffffffffffffffffffffff02191690836fffffffffffffffffffffffffffffffff160217905550616472565b6002808111156163ae576163ad6174b4565b5b60ff168160ff16036164365781600b600086815260200190815260200160002060010160008282829054906101000a90046fffffffffffffffffffffffffffffffff166163fb9190619a3d565b92506101000a8154816fffffffffffffffffffffffffffffffff02191690836fffffffffffffffffffffffffffffffff160217905550616471565b6040517f08c379a000000000000000000000000000000000000000000000000000000000815260040161646890619b19565b60405180910390fd5b5b5b50505050565b60308151146164bd576040517f08c379a00000000000000000000000000000000000000000000000000000000081526004016164b490619bab565b60405180910390fd5b60008060006164cb846168ec565b9250925092506000600c600089815260200190815260200160002060008873ffffffffffffffffffffffffffffffffffffffff1673ffffffffffffffffffffffffffffffffffffffff16815260200190815260200160002060009054906101000a90046fffffffffffffffffffffffffffffffff1690506000816fffffffffffffffffffffffffffffffff16836fffffffffffffffffffffffffffffffff16856fffffffffffffffffffffffffffffffff16876fffffffffffffffffffffffffffffffff1661659a919061856e565b6165a4919061856e565b6165ae919061856e565b9050866fffffffffffffffffffffffffffffffff16811115616605576040517f08c379a00000000000000000000000000000000000000000000000000000000081526004016165fc90619a1d565b60405180910390fd5b80600c60008b815260200190815260200160002060008a73ffffffffffffffffffffffffffffffffffffffff1673ffffffffffffffffffffffffffffffffffffffff16815260200190815260200160002060006101000a8154816fffffffffffffffffffffffffffffffff02191690836fffffffffffffffffffffffffffffffff1602179055506000600b60008b81526020019081526020016000206040518060600160405290816000820160009054906101000a90046fffffffffffffffffffffffffffffffff166fffffffffffffffffffffffffffffffff166fffffffffffffffffffffffffffffffff1681526020016000820160109054906101000a90046fffffffffffffffffffffffffffffffff166fffffffffffffffffffffffffffffffff166fffffffffffffffffffffffffffffffff1681526020016001820160009054906101000a90046fffffffffffffffffffffffffffffffff166fffffffffffffffffffffffffffffffff166fffffffffffffffffffffffffffffffff1681525050905060405180606001604052808783600001516167a79190619a3d565b6fffffffffffffffffffffffffffffffff1681526020018683602001516167ce9190619a3d565b6fffffffffffffffffffffffffffffffff1681526020018583604001516167f59190619a3d565b6fffffffffffffffffffffffffffffffff16815250905080600b60008c815260200190815260200160002060008201518160000160006101000a8154816fffffffffffffffffffffffffffffffff02191690836fffffffffffffffffffffffffffffffff16021790555060208201518160000160106101000a8154816fffffffffffffffffffffffffffffffff02191690836fffffffffffffffffffffffffffffffff16021790555060408201518160010160006101000a8154816fffffffffffffffffffffffffffffffff02191690836fffffffffffffffffffffffffffffffff16021790555090505050505050505050505050565b6000806000602084015160801c925060208401516fffffffffffffffffffffffffffffffff169150604084015160801c90509193909250565b600082825260208201905092915050565b7f476f7665726e6f723a206d7573742073656e6420746f206578656375746f7200600082015250565b600061696c601f83616925565b915061697782616936565b602082019050919050565b6000602082019050818103600083015261699b8161695f565b9050919050565b6000604051905090565b600080fd5b600080fd5b6000819050919050565b6169c9816169b6565b81146169d457600080fd5b50565b6000813590506169e6816169c0565b92915050565b600060208284031215616a0257616a016169ac565b5b6000616a10848285016169d7565b91505092915050565b600073ffffffffffffffffffffffffffffffffffffffff82169050919050565b6000616a4482616a19565b9050919050565b616a5481616a39565b82525050565b600064ffffffffff82169050919050565b616a7481616a5a565b82525050565b60008115159050919050565b616a8f81616a7a565b82525050565b600060a082019050616aaa6000830188616a4b565b616ab76020830187616a6b565b616ac46040830186616a6b565b616ad16060830185616a86565b616ade6080830184616a86565b9695505050505050565b60007fffffffff0000000000000000000000000000000000000000000000000000000082169050919050565b616b1d81616ae8565b8114616b2857600080fd5b50565b600081359050616b3a81616b14565b92915050565b600060208284031215616b5657616b556169ac565b5b6000616b6484828501616b2b565b91505092915050565b6000602082019050616b826000830184616a86565b92915050565b616b91816169b6565b82525050565b6000602082019050616bac6000830184616b88565b92915050565b600060ff82169050919050565b616bc881616bb2565b8114616bd357600080fd5b50565b600081359050616be581616bbf565b92915050565b600080fd5b600080fd5b600080fd5b60008083601f840112616c1057616c0f616beb565b5b8235905067ffffffffffffffff811115616c2d57616c2c616bf0565b5b602083019150836001820283011115616c4957616c48616bf5565b5b9250929050565b600080fd5b6000601f19601f8301169050919050565b7f4e487b7100000000000000000000000000000000000000000000000000000000600052604160045260246000fd5b616c9e82616c55565b810181811067ffffffffffffffff82111715616cbd57616cbc616c66565b5b80604052505050565b6000616cd06169a2565b9050616cdc8282616c95565b919050565b600067ffffffffffffffff821115616cfc57616cfb616c66565b5b616d0582616c55565b9050602081019050919050565b82818337600083830152505050565b6000616d34616d2f84616ce1565b616cc6565b905082815260208101848484011115616d5057616d4f616c50565b5b616d5b848285616d12565b509392505050565b600082601f830112616d7857616d77616beb565b5b8135616d88848260208601616d21565b91505092915050565b6000819050919050565b616da481616d91565b8114616daf57600080fd5b50565b600081359050616dc181616d9b565b92915050565b60008060008060008060008060e0898b031215616de757616de66169ac565b5b6000616df58b828c016169d7565b9850506020616e068b828c01616bd6565b975050604089013567ffffffffffffffff811115616e2757616e266169b1565b5b616e338b828c01616bfa565b9650965050606089013567ffffffffffffffff811115616e5657616e556169b1565b5b616e628b828c01616d63565b9450506080616e738b828c01616bd6565b93505060a0616e848b828c01616db2565b92505060c0616e958b828c01616db2565b9150509295985092959890939650565b600067ffffffffffffffff82169050919050565b616ec281616ea5565b82525050565b6000602082019050616edd6000830184616eb9565b92915050565b600081519050919050565b60005b83811015616f0c578082015181840152602081019050616ef1565b60008484015250505050565b6000616f2382616ee3565b616f2d8185616925565b9350616f3d818560208601616eee565b616f4681616c55565b840191505092915050565b60006020820190508181036000830152616f6b8184616f18565b905092915050565b6000602082019050616f886000830184616a4b565b92915050565b616f9781616a39565b8114616fa257600080fd5b50565b600081359050616fb481616f8e565b92915050565b60008060008060808587031215616fd457616fd36169ac565b5b6000616fe287828801616fa5565b9450506020616ff387828801616fa5565b9350506040617004878288016169d7565b925050606085013567ffffffffffffffff811115617025576170246169b1565b5b61703187828801616d63565b91505092959194509250565b61704681616ae8565b82525050565b6000602082019050617061600083018461703d565b92915050565b600067ffffffffffffffff82111561708257617081616c66565b5b602082029050602081019050919050565b60006170a66170a184617067565b616cc6565b905080838252602082019050602084028301858111156170c9576170c8616bf5565b5b835b818110156170f257806170de8882616fa5565b8452602084019350506020810190506170cb565b5050509392505050565b600082601f83011261711157617110616beb565b5b8135617121848260208601617093565b91505092915050565b600067ffffffffffffffff82111561714557617144616c66565b5b602082029050602081019050919050565b60006171696171648461712a565b616cc6565b9050808382526020820190506020840283018581111561718c5761718b616bf5565b5b835b818110156171b557806171a188826169d7565b84526020840193505060208101905061718e565b5050509392505050565b600082601f8301126171d4576171d3616beb565b5b81356171e4848260208601617156565b91505092915050565b600067ffffffffffffffff82111561720857617207616c66565b5b602082029050602081019050919050565b600061722c617227846171ed565b616cc6565b9050808382526020820190506020840283018581111561724f5761724e616bf5565b5b835b8181101561729657803567ffffffffffffffff81111561727457617273616beb565b5b8086016172818982616d63565b85526020850194505050602081019050617251565b5050509392505050565b600082601f8301126172b5576172b4616beb565b5b81356172c5848260208601617219565b91505092915050565b600080600080608085870312156172e8576172e76169ac565b5b600085013567ffffffffffffffff811115617306576173056169b1565b5b617312878288016170fc565b945050602085013567ffffffffffffffff811115617333576173326169b1565b5b61733f878288016171bf565b935050604085013567ffffffffffffffff8111156173605761735f6169b1565b5b61736c878288016172a0565b925050606061737d87828801616db2565b91505092959194509250565b61739281616d91565b82525050565b60006020820190506173ad6000830184617389565b92915050565b600080604083850312156173ca576173c96169ac565b5b60006173d8858286016169d7565b92505060206173e985828601616fa5565b9150509250929050565b60006fffffffffffffffffffffffffffffffff82169050919050565b617418816173f3565b82525050565b6000602082019050617433600083018461740f565b92915050565b600080600080600060a08688031215617455576174546169ac565b5b6000617463888289016169d7565b955050602061747488828901616bd6565b945050604061748588828901616bd6565b935050606061749688828901616db2565b92505060806174a788828901616db2565b9150509295509295909350565b7f4e487b7100000000000000000000000000000000000000000000000000000000600052602160045260246000fd5b600881106174f4576174f36174b4565b5b50565b6000819050617505826174e3565b919050565b6000617515826174f7565b9050919050565b6175258161750a565b82525050565b6000602082019050617540600083018461751c565b92915050565b6000819050919050565b600061756b61756661756184616a19565b617546565b616a19565b9050919050565b600061757d82617550565b9050919050565b600061758f82617572565b9050919050565b61759f81617584565b82525050565b60006020820190506175ba6000830184617596565b92915050565b60006060820190506175d56000830186616b88565b6175e26020830185616b88565b6175ef6040830184616b88565b949350505050565b6000806040838503121561760e5761760d6169ac565b5b600061761c858286016169d7565b925050602061762d85828601616bd6565b9150509250929050565b600080600080600060808688031215617653576176526169ac565b5b6000617661888289016169d7565b955050602061767288828901616bd6565b945050604086013567ffffffffffffffff811115617693576176926169b1565b5b61769f88828901616bfa565b9350935050606086013567ffffffffffffffff8111156176c2576176c16169b1565b5b6176ce88828901616d63565b9150509295509295909350565b60008083601f8401126176f1576176f0616beb565b5b8235905067ffffffffffffffff81111561770e5761770d616bf0565b5b60208301915083602082028301111561772a57617729616bf5565b5b9250929050565b60008083601f84011261774757617746616beb565b5b8235905067ffffffffffffffff81111561776457617763616bf0565b5b6020830191508360208202830111156177805761777f616bf5565b5b9250929050565b600080600080604085870312156177a1576177a06169ac565b5b600085013567ffffffffffffffff8111156177bf576177be6169b1565b5b6177cb878288016176db565b9450945050602085013567ffffffffffffffff8111156177ee576177ed6169b1565b5b6177fa87828801617731565b925092505092959194509250565b60008060008060608587031215617822576178216169ac565b5b6000617830878288016169d7565b945050602061784187828801616bd6565b935050604085013567ffffffffffffffff811115617862576178616169b1565b5b61786e87828801616bfa565b925092505092959194509250565b600067ffffffffffffffff82111561789757617896616c66565b5b6178a082616c55565b9050602081019050919050565b60006178c06178bb8461787c565b616cc6565b9050828152602081018484840111156178dc576178db616c50565b5b6178e7848285616d12565b509392505050565b600082601f83011261790457617903616beb565b5b81356179148482602086016178ad565b91505092915050565b60008060008060808587031215617937576179366169ac565b5b600085013567ffffffffffffffff811115617955576179546169b1565b5b617961878288016170fc565b945050602085013567ffffffffffffffff811115617982576179816169b1565b5b61798e878288016171bf565b935050604085013567ffffffffffffffff8111156179af576179ae6169b1565b5b6179bb878288016172a0565b925050606085013567ffffffffffffffff8111156179dc576179db6169b1565b5b6179e8878288016178ef565b91505092959194509250565b60007fff0000000000000000000000000000000000000000000000000000000000000082169050919050565b617a29816179f4565b82525050565b600081519050919050565b600082825260208201905092915050565b6000819050602082019050919050565b617a64816169b6565b82525050565b6000617a768383617a5b565b60208301905092915050565b6000602082019050919050565b6000617a9a82617a2f565b617aa48185617a3a565b9350617aaf83617a4b565b8060005b83811015617ae0578151617ac78882617a6a565b9750617ad283617a82565b925050600181019050617ab3565b5085935050505092915050565b600060e082019050617b02600083018a617a20565b8181036020830152617b148189616f18565b90508181036040830152617b288188616f18565b9050617b376060830187616b88565b617b446080830186616a4b565b617b5160a0830185617389565b81810360c0830152617b638184617a8f565b905098975050505050505050565b600065ffffffffffff82169050919050565b617b8c81617b71565b82525050565b6000602082019050617ba76000830184617b83565b92915050565b600080600060608486031215617bc657617bc56169ac565b5b6000617bd486828701616fa5565b9350506020617be5868287016169d7565b925050604084013567ffffffffffffffff811115617c0657617c056169b1565b5b617c1286828701616d63565b9150509250925092565b6000617c2782616a19565b9050919050565b6000617c3982617c1c565b9050919050565b617c4981617c2e565b8114617c5457600080fd5b50565b600081359050617c6681617c40565b92915050565b600060208284031215617c8257617c816169ac565b5b6000617c9084828501617c57565b91505092915050565b600060208284031215617caf57617cae6169ac565b5b6000617cbd84828501616fa5565b91505092915050565b600080600080600060a08688031215617ce257617ce16169ac565b5b6000617cf088828901616fa5565b9550506020617d0188828901616fa5565b945050604086013567ffffffffffffffff811115617d2257617d216169b1565b5b617d2e888289016171bf565b935050606086013567ffffffffffffffff811115617d4f57617d4e6169b1565b5b617d5b888289016171bf565b925050608086013567ffffffffffffffff811115617d7c57617d7b6169b1565b5b617d8888828901616d63565b9150509295509295909350565b60008083601f840112617dab57617daa616beb565b5b8235905067ffffffffffffffff811115617dc857617dc7616bf0565b5b602083019150836001820283011115617de457617de3616bf5565b5b9250929050565b60008060008060608587031215617e0557617e046169ac565b5b6000617e1387828801616fa5565b9450506020617e24878288016169d7565b935050604085013567ffffffffffffffff811115617e4557617e446169b1565b5b617e5187828801617d95565b925092505092959194509250565b617e6881616ea5565b8114617e7357600080fd5b50565b600081359050617e8581617e5f565b92915050565b600060208284031215617ea157617ea06169ac565b5b6000617eaf84828501617e76565b91505092915050565b6000617ec382617550565b9050919050565b6000617ed582617eb8565b9050919050565b617ee581617eca565b82525050565b6000602082019050617f006000830184617edc565b92915050565b60008060408385031215617f1d57617f1c6169ac565b5b6000617f2b85828601616fa5565b9250506020617f3c858286016169d7565b9150509250929050565b600080600080600060a08688031215617f6257617f616169ac565b5b6000617f7088828901616fa5565b9550506020617f8188828901616fa5565b9450506040617f92888289016169d7565b9350506060617fa3888289016169d7565b925050608086013567ffffffffffffffff811115617fc457617fc36169b1565b5b617fd088828901616d63565b9150509295509295909350565b6000617fe882617572565b9050919050565b617ff881617fdd565b82525050565b60006020820190506180136000830184617fef565b92915050565b7f476f7665726e6f723a206f6e6c79476f7665726e616e63650000000000000000600082015250565b600061804f601883616925565b915061805a82618019565b602082019050919050565b6000602082019050818103600083015261807e81618042565b9050919050565b600081905092915050565b600061809c8385618085565b93506180a9838584616d12565b82840190509392505050565b60006180c2828486618090565b91508190509392505050565b7f4e487b7100000000000000000000000000000000000000000000000000000000600052602260045260246000fd5b6000600282049050600182168061811557607f821691505b602082108103618128576181276180ce565b5b50919050565b7f476f7665726e6f723a2070726f706f73616c206e6f742073756363657373667560008201527f6c00000000000000000000000000000000000000000000000000000000000000602082015250565b600061818a602183616925565b91506181958261812e565b604082019050919050565b600060208201905081810360008301526181b98161817d565b9050919050565b6000815190506181cf816169c0565b92915050565b6000602082840312156181eb576181ea6169ac565b5b60006181f9848285016181c0565b91505092915050565b600081519050919050565b600082825260208201905092915050565b6000819050602082019050919050565b61823781616a39565b82525050565b6000618249838361822e565b60208301905092915050565b6000602082019050919050565b600061826d82618202565b618277818561820d565b93506182828361821e565b8060005b838110156182b357815161829a888261823d565b97506182a583618255565b925050600181019050618286565b5085935050505092915050565b600081519050919050565b600082825260208201905092915050565b6000819050602082019050919050565b600081519050919050565b600082825260208201905092915050565b6000618313826182ec565b61831d81856182f7565b935061832d818560208601616eee565b61833681616c55565b840191505092915050565b600061834d8383618308565b905092915050565b6000602082019050919050565b600061836d826182c0565b61837781856182cb565b935083602082028501618389856182dc565b8060005b858110156183c557848403895281516183a68582618341565b94506183b183618355565b925060208a0199505060018101905061838d565b50829750879550505050505092915050565b6000819050919050565b60008160001b9050919050565b60006184096184046183ff846183d7565b6183e1565b616d91565b9050919050565b618419816183ee565b82525050565b600060a08201905081810360008301526184398188618262565b9050818103602083015261844d8187617a8f565b905081810360408301526184618186618362565b90506184706060830185618410565b61847d6080830184617389565b9695505050505050565b60008151905061849681616d9b565b92915050565b6000602082840312156184b2576184b16169ac565b5b60006184c084828501618487565b91505092915050565b600060c08201905081810360008301526184e38189618262565b905081810360208301526184f78188617a8f565b9050818103604083015261850b8187618362565b905061851a6060830186618410565b6185276080830185617389565b61853460a0830184616b88565b979650505050505050565b7f4e487b7100000000000000000000000000000000000000000000000000000000600052601160045260246000fd5b6000618579826169b6565b9150618584836169b6565b925082820190508082111561859c5761859b61853f565b5b92915050565b60006040820190506185b76000830185616b88565b6185c46020830184616b88565b9392505050565b6185d481616bb2565b82525050565b60006060820190506185ef6000830186617389565b6185fc6020830185616b88565b61860960408301846185cb565b949350505050565b61861a81616a7a565b811461862557600080fd5b50565b60008151905061863781618611565b92915050565b600060208284031215618653576186526169ac565b5b600061866184828501618628565b91505092915050565b7f476f7665726e6f723a20746f6f206c61746520746f2063616e63656c00000000600082015250565b60006186a0601c83616925565b91506186ab8261866a565b602082019050919050565b600060208201905081810360008301526186cf81618693565b9050919050565b7f476f7665726e6f723a206f6e6c792070726f706f7365722063616e2063616e6360008201527f656c000000000000000000000000000000000000000000000000000000000000602082015250565b6000618732602283616925565b915061873d826186d6565b604082019050919050565b6000602082019050818103600083015261876181618725565b9050919050565b600061877b6187768461787c565b616cc6565b90508281526020810184848401111561879757618796616c50565b5b6187a2848285616eee565b509392505050565b600082601f8301126187bf576187be616beb565b5b81516187cf848260208601618768565b91505092915050565b6000602082840312156187ee576187ed6169ac565b5b600082015167ffffffffffffffff81111561880c5761880b6169b1565b5b618818848285016187aa565b91505092915050565b600061882c826169b6565b9150618837836169b6565b925082820390508181111561884f5761884e61853f565b5b92915050565b7f4e487b7100000000000000000000000000000000000000000000000000000000600052603260045260246000fd5b60006020828403121561889a576188996169ac565b5b60006188a884828501616bd6565b91505092915050565b60006188bc826169b6565b91507fffffffffffffffffffffffffffffffffffffffffffffffffffffffffffffffff82036188ee576188ed61853f565b5b600182019050919050565b61890281617b71565b811461890d57600080fd5b50565b60008151905061891f816188f9565b92915050565b60006020828403121561893b5761893a6169ac565b5b600061894984828501618910565b91505092915050565b6000608082019050818103600083015261896c8187618262565b905081810360208301526189808186617a8f565b905081810360408301526189948185618362565b90506189a36060830184617389565b95945050505050565b60006189b7826169b6565b91506189c2836169b6565b92508282026189d0816169b6565b915082820484148315176189e7576189e661853f565b5b5092915050565b7f4e487b7100000000000000000000000000000000000000000000000000000000600052601260045260246000fd5b6000618a28826169b6565b9150618a33836169b6565b925082618a4357618a426189ee565b5b828204905092915050565b7f476f7665726e6f72566f74657351756f72756d4672616374696f6e3a2071756f60008201527f72756d4e756d657261746f72206f7665722071756f72756d44656e6f6d696e6160208201527f746f720000000000000000000000000000000000000000000000000000000000604082015250565b6000618ad0604383616925565b9150618adb82618a4e565b606082019050919050565b60006020820190508181036000830152618aff81618ac3565b9050919050565b7f476f7665726e6f723a20756e6b6e6f776e2070726f706f73616c206964000000600082015250565b6000618b3c601d83616925565b9150618b4782618b06565b602082019050919050565b60006020820190508181036000830152618b6b81618b2f565b9050919050565b7f53616665436173743a2076616c756520646f65736e27742066697420696e203360008201527f3220626974730000000000000000000000000000000000000000000000000000602082015250565b6000618bce602683616925565b9150618bd982618b72565b604082019050919050565b60006020820190508181036000830152618bfd81618bc1565b9050919050565b7f476f7665726e6f723a20696e76616c69642070726f706f73616c206c656e677460008201527f6800000000000000000000000000000000000000000000000000000000000000602082015250565b6000618c60602183616925565b9150618c6b82618c04565b604082019050919050565b60006020820190508181036000830152618c8f81618c53565b9050919050565b7f476f7665726e6f723a20656d7074792070726f706f73616c0000000000000000600082015250565b6000618ccc601883616925565b9150618cd782618c96565b602082019050919050565b60006020820190508181036000830152618cfb81618cbf565b9050919050565b7f476f7665726e6f723a2070726f706f73616c20616c726561647920657869737460008201527f7300000000000000000000000000000000000000000000000000000000000000602082015250565b6000618d5e602183616925565b9150618d6982618d02565b604082019050919050565b60006020820190508181036000830152618d8d81618d51565b9050919050565b600081519050919050565b600082825260208201905092915050565b6000819050602082019050919050565b600082825260208201905092915050565b6000618ddc82616ee3565b618de68185618dc0565b9350618df6818560208601616eee565b618dff81616c55565b840191505092915050565b6000618e168383618dd1565b905092915050565b6000602082019050919050565b6000618e3682618d94565b618e408185618d9f565b935083602082028501618e5285618db0565b8060005b85811015618e8e5784840389528151618e6f8582618e0a565b9450618e7a83618e1e565b925060208a01995050600181019050618e56565b50829750879550505050505092915050565b600061012082019050618eb6600083018c616b88565b618ec3602083018b616a4b565b8181036040830152618ed5818a618262565b90508181036060830152618ee98189617a8f565b90508181036080830152618efd8188618e2b565b905081810360a0830152618f118187618362565b9050618f2060c0830186616b88565b618f2d60e0830185616b88565b818103610100830152618f408184616f18565b90509a9950505050505050505050565b7f53616665436173743a2076616c756520646f65736e27742066697420696e203460008201527f3820626974730000000000000000000000000000000000000000000000000000602082015250565b6000618fac602683616925565b9150618fb782618f50565b604082019050919050565b60006020820190508181036000830152618fdb81618f9f565b9050919050565b6000604082019050618ff76000830185616a4b565b6190046020830184616b88565b9392505050565b60006040820190506190206000830185616a4b565b61902d6020830184616a4b565b9392505050565b60006040820190506190496000830185616eb9565b6190566020830184616eb9565b9392505050565b7f476f7665726e6f7253657474696e67733a20766f74696e6720706572696f642060008201527f746f6f206c6f7700000000000000000000000000000000000000000000000000602082015250565b60006190b9602783616925565b91506190c48261905d565b604082019050919050565b600060208201905081810360008301526190e8816190ac565b9050919050565b7f476f7665726e6f72436f756e74696e674672616374696f6e616c3a20696e766160008201527f6c696420706172616d7320666f72207369676e61747572652d6261736564207660208201527f6f74650000000000000000000000000000000000000000000000000000000000604082015250565b6000619171604383616925565b915061917c826190ef565b606082019050919050565b600060208201905081810360008301526191a081619164565b9050919050565b600060a0820190506191bc6000830188617389565b6191c96020830187616b88565b6191d660408301866185cb565b6191e36060830185617389565b6191f06080830184617389565b9695505050505050565b7f476f7665726e6f72436f756e74696e674672616374696f6e616c3a207369676e60008201527f61747572652068617320616c7265616479206265656e20757365640000000000602082015250565b6000619256603b83616925565b9150619261826191fa565b604082019050919050565b6000602082019050818103600083015261928581619249565b9050919050565b6000619297826173f3565b91506fffffffffffffffffffffffffffffffff82036192b9576192b861853f565b5b600182019050919050565b7f53616665436173743a2076616c756520646f65736e27742066697420696e203260008201527f3234206269747300000000000000000000000000000000000000000000000000602082015250565b6000619320602783616925565b915061932b826192c4565b604082019050919050565b6000602082019050818103600083015261934f81619313565b9050919050565b600060808201905061936b6000830187617389565b61937860208301866185cb565b6193856040830185617389565b6193926060830184617389565b95945050505050565b7f45434453413a20696e76616c6964207369676e61747572650000000000000000600082015250565b60006193d1601883616925565b91506193dc8261939b565b602082019050919050565b60006020820190508181036000830152619400816193c4565b9050919050565b7f45434453413a20696e76616c6964207369676e6174757265206c656e67746800600082015250565b600061943d601f83616925565b915061944882619407565b602082019050919050565b6000602082019050818103600083015261946c81619430565b9050919050565b7f45434453413a20696e76616c6964207369676e6174757265202773272076616c60008201527f7565000000000000000000000000000000000000000000000000000000000000602082015250565b60006194cf602283616925565b91506194da82619473565b604082019050919050565b600060208201905081810360008301526194fe816194c2565b9050919050565b600061951082616ea5565b915061951b83616ea5565b9250828201905067ffffffffffffffff81111561953b5761953a61853f565b5b92915050565b7f436865636b706f696e743a2064656372656173696e67206b6579730000000000600082015250565b6000619577601b83616925565b915061958282619541565b602082019050919050565b600060208201905081810360008301526195a68161956a565b9050919050565b600060a0820190506195c26000830188617389565b6195cf6020830187617389565b6195dc6040830186617389565b6195e96060830185616b88565b6195f66080830184616a4b565b9695505050505050565b7f476f7665726e6f723a2070726f706f73616c206e6f7420616374697665000000600082015250565b6000619636601d83616925565b915061964182619600565b602082019050919050565b6000602082019050818103600083015261966581619629565b9050919050565b7f476f7665726e6f723a20766f7465206e6f742063757272656e746c792061637460008201527f6976650000000000000000000000000000000000000000000000000000000000602082015250565b60006196c8602383616925565b91506196d38261966c565b604082019050919050565b600060208201905081810360008301526196f7816196bb565b9050919050565b60006080820190506197136000830187616b88565b61972060208301866185cb565b61972d6040830185616b88565b818103606083015261973f8184616f18565b905095945050505050565b600082825260208201905092915050565b6000619766826182ec565b619770818561974a565b9350619780818560208601616eee565b61978981616c55565b840191505092915050565b600060a0820190506197a96000830188616b88565b6197b660208301876185cb565b6197c36040830186616b88565b81810360608301526197d58185616f18565b905081810360808301526197e9818461975b565b90509695505050505050565b7f476f7665726e6f72436f756e74696e674672616374696f6e616c3a206e6f207760008201527f6569676874000000000000000000000000000000000000000000000000000000602082015250565b6000619851602583616925565b915061985c826197f5565b604082019050919050565b6000602082019050818103600083015261988081619844565b9050919050565b7f476f7665726e6f72436f756e74696e674672616374696f6e616c3a20616c6c2060008201527f7765696768742063617374000000000000000000000000000000000000000000602082015250565b60006198e3602b83616925565b91506198ee82619887565b604082019050919050565b60006020820190508181036000830152619912816198d6565b9050919050565b7f53616665436173743a2076616c756520646f65736e27742066697420696e203160008201527f3238206269747300000000000000000000000000000000000000000000000000602082015250565b6000619975602783616925565b915061998082619919565b604082019050919050565b600060208201905081810360008301526199a481619968565b9050919050565b7f476f7665726e6f72436f756e74696e674672616374696f6e616c3a20766f746560008201527f20776f756c642065786365656420776569676874000000000000000000000000602082015250565b6000619a07603483616925565b9150619a12826199ab565b604082019050919050565b60006020820190508181036000830152619a36816199fa565b9050919050565b6000619a48826173f3565b9150619a53836173f3565b925082820190506fffffffffffffffffffffffffffffffff811115619a7b57619a7a61853f565b5b92915050565b7f476f7665726e6f72436f756e74696e674672616374696f6e616c3a20696e766160008201527f6c696420737570706f72742076616c75652c206d75737420626520696e636c7560208201527f64656420696e20566f74655479706520656e756d000000000000000000000000604082015250565b6000619b03605483616925565b9150619b0e82619a81565b606082019050919050565b60006020820190508181036000830152619b3281619af6565b9050919050565b7f476f7665726e6f72436f756e74696e674672616374696f6e616c3a20696e766160008201527f6c696420766f7465446174610000000000000000000000000000000000000000602082015250565b6000619b95602c83616925565b9150619ba082619b39565b604082019050919050565b60006020820190508181036000830152619bc481619b88565b905091905056fe476f7665726e6f723a2072656c617920726576657274656420776974686f7574206d657373616765737570706f72743d627261766f2671756f72756d3d616761696e73742c6162737461696e2671756f72756d3d666f722c6162737461696e26706172616d733d6672616374696f6e616ca164736f6c6343000813000a",
    "linkReferences": {}
  },
  "methodIdentifiers": {
    "$extendedDeadlines(uint256)": "05ddb8ac",
    "$snapshotTimestampToSnapshotBlockNumber(uint256)": "d914e172",
    "$timelock()": "da22f06e",
    "$timelockIds(uint256)": "9e2cf01e",
    "$voteExtension()": "c4e1da70",
    "$votingDelayBlocks()": "a89f2638",
    "BALLOT_TYPEHASH()": "deaaa7cc",
    "CLOCK_MODE()": "4bf5d7e9",
    "COUNTING_MODE()": "dd4e2ba5",
    "EXTENDED_BALLOT_TYPEHASH()": "2fe3e261",
    "VE_FXS()": "506d1f81",
    "bulkCastVote(uint256[],uint8[])": "77d76602",
    "cancel(address[],uint256[],bytes[],bytes32)": "452115d6",
    "castVote(uint256,uint8)": "56781388",
    "castVoteBySig(uint256,uint8,uint8,bytes32,bytes32)": "3bccf4fd",
    "castVoteWithReason(uint256,uint8,string)": "7b3c71d3",
    "castVoteWithReasonAndParams(uint256,uint8,string,bytes)": "5f398a14",
    "castVoteWithReasonAndParamsBySig(uint256,uint8,string,bytes,uint8,bytes32,bytes32)": "03420181",
    "clock()": "91ddadf4",
    "eip712Domain()": "84b0196e",
    "execute(address[],uint256[],bytes[],bytes32)": "2656227d",
    "fractionalVoteNonce(address)": "df482caf",
    "getVotes(address,uint256)": "eb9019d4",
    "getVotesWithParams(address,uint256,bytes)": "9a802a6d",
    "hasVoted(uint256,address)": "43859632",
    "hashProposal(address[],uint256[],bytes[],bytes32)": "c59057e4",
    "lateQuorumVoteExtension()": "32b8113e",
    "name()": "06fdde03",
    "onERC1155BatchReceived(address,address,uint256[],uint256[],bytes)": "bc197c81",
    "onERC1155Received(address,address,uint256,uint256,bytes)": "f23a6e61",
    "onERC721Received(address,address,uint256,bytes)": "150b7a02",
    "proposalDeadline(uint256)": "c01f9e37",
    "proposalEta(uint256)": "ab58fb8e",
    "proposalProposer(uint256)": "143489d0",
    "proposalSnapshot(uint256)": "2d63f693",
    "proposalThreshold()": "b58131b0",
    "proposalVotes(uint256)": "544ffc9c",
    "proposals(uint256)": "013cf08b",
    "propose(address[],uint256[],bytes[],string)": "7d5e81e2",
    "queue(address[],uint256[],bytes[],bytes32)": "160cbed7",
    "quorum(uint256)": "f8ce560a",
    "quorumDenominator()": "97c3d334",
    "quorumNumerator()": "a7713a70",
    "quorumNumerator(uint256)": "60c4247f",
    "relay(address,uint256,bytes)": "c28bc2fa",
    "setLateQuorumVoteExtension(uint64)": "d07f91e9",
    "setProposalThreshold(uint256)": "ece40cc1",
    "setVeFxsVotingDelegation(address)": "aa75a3c2",
    "setVotingDelay(uint256)": "70b0f660",
    "setVotingDelayBlocks(uint256)": "64cda3d4",
    "setVotingPeriod(uint256)": "ea0217cf",
    "shortCircuitNumerator()": "ccb8370b",
    "shortCircuitNumerator(uint256)": "dfc3c9e7",
    "shortCircuitThreshold(uint256)": "ec2de58b",
    "state(uint256)": "3e4f49e6",
    "supportsInterface(bytes4)": "01ffc9a7",
    "timelock()": "d33219b4",
    "token()": "fc0c546a",
    "updateQuorumNumerator(uint256)": "06f3f9e6",
    "updateShortCircuitNumerator(uint256)": "43ec3e09",
    "updateTimelock(address)": "a890c910",
    "version()": "54fd4d50",
    "voteWeightCast(uint256,address)": "342cfab6",
    "votingDelay()": "3932abb1",
    "votingPeriod()": "02a251a3"
  },
  "id": 84
}